:020000040001F9
:10B00000F83F0020D5B00100EFB00100F1B0010021
:10B010000000000000000000000000000000000030
:10B02000000000000000000000000000F3B001007C
:10B030000000000000000000F5B00100F7B00100C2
:10B04000C5B8010001BA010091BC010039BB010083
:10B05000F9B0010000000000F5B30100F5B20100F5
:10B0600061BC010079BC0100F9B00100F9B0010038
:10B07000F9B0010081BA0100F9B00100F9B0010096
:10B08000F9B0010011BB010019B90100F9B00100CC
:10B0900051BB0100F9B0010059BB01008DBB01009B
:10B0A000F9B00100F9B0010000000000000000004C
:10B0B0000000000000000000000000000000000090
:10B0C0000348854600F0B8F800480047892B020085
:10B0D000F83F00200321094802680A43026008483B
:10B0E00002680A4302600748804707480047FEE7B6
:10B0F000FEE7FEE7FEE7FEE7FEE70000240500406E
:10B1000054050040FDBB0100C1B0010030B50B4645
:10B11000014600202022012409E00D46D5409D4231
:10B1200005D31D469540491B2546954040191546B7
:10B13000521E002DF1DC30BD70B5002425460028DC
:10B1400001DA01244042002901DA01254942FFF7D2
:10B15000DDFFAC4200D04042002C00D0494270BD1F
:10B1600000487047ACD0020003460B439B0703D056
:10B1700009E008C9121F08C0042AFAD203E00B78BC
:10B180000370401C491C521EF9D27047D2B201E034
:10B190000270401C491EFBD270470022F6E710B532
:10B1A00013460A4604461946FFF7F0FF204610BD35
:10B1B000421C0178401C0029FBD1801A704730B531
:10B1C00004460020034600E05B1C934203D2E05C8F
:10B1D000CD5C401BF8D030BDF0B51FB40646002052
:10B1E00082B005464024019100901BE0019922465F
:10B1F0000F46304600F042F8049A059B801A9941A8
:10B2000010D310461946224600F028F8361A8F410E
:10B210000197224601200021009F00F01FF83818F6
:10B220004D4100902046641E0028DFDC019B009801
:10B230002946324607B0F0BD064C0125064E05E012
:10B24000E36807CC2B430C3C98471034B442F7D347
:10B25000FFF73AFF00D1020020D1020010B5202AEA
:10B2600004DB0146203A9140002010BD914020238C
:10B270009C1A0346E3401943904010BD10B5202AA4
:10B2800004DB0846203AD040002110BD0B46D340D5
:10B29000D0402024A21A91400843194610BD70B531
:10B2A0008C180578401C6B075B0F01D10378401C9C
:10B2B0002A1106D10278401C03E006780E70401C6B
:10B2C000491C5B1EF9D12B0705D40023521E0DD457
:10B2D0000B70491CFAE70378401CCB1A921C03E060
:10B2E0001D780D70491C5B1C521EF9D5A142D8D3A4
:10B2F000002070BD0EB51D48C06800281CD1FF207D
:10B30000013009F059F9012009F05EF900BF002071
:10B310001749086000BF01216846017000BF14484A
:10B32000806801B26846818001201049887408460F
:10B3300001686846884718E000F08CFF002814D0A8
:10B34000012009F041F90020694608700748C068EB
:10B3500001900648017C68460181012003498874F8
:10B36000084601686846884700BF0EBDF42E0020DD
:10B37000007500407FB5002511F04EFA194908709C
:10B3800025E0194809F094FE11F0C6F8174B0FCBD1
:10B390006C460FC41A216846C1701E2181701921A4
:10B3A00041701821017000BF114A69460E4809F02A
:10B3B000B3FD0446002C04D000BF204601F0C6FABD
:10B3C00000BF00BF11F028FA0649087000BF054809
:10B3D0000078002804D12846691C4DB20328D0DB30
:10B3E0007FBD000079210020ACCC0200FCCD020022
:10B3F00051B40200F0B58FB000200E900D90FF20E8
:10B4000001300C900126002416E00C980AF07EFB17
:10B4100000280BD000BF924840683040002805D07B
:10B420000C980AF06BFB0E9830430E9076000C9847
:10B43000001D80B20C90641C042CE6D3FF207D30EC
:10B440000AF064FB00280DD0FF207D300AF056FB87
:10B450000121C9070E9808430E900DAA0121002072
:10B460000AF02EFB0E980007000F00282CD00126B2
:10B47000002427E00E983040002821D000BF7948F2
:10B48000512109014018A10040581F21090208401C
:10B49000000A074600BF7348512109014018A10066
:10B4A0004058032109040840000C0B90204603F08B
:10B4B000A9FE0546002D02D038460B99A84700BFCB
:10B4C0007600641C042CD5D30E98C00FC00700284A
:10B4D00076D000200B900A90002505E00020C043A4
:10B4E000A90009AA50506D1C002DF7D000BF002004
:10B4F0000B9000247AE05C48005D0890C021089819
:10B500008843074658480057401C00286DD009A9B9
:10B51000384609F065F8002867D0C021089808402F
:10B5200080110790384603F0B1FE059003F06AFEE3
:10B5300006900698002802D10798032854D107984E
:10B54000032815D10AA803970290039FF9080191D7
:10B55000039F7907490F039101990298415C0123E8
:10B56000039A93401943CAB20199425400BF00BFE5
:10B5700000BF00BF052109070846B90007221202D3
:10B5800082185158032212041140090C05910DA98B
:10B59000384609F025F804900498002802D0059850
:10B5A000022805D0049800281DD1059803281AD137
:10B5B0000798032810D10598022802D1032001E042
:10B5C0004BE002200390384603990AF0DCF90B980F
:10B5D000401CC0B20B9000BF0698002803D038462C
:10B5E000069A0799904700BF00BF641C082C82D3BD
:10B5F0000B9800282CD0012708AA012100200AF06E
:10B600005FFA00250AE0A80008A90858A9000DAAB9
:10B610005158884201D0002702E06D1C002DF2D065
:10B6200000BF002F02D000200B9010E000250CE09E
:10B63000A80008A90858A9000DAA5050A8000AA9F6
:10B640000858A90009AA50506D1C002DF0D000BF69
:10B650000B98002800D04AE700BF0FB0F0BD0000F3
:10B660000063004000600040642E002020BF40BF07
:10B6700020BF7047C206D20E01219140014A1160DD
:10B680007047000080E200E0C206D20E0121914026
:10B69000014A11607047000080E200E0C206D20E4D
:10B6A00001219140014A11607047000080E100E0F3
:10B6B000C206D20E01219140014A1160704700007C
:10B6C00080E100E0C206D20E01219140014A1160E2
:10B6D0007047000000E100E0C206D20E0121914057
:10B6E000014A11607047000000E100E0C206D20E7E
:10B6F00001219140014A11607047000000E100E023
:10B70000C206D20E01219140014A1160704700002B
:10B7100000E200E0C206D20E01219140014A116010
:10B720007047000000E200E010B5002819DA1A4A5C
:10B7300003071B0F083B9B089B00D2588307DC0EB6
:10B74000FF23A3409A438B071B0E8407E40EA340FC
:10B750001A43114B0407240F083CA408A4001A51F3
:10B7600018E00E4A03231B02D21883089B00D2580C
:10B770008307DC0EFF23A3409A438B071B0E84072D
:10B78000E40EA3401A43054B032424021B1984082A
:10B79000A4001A5110BD00001CED00E000E100E023
:10B7A00010B5002819DA1A4A03071B0F083B9B083B
:10B7B0009B00D2588307DC0EFF23A3409A438B07DC
:10B7C0001B0E8407E40EA3401A43114B0407240FF9
:10B7D000083CA408A4001A5118E00E4A03231B02D7
:10B7E000D21883089B00D2588307DC0EFF23A340A6
:10B7F0009A438B071B0E8407E40EA3401A43054BA4
:10B80000032424021B198408A4001A5110BD00004F
:10B810001CED00E000E100E010B5002819DA1A4A3A
:10B8200003071B0F083B9B089B00D2588307DC0EC5
:10B83000FF23A3409A438B071B0E8407E40EA3400B
:10B840001A43114B0407240F083CA408A4001A5102
:10B8500018E00E4A03231B02D21883089B00D2581B
:10B860008307DC0EFF23A3409A438B071B0E84073C
:10B87000E40EA3401A43054B032424021B19840839
:10B88000A4001A5110BD00001CED00E000E100E032
:10B8900000BF00BF00BFBFF34F8F00BF00BF00BF9E
:10B8A00006480749C86000BF00BF00BFBFF34F8F05
:10B8B00000BF00BF00BF00BF00BFFDE70400FA05E6
:10B8C00000ED00E010B5FF20013008F094FE0028E4
:10B8D0000CD0FF20013008F099FE012008F09CFEFA
:10B8E00001200C494870002003F002FEFF200530C3
:10B8F00008F081FE00280BD0FF20053008F086FEFE
:10B90000022008F089FE01200249887003F0F0FD52
:10B9100010BD0000002E00201CB500BFFF2001302C
:10B9200034494018006800281AD001200AF05EFC53
:10B93000002815D000BF0021FF2001302D4A8018BB
:10B94000016000BF91156846018000BF2A48C068A9
:10B9500041B268468170294A01990098126890475F
:10B9600000BFFF200530234940180068002822D07E
:10B9700002200AF03BFC00281DD000BF0021FF2060
:10B9800005301C4A8018016000BFFF210531684660
:10B99000018000BF1848806901B26846418000BF3D
:10B9A00015484030806881B268468180134A019909
:10B9B00000981268904700BFFF2009300D494018D9
:10B9C0000068002815D004200AF010FC002810D0D0
:10B9D00000BF0020FF210931064A8918086000BF16
:10B9E000FF20093069460880044A019900981268CE
:10B9F00090471CBD0020014000250140A0220020EE
:10BA000010B51B480068002808D01A484068C007D5
:10BA1000C00F002802D00020154908601448C068F3
:10BA200000280FD01348406808210840002809D09A
:10BA300000200F49C86010480068002802D00E4856
:10BA4000006880470A48006900280FD0094840680C
:10BA500010210840002809D0002005490861074846
:10BA60000068002802D005480068804710BD00002B
:10BA700000110040001300406C23002068230020C8
:10BA80001CB50020019001A801F008F90FF0CCFCD2
:10BA9000002830D100BFFF2001301949401800684C
:10BAA000002801D0012000E00020002823D0012040
:10BAB000144989680140002901D0012100E00021DA
:10BAC000002918D000BF0020FF2101310C4A89183D
:10BAD000086000BF00BF0C488068C0B20090694693
:10BAE0000A480AF0ABFB09480AF091FB002801D094
:10BAF00009F0DEF900BF6846007901F0F9F81CBDD5
:10BB000000D0004000D3004000D500405CCF0200D0
:10BB100010B5002007490860002106484160816097
:10BB2000C1600020034940390860486010F07CF88B
:10BB300010BD00004011014010B5034C21460348E0
:10BB400006F060FB10BD00008C2E0020003000408D
:10BB500010B50FF079FF10BD70B50B4800680028D4
:10BB60000ED0094800688047044600BF2546002DD6
:10BB700004D000BF284600F0E9FE00BF00BF01E08E
:10BB800006F052FA70BD0000202300203EB519488F
:10BB90000068019002A809F021FC0446002C27D17E
:10BBA00015480068002823D00298C007C00F00285D
:10BBB00006D000206946087068460F490968884722
:10BBC000022102980840002806D00120694608702A
:10BBD00068460949096888470421029808400028F6
:10BBE00006D00220694608706846034909688847FC
:10BBF0003EBD0000602300204023002010B506F069
:10BC000041FB002805D0104810494860C81310496E
:10BC1000886106F01BFB002802D001200D498860D6
:10BC200006F066FB00280ED00B480068012807D0FC
:10BC30000A480949086000BF074800680128FBD18D
:10BC4000C0200549486110BDDFFF07C00005004066
:10BC5000006C00400006004000EC064075930000B8
:10BC600010B504220249034806F098FA10BD0000FE
:10BC7000AC2E00200080004010B504220249034889
:10BC800006F08CFA10BD0000B82E00200090004095
:10BC900010B50249024810F0EEF910BD702E0020D8
:10BCA000002000400FB41CB50A46521E01920090BD
:10BCB00007A9064B6A46069800F040F8009A002152
:10BCC00011701CBC08BC04B018470000B1C10100D1
:10BCD00030B47446641E2578641CAB4204D3635DA3
:10BCE0005B00E31830BC18471D46F8E702E008C8BF
:10BCF000121F08C1002AFAD170477047002001E0E6
:10BD000001C1121F002AFBD1704700000146202903
:10BD100009DA01208840054A1040002801D001209E
:10BD200070470020FCE70120FAE70000FC06FFBC9A
:10BD300000BFEFF31081084672B67047FFB591B0AF
:10BD40000F460546002606E025280AD0149A1399C6
:10BD500090476D1C761C28780028F5D1304615B028
:10BD6000F0BD002400940121F34A029400E0044352
:10BD70006D1C2B780846203B98401042F7D128785C
:10BD80002A280ED0022128780246303A092A15D8EE
:10BD9000009A0A235A43303A80180C436D1C0090D5
:10BDA000F1E701CF0090002805DA012040030443A9
:10BDB000009840420090022004436D1C28782E28F1
:10BDC00015D10420044368786D1C2A280AD101CFBC
:10BDD0006D1C02900BE002990A2251433039401841
:10BDE0006D1C02902878014630390929F3D928784A
:10BDF0006C2810D006DC4C281AD068280ED06A288F
:10BE000017D104E0742813D07A2812D110E0012051
:10BE1000400504430CE00121090501E00321090567
:10BE20000C436978814203D10120000524186D1C60
:10BE30006D1C287803906E281ED00CDC632831D04E
:10BE400004DC00288AD0582811D1B2E064287BD0C5
:10BE500069280CD178E073282DD004DC6F2870D0CD
:10BE6000702804D1A7E075286CD078286BD0149A7C
:10BE700013999047761C62E06002400F022807D0B9
:10BE800003280AD0042838680AD006603F1D56E00F
:10BE90003868F11706604160F8E738680680F5E712
:10BEA0000670F3E73878694608740020487404A8DF
:10BEB0000390012003E0386803900020C0433F1D39
:10BEC00061070FD5002101E00199491C029A0191F7
:10BED000914213DA8142F7DB019A0399895C0029C8
:10BEE000F2D10BE0002101E00199491C019181424E
:10BEF000FADB019A0399895C0029F5D10199009830
:10BF0000139A401A00902146149B00F03BF90199C6
:10BF10008019461807E0039803990078491C03919B
:10BF2000149A139990470198401E0190401CF2D139
:10BF30002146149B139A009800F014F986196D1C81
:10BF400009E741E033E034E00A2000210490059144
:10BF50006002410F022905D001CFC2179446032980
:10BF600005D007E0FF1DFF08FF0003CF06E000B289
:10BF7000C2179446042902D140B2C1178C46002250
:10BF80006146944506DA0A460021404291418C46BA
:10BF90002D2102E0210504D52B216A4611760121CD
:10BFA00003E0E10701D02021F7E7019154E00A20E6
:10BFB0000BE0102009E0102004900021042004432D
:10BFC00008200591029003E00820002105910490CB
:10BFD0006002410F022905D001CF002294460329B7
:10BFE00006D006E0FF1DFF08FF0003CF8C4603E0EC
:10BFF00080B2042900D1C0B20021019121072BD5C4
:10C000000399702906D0049A1021059B4A401A43CF
:10C0100005D00EE040216A461176012108E0614614
:10C02000014306D030216A461176039951760221E8
:10C030000191049A0821059B4A401A430CD161469C
:10C04000014301D1610707D530216A4611760121EC
:10C0500001910299491E02910399582904D037A1F0
:10C0600003910FA90F910DE039A1F9E76146059BF6
:10C07000049AFFF7B1F8039B8C469B5C0F9A521E03
:10C080000F92137061460143F0D10F9807A9081A67
:10C0900020300390600704D50120000484430298F7
:10C0A00001E0012002900399884201DD401A00E07E
:10C0B000002041180290019809180098401A009039
:10C0C000E00306D42146149B139A009800F05AF816
:10C0D00086190020049008E006A9085C149A1399B8
:10C0E00090470498401C761C049001998842F3DB29
:10C0F000E0030CD52146149B139A009800F042F8F7
:10C10000861904E0149A302013999047761C0299FE
:10C11000481E02900029F5DC08E00F980F9900787E
:10C12000491C0F91149A13999047761C0399481E45
:10C1300003900029F1DCFBE609280100303132339D
:10C140003435363738396162636465660000000053
:10C15000303132333435363738394142434445463D
:10C1600000000000F8B5044600251E461746880466
:10C1700004D405E039462020B0476D1C641EF9D573
:10C180002846F8BDFFB50446002581B01E46C80309
:10C1900001D5302700E02027880404D505E0384683
:10C1A0000399B0476D1C641EF9D5284605B0F0BD53
:10C1B0004A68002A06D00A68531C0B601070486851
:10C1C000401E48607047000038B50B48006800907A
:10C1D0000A49684608F0F2FA044600BF2546002DD9
:10C1E00004D000BF284600F0B1FB00BF00BF0448E8
:10C1F00008F0CEFA38BD000064CD020005C201008F
:10C20000B420002070B50446207800281CD10F49C6
:10C210000860002508E069006068405E0B49096815
:10C2200040180A4908606D1C2089A842F3D821896A
:10C2300006480068FEF76AFF0449086000200449C8
:10C24000087008F0E7FA00BF70BD0000A8200020C9
:10C250007320002010B5FF20013008F0ADF900BFB9
:10C2600000201E49086000BF00BF0846806800B279
:10C270001B49C9681A4A527C520088521848407CAF
:10C28000401C174948740846407C097C884223DAE0
:10C290000024134880684068002804D11048406892
:10C2A0000F49886005E00E48806840680C49886046
:10C2B00001240B498968086808F06CF900BF012067
:10C2C0000649086000BF002C04D000BF054A10607A
:10C2D00000BF00BF002010BD0120FCE7007500403A
:10C2E000F42E00200070004070B505460C46002D6D
:10C2F00001D0002C01D1002070BD2878217888421F
:10C3000001D00020F8E70622611C681CFEF757FFE9
:10C31000002801D10120EFE70020EDE710B5044629
:10C32000204602F029FF00BA10BD0246002105E0B8
:10C33000505C002801D001207047491C0629F7D322
:10C340000020F9E710B50446002C0ED0084800681C
:10C35000A0420AD806484068A04206D3204605F00D
:10C36000FEFF002801D0012010BD0020FCE70000E6
:10C37000B823002000B501460B00FFF7A9FC050417
:10C38000070A0D1014000948006800BD084800683D
:10C39000FBE708480068F8E707480068F5E7044845
:10C3A00000681830F1E701480068EEE778230020C4
:10C3B0008823002098230020A8230020F7B582B00E
:10C3C0000446164600253788002030802D20005D69
:10C3D00000280CD03A463146039801F043FB05464D
:10C3E00000BF002D02D0284605B0F0BD00BFA078E8
:10C3F00000280BD03A463146039800F099FC0546D8
:10C4000000BF002D01D02846EEE700BFE0780028ED
:10C410000DD0E17848B23B463246039904F016F855
:10C42000054600BF002D01D02846DDE700BF60684B
:10C4300000280ED00020616808563B46324603991A
:10C440000FF0FEFD054600BF002D01D02846CBE7CA
:10C4500000BF208900280FDD0197009606220221E7
:10C4600020460830039B10F041F9054600BF002D1F
:10C4700001D02846B8E700BF208A00280FDD0197C9
:10C4800000960722032120461030039B10F02EF95E
:10C49000054600BF002D01D02846A5E700BF208B30
:10C4A00000280FDD01970096152214212046183030
:10C4B000039B10F01BF9054600BF002D01D0284654
:10C4C00092E700BF206A00280CD03B463246206A23
:10C4D000039903F0A9F8054600BF002D01D02846B6
:10C4E00082E700BF606A00280CD03B463246606A93
:10C4F000039907F02DFC054600BF002D01D028460A
:10C5000072E700BF2C20005D00280CDD3B46324660
:10C51000204603990EF04CFA054600BF002D01D0CD
:10C52000284661E700BF207800280CD03B46324601
:10C530002046039907F06CFF054600BF002D01D08F
:10C54000284651E700BF28464EE7000070B5044674
:10C550001748FFF7EAFE0546012C06D0022C0DD045
:10C56000032C14D0042C20D118E012484078002865
:10C5700003D0002D01D0012070BD00BF0D48807890
:10C58000002803D0002D01D00220F5E700BF0948A4
:10C59000C078002801D00320EEE700BF05480079ED
:10C5A000002801D00420E7E700BF0020E4E70000F6
:10C5B000AD210020B82700200246511CC817800F6B
:10C5C000401880108000081AC0B270470146C87831
:10C5D00004221040002801D1072070470020FCE70A
:10C5E00010B504220221012002F0B6FA044600BF71
:10C5F000002C03D0072C01D0204610BD00BF07221D
:10C600000021012002F0A8FA044600BF002C03D04C
:10C61000072C01D02046F0E700BF0A22002108467F
:10C6200002F09AFA044600BF002C03D0072C01D078
:10C630002046E2E700BF0020DFE7000070B598B0B9
:10C640003C2109A8FEF7A9FD0526022108A80171D1
:10C6500001218171C6716846818619490E91202198
:10C6600001A8FEF79AFD0121684601710021417180
:10C67000817100200390049001216846C171282037
:10C680000590B4200690684601721920C0010790F9
:10C69000012008900B480C4B01AA0021009009A82A
:10C6A00000F0A8FD044600BF2546002D04D000BFC1
:10C6B000284600F04BF900BF00BF18B070BD000065
:10C6C00088200020E5D101004164020070B5254AB0
:10C6D00010212548FEF75AFD082024490860224809
:10C6E0000BF03EFE214801681F480CF0C7FD0446D0
:10C6F00000BF2546002D04D000BF284600F026F9D3
:10C7000000BF00BF1948016817480CF003F8044641
:10C71000062C09D000BF2546002D04D000BF2846B6
:10C7200000F014F900BF00BF0020114908700F4845
:10C730000068002803D000200E49087002E00120A4
:10C740000C490870032000F0B7FE044600BF2546E0
:10C75000002D04D000BF284600F0F8F800BF00BF4D
:10C7600070BD0000FFFF0000C02500208C200020CD
:10C7700090200020C421002070B58CB004460D46E6
:10C780001646002005E00F21091A615C6A46115423
:10C79000401C1028F7D30D2104A8FEF7FEFC002052
:10C7A00005E02A5C0F210B1A04A9CA54401C032877
:10C7B000F7D368464DDF002005E00F210A1A08A9CB
:10C7C000895C3154401C0328F7D30CB070BD0000C5
:10C7D00010B50446002001F07DFD08480078401E99
:10C7E0000649087008460078002806D10448006809
:10C7F00000F038FA002001F08BFD10BDA4200020CD
:10C800001CCE020010B5002407E0E100064A1268C1
:10C81000505C012108F0DCF8641C04480078844274
:10C82000F3D3002010BD0000A8220020AC2200207D
:10C83000FEB506460C461746052F01D20720FEBD61
:10C8400008F0DAF9002808D108F0A8F9054600BF79
:10C85000002D01D02846F2E700BF174806601748B0
:10C8600004701748076000201649086016490860E0
:10C8700017E0E000801901901448006800900198CA
:10C8800080786946487001990878114A694608F02D
:10C89000FDF8054600BF002D01D02846CFE700BFB8
:10C8A00000BF2046611ECCB20028E2D1094A002117
:10C8B000094800F021F9C2E7A8220020AC2200209C
:10C8C000B0220020B4220020B8220020ECCF0200C9
:10C8D0006D10020095F80100E8CF020013A10120BD
:10C8E00009F0DAFB00BF09F0BBFA00BF00BF09F096
:10C8F000BDFA0028FBD100BF00BF00BF00BF00BFD2
:10C9000000BF00BFBFF34F8F00BF00BF00BF0D4887
:10C910000D49C86000BF00BF00BFBFF34F8F00BF0D
:10C9200000BF00BF00BF00BFFDE700004150505FE7
:10C930004552524F523A4552524F523A46617461F3
:10C940006C0D0A000400FA0500ED00E03EB5044657
:10C95000002000900190029002946A460021024853
:10C96000FFF7BCFF3EBD000001400000F7B582B0FC
:10C9700007460C4627480088844246DC264D0020A6
:10C98000019001A800F08AF900BF244800780090C7
:10C990002348007807F0F2FD0099884201D1012078
:10C9A00000E00020002806D11D480578007807F037
:10C9B000E5FD1B4908706846007900F099F91648B2
:10C9C000854220D0E900174A049812685050002F81
:10C9D00011D0002C0FDD0F4909886943124A1268F3
:10C9E000881822463946FEF7BFFBE8000D49096862
:10C9F0004018848005E00021E8000A4A1268801887
:10CA00008180002600E0042600E00926304605B0BB
:10CA1000F0BD0000C6220020FFFF0000C42200205D
:10CA2000C5220020BC220020C0220020F8B51AE058
:10CA30001548047815480088604315490968451869
:10CA4000E0001449096840188688E0001149096827
:10CA50000F5831462846B8470B48007807F08EFD3E
:10CA60000949087000BF00BF002000280BD100BF9B
:10CA70000549087808490978814201D1012100E07F
:10CA800000210029D4D0F8BDC4220020C6220020F5
:10CA9000C0220020BC220020C522002030B5034661
:10CAA000481CC004040C10468507AD0F002D01D1B1
:10CAB000012500E00025002D01D1072030BD0848E8
:10CAC00002601019074D28600020074D2870074D9F
:10CAD000287007480380074801800020EEE7000027
:10CAE000BC220020C0220020C5220020C422002039
:10CAF000C6220020C822002010B503460C4600BF05
:10CB00000D484068002801D1082010BD00BF002A50
:10CB100001D10720F9E7002B01D10720F5E71868BC
:10CB2000007C002801D00820EFE719680020087475
:10CB30004C744A6100BFE8E7CC220020F8B50446F7
:10CB40000D46264600BF082D01D1012000E000203F
:10CB50000746002F03D100BFFFF7F8FE00BF00BF5C
:10CB6000316870688847F8BD7CB504460D4600946E
:10CB70000195034A08216846FFF7F8FE7CBD0000D6
:10CB80003DCB0100F8B507460D4614461E4620462B
:10CB90008107890F002901D1012100E0002100292E
:10CBA00001D10720F8BD002C01D10720FAE70DF0D4
:10CBB000CFFA1148066000201049087048700846F6
:10CBC0008570446000200E4908600E4908700E49C7
:10CBD00008701420FEF74EFD03211420FEF7E0FD3F
:10CBE0001420FEF76FFD38460DF088FA0DF080FA3C
:10CBF000064908600020D5E7E8220020CC2200206A
:10CC0000D4220020E4220020E5220020D8220020A7
:10CC1000F8B504460E461746254600BF1048406842
:10CC2000002801D10820F8BD00BF002C01D1082048
:10CC3000F9E7052E01D20720F5E76869002801D140
:10CC40000820F0E7687C012801D1304600E0002090
:10CC500000903B4631462846009A0EF095FFE2E7E9
:10CC6000CC22002070B50446254600BF0A48406823
:10CC7000002801D1082070BD00BF002C02D06869D7
:10CC8000002801D10820F6E7002028740221284658
:10CC90000EF0A8FFEFE70000CC22002070B504469C
:10CCA00000BFFFF745F805460E48406800280ED142
:10CCB00001200C4948600C4800680C4908400949AB
:10CCC00008600A48084908600020207001E001203F
:10CCD0002070002D03D100BF62B600BF00BF00BFAF
:10CCE00070BD0000F022002080E100E0FC06FFBCE7
:10CCF00070B5044625460C484068002812D0002D27
:10CD000010D1FFF715F80646074800680749086084
:10CD1000002005494860002E03D100BF62B600BF65
:10CD200000BF00BF00BF70BDF022002000E100E0A6
:10CD3000F8B505460C4617462088001DB84201D9B3
:10CD40000C20F8BD684679DF064600BF002E01D0F2
:10CD50003046F6E700BF0320218868542088401C35
:10CD600020801920218868542088401C2080208839
:10CD70004119684600880FF030FA21884018208059
:10CD80000020DEE730B58BB01448007800F034FEA8
:10CD9000054628460DF010FB00281CD001A800F025
:10CDA00087FD142201A906A8FEF7DEF900240EE093
:10CDB000620007A9885A0949097800F02BFE00286B
:10CDC00004D0620007A9885A05F090FD641C0698FB
:10CDD000A042EDD800BF0BB030BD0000F62100200E
:10CDE00010B5044663799A07920F2179208805F0DF
:10CDF0004BFC10BD10B504462079002803D1204615
:10CE000000F008F803E02046FFF7EAFF00BF00BF8C
:10CE100010BD0000F0B589B004460025208800F060
:10CE2000B9FD0746208804F051FF0646A068089027
:10CE3000607A0790208800222249097800F0FEFDE0
:10CE4000002F01D109B0F0BD60794007C00F002864
:10CE500011D0072130460AF0F9FE0546002D16D004
:10CE60000821684601712188C1800681039501A8C7
:10CE700002F09EFF0BE020881349097800F0CAFDFC
:10CE8000002804D0304604F009FF039000BF0321BE
:10CE9000684601742188418260794007C10F684665
:10CEA0000175A0794007C10F04A84171811D08A830
:10CEB0000078087004A86946097FC17102F078FF04
:10CEC00000BFBFE73A2200203C22002030B585B0E9
:10CED00014216846FEF761F90020009001216846A0
:10CEE00001710020029064216846017300BF407BFD
:10CEF00001090901491C68464173407BF0218843C0
:10CF000020306946487300BF00BF6846807B000937
:10CF10000001401C88736846807BF02188432030E4
:10CF20006946887300BF00BF6846C07B00090001E6
:10CF3000C8736846C07BF02188436946C87300BF48
:10CF400000BF6846007C01090901491C684601745C
:10CF5000007CF021884320306946087400BF0848EF
:10CF600000F0B4FB044600BF2546002D04D000BFEE
:10CF70002846FFF7EBFC00BF00BF05B030BD000046
:10CF800068250020F0B591B004460D46207D0028AC
:10CF900019D00020099000BF08A8007901090901F3
:10CFA000491C08A801710079F0218843103008A9B4
:10CFB000087100BF697B08A8417180790621884308
:10CFC000801C08A988711C210AA8FEF7E6F808A8A9
:10CFD000007A02218843811C08A80172007A10217E
:10CFE0008843217D002901D0012100E000210901B1
:10CFF00010221140084308A9087200200B900D90E0
:10D000000E90207D002801D009A800E000200F909C
:10D010000020109000BF0121684681734949818139
:10D0200000BF00200290A97B68460172E97B417233
:10D03000807A06218843811C68468172807A0821A3
:10D040008843014668468172807A102188430146F0
:10D0500068468172807A4108490068468172297B5E
:10D060000191142104A8FEF798F803A8049002A8DF
:10D0700005900121684601830021418301218183BC
:10D0800001A80890A088A31D04AA0AA9A2DF064649
:10D09000002E02D0304611B0F0BDA86800284DD057
:10D0A00000BF0121684681732749818100BF0020AC
:10D0B0000290287C6946087200BF6846407A0109E0
:10D0C000090168464172407AF021884369464872F6
:10D0D00000BF6846807A06218843811C68468172B9
:10D0E000807A08218843014668468172807A10213F
:10D0F0008843014668468172807A41084900684643
:10D100008172A96800F06AFF0746142104A8FEF79F
:10D1100044F803A8049002A80590684607830021FC
:10D120004183018B81830890E08822460E3204A956
:10D13000A3DF0646002E03D03046ACE70020E08196
:10D140000020A8E7192A000008290000F3B593B0D1
:10D150000D461F21129111911398002818D0139891
:10D16000FFF734FA044600BF002C02D0204615B069
:10D17000F0BD00BF12AA09A91398FFF71FF90446D2
:10D1800000BF002C01D02046F1E700BF09AE02E04D
:10D19000002600201290002D17D028460EF0AFF97F
:10D1A000044600BF002C01D02046E0E700BF11AAD2
:10D1B00001A92846FFF702F9044600BF002C01D060
:10D1C0002046D4E700BF01AF02E000270020119005
:10D1D00010A88088C3B210A80089C1B23A46304670
:10D1E00072DFC4E710B5044600BF2046FFF7AEFB70
:10D1F00000BF10BDF8B504460F4615461E46002C6C
:10D2000001D0002D01D10E20F8BD01205749087032
:10D21000002057490870202229465648FDF7A4FFF0
:10D22000554806605549069808600020C043544997
:10D23000088007215348FDF7B0FF3C215248FDF715
:10D24000ACFF207850490870A0788870E078C870EA
:10D25000607848700846626921694261016101464F
:10D26000E268A068CA6088600846E269A169C26194
:10D270008161606A00281BD04448434948624449A0
:10D280008160606A00884049496A0880606A8088D5
:10D290003D49496A8880002005E0616A8968095C27
:10D2A0003B4A1154401C3849496A89888142F4D864
:10D2B000A06A002824D03749374881603249886203
:10D2C00034493148806A8160A06A80882E49896A21
:10D2D0008880A06A00882C49896A0880002005E0BF
:10D2E000A16A8968095C2B4A1154401C2649896A45
:10D2F00089888142F4D82C20015D234820300173B5
:10D30000206A00280BD025481F490862206A4088FF
:10D31000096A4880206A00881B49096A0880606899
:10D32000002802D0184960684860002008E0C10069
:10D33000091A1B4A89181B4A12688300D150401CE5
:10D340000828F4DB002007E00101174A8A18154974
:10D3500089688300CA50401C0828F5DB39460A4812
:10D36000FFF7F4FE009000984EE70000A82100208F
:10D37000AB210020B8270020BC210020C0210020C4
:10D38000B8210020AC210020D8270020142800203C
:10D39000202800204C28002040280020B421002014
:10D3A000AC280020C8210020E428002010B5044645
:10D3B0002088102804D0112806D01B280CD107E0A3
:10D3C000204609F00FFB08E0204609F063FB04E06B
:10D3D000204609F0C5FE00E000BF00BF10BD000000
:10D3E00070B50546022D02D0032D18D100E000BF14
:10D3F0000C480078002811D000200A4908700A481B
:10D40000007800F059F80446002C07D0074800685F
:10D41000002803D0204605490968884700E000BF7E
:10D4200000BF70BDA9210020AB210020C021002039
:10D4300010B5044607480078002801D1082010BD27
:10D44000002004490870072221460348FDF78CFE9E
:10D450000020F4E7B3210020AC21002010B574DFD8
:10D4600001201149087006201049C87000210F489A
:10D47000FFF76CFE0446002C01D0204610BD0320AF
:10D480000B4908700846007800F016F80446002C96
:10D4900007D008480068002803D0204605490968DD
:10D4A00088470020EAE70000C4210020D827002098
:10D4B000AB210020C021002070B586B005465C4835
:10D4C0000078002802D1082006B070BD59480570C8
:10D4D00003F026F8002804D00120574908700020E6
:10D4E000F2E707215548FDF758FE554840780028D7
:10D4F00003D05048007801280FD051488078002888
:10D5000003D04C480078012807D04D488078002887
:10D5100012D04848007802280ED14A4800680028F6
:10D5200007D0012048490870082046490968884703
:10D5300002E00020444908702846FFF707F83D49FB
:10D54000087040480068002817D008460078032873
:10D5500003D00846007804280FD139480078002805
:10D560000BD03A480078002807D1012038490870CC
:10D57000072034490968884702E0002034490870D0
:10D5800018216846FDF709FE002168460170017206
:10D59000284800780300FEF79BFB051804090E13CA
:10D5A0001C0068460DF0B8FA044613E068460DF01A
:10D5B000C3FA04460EE068460DF0D4FA044609E0CA
:10D5C00068460DF007FB044604E00020214908707E
:10D5D00000E000BF00BF17480078002806D068466A
:10D5E00073DF0446002C17D020466DE71A480078F8
:10D5F000002811D0002018490870FEF7BBFE06462F
:10D60000164905F038FA002803D01449491E0020B5
:10D6100070DF002000F086FE0A480068002804D071
:10D620000C48007807490968884700204CE700004B
:10D63000A8210020AB210020A9210020AC2100203E
:10D64000B8270020BC210020B3210020C4210020E5
:10D65000C5210020AA210020702000209620002053
:10D66000FFB581B007460D461E46164800780028D3
:10D6700002D1082005B0F0BD0020124908701249FF
:10D680000D710E7300240AE00F4A1268A300D058EF
:10D69000E200121BD1190722FDF766FD641CAC42A3
:10D6A000F2D300240AE0084A9268A300D05823016C
:10D6B000039A99181022FDF757FD641CB442F2D367
:10D6C0000020D7E7C5210020C8210020F8B5044676
:10D6D0000D46002C01D0002D01D10E20F8BD286888
:10D6E00020600020C043608228792075FF202074CC
:10D6F00000BF0121684681700849018000BF221DDA
:10D7000069460120A0DF0646002E01D03046E5E73D
:10D7100029462046FFF736FCE0E700000F1800001E
:10D7200070B505460C46002D01D0002C00D170BD0F
:10D730002088102804D0112807D050280FD109E0E4
:10D740002146284609F026F90AE02146284609F034
:10D7500097F905E02146284609F060FD00E000BF8A
:10D7600000BF00BFE3E7000038B5044608222146A9
:10D770001348FDF7F9FC12487ADF0546002D1CD14D
:10D78000104804F051FD00280BD101200E4908700B
:10D790000B490E48008875DF054601200C490870CA
:10D7A0000BE00C484069002806D001200090094891
:10D7B00041696846884700BF0025284638BD0000FB
:10D7C000D8210020E4210020EC210020E2210020CB
:10D7D000E02100206429002070B505461C2229465E
:10D7E0001448FDF7C1FC0020134908702868002880
:10D7F0000BD0082211482968FDF7B6FC0F487ADFE4
:10D800000446002C08D0204670BD0C487BDF04463F
:10D81000002C01D02046F7E70020C04308490880CB
:10D82000002008490870084A00210848FFF764F9F9
:10D83000EAE7000064290020EC210020D821002024
:10D84000E2210020E021002009C4020064CE020091
:10D8500010B504462088102806D0112808D01228B8
:10D860000ED050281DD107E0204609F063F819E0DA
:10D87000204609F0E3F815E0204609F0A5FC11E088
:10D8800009480078002808D12089122805D160892C
:10D89000122802D1012005490870204609F03EF8FF
:10D8A00000E000BF00BF10BD6D2000206E200020F2
:10D8B00010B504460348027D011D20460CF0F0FD22
:10D8C00010BD0000A029002010B504460348C17D0A
:10D8D0002246001D0CF0CEFD10BD0000A029002046
:10D8E00010B504460348017E2246001D0CF0C2FD1F
:10D8F00010BD0000A029002070B504462088102823
:10D9000004D011281ED01A283FD11FE00CF07EF958
:10D91000A0880BF0E3FF002804D100BF0420FFF72C
:10D9200015F80EE0A07D022801D1012000E00020C2
:10D930000546A2882B461649084612380CF0D3FD3E
:10D9400000BF22E0A0880CF083F91EE0207A0009D5
:10D95000012801DD012000E000200346A2880C49D7
:10D96000491C084613380CF0BEFD207A0009022835
:10D9700001DD012000E000200346A2880449891C43
:10D98000084614380CF0AFFD00BF00BF70BD0000AA
:10D99000B629002070B5044600250C48017D2246BA
:10D9A000001D0CF067FD00280DD00848817D22463F
:10D9B000001D0CF05FFD0646002E01D0022000E0A5
:10D9C0000120054600BF284670BD0000A0290020A8
:10D9D00010B500240BE020460EF06EFD002804D1A7
:10D9E00020460EF05FFD204610BD601CC4B2182C0E
:10D9F000F1DB1820F8E7000010B5044620460EF0D1
:10DA00005BFD002802D00248005D10BD0020FCE74D
:10DA1000B929002070B505460C4620460EF04CFD95
:10DA2000002806D00448015D2A4615380CF022FD76
:10DA300070BD0020FCE70000B929002070B5054644
:10DA40000C46164620460EF037FD002806D0044846
:10DA5000011933462A4615380CF045FD70BD00000B
:10DA6000B9290020FEB505460C4617462088093026
:10DA7000B84201D90C20FEBD684671DF0646C021C0
:10DA800068464170022181700321C1700421017137
:10DA9000C0218171012101706946002070DF00BF43
:10DAA000002E01D03046E6E700BF082021886854E8
:10DAB0002088401C20801B20218868542088401C1E
:10DAC000208021884819062200A90131FDF74CFB6E
:10DAD0002088801D208068460078002802D1218897
:10DAE000685402E00120218868542088401C20806E
:10DAF0000020C0E77FB5044600BF0121684681735E
:10DB00005D49818100BF5D4A03A90120A0DF054670
:10DB1000002D02D0284604B070BD208800280DDDFD
:10DB200057480090228823463C335648616801F0EC
:10DB3000B3FB0546002D01D02846ECE720890028DC
:10DB40000EDD51480090228923463C334D48401F4A
:10DB5000E16801F0A1FB0546002D01D02846DAE777
:10DB6000208A00280EDD49480090228A23463C3353
:10DB70004448001F616901F08FFB0546002D01D06C
:10DB80002846C8E7208B00280EDD41480090228BF4
:10DB900023463C333B48801EE16901F07DFB05468E
:10DBA000002D01D02846B6E7208C00280EDD39482C
:10DBB0000090228C23463C333248C01E616A01F03B
:10DBC0006BFB0546002D01D02846A4E7208D0028D8
:10DBD0000EDD31480090228D23463C332948401EFB
:10DBE000E16A01F059FB0546002D01D0284692E775
:10DBF000206B002813D001A8216B0DF08CFD274865
:10DC000023463C33082201A900901E48801F01F0E2
:10DC100043FB0546002D01D028467CE700BF606B22
:10DC200000280FD01E480090606B027923463C33D9
:10DC300001681448401C01F02FFB0546002D01D05F
:10DC4000284668E7A06B002813D001A8A16B0BF051
:10DC500027FB144823463C33072201A900900948BA
:10DC6000273001F019FB0546002D01D0284652E768
:10DC700000BF00204FE700000A18000054220020D7
:10DC800056220020292A00005E2200206622002061
:10DC90006E220020762200207E2200208622002094
:10DCA0008E2200209622002010B504462046FFF761
:10DCB00023FE20460BF030F8204600F0ADFB204656
:10DCC00008F068FD2046FFF771FB2046FFF7C0FD16
:10DCD0002146044800F04CF921460348FFF720FD97
:10DCE00010BD0000F023002068250020FFB587B09C
:10DCF00005460F46109EFF207730405B2249884240
:10DD00003DD0F01C81B206916846008B082834DCB7
:10DD100000BF012000BF684607740998C1B2684679
:10DD200041740A98C1B268468174002E04DD3246FF
:10DD300013301199FDF718FA00200090019002901D
:10DD40000390FF205F30415B6846018001218170B4
:10DD50000021818006A8029004A80390FF2177315A
:10DD6000485B6946A6DF0446002C05D1F01C6946D5
:10DD7000098B884200D00C2400E00C2400E0082429
:10DD800020460BB0F0BD0000FFFF00007CB506464A
:10DD90000C46A07A0A2805DC207C0A2802DC207EBA
:10DDA0000A2801DD07207CBD206830606068706053
:10DDB000A07AB074217C78208155217EDE208155A7
:10DDC0000021C943FF207730815300BF01216846FD
:10DDD00081714749818000BF3246083201A9012084
:10DDE000A0DF0546002D01D02846DCE7214630465D
:10DDF00003F0E4FF0546002D01D02846D3E7207A42
:10DE0000002802D1607A002809D021463C313046F2
:10DE10000BF0CCFA0546002D01D02846C3E7214679
:10DE2000304604F0B3F80546002D01D02846BAE785
:10DE30002146304609F0E0FA0546002D01D028467B
:10DE4000B1E72146304602F057FA0546002D01D0D1
:10DE50002846A8E7214630460CF000F80546002D7C
:10DE600001D028469FE7207A002818D03046FF309E
:10DE70004F302346433308221E490090304600F0BD
:10DE800027F90546002D01D028468CE7214630466B
:10DE900000F0A2F90546002D01D0284683E7607AFC
:10DEA000002810D03046FF305F3023464033082230
:10DEB000104911310090304600F00AF90546002D56
:10DEC00001D028466FE72146304603F09BFA05460D
:10DED000002D01D0284666E721463E31304603F04A
:10DEE00039FA0546002D01D028465CE700205AE7A4
:10DEF00012180000222A0000FFB587B004460E4623
:10DF00001746A07CB0422DDD0A2070432146143113
:10DF100040180690FF207730005B144988421FD0DC
:10DF200001970020029003900490059006980188C4
:10DF300068460181012181720021818101A804903C
:10DF40000A980590FF217731085B02A9A6DF0546F4
:10DF5000002D04D168468088B84200D00C2500E02E
:10DF6000082500E0072528460BB0F0BDFFFF0000A4
:10DF700070B505460C462088102806D0112809D017
:10DF800050280CD0512814D10EE02146284608F024
:10DF900004FD0FE02146284608F076FD0AE0214600
:10DFA000284609F05FF905E02146284609F0C1F846
:10DFB00000E000BF00BF70BD70B504460D462846A6
:10DFC000FDF7F6F82080656070BD70B50446204608
:10DFD0000EF0FDF80546E807C00F70BDF8B5054620
:10DFE0000E46002432782146641C6A547278214619
:10DFF000641C6A5400BF022C01D1012000E0002003
:10E000000746002F03D100BFFEF7A0FC00BF00BFF2
:10E010002046F8BD70B586B028480068059000BF5E
:10E02000274B4822274905A80DF0AAF9054600BF4D
:10E030002E46002E04D000BF3046FEF787FC00BFFE
:10E0400000BF00BF6A46012100200DF059F90446C7
:10E0500000BF2546002D04D000BF2846FEF776FC01
:10E0600000BF00BF68460DF0F3F8044600BF254628
:10E07000002D04D000BF2846FEF768FC00BF00BF9B
:10E0800011480DF0D7F8044600BF2546002D04D0F6
:10E0900000BF2846FEF75AFC00BF00BF0B480DF03A
:10E0A000C9F9044600BF2546002D04D000BF28460C
:10E0B000FEF74CFC00BF00BF06B070BD10CD0200E3
:10E0C00059B3020048260020A9DC010005B7020070
:10E0D000F0B58FB005460E4617461C460020079047
:10E0E00000BF6846007F01090901491C68460177A5
:10E0F000007FF021884310306946087700BF2178FF
:10E1000068464177807F06218843811C6846817775
:10E110001C2108A8FDF741F808A8007802218843CF
:10E12000811C08A80170007808218843A17809079C
:10E13000090F002901D0012100E00021C9000822B7
:10E140001140084308A9087008A8007810218843E6
:10E15000103008A90870002009900B900C9007A8B7
:10E160000D9000200E9000BF0121684681718680CD
:10E1700000BF00200090617868460170A17841706E
:10E18000807806218843811C684681708078082148
:10E190008843014668468170807810218843014693
:10E1A0006846817080784108490068468170142172
:10E1B00002A8FCF7F2FF01A8029068460390002134
:10E1C00001824182878200200690288902AA08A93C
:10E1D000149BA2DF0FB0F0BD30B58FB004460D46E2
:10E1E0001C2108A8FCF7D9FF08A800780221884361
:10E1F000811C08A80170007808218843411808A8EC
:10E200000170007804218843001D08A908700020CF
:10E2100009900B900C900D900E9000BF0121684664
:10E2200081721E49018100BF002001904620415D9E
:10E23000684601714720415D684641718079062139
:10E240008843811C68468171807908218843014692
:10E250006846817180791021884301466846817142
:10E2600080794108490068468171142103A8FCF7B0
:10E2700094FF02A8039001A80490002168468182BF
:10E28000C182012101830020079020892346FF33AA
:10E29000573303AA08A9A2DF0FB030BD322A00000D
:10E2A00010B501460A4B585C00BF052424072346DD
:10E2B00000BF24151C192469C440E407E40F002C96
:10E2C00001D0012000E0002002460120504010BD96
:10E2D0000ECE020030B502460C49885C00BF052412
:10E2E0002407214624150C196368012484409C43AB
:10E2F00005252D024D19AC60012484401C400525E4
:10E300002D024D19EC6000BF30BD00000CCE0200A4
:10E3100010B504460249085D012107F099FB10BDC4
:10E320000CCE020010B504460249085D002107F03A
:10E330008FFB10BD0CCE020010B501460A4B585C95
:10E3400000BF05242407234600BF24151C19646858
:10E35000C440E407E40F002C01D0012000E00020BD
:10E3600002460120504010BD0CCE02007CB50024B6
:10E370000CE00948055D002000900346012211468B
:10E380000190284607F07EFA00BF641C022CF0D3EF
:10E3900000F004F87CBD00000CCE020010B5002493
:10E3A00003E02046FFF7B4FF641C022CF9D310BD34
:10E3B00010B5002403E02046FFF7B4FF641C022CD4
:10E3C000F9D310BD02460020C043002106E0054BF2
:10E3D0005B5C934201D1084602E0491C0829F6D350
:10E3E00000BF70470ECE020070B505460C460026F1
:10E3F00007480560002C02D020460DF055F905486D
:10E400000068002802D1FEF7EBF80646304670BDE2
:10E41000A0210020A421002070B5054628881028DE
:10E4200002D0112832D118E01A48006800280ED115
:10E4300001F0DAF9044600BF002C07D01648006846
:10E44000002803D0204614490968884700BF1148B6
:10E450000068401C0F49086019E00E480068401E23
:10E460000C4908600846006800280ED1FEF7B8F88D
:10E47000044600BF002C07D007480068002803D0DE
:10E48000204605490968884700BF00E000BF00BF7B
:10E4900070BD0000A4210020A0210020F3B581B0B0
:10E4A0000746002500243846FFF78CFF0446082C59
:10E4B00042D20298002825D0012802D002283AD161
:10E4C00033E06000201822490D5C600020184018DD
:10E4D000407800280ED01F48006832225043014681
:10E4E0001D4A1E480068FEF793FB0646002E01D128
:10E4F000194807706000201815494018807818499D
:10E50000085518E015480068FEF7ACFB1448005D9C
:10E51000610061180E4A89188978884204D1600028
:10E52000201811464018857805E060002018084939
:10E530004018457800BF00BF002D07D0094800688B
:10E54000002803D02846074909688847FEBD000017
:10E5500080270020882100209421002020CE020066
:10E56000952100209021002010B504462046FFF799
:10E5700097FE10BDF0B585B005460026F948008825
:10E58000F94988427ED0F9480078002803D1F8483C
:10E590000078002877D0F7480078002815D1F64990
:10E5A00006F05CFB044600BF2746002F04D000BFE6
:10E5B0003846FEF7CBF900BF00BF002007F01EFE73
:10E5C00006F038FB0120EB490870281F0300FDF717
:10E5D0007FFB1B70F2F27AF2F26CF2F2F2F2F2D9F5
:10E5E000F1F0EFEE0FF2F2F2F3ECEBEAE96BF2008E
:10E5F000DC480088DC49884255D0E0480088FF218B
:10E60000AD3188424FDBDE480078002822D1DD485A
:10E6100001460EC9C0686F460EC703901A216846AE
:10E62000C1701E218170192141701821017000BF35
:10E63000D54A6946D54806F06FFC0746002F04D03E
:10E6400000BF3846FEF782F900BF00BF0120CC4969
:10E65000087000BFCE480078002805D11B2001F0CB
:10E660006FFA0120CA490870CA480078002817D1FB
:10E670000022FF210731C8480068FEF7C9FA0446A6
:10E6800000BF01E02AE1F2E12746002F04D000BFDD
:10E690003846FEF75BF900BF00BF0120BD49087096
:10E6A0000020B649088018E117E1022004F0F6F9CD
:10E6B00013E10120B94908700020FFF733FE012063
:10E6C000FFF730FE09E1B5480078002803D00220AA
:10E6D00004F0E4F955E0B248007802280AD1B148C4
:10E6E0000078401CC0B2AF49087005280CDB01203F
:10E6F000087009E0AB480078401CC0B2A949087016
:10E70000042801DB01200870A64800784000401E64
:10E71000A54908709A480078002820D1994B1033F9
:10E720000FCB6F460FC71A216846C1701E2181703A
:10E73000192141701821017000BF934A694693481E
:10E7400006F0EAFB0746002F04D000BF3846FEF76C
:10E75000FDF800BF00BF01208949087000BF914843
:10E7600000780DF011FF172000F02EFA044600BFCC
:10E770002746002F04D000BF3846FEF7E7F800BF59
:10E7800000BFAAE0774800887749884209D08748C7
:10E79000007801210843854908700846007805F093
:10E7A00085FD9AE088E067E046E025E004E073E05C
:10E7B00052E031E010E08FE06A4800886A49884200
:10E7C00009D07A4800784008400078490870084627
:10E7D000007805F06BFD80E062480088624988425D
:10E7E00009D0724800780221084370490870084631
:10E7F000007805F05BFD70E05A4800885A4988426D
:10E8000009D06A48007802218843684908700846A0
:10E81000007805F04BFD60E052480088524988427C
:10E8200009D062480078042108436049087008460E
:10E83000007805F03BFD50E04A4800884A4988428C
:10E8400009D05A480078042188435849087008467E
:10E85000007805F02BFD40E042480088424988429C
:10E8600009D05248007808210843504908700846EA
:10E87000007805F01BFD30E03A4800883A498842AC
:10E8800009D04A480078082188434849087008465A
:10E89000007805F00BFD20E03248008832498842BC
:10E8A00009D04248007810210843404908700846C2
:10E8B000007805F0FBFC10E02A4800882A498842CD
:10E8C00009D03A4800781021884338490870084632
:10E8D000007805F0EBFC00E000BFC8E0152D67D123
:10E8E00026480088FF21AD3188427CDB244800782F
:10E8F000002820D1234B20330FCB6F460FC71A219E
:10E900006846C1701E218170192141701821017063
:10E9100000BF1D4A69461D4806F0FEFA0746002F53
:10E9200004D000BF3846FEF711F800BF00BF012039
:10E930001349087000BF0022FF2107311648006804
:10E94000FEF766F9044600BF2746002F04D000BF3B
:10E950003846FDF7FBFF00BF00BF002007490880D5
:10E9600041E025E084200020FFFF00006D20002012
:10E970006F20002075200020659402006220002096
:10E980007220002014CD020051B40200ACCC020071
:10E99000762000206B200020B4CC020078200020DC
:10E9A0007A210020A3200020A42000209120002014
:10E9B0000A2D03D1022004F071F814E0042D09D1CE
:10E9C0000120584908700020FFF7ACFC0120FFF738
:10E9D000A9FC08E0072D06D152480078002802D093
:10E9E000022004F05BF8284610380300FDF770F9A8
:10E9F0000C0715233131313131310E1C2A314A488F
:10EA00000078012108434849087023E0464800780F
:10EA100040084000444908701CE043480078022147
:10EA200008434149087015E03F48007802218843B7
:10EA30003D4908700EE03C480078042108433A49FB
:10EA4000087007E038480078042188433649087088
:10EA500000E000BF00BF35480078002807D10A2D2C
:10EA600005D033480078002801D1FDF72FFE31484A
:10EA70000078002850D02C48007807284CD12E4828
:10EA80000088FF21AD31884242DB2C480078002805
:10EA90001FD12B4B0FCB6F460FC71A216846C17091
:10EAA0001E218170192141701821017000BF254A73
:10EAB0006946254806F030FA0746002F04D000BF0B
:10EAC0003846FDF743FF00BF00BF01201B49087017
:10EAD00000BF1E480078002805D11B2001F030F847
:10EAE00001201A4908700022FF21073118480068E8
:10EAF000FEF78EF8044600BF2746002F04D000BF63
:10EB00003846FDF723FF00BF00BF00200A490880F8
:10EB100001201049087002E000200E49087005B07D
:10EB2000F0BD00007820002091200020AA210020C4
:10EB3000702000206D200020622000207220002024
:10EB400044CD020051B40200ACCC0200762000207B
:10EB5000B4CC02007120002070B503460020082BC1
:10EB60002DD2012A07D1012903D11C460E34E4B26B
:10EB700000E000242246002918D0012902D00229F1
:10EB80001AD10DE05C001C190E4D2A55012B06D937
:10EB9000144609345D005D190A4EAD19AC700DE0E4
:10EBA0005C001C19074D6419627007E05C001C19B9
:10EBB000044D6419A27001E0072000BF00E00720A7
:10EBC00070BD00008027002070B50446002506486F
:10EBD0000078C007C00F002803D0204600F064F87A
:10EBE0000546284670BD00008C210020F7B505467B
:10EBF0000E460024224806602248056022490298F9
:10EC0000086002202840002822D0022706E00122C6
:10EC100011463846FFF7A0FF04467F1C082F01D29B
:10EC2000002CF4D0002C05D1720808211748FDF7FC
:10EC3000FFFD0446002C02D1FDF7E4FD0446002C44
:10EC400005D1134A00211348FDF756FF044600BFC3
:10EC5000E807C00F002801D0FFF788FB002C05D182
:10EC60000D4A00210D48FDF747FF0446002C05D151
:10EC70000B4A01210B48FDF73FFF04462046FEBD2D
:10EC8000882100208C2100209021002024CE020029
:10EC9000D9F0010020CE02008123020018CE02002C
:10ECA000D1C701001CCE0200F8B50446002500269D
:10ECB000BB480078002804D00020B9490870FFF74D
:10ECC0006DFB2300FDF704F8190EF9134142709C07
:10ECD000AAB0BECEDCFAF7F6F5F4F3F2F1F0EFEEFF
:10ECE000FFECF900FFF75AFBAE48047055E1002035
:10ECF000FFF722FB00280BD00020FFF709FB022CB6
:10ED000002D1FF20F53001E07D20400106460AE0F7
:10ED10000020FFF707FB022C02D1FF20F53001E0B5
:10ED2000FF20913006469F48047064213046FCF76E
:10ED3000EDF99D49096848430746002239469B483A
:10ED40000068FDF765FF054627E126E10020FFF793
:10ED5000F3FA00280BD00020FFF7DAFA042C02D1D6
:10ED60007D20400101E07D20400106460AE00020B0
:10ED7000FFF7D8FA042C02D1FF20913001E0FF20E8
:10ED8000913006468748047064213046FCF7BEF98E
:10ED90008549096848430746002239468348006888
:10EDA000FDF736FF0546F8E00020FFF7C5FA00281A
:10EDB0000AD00020FFF7ACFA052C01D1C82001E0F1
:10EDC0007D204001064609E00020FFF7ABFA052C44
:10EDD00001D1C82001E0FF2091300646714804703F
:10EDE00064213046FCF792F96F49096848430746A9
:10EDF000002239466D480068FDF70AFF0546CCE061
:10EE00000020FFF767FA674804706748002201682E
:10EE100066480068FDF7FCFE0546BEE00020FFF7EF
:10EE200077FA60480470B8E001205D490870FFF788
:10EE300051FA5D48002201685C480068FDF7E8FE71
:10EE40000546AAE0012056490870FFF743FA5648E4
:10EE5000006882008118002254480068FDF7D8FE3F
:10EE600005469AE001204E490870FFF733FA4E48F4
:10EE7000002201684D480068FDF7CAFE05468CE097
:10EE8000012047490870FFF725FA474800688200CB
:10EE90008118002245480068FDF7BAFE05467CE06F
:10EEA00075E010E072E066E05DE054E04EE027E0DF
:10EEB00025E023E021E01FE000E06DE0FFF778FAB5
:10EEC0003848047069E03A480068FDF7CBFE054613
:10EED000002D0DD13448006882008118002234488A
:10EEE0000068FDF795FE05460020FFF71BFA02E0DB
:10EEF0000020FFF70DFA50E000BF00BF00BF00BFC9
:10EF00002B480068FDF7AEFE05461120061B002EBB
:10EF100018D0002D16D1012E10D9C82171430846F2
:10EF20006421FCF7F3F820490968484307460022AA
:10EF300039461F480068FDF76BFE05460220FFF7C3
:10EF4000F1F902E00220FFF7E3F926E0FFF726FAE5
:10EF50001448047021E0FFF721FA0020FFF7E2F9DE
:10EF60001048047019E0FFF719FA0120FFF7DAF9E9
:10EF70000C48047011E0FFF711FA0020FFF7D2F9F6
:10EF80000120FFF7CFF90748047006E000BFFFF744
:10EF90000FFA0448047000E000BF00BF2846F8BD27
:10EFA00085210020842100208821002018CE020025
:10EFB0001CCE02000246002901DA002003E013689B
:10EFC0005B18136001207047F0B585B004460D460C
:10EFD000641C0127012003900020029002A8FDF785
:10EFE0005DFE1F48006828601D4800681C4949688C
:10EFF000411A1B488068401C461AE019019001988C
:10F00000B04221D9002E1CD016480068009000980C
:10F010008005800D144909688902890A890208431C
:10F0200000900F48009A00680D490968491C0C4B74
:10F030001960194689680840810018460C30425012
:10F0400000BF0020039004E005480068001904494F
:10F0500008606846007AFDF74BFE039805B0F0BDE6
:10F06000AC30002004D002001C230020044840687B
:10F0700003490968884201D1012070470020FCE75C
:10F08000AC30002070B504460D460F2005F070FC32
:10F09000112005F06DFC122005F06AFC132005F02C
:10F0A00067FC142005F064FC152005F061FC1620B7
:10F0B00005F05EFC172005F05BFC002003490860AA
:10F0C00003490880034806F08BF870BD1C2000201F
:10F0D0006420002088CC020010B50446207802216C
:10F0E000FFF7DCF910BD0000F8B50546134A1449D6
:10F0F0000320FFF77BFD044600BF2646002E04D008
:10F1000000BF3046FDF722FC00BF00BF694600206B
:10F11000FFF76AF9044600BF2646002E04D000BF60
:10F120003046FDF713FC00BF00BF68460078022898
:10F1300001D1012000E000202870F8BD75E5010034
:10F14000CD0C000030B502460B4602210EE08D00CA
:10F1500014462C412007000F092802DD04463734ED
:10F1600001E00446303401256D1A5C550C46491EF9
:10F17000002CECD130BD0000014608680D4A024069
:10F1800012090C4BDB4303401B011A4310460A4A89
:10F1900002409208084BDB4303409B001A43104691
:10F1A000064A02405208054BDB4303405B001A430A
:10F1B00010467047F0F0F0F0CCCCCCCCAAAAAAAAAA
:10F1C00001468879012808D10879012805D14888A5
:10F1D000034A904201D1012070470020FCE7000063
:10F1E000022900000021C9438200054B99500428E0
:10F1F00004DB0B46011F024A503253547047000093
:10F20000142E002001468800014A10587047000063
:10F21000142E0020F7B585B00B460020C0430490A3
:10F22000002A01D0002000E004200390002A01D031
:10F23000042000E00C20029003991EE08800124C8C
:10F240002058401C002817D10846059C00930192C5
:10F2500046B20D4D30352E5585000B4E009B735137
:10F26000019A002A04D166B2051F074F50377E5518
:10F2700000BF48B2049003E0491C02988142DDD3EC
:10F2800000BF049808B0F0BD142E002001460148CC
:10F2900040567047442E0020F0B58FB007460D460B
:10F2A00014461E4600BF002D01D0012000E00020C2
:10F2B00000900098002803D100BFFDF747FB00BF76
:10F2C00000BF00BF002C01DD012000E00020009005
:10F2D0000098002803D100BFFDF738FB00BF00BF36
:10F2E0001C2107A8FBF759FF6946087F02218843C4
:10F2F000801C69460877002008900A900B900C90BB
:10F300000D9000BF012108A881766846078700BFDD
:10F3100000200190317868460171717841718079DF
:10F3200006218843811C68468171807908218843C1
:10F3300001466846817180791021884301466846FC
:10F34000817180794108490068468171142102A8C1
:10F35000FBF723FF0EA8029001A8039068460482E1
:10F36000002141828482069502AA07A902480088EA
:10F37000149BA2DF0FB0F0BD5422002001460029EB
:10F3800007D00548884204D80448884201D90120A2
:10F3900070470020FCE7000078230020C8230020ED
:10F3A00070B505460E46002407E0E100685802F0FB
:10F3B000D6FF002800D170BD641CB442F5D30120F3
:10F3C000F9E700000A49496C00290FD00849096C87
:10F3D000C900074A891801601146096C491C490790
:10F3E000490F11641146496C491E51647047000071
:10F3F000C02F0020064902688A4203D00168083104
:10F400000160704702493839016000BFF9E7000028
:10F41000F82F00200178022902D0017803290BD1AE
:10F4200006490A6C817D5118044A116411464A6CE0
:10F43000817D511A014A516470470000C02F00209D
:10F44000F8B504460D46104E304684420BD1FF21DC
:10F450000131284609F004FC0646FF2001308642AF
:10F460000FD126460DE0FF2C0BDC2146284609F083
:10F47000E6FB0746002F01D0204600E00248064682
:10F4800000BF3046F8BD0000FFFF000010B5FF20B0
:10F490001430104908601049C87C10490968884731
:10F4A0000F481049486000200F49086101200F49AA
:10F4B000086100BF0C4800690028FBD000200A4901
:10F4C0000861FF201830034908600120074948609F
:10F4D00010BD000000120040C43400207023002042
:10F4E000A637002000150040001100400010004029
:10F4F00070B50546002D01D1094C01E0084C0834D7
:10F500000AE0204602F034FF0646002E00D104E057
:10F5100028467168884700BFF3E700BF70BD000050
:10F52000082E00200020054908600120810708609E
:10F5300000BF024800680028FBD07047000100406F
:10F54000FEB51F480068002836D01D4800680568D1
:10F550000AF0CEFD01901B480468214601980CF08A
:10F5600043F9C61C18480078002801D10AF0D2FDE2
:10F57000AE4201D2284600E0304604192402240A93
:10F5800020460AF0AFFD0AF0B3FD00900199009803
:10F590000CF02AF9C71C204601990CF025F9874286
:10F5A00009D90AF0A5FD07460AF09CFD2F2005F0B9
:10F5B0008BF80CF083FB01E00AF0CAFDFEBD0000F1
:10F5C000D4220020D8220020EC2200200146088806
:10F5D000062808DB08881922D201904205DD088838
:10F5E000104A904201D0072070474888062808DB5F
:10F5F00048881922D201904205DD4888094A904284
:10F6000001D00720F0E70888064A904208D04888D1
:10F61000904205D008884A88904201DD0720E3E740
:10F620000020E1E7FFFF0000FFB581B006460D4670
:10F6300014462088801D0499884202D90C2005B008
:10F64000F0BD3046FFF7C2FF074600BF002F01D0D4
:10F650003846F4E700BF0520218868542088401C04
:10F6600020801220218868542088401C2080228815
:10F67000511930880CF0B1FD218840182080228873
:10F68000511970880CF0A9FD2188401820800020B5
:10F69000D5E710B5044600BF2046FDF757F900BF77
:10F6A00010BD000030B587B01C216846FBF775FD22
:10F6B000002000900520C00301900F20000402905C
:10F6C0000321684601730021C18101740020059067
:10F6D000084806906846FEF77FF8044600BF2546B6
:10F6E000002D04D000BF2846FDF730F900BF00BF51
:10F6F00007B030BD93F6010038B51F4802F094FD05
:10F70000002829D11D48007800280AD01C484069EB
:10F71000002820D000200090194841696846884799
:10F7200019E018480078002802D11548456801E022
:10F73000134885680022294613480068FDF768FAD7
:10F740000446002C07D00E488069002803D00C48DE
:10F750008169204688470AE009484069002806D0A8
:10F7600001200090064841696846884700BF002094
:10F770000249087038BD0000E4210020EC2100207F
:10F7800064290020E021002064CE02003EB504463A
:10F790002088FEF799F800281AD020880F490978A8
:10F7A000FEF738F9002805D1208800220C49097895
:10F7B000FEF744F9218868464180052101702088C0
:10F7C000FEF78EF869460871684600F0F1FA04E029
:10F7D00020880122034900F099F93EBD3B22002018
:10F7E0003A2200200610000010B50A220021084627
:10F7F000FFF7B2F9044600BF002C03D0072C01D05C
:10F80000204610BD00BF072200210120FFF7A4F908
:10F81000044600BF002C03D0072C01D02046F0E79F
:10F8200000BF042202210120FFF796F9044600BF21
:10F83000002C03D0072C01D02046E2E700BF0020B7
:10F84000DFE7000070B506460D46002E01D001200E
:10F8500070BD2879002804D0012809D0022811D1D0
:10F860000EE028460AF0A8F80446022028710BE0B2
:10F87000284600F07FFD04460A2C00D1044C03E02A
:10F88000034C01E00F2400BF00BF2046E0E700006A
:10F890001D1D0000F8B5002535E0E8001C49096889
:10F8A000441821780120884006461A4800683040F4
:10F8B000002826D017480068B04316490860207811
:10F8C00005F060F90746217801208840124909684F
:10F8D0000840227839469140884211D16078012849
:10F8E00000D100E00020784001214840009060688D
:10F8F000002804D0009BD9B220786268904700BFEE
:10F9000000BF681CC5B2054800788542C5DBF8BD5C
:10F91000A8220020B8220020B4220020AC2200201F
:10F9200030B593B00221684601711E49C1801E495D
:10F93000018101214181402103A8FBF72EFC1BA17D
:10F9400003A8FEF739FB01A8119000BF10A8007AA8
:10F9500001090901491C10A80172007AF0218843AD
:10F96000203010A9087200BF00BF12A8407800091B
:10F97000000112A9487012A84078F021884312A90A
:10F98000487000BF03A8FEF7B5F8044600BF25463F
:10F99000002D04D000BF2846FCF7D8FF00BF00BFF1
:10F9A00013B030BD15190000EEEE00004E6F72640A
:10F9B000696353656D69636F6E647563746F72001C
:10F9C00070B5044620793D2801D1054801E0112099
:10F9D0000002054620880022294602F055FE70BD2F
:10F9E0003D10000020B50D480078401C0B49087000
:10F9F000084600780007000F08700949074A127886
:10FA0000885C05F0F9FD00BF2546002D04D000BF3D
:10FA10002846FCF79BFF00BF00BF20BDE91F002068
:10FA200078CC0200014614480078144A12789042BB
:10FA30001DD011480078401C0F4A10701046007805
:10FA4000022801D1002010700B48007880000C4A79
:10FA5000105808600B4A086812688018094A10603C
:10FA6000104600680002000A106001207047002064
:10FA7000086000BFFAE70000E4220020E522002031
:10FA8000DC220020D8220020F8B504460D46288844
:10FA90002070FF21090201400912617002210E4607
:10FAA000AA783146761C6254EA783146761C625454
:10FAB00000BF042E01D1012000E000200746002FE6
:10FAC00003D100BFFCF742FF00BF00BF3046F8BDC6
:10FAD000F8B505460E460024062706200090394654
:10FAE0000948FBF75AFB00BF0AE020460099FBF7E4
:10FAF00023FB705C295D484003490855601CC4B273
:10FB0000BC42F2DB0048F8BD7C210020FEB5044673
:10FB10000D461646084A07CA6B4607C36846448026
:10FB2000858086710022054801782046FDF786FF12
:10FB3000684600F03DF9FEBDD8CE02003A22002012
:10FB400070B504465A2109200CF088FE062009F001
:10FB5000A7FEC5B26D076D0F132C06D108202843F0
:10FB600041B206200CF07AFE03E069B206200CF0E8
:10FB700075FE61B24B200CF071FE002109200CF0E3
:10FB80006DFE70BD10B50446A08928DF10BD0000D1
:10FB900010B588B028A0006807901822274901A84E
:10FBA000FBF7E2FA0121684601717D21C90001825B
:10FBB00000210173224802906846417101210176BB
:10FBC0000521C175022141730021418201A805F080
:10FBD00027FC044600BF002C02D0204608B010BD10
:10FBE00000BF032005F0C6FC044600BF002C01D076
:10FBF0002046F3E700BF07A805F0E0FC044600BF7D
:10FC0000002C01D02046E9E700BFA321002005F029
:10FC100097FD044600BF002C01D02046DEE700BF60
:10FC2000042005F001FD044600BF002C01D0204651
:10FC3000D4E700BF2046D1E73E145B6D78CD0200CB
:10FC40006153020000B502781300FCF741F8073455
:10FC5000050811212A31340000220A702CE001220B
:10FC60000A7003898B818388CB81C2688A6023E014
:10FC700002220A7003898B818388CB81C2688A60E3
:10FC8000027C062A01D1012300E000230B7413E05B
:10FC900003220A70C3888B810389CB81C2688A6082
:10FCA0000AE004220A70C3888B810023CB8103E021
:10FCB00005220A7000E000BF00BF00BD70B5054618
:10FCC00000240AE0A00006490858002804D0A0003B
:10FCD0000A46115828468847641C082CF2D370BD88
:10FCE000282F00203EB505460C46002C1BD0112CB9
:10FCF00019D0002000900190029068464580019440
:10FD00000D2C03D10B206946087008E0862C03D126
:10FD10000A206946087002E00920694608706846B2
:10FD200000F056F800BF3EBD70B50546002405E062
:10FD3000A000044A115828468847641C002CF7D0BC
:10FD400070BD0000F021002070B50546002405E0DC
:10FD5000A000044A115828468847641C002CF7D09C
:10FD600070BD0000FC21002070B50546002405E0B0
:10FD7000A000044A115828468847641C022CF7D377
:10FD800070BD000080CE020070B50546002405E07D
:10FD9000A000054A115828468847641C034800788B
:10FDA0008442F5DB70BD0000B42D00203622002017
:10FDB00070B50546002405E0A000044A1158284605
:10FDC0008847641C022CF7D370BD0000A0CE02004F
:10FDD00070B50546002405E0A000044A11582846E5
:10FDE0008847641C002CF7D070BD0000E4CE0200F0
:10FDF000F0B50346002420E0134E306806689E42AA
:10FE000003D90668F61A06601BE006689B1B0668A5
:10FE10003419002606600C4E35680B4FC6693E60EB
:10FE2000C668002E08D00E193602360A4660C6682B
:10FE300086601668C661156000BF03480068002828
:10FE4000DAD100BFF0BD0000D42200201FB5044667
:10FE50006068002801D1012000E000200390207894
:10FE60000300FBF735FF068A04053456838A00BF7A
:10FE7000A08900F09FFA002804D1E08909F0B8FEBB
:10FE8000002823D0A08900F08FFA69464880E089D5
:10FE900009F0A8FE694608712078012807D160683A
:10FEA000002800D100E003206946087007E0606880
:10FEB000002801D1012000E0042069460870606834
:10FEC0000390A0680290684607F088FF56E0A0897A
:10FED00000F070FA002804D1E08909F089FE0028BA
:10FEE00016D0A08900F060FA69464880E08909F0E0
:10FEF00079FE694608716068002801D1022000E09F
:10FF0000052069460870A0680290684607F066FF01
:10FF100034E0A08900F04EFA002826D0E0890028BD
:10FF200023D1A08900F040FA69464880E08909F0B1
:10FF300059FE014668460171FF2101716068002881
:10FF400006D1062069460870488808F06BF902E07F
:10FF500007206946087000200E4908700E49087095
:10FF600008F0AEF8684607F039FF07E00820694658
:10FF70000870684607F032FF00E000BF00BF054888
:10FF80000078002804D000200249087008F098F892
:10FF90001FBD0000112200201222002010B588B0E1
:10FFA0000446022000F03EFA002802D1022008B0E8
:10FFB00010BD0C48844201D10420F8E705216846B1
:10FFC00001710121017201A8C4800022114607F0CD
:10FFD000C7F9002803D009F0C0FB0020E7E708209C
:10FFE000E5E70000FFFF000000B587B0022000F049
:10FFF00019FA002802D1022007B000BD0620694688
:020000040002F8
:10000000087000221146684607F0AAF900280AD0B5
:1000100006480078002802D001200449087309F03E
:100020009CFB0020E8E70820E6E7000028300020DD
:1000300010B58CB0142107A8FBF7AFF8022000F030
:10004000F1F9002805D007A8FFF738FE00200CB012
:1000500010BD012000F0E6F9002801D00020F6E7ED
:10006000012000F0EBF900F0CBFB0120694608709D
:1000700007F0C4FA04462300FBF72AFE0C07150814
:100080001628230A24281A1F1B2800BF0B20DEE78E
:10009000022000F0D3F9012000F0AAF907A8FFF729
:1000A0000DFE0020D3E700BF0020694608710EE076
:1000B00000BF03206946087109E002206946087103
:1000C00005E000BF01206946087100E000BF00BFE5
:1000D00000221146684607F043F909F03EFB002074
:1000E000B5E7000038B50446002C01D1052038BD25
:1000F0006946204609F07EFC00281DD0684600882D
:1001000000010F4940188089002813DDA07A0028DB
:1001100010D068460088000140188089401E81B2D6
:10012000684600880001064A801881810020A0727C
:10013000002502E0062500E00A252846D7E7000052
:10014000083000207FB514461D462B46224601A9E3
:10015000684609F0E9FB04B070BD37B50C4615469A
:100160002B4622466946002009F0DEFB3EBD37B52E
:100170000C4615462B4622460021684609F0D4FB62
:100180003EBD0246002A01D0002901D1052070475A
:10019000106808600020FAE738B504460D46002CC8
:1001A00001D0002D01D1052038BD6946204609F057
:1001B00021FC002816D061686846008800010A4AC0
:1001C00080188089401C82B2684600880001064B76
:1001D000C0188281296060680C3068600120A072BC
:1001E0000020E1E70A20DFE70830002070B5044670
:1001F0000D46002C01D1052070BD032300222946A5
:1002000020460CF00DFCF7E770B504460D460223BE
:100210000022294620460CF003FC70BD70B505464F
:100220000E461446002C01D1052070BD0223224643
:10023000314628460CF0F4FBF7E700000146094A76
:100240001278082A01D10C200AE0064A127892009E
:10025000054B9950034A1278521C024B1A70002029
:1002600070470000FD220020282F0020F8B504462A
:100270000D46022000F0D6F8002801D10220F8BD7A
:10028000002C01D10520FAE7694628460CF0C0FC95
:100290000646002E03D168460088208065803046DF
:1002A000EDE7000070B50446022000F0BBF800281E
:1002B00001D1022070BD002C01D10520FAE7208871
:1002C000022801DD0420F5E72088000109494618CD
:1002D00071896088C01C081A08D4218860880CF0D5
:1002E00089FC002020806080002500E0042528464D
:1002F000E0E7000008300020F0B585B007460C4666
:10030000207E002834D0E069002831D000252BE081
:10031000E900E0694618002003906846007B02214E
:100320008843811C03916846007B0821884308307C
:1003300003900A2068433946E0314018F179C90733
:10034000C90F321D0092019102903288B31C03A99B
:10035000384609F0BDFC04900498002802D00498A7
:1003600005B0F0BD681CC5B2207EA842D0DC00BF3D
:100370000020F5E73EB504460A4B6A460021A01D61
:1003800009F0D2FA0546002D06D1064A9188019857
:1003900009F0A2FB054603E002480021016041602C
:1003A00028463EBD0C230020014603208003081A86
:1003B00080B27047014603208003814204DB03487A
:1003C000814201DC012070470020FCE7FEFF0000B5
:1003D00010B50446A07EFF2802D0A07E05F00CFBDD
:1003E000002060762071201D2168884710BD000024
:1003F000024909788143014A11707047FC220020AC
:1004000010B504462078182802D1FDF7E1FA2070D3
:1004100010BD10B504462078182802D1FDF7D8FA8F
:10042000207010BD0146044800780840002801D023
:10043000012070470020FCE7FC22002002490978D7
:100440000143014A11707047FC22002030B5044678
:100450001088C01C984201D90C2030BD022015889C
:1004600048551088401C1080012015884855108878
:10047000401C108015884C551088401C10800020AE
:10048000EBE70000F8B506460C46154600270020AD
:100490000090862C03D0112C01D0002C37D1862C53
:1004A00003D10020009001270AE0112C03D1012084
:1004B0000090002704E0002C02D1002000900027CB
:1004C000002D18D03A46124801783046FDF7B6FAAA
:1004D000104801783046009AFDF7B0FA00220E4825
:1004E00001783046FDF7AAFA00220C480178304620
:1004F000FDF7A4FA0BE03A46074801783046FDF7CD
:100500009DFA064801783046009AFDF797FAF8BD43
:1005100051220020502200204D2200204C22002099
:1005200008B5684600F0CEF90098002801D00120F7
:1005300008BD0020FCE7000002210B4A516000BF0B
:100540000A4909680029FBD00749886000BF0749AC
:1005500009680029FBD00021034A516000BF03490C
:1005600009680029FBD0704700E5014000E4014024
:1005700001220B4B5A6000BF0A4A1268002AFBD0C6
:10058000016000BF074A1268002AFBD00022044B1A
:100590005A6000BF034A1268002AFBD0704700006F
:1005A00000E5014000E40140F8B505460C4616465A
:1005B0001F461F480078C007C00F002801D1012046
:1005C000F8BD2846FEF7DAFE002801D10220F7E741
:1005D000002C01D10320F3E7A005800D002801D0F5
:1005E0000620EDE72868A04204D8B0020019696827
:1005F000884201D90520E3E7002E01D10420DFE77E
:10060000684608F09DFF002801D10720D8E7009830
:10061000476000980560022000990872A001000C54
:10062000009988810098068209F0A4F80020C7E7A5
:100630001623002070B505460C46204608F0B2FF90
:1006400070BD0000F0B585B005460E460024287840
:10065000002847D1002E45D154480078022804D004
:10066000032806D004283BD136E0032002F016FA16
:1006700037E04F48007800281FD14E4B0FCB6F4614
:100680000FC71A216846C1701E218170192141705F
:100690001821017000BF484A6946484804F03CFCF4
:1006A0000746002F04D000BF3846FCF74FF900BFC3
:1006B00000BF01203E49087000BF41480078002873
:1006C00005D11B20FFF73CFA01203D4908700520A9
:1006D00003F0A8FFFBF7DCF8022002F0DFF900E0EE
:1006E00000BF60E0287801285CD1002E5AD12F4845
:1006F0000078002806D001281CD002282ED004281B
:100700004ED136E02F480078002812D0002406E0B1
:100710002D48005DA1002D4A5050601CC4B2062C2B
:10072000F6DB002000902A480623284A016800F0E2
:10073000D5F836E0002406E02648005DA100234AF3
:100740005050601CC4B2062CF6DB002000902248FA
:1007500006231E4A016800F0C1F822E000201B4970
:10076000086000901D480123184A016800F0B6F89F
:1007700017E0002006E01A4A411C515C8200134B2E
:100780009950401C0628F6DB0020009012480068B3
:100790000146183106230D4A0F4800F09FF800E08B
:1007A00000BF00E000BF05B0F0BD000050200020F9
:1007B0007220002054CD020051B40200ACCC0200E3
:1007C000762000206D200020962000203820002078
:1007D000782300202920002088230020982300204F
:1007E0002220002005484169481C002801D0084605
:1007F00070470120000740698002F9E700100010EF
:10080000FEB52D482D49401A04092B48401A050908
:10081000FFF7E8FF02902A480078C007C00F0028C1
:1008200001D00020FEBD00200AE00201234BD118B8
:100830000A68002A03D04A68002A00D06D1E401CB6
:10084000A042F2D300202CE002011C4BD118002260
:100850000192C2B20092002213E01601174FF31961
:100860001E68002E03D05E68002E00D008E05F7B7B
:10087000019EB74203DD5E7B0196D6B2009600BFB3
:10088000521CA242E9D3009A12010C4BD118029AD1
:100890004A600A7B9302029AD21A0A600A6802929C
:1008A000401CA842D0D306480078012108430449DF
:1008B00008700020B6E70000C8230020782300203D
:1008C000162300200146002901D103207047024869
:1008D000406E08600020F9E744300020F8B5054676
:1008E0000C4616461F4623480078C007C00F002854
:1008F00001D10120F8BD2846FEF740FD002801D1B6
:100900000220F7E7002E01D0002C01D10320F1E7EF
:10091000B007800F002803D1A007800F002801D066
:100920000620E7E72868A04204D8B90009196868DA
:10093000884201D20520DDE7002F01D10420D9E74C
:10094000684608F0FDFD002801D10720D2E7009994
:100950000698486000980560012000990872009888
:10096000C660009804610098878208F003FF0020A9
:10097000C0E700001623002070B504461848006E3A
:1009800018214843164945181648007802210840A6
:1009900000280DD0022C02D0032C08D103E02846F9
:1009A00006F0DCF803E0284606F0C2F800BF14E0C9
:1009B0000C4800780421084000280ED0094800782F
:1009C0008843084908700648406E002805D008464C
:1009D0000078022108430349087008F037FE70BD13
:1009E00044300020162300203EB500BF6846007842
:1009F00001090901491C009168460078F0218843EB
:100A00001030009000BF25480078002805D0122241
:100A100023A168467CDF044604E0092225A168463C
:100A20007CDF044600BF2546002D04D000BF2846C9
:100A3000FBF78CFF00BF00BF214878DF044600BFF2
:100A40002546002D04D000BF2846FBF77FFF00BFDE
:100A500000BF002001900290062168468180C1807D
:100A60000E480078002806D0822168460181FF21C7
:100A70002D31418104E00021684601810A21418134
:100A800001A87ADF044600BF2546002D04D000BF30
:100A90002846FBF75BFF00BF00BF3EBD6D20002076
:100AA000426C7565746F6F74685F4D6F75736534F4
:100AB0002E3000004F6E6C795F7465737400000017
:100AC000C203000070B50546002D01D0012070BDA5
