:020000040001F9
:10B00000E82D0020D5B00100EFB00100F1B0010043
:10B010000000000000000000000000000000000030
:10B02000000000000000000000000000F3B001007C
:10B030000000000000000000F5B00100F7B00100C2
:10B04000F9B00100F9B0010095B40100F9B00100B8
:10B05000F9B001000000000011B20100F9B00100D8
:10B06000F9B00100F9B00100F9B00100F9B0010038
:10B07000F9B00100F9B00100F9B00100F9B0010028
:10B08000F9B00100CDB30100F9B00100F9B0010041
:10B09000EDB30100F9B00100F9B00100F9B0010011
:10B0A000F9B00100F9B0010000000000000000004C
:10B0B0000000000000000000000000000000000090
:10B0C0000348854600F070F8004800477DBE010047
:10B0D000E82D00200321094802680A43026008485D
:10B0E00002680A4302600748804707480047FEE7B6
:10B0F000FEE7FEE7FEE7FEE7FEE70000240500406E
:10B1000054050040F5B30100C1B00100004870478C
:10B1100088CB010003460B439B0703D009E008C915
:10B12000121F08C0042AFAD203E00B780370401CF7
:10B13000491C521EF9D27047421C0178401C00295C
:10B14000FBD1801A7047F0B51FB40646002082B0CC
:10B1500005464024019100901BE0019922460F46CC
:10B16000304600F043F8049A059B801A994110D3A9
:10B1700010461946224600F029F8361A8F410197E9
:10B18000224601200021009F00F020F838184D4190
:10B1900000902046641E0028DFDC019B00982946B1
:10B1A000324607B0F0BD0000064C0125064E05E012
:10B1B000E36807CC2B430C3C98471034B442F7D3D8
:10B1C000FFF782FF98CB0100B8CB010010B5202A11
:10B1D00004DB0146203A9140002010BD914020231D
:10B1E0009C1A0346E3401943904010BD10B5202A35
:10B1F00004DB0846203AD040002110BD0B46D34066
:10B20000D0402024A21A91400843194610BD0000E6
:10B21000F0B50024FF268BB00136012527460694A1
:10B22000304601F003F8002807D05448406828420F
:10B2300003D0304600F0F2FF2C43361D6D007F1C1A
:10B24000B6B2042FECD3FF257D35284600F0EEFF83
:10B25000002809D0284600F0E1FF6807044306AA49
:10B260000121002000F0C6FF454D200714D0012722
:10B27000002627420CD04348B2001118086909691A
:10B28000C004C00E8903AA58890F002A00D0904735
:10B290007F00761C042EECD3002C6DDA0020089081
:10B2A000401E63E0281940300778B906890E0091E6
:10B2B00000214156491C49D009A9009800F010FE10
:10B2C000002843D0B8090190009800F073FC80007A
:10B2D0002F580198002F02D0032802D00DE0032838
:10B2E00034D1009808ABC20841079446985C490FD6
:10B2F00001228A40104362469854009805210907AC
:10B3000080004018072109024018006806A9800340
:10B31000800F0290009800F0E3FD0028029802D010
:10B32000022802D012E0032810D10198032808D186
:10B33000029802281ED00221009800F049FF761CD6
:10B34000F6B2002F02D001990098B847641C042C73
:10B35000A8D3002E10D06A460121002000F04AFF39
:10B3600006990098884207D006900898002634462F
:10B37000099097E70321DFE70BB0F0BD00630040C1
:10B3800068200020006500408307FF22DB0E9A4002
:10B390008907090E994000280BDA0007000F0838CA
:10B3A000830808489B001818C36993430B43C36183
:10B3B0007047830804489B001B1818689043084393
:10B3C0001860704700ED00E000E400E010B50649A9
:10B3D0000020086048608860C86003494039086000
:10B3E000486001F059FA10BD4011014010B501F05C
:10B3F000E9F910BD10B500F069FC002805D01F491F
:10B400001D484860C8131E4988611E48018CC9B296
:10B4100001290BD1828C120708D1028D1206120F5E
:10B42000042A03D1828D1206120F0AD0012921D1DC
:10B43000818C09071ED1018D0906090F0A2904D044
:10B4400007E0114A01219160F5E7828D1206120F83
:10B4500005D00D290ED1808D0006000F0AD10B48B2
:10B460000168012904D00A49016001680129FCD161
:10B47000C021416110BD0000DFFF07C00005004092
:10B48000006C0040C00F00F00006004000EC0640D9
:10B490007593000010B50249024801F07BFA10BD17
:10B4A000B0200020002000400FB41CB50A46521EF8
:10B4B0000192009007A9064B6A46069800F026F80C
:10B4C000009A002111701CBC08BC04B01847000091
:10B4D00081B9010030B47446641E2578641CAB4207
:10B4E00000D21D46635D5B00E31830BC184702E0E4
:10B4F00008C8121F08C1002AFAD1704770470020FF
:10B5000001E001C1121F002AFBD17047FFB591B0C5
:10B510000F460546002606E025280AD0149A1399FE
:10B5200090476D1C761C28780028F5D1304615B060
:10B53000F0BD002400940121F34A029400E004438A
:10B540006D1C2B780846203B98401042F7D1287894
:10B550002A280ED0022128780246303A092A15D826
:10B56000009A0A235A43303A80180C436D1C00900D
:10B57000F1E701CF0090002805DA012040030443E1
:10B58000009840420090022004436D1C28782E2829
:10B5900015D10420044368786D1C2A280AD101CFF4
:10B5A0006D1C02900BE002990A2251433039401879
:10B5B0006D1C02902878014630390929F3D9287882
:10B5C0006C2810D006DC4C281AD068280ED06A28C7
:10B5D00017D104E0742813D07A2812D110E001208A
:10B5E000400504430CE00121090501E003210905A0
:10B5F0000C436978814203D10120000524186D1C99
:10B600006D1C287803906E281ED00CDC632831D086
:10B6100004DC00288AD0582811D1B2E064287BD0FD
:10B6200069280CD178E073282DD004DC6F2870D005
:10B63000702804D1A7E075286CD078286BD0149AB4
:10B6400013999047761C62E06002400F022807D0F1
:10B6500003280AD0042838680AD006603F1D56E047
:10B660003868F11706604160F8E738680680F5E74A
:10B670000670F3E73878694608740020487404A817
:10B680000390012003E0386803900020C0433F1D71
:10B6900061070FD5002101E00199491C029A01912F
:10B6A000914213DA8142F7DB019A0399895C002900
:10B6B000F2D10BE0002101E00199491C0191814286
:10B6C000FADB019A0399895C0029F5D10199009868
:10B6D000139A401A00902146149B00F03BF90199FF
:10B6E0008019461807E0039803990078491C0391D4
:10B6F000149A139990470198401E0190401CF2D172
:10B700002146149B139A009800F014F986196D1CB9
:10B7100009E741E033E034E00A200021049005917C
:10B720006002410F022905D001CFC21794460329B8
:10B7300005D007E0FF1DFF08FF0003CF06E000B2C1
:10B74000C2179446042902D140B2C1178C46002288
:10B750006146944506DA0A460021404291418C46F2
:10B760002D2102E0210504D52B216A461176012105
:10B7700003E0E10701D02021F7E7019154E00A201E
:10B780000BE0102009E01020049000210420044365
:10B7900008200591029003E0082000210591049003
:10B7A0006002410F022905D001CF002294460329EF
:10B7B00006D006E0FF1DFF08FF0003CF8C4603E024
:10B7C00080B2042900D1C0B20021019121072BD5FC
:10B7D0000399702906D0049A1021059B4A401A4308
:10B7E00005D00EE040216A461176012108E061464D
:10B7F000014306D030216A46117603995176022121
:10B800000191049A0821059B4A401A430CD16146D4
:10B81000014301D1610707D530216A461176012124
:10B8200001910299491E02910399582904D037A128
:10B8300003910FA90F910DE039A1F9E76146059B2E
:10B84000049AFFF780FC039B8C469B5C0F9A521E68
:10B850000F92137061460143F0D10F9807A9081A9F
:10B8600020300390600704D501200004844302982F
:10B8700001E0012002900399884201DD401A00E0B6
:10B88000002041180290019809180098401A009071
:10B89000E00306D42146149B139A009800F05AF84E
:10B8A00086190020049008E006A9085C149A1399F0
:10B8B00090470498401C761C049001998842F3DB61
:10B8C000E0030CD52146149B139A009800F042F82F
:10B8D000861904E0149A302013999047761C029937
:10B8E000481E02900029F5DC08E00F980F990078B7
:10B8F000491C0F91149A13999047761C0399481E7E
:10B9000003900029F1DCFBE60928010030313233D5
:10B91000343536373839616263646566000000008B
:10B920003031323334353637383941424344454675
:10B9300000000000F8B5044600251E46174688049E
:10B9400004D405E039462020B0476D1C641EF9D5AB
:10B950002846F8BDFFB50446002581B01E46C80341
:10B9600001D5302700E02027880404D505E03846BB
:10B970000399B0476D1C641EF9D5284605B0F0BD8B
:10B980004A68002A06D00A68531C0B601070486889
:10B99000401E48607047000009A1012000F068FEC9
:10B9A00000F0AEFD00F0B2FD0028FBD1BFF34F8FD9
:10B9B0000A490948C860BFF34F8F00BFFDE7000088
:10B9C0004150505F4552524F523A4552524F523AAF
:10B9D000466174616C0D0A000400FA0500ED00E098
:10B9E0000EB50021029000916A4601910148FFF7CF
:10B9F000D3FF0EBD01400000FFB5074690070025AC
:10BA000081B01E461446002825D1002C23D000F01A
:10BA10007BFE3046114EF0603046103005704570A8
:10BA20000299817044607560357001240C4875700E
:10BA30002405046003211420FFF7A6FC09480460D4
:10BA4000094CA76003211120FFF79EFC6068B060DD
:10BA5000002005B0F0BD0720FBE70000E81F002034
:10BA600080E200E000E100E00015014000B500F0D8
:10BA700005F800BD00B500F009F800BD72B6024837
:10BA80000168491C016070470820002003490868CC
:10BA9000401E086000D162B67047000008200020F8
:10BAA000F8B5074608680C460526411C01253602F4
:10BAB000002906D02946814019488160206800F09D
:10BAC0007DFB6068411C02D0002100F06EFB3968EC
:10BAD000A06989194862607D217D3A6808439119FF
:10BAE000C866386806CC80194261C160207B083C7A
:10BAF000012814D1A068411C02D0002100F055FBA0
:10BB0000E068411C05D0854005488560E06800F08C
:10BB100055FB3A68E1689219A06891601061F8BD20
:10BB200000050050002901DA002070470268511812
:10BB3000016001207047000070B5461C0D460124CD
:10BB40000020FFF793FF134A1068286011685068BF
:10BB50009368081A1D1A701C6D1CA84212D9002D7A
:10BB60000ED00D480D4C0088246880051940800DCA
:10BB7000A402890020438918C8601068401C106026
:10BB8000002401E0881910600020FFF773FF2046B1
:10BB900070BD0000CC210020E0CA01001820002068
:10BBA000034803C8814201D101207047002070473B
:10BBB000CC210020024909182020085670470000B7
:10BBC00068200020054901208861054900224A605B
:10BBD0008207906048680028FCD07047000500404C
:10BBE00000010040F8B52348416800293ED00E68A6
:10BBF00021494C6887688078E11B0D022D0AED1CF5
:10BC0000002814D101201D4A000450601B4A403A0C
:10BC100050601B49400008601A4908601A49012019
:10BC200008602F2000F064F9124901208870B542A5
:10BC300000D23546E81900020F4B000A4033186065
:10BC40000D4A5168001B091B0902090A0002000A7B
:10BC5000C91C814209D9506818602F2000F048F9AA
:10BC600001200749400480390860F8BD00F04CFD10
:10BC7000F8BD0000E81F00200015014040130140FE
:10BC800080E200E000E100E00010014010B50E4944
:10BC900000230A784C78A24212D0521CD2B20A7009
:10BCA000022A00D10B700A78074B920018339A5879
:10BCB0000260886810180002000A8860012010BD28
:10BCC0000360002010BD0000E81F00201048018C18
:10BCD000C9B2012917D1818C090714D1018D090638
:10BCE0000A0F03D1828D1206120F0ED0090F0129FF
:10BCF00003D1828D1206120F07D0032903D1808D44
:10BD00000006000F01D0002070470120704700009E
:10BD1000C00F00F0F0B5284C2146103948688B68F8
:10BD2000227886469C46CF78667836E018235343BF
:10BD30006168521CC918A378D2B2934200D1002284
:10BD40000B78022B02D0032B27D123E003464D684A
:10BD5000194603E0A94204D00B46C96900291CD04A
:10BD6000F8E7002919D08B4208D1C069002805D115
:10BD7000124F0125BD600025AC4601270D68C96939
:10BD8000D961002909D00B685B190B6005E00174CB
:10BD9000C06900E000210028F9D19642C6D10649C9
:10BDA000624610398A604860CF70704501D001202A
:10BDB000F0BD0020F0BD0000F81F00200010014081
:10BDC000F8B52C4E044670680025009041E0002C28
:10BDD00002D02046E46920E026481823103001787C
:10BDE00042684B43491CC9B2D2180170837899420A
:10BDF00000D105701178506801292CD1017C0029EF
:10BE000029D191684160D16881601169C16051692F
:10BE10008161F178002900D045604368B268164F0F
:10BE2000991A0902090AB94202D28268891806E001
:10BE3000D11A09028268090A8A4202D9511A01609C
:10BE400000E005604560012185600174C56100F076
:10BE500003FD002CBBD107481030017840788142A7
:10BE6000BAD171680098814201D00120F8BD00204C
:10BE7000F8BD0000E81F0020FFFF7F00FFF7A2FED3
:10BE800000230E4A03211846FFF7B6FD002801D013
:10BE9000FFF7A6FD002000F017FC002801D0FFF7F7
:10BEA0009FFD07A1032000F0E3FB00F02FFB00281B
:10BEB000FBD140BF20BF20BFF7E7000020200020BB
:10BEC0004150503A494E464F3A42535020657861AE
:10BED0006D706C6520737461727465642E0D0A0058
:10BEE000C20843075B0F0120895C984008407047F7
:10BEF00000280FD00849094A096800BF00BF00BFE9
:10BF000000BF00BF00BF00BF00BF914200D000BF14
:10BF10000138F2D1704700001C2000200024F400FA
:10BF20008207D30EFF229A408907090E10B5994067
:10BF300000280BDA03071B0F083B9C080C4BA400DE
:10BF4000E318DC6994430C43DC6107E08408094B87
:10BF5000A400E418236893430B432360C106C90E71
:10BF600001208840044908600449086010BD0000B1
:10BF700000ED00E000E400E080E200E000E100E02D
:10BF8000F8B506460F4600791C2148431A49154664
:10BF90004418E07E002801D00820F8BD394630461C
:10BFA000FFF77EFD6560386920602846002500287F
:10BFB00013D0FF223068397F1D328550FF22306850
:10BFC00045328550032330681B020C4AC01842607A
:10BFD0003068000B40B2FFF7A3FF05223068042150
:10BFE000120280180160E5752576A5750121E176BC
:10BFF0002846A576F8BD0000B02000208000020091
:10C0000070B505460C4600791C2148430849431881
:10C01000284600F055F8002801D0112070BD9A750F
:10C0200000209C609882284600F004F870BD000053
:10C03000B0200020F8B5044600791C2148431F4970
:10C0400000264518FF2720681D37C65120680121AA
:10C0500081602946206800F079FC6968002913D0C6
:10C0600027E0FF270137FF211D31206800F03EFB4C
:10C07000002802D1A88AB842F5D1A88AB84203D0D4
:10C080002946206800F062FCA88AA97D8842E8D38E
:10C09000A98AC81FF9380ED0FF271D3739462068F6
:10C0A00000F024FB0028F9D020680121C1600020A5
:10C0B000A8753046F8BD0F26F9E70000B020002033
:10C0C00000791C21484303494018807D002800D096
:10C0D00001207047B0200020F8B501791C2251439F
:10C0E000204A00238D1805220168120289180B606E
:10C0F000696800290CD00324016824021A4B09192D
:10C100008B600168C903CB0E01219940174B196060
:10C110000522016812028A18D36856699768146963
:10C120000021C9435161D1600068052212028018C4
:10C1300081600161581C02D0184600F02DF8701C77
:10C1400002D0304600F028F8601C02D0204600F0F3
:10C1500023F8781C02D0384600F01EF80020E8765C
:10C160006860F8BDB02000208402020080E100E099
:10C1700070B552000A439900049D0A432902059EA6
:10C180000A43310405240A432407800007210019CB
:10C1900009024018026070BD1CB5002100910B46D9
:10C1A00001220191FFF7E4FF1CBD1CB500220B46E4
:10C1B000009211460192FFF7DBFF1CBD1CB5002168
:10C1C00000910B46012201911146FFF7D1FF1CBDE2
:10C1D000052212078000821807200002101802684A
:10C1E00003231B049A430260026809040A430260A5
:10C1F0007047000038B5084B05241B6800932402E3
:10C200006B46411805E085005D592D192D69401CCC
:10C2100020C28142F7D838BDBCCA0100024940188B
:10C220000021016070470000006000400349401891
:10C230000068012800D00020704700000060004026
:10C2400000487047C1C2010030B5194C054620783E
:10C2500089B0002805D06078854202D1002009B05D
:10C2600030BD202213496846FEF754FF002069467E
:10C270000875092000900B200190082003900A20E7
:10C2800002900D4806900A48001DFFF725FF002D7B
:10C2900001D0002200E0094A05486946001DFFF769
:10C2A0006FFE0028DBD1012020706570D6E700000A
:10C2B0000C200020C0CA010000E0D70185C90100A0
:10C2C000F0B5C5B00C46002100914D984B991E4623
:10C2D000081817460390002C01D00A2000E0002027
:10C2E000019000F051FA00287ED104AD002E17D144
:10C2F00000986A462918204600F00EFB002875D0E9
:10C300003846FEF719FFC22800D9C220044600981B
:10C31000224628183946FEF7FDFE009800190090C5
:10C32000009901980A1804A8441831328518002091
:10C3300003E020212170401C641C01998842F8D33D
:10C3400000270398864207D3202020706070A070D9
:10C350002870E41C6D1C2CE04B98864202D24A984F
:10C36000805D02E0311A4C98405C224684460121EF
:10C3700002908B006046D8400007000F092801D9C1
:10C38000373000E0303001235B1AD054491EF0D220
:10C3900020209070D41CFEF7B9FE01680298085C5A
:10C3A0008006C00E01D0029800E02E2028706D1C7F
:10C3B000761C7F1C102FC4D30D2028700A206870B3
:10C3C00020202070009901980918433104A8009199
:10C3D00000F0E2F9002809D000F0D6F9002805D1D4
:10C3E00000900398864200E000E099D3304645B0C3
:10C3F000F0BDFFB5C7B00025509F1C46059500F065
:10C40000C3F9002875D1059806AE311805AA4898D9
:10C4100000F082FA002836D03846FF2701370300A3
:10C42000FFF758F80705131B333F4B572500499872
:10C43000FEF782FE059905464018FF2817D87018A8
:10C440002A464999FEF766FE11E005982368391AD5
:10C450003018499AFFF728F808E0606800900598BE
:10C460002368391A3018499AFFF71EF805462946FD
:10C4700005A8FFF757FB059900283AD0B94238D8EC
:10C4800006A800F089F94BB0F0BDA1686068009083
:10C49000019105982368391A3018499AFFF704F872
:10C4A000E4E7201D07C86B4607C305982368391ABF
:10C4B0003018499AFEF7F8FFD8E7201D0FC86D46DF
:10C4C0000FC505982368391A3018499AFEF7ECFF12
:10C4D000CCE7204608300FC801AD0FC5606800905A
:10C4E00005982368391A3018499AFEF7DDFFBDE731
:10C4F000FFE70020C7E7000000487047F3C30100D2
:10C5000010B50120FFF7A0FE10BD0000F0B595B0FA
:10C51000FFF746FB002802D0002015B0F0BD4B48C5
:10C520004468866821463140890009180C94CD681A
:10C530000BE02904A80D890D40180419204630404D
:10C54000810042480C940818C568641CA807F0D004
:10C5500000200890A807800F3D4B022807D0AA0AA8
:10C56000A805000F84460EA99646002059E02046F3
:10C57000304081003548641C0818C0680494864621
:10C580002804800D84463440301B8000AF0D001D10
:10C59000874222D92D490C31002807D02B4AA4000C
:10C5A000A21814460C34C2B2381A03E00C4600211B
:10C5B000FAB20846C0B20390019202910094A80614
:10C5C0005C69400F634672460899A047B84213D190
:10C5D000FF1C0498B9080C1830E01C48A200101881
:10C5E00000210C300090029101970391A8065C692C
:10C5F000400F63467246E8E7164980050D40000C7F
:10C6000005430C983040810010480818C56017E0B9
:10C6100027463740BA000D4F401CD719FF68641CED
:10C6200080C167466045F3D3A80600971D69400F97
:10C630000EAB72460899A847002801D00348446011
:10C64000FFF7AEFA0121484067E70000CC21002047
:10C65000CC2500203F00FFFF00B5044AFF23936074
:10C6600000231360536000F029F800BDCC210020A6
:10C67000F8B5104D0E46074600206946AC68FFF736
:10C680005BFA002815D00C483C2180888843790744
:10C69000890E08430F21890188438105890DB00265
:10C6A000014300980246224092005219401CD1607A
:10C6B0000090F8BDCC210020E0CA0100014A516180
:10C6C00010617047CC25002070B506460020FFF7AA
:10C6D000BBFD040008D1FFF7B3FD0546FFF70CFFD3
:10C6E00032462946FFF7B8FF204670BD4058002863
:10C6F00000D00120704703221202801840680840D1
:10C7000000D001207047000070B501240B4960047F
:10C7100008600B4940108860094940398860094D1C
:10C720006C602F20FFF7E4FBAC60074D00242F2046
:10C73000AC60FFF7DDFBAC7070BD000080E100E095
:10C740004013014000100140E81F002030B5FF22D7
:10C750000523CD7D002409321B02C318002D84500F
:10C76000986905D04B7ECA68D054487E401C4876F4
:10C7700030BD1FB501246B461C701972019206C8AA
:10C78000684690471FBD000010B50248FFF798FCAF
:10C7900010BD00001020002070B50D460A4601466D
:10C7A00001240648FEF7B6FCEAB204490448FFF744
:10C7B00027FC002800D00024204670BDCC2000209B
:10C7C00010200020FEB51F4C0025A768606802906D
:10C7D0006846FFF75BFA0190FFF79CFA064601985E
:10C7E000002822D000230098616817E00E680A46EE
:10C7F000864202D9301A086012E0801BF318002626
:10C800001660D668D169B446002E07D0FE183602ED
:10C81000360A566066469660D56115460029E5D110
:10C8200028466160FFF7CCFA06E02846FFF7C8FA11
:10C83000002801D1002E02D00298FFF7D3F9002082
:10C84000E070FEBDE81F00200120024900050860DD
:10C850007047000000E200E010B50E4B5968002957
:10C8600006D002680C68A24204D8A21A0A60C1610C
:10C87000586010BD0B4604E00B46C969121B002925
:10C8800004D00C689442F7D3A41A0C600260C16112
:10C89000D86110BDE81F0020F8B51D4D6C68002C54
:10C8A00034D01C4800274068A968401A0602360A9E
:10C8B0002068B04218D8361AC7192246107CE4699D
:10C8C00000280FD000201074EB68002B07D091696E
:10C8D00050699847002805D0FFF782F802E05169B7
:10C8E00090698847002CE3D129786878814206D185
:10C8F000401CC0B26870022801D100206870044951
:10C900000006800D18310F50FFF79EFFF8BD0000A4
:10C91000E81F00200015014010B514460246012012
:10C92000002A0BD008461368FF2106A20131FEF74A
:10C93000BBFD01462046FFF7F5F810BD0021216040
:10C9400010BD00005B253038645D0000FF221D3201
:10C95000002383508B8A8A68D25C8B8A5B1C8B8213
:10C96000052109024018C26170471FB500226B46BD
:10C970001A70197281680191827506C868469047DD
:10C980001FBD00000078012801D10149887070475F
:10C990000C200020F0B50C46012185B00546490267
:10C9A000FFF7A9FE032109026F180026002826D0F0
:10C9B000FF2125312846FFF799FE00281FD0FF20D0
:10C9C00025302E5081208000B860A07E002801D143
:10C9D000012068600221684601700920C001291801
:10C9E000086808600390E17D68460172E068019084
:10C9F000E675267606CC6846083C90472DE0042173
:10CA00002846FFF778FE002827D0FF210931284665
:10CA1000FFF76CFE002820D021462846FFF796FE3F
:10CA2000E07D617E884218D1207E002807D0617E9B
:10CA3000E268E0752069E060267666760AE0A07E0E
:10CA4000002801D10120686081208000B860E6756F
:10CA5000617EE2682046FFF78CFEFF271D373946CE
:10CA60002846FFF743FE00280FD0A08AA17D884208
:10CA700004D221462846FFF769FF06E0EE51A17D6A
:10CA8000002902D02046FFF770FFFF2745373946BF
:10CA90002846FFF72BFE00280ED0EE51A07E00287E
:10CAA00001D001202860E07D002805D0E675617E78
:10CAB000E2682046FFF75DFE05B0F0BD00000050C3
:10CAC000FFFFFFFFFFFFFFFFFFFFFFFFFFFFFFFF76
:10CAD000000000000000000000E0D701030000009B
:10CAE000290000000100000001000000010000001A
:10CAF0000100000001000000010000000100000032
:10CB00000200000000404040404040404040414161
:10CB10004141414040404040404040404040404012
:10CB200040404040400502020202020202020202AC
:10CB300002020202022020202020202020202002A9
:10CB40000202020202029090909090901010101039
:10CB500010101010101010101010101010101010D5
:10CB60000202020202028888888888880808080869
:10CB70000808080808080808080808080808080835
:10CB8000020202024000000005CB01004F766572F0
:10CB9000666C6F770D0A0000B8CB0100E81F00201B
:10CBA00038000000EEB40100F0CB0100202000208E
:10CBB000C80D0000FEB401000000000000000000ED
:10CBC0000000000000000000000000000000000065
:10CBD0000000000000000000000000000000000055
:10CBE00000200040000000008CCB01000024F40075
:040000050001B0C185
:00000001FF
