:020000040001F9
:10B00000283E0020D5B00100EFB00100F1B00100F2
:10B010000000000000000000000000000000000030
:10B02000000000000000000000000000F3B001007C
:10B030000000000000000000F5B00100F7B00100C2
:10B04000E9B7010025B90100B5BB01005DBA0100F7
:10B05000F9B0010000000000F5B30100F5B20100F5
:10B0600085BB01009DBB0100F9B00100F9B00100F2
:10B07000F9B00100A5B90100F9B00100F9B0010073
:10B08000F9B0010035BA01003DB80100F9B0010086
:10B0900075BA0100F9B001007DBA0100B1BA010032
:10B0A000F9B00100F9B0010000000000000000004C
:10B0B0000000000000000000000000000000000090
:10B0C0000348854600F0B8F8004800473D280200D4
:10B0D000283E00200321094802680A43026008480C
:10B0E00002680A4302600748804707480047FEE7B6
:10B0F000FEE7FEE7FEE7FEE7FEE70000240500406E
:10B100005405004021BB0100C1B0010030B50B4621
:10B11000014600202022012409E00D46D5409D4231
:10B1200005D31D469540491B2546954040191546B7
:10B13000521E002DF1DC30BD70B5002425460028DC
:10B1400001DA01244042002901DA01254942FFF7D2
:10B15000DDFFAC4200D04042002C00D0494270BD1F
:10B160000048704778AE020003460B439B0703D0AC
:10B1700009E008C9121F08C0042AFAD203E00B78BC
:10B180000370401C491C521EF9D27047D2B201E034
:10B190000270401C491EFBD270470022F6E710B532
:10B1A00013460A4604461946FFF7F0FF204610BD35
:10B1B000421C0178401C0029FBD1801A704730B531
:10B1C00004460020034600E05B1C934203D2E05C8F
:10B1D000CD5C401BF8D030BDF0B51FB40646002052
:10B1E00082B005464024019100901BE0019922465F
:10B1F0000F46304600F042F8049A059B801A9941A8
:10B2000010D310461946224600F028F8361A8F410E
:10B210000197224601200021009F00F01FF83818F6
:10B220004D4100902046641E0028DFDC019B009801
:10B230002946324607B0F0BD064C0125064E05E012
:10B24000E36807CC2B430C3C98471034B442F7D347
:10B25000FFF73AFFCCAE0200ECAE020010B5202A98
:10B2600004DB0146203A9140002010BD914020238C
:10B270009C1A0346E3401943904010BD10B5202AA4
:10B2800004DB0846203AD040002110BD0B46D340D5
:10B29000D0402024A21A91400843194610BD70B531
:10B2A0008C180578401C6B075B0F01D10378401C9C
:10B2B0002A1106D10278401C03E006780E70401C6B
:10B2C000491C5B1EF9D12B0705D40023521E0DD457
:10B2D0000B70491CFAE70378401CCB1A921C03E060
:10B2E0001D780D70491C5B1C521EF9D5A142D8D3A4
:10B2F000002070BD0EB51D48C06800281CD1FF207D
:10B30000013008F0B5F8012008F0BAF800BF0020BD
:10B310001749086000BF01216846017000BF14484A
:10B32000806801B26846818001201049887408460F
:10B3300001686846884718E000F01EFF002814D016
:10B34000012008F09DF80020694608700748C06891
:10B3500001900648017C68460181012003498874F8
:10B36000084601686846884700BF0EBD542F00207C
:10B37000007500407FB500250FF09AF91949087053
:10B3800025E0194808F0C8FD0FF012F8174B0FCB55
:10B390006C460FC41A216846C1701E2181701921A4
:10B3A00041701821017000BF114A69460E4808F02B
:10B3B000E7FC0446002C04D000BF204601F026FA2A
:10B3C00000BF00BF0FF074F90649087000BF0548C0
:10B3D0000078002804D12846691C4DB20328D0DB30
:10B3E0007FBD000085210020C8AA0200A0AB02009A
:10B3F000A9980200F0B58FB000200E900D90FF20AC
:10B4000001300C900126002416E00C9809F09CF8FD
:10B4100000280BD000BF924840683040002805D07B
:10B420000C9809F089F80E9830430E9076000C982D
:10B43000001D80B20C90641C042CE6D3FF207D30EC
:10B4400009F082F800280DD0FF207D3009F074F853
:10B450000121C9070E9808430E900DAA0121002072
:10B4600009F04CF80E980007000F00282CD0012698
:10B47000002427E00E983040002821D000BF7948F2
:10B48000512109014018A10040581F21090208401C
:10B49000000A074600BF7348512109014018A10066
:10B4A0004058032109040840000C0B90204603F08B
:10B4B000E5FE0546002D02D038460B99A84700BF8F
:10B4C0007600641C042CD5D30E98C00FC00700284A
:10B4D00076D000200B900A90002505E00020C043A4
:10B4E000A90009AA50506D1C002DF7D000BF002004
:10B4F0000B9000247AE05C48005D0890C021089819
:10B500008843074658480057401C00286DD009A9B9
:10B51000384607F0C1FF002867D0C02108980840CE
:10B5200080110790384603F0EDFE059003F0A6FE6B
:10B5300006900698002802D10798032854D107984E
:10B54000032815D10AA803970290039FF9080191D7
:10B55000039F7907490F039101990298415C0123E8
:10B56000039A93401943CAB20199425400BF00BFE5
:10B5700000BF00BF052109070846B90007221202D3
:10B5800082185158032212041140090C05910DA98B
:10B59000384607F081FF04900498002802D00598EF
:10B5A000022805D0049800281DD1059803281AD137
:10B5B0000798032810D10598022802D1032001E042
:10B5C0004BE0022003903846039908F006FF0B98E1
:10B5D000401CC0B20B9000BF0698002803D038462C
:10B5E000069A0799904700BF00BF641C082C82D3BD
:10B5F0000B9800282CD0012708AA0121002008F070
:10B600007DFF00250AE0A80008A90858A9000DAA96
:10B610005158884201D0002702E06D1C002DF2D065
:10B6200000BF002F02D000200B9010E000250CE09E
:10B63000A80008A90858A9000DAA5050A8000AA9F6
:10B640000858A90009AA50506D1C002DF0D000BF69
:10B650000B98002800D04AE700BF0FB0F0BD0000F3
:10B660000063004000600040C42E0020C206D20EDD
:10B6700001219140014A11607047000080E200E022
:10B68000C206D20E01219140014A116070470000AC
:10B6900080E100E0C206D20E01219140014A116012
:10B6A0007047000080E100E0C206D20E0121914007
:10B6B000014A11607047000000E100E0C206D20EAE
:10B6C00001219140014A11607047000000E100E053
:10B6D000C206D20E01219140014A1160704700005C
:10B6E00000E100E0C206D20E01219140014A116042
:10B6F0007047000000E200E010B5002819DA1A4A8D
:10B7000003071B0F083B9B089B00D2588307DC0EE6
:10B71000FF23A3409A438B071B0E8407E40EA3402C
:10B720001A43114B0407240F083CA408A4001A5123
:10B7300018E00E4A03231B02D21883089B00D2583C
:10B740008307DC0EFF23A3409A438B071B0E84075D
:10B75000E40EA3401A43054B032424021B1984085A
:10B76000A4001A5110BD00001CED00E000E100E053
:10B7700010B5002819DA1A4A03071B0F083B9B086B
:10B780009B00D2588307DC0EFF23A3409A438B070C
:10B790001B0E8407E40EA3401A43114B0407240F29
:10B7A000083CA408A4001A5118E00E4A03231B0207
:10B7B000D21883089B00D2588307DC0EFF23A340D6
:10B7C0009A438B071B0E8407E40EA3401A43054BD4
:10B7D000032424021B198408A4001A5110BD000080
:10B7E0001CED00E000E100E010B5FF20013007F0A3
:10B7F0005EFE00280CD0FF20013007F063FE012020
:10B8000007F066FE01200C494870002003F07AFE24
:10B81000FF20053007F04BFE00280BD0FF2005303D
:10B8200007F050FE022007F053FE01200249887005
:10B8300003F068FE10BD0000602E00201CB500BFA4
:10B84000FF20013034494018006800281AD0012038
:10B8500009F01AFA002815D000BF0021FF2001309E
:10B860002D4A8018016000BF91156846018000BF15
:10B870002A48C06841B268468170294A01990098F7
:10B880001268904700BFFF20053023494018006828
:10B89000002822D0022009F0F7F900281DD000BFAF
:10B8A0000021FF2005301C4A8018016000BFFF21E5
:10B8B00005316846018000BF1848806901B26846BA
:10B8C000418000BF15484030806881B26846818061
:10B8D000134A019900981268904700BFFF20093071
:10B8E0000D4940180068002815D0042009F0CCF953
:10B8F000002810D000BF0020FF210931064A891816
:10B90000086000BFFF20093069460880044A019999
:10B910000098126890471CBD00200140002501409E
:10B92000AC22002010B51B480068002808D01A4837
:10B930004068C007C00F002802D0002015490860E9
:10B940001448C06800280FD01348406808210840F8
:10B95000002809D000200F49C8601048006800285E
:10B9600002D00E48006880470A48006900280FD0BE
:10B970000948406810210840002809D000200549E6
:10B98000086107480068002802D005480068804721
:10B9900010BD000000110040001300408023002073
:10B9A0007C2300201CB50020019001A801F0D6F8EE
:10B9B0000DF066FF002830D100BFFF20013019498B
:10B9C00040180068002801D0012000E00020002875
:10B9D00023D00120144989680140002901D00121A8
:10B9E00000E00021002918D000BF0020FF21013114
:10B9F0000C4A8918086000BF00BF0C488068C0B2BC
:10BA0000009069460A4809F067F9094809F04DF9BC
:10BA1000002801D008F080F900BF6846007901F0E5
:10BA2000C7F81CBD00D0004000D3004000D5004046
:10BA300000AD020010B5002007490860002106484B
:10BA400041608160C160002003494039086048605E
:10BA50000EF020F910BD00004011014010B5034C5C
:10BA60002146034806F06CFA10BD0000EC2E0020C1
:10BA70000030004010B50EF01DF810BD70B50B4839
:10BA8000006800280ED0094800688047044600BFBF
:10BA90002546002D04D000BF284600F0B7FE00BFA9
:10BAA00000BF01E006F05EF970BD00003423002005
:10BAB0003EB519480068019002A808F091FB0446C1
:10BAC000002C27D115480068002823D00298C00711
:10BAD000C00F002806D000206946087068460F494C
:10BAE00009688847022102980840002806D00120F2
:10BAF0006946087068460949096888470421029820
:10BB00000840002806D002206946087068460349AC
:10BB1000096888473EBD000074230020542300209C
:10BB200010B506F04DFA002805D0104810494860BD
:10BB3000C8131049886106F027FA002802D00120B6
:10BB40000D49886006F072FA00280ED00B48006894
:10BB5000012807D00A480949086000BF0748006863
:10BB60000128FBD1C0200549486110BDDFFF07C097
:10BB700000050040006C00400006004000EC06405C
:10BB80007593000010B504220249034806F0A4F999
:10BB900010BD00000C2F00200080004010B50422D2
:10BBA0000249034806F098F910BD0000182F002044
:10BBB0000090004010B5024902480EF07FFA10BD17
:10BBC000D02E0020002000400FB41CB50A46521EA3
:10BBD0000192009007A9064B6A46069800F040F8CB
:10BBE000009A002111701CBC08BC04B0184700006A
:10BBF000D5C0010030B47446641E2578641CAB4285
:10BC000004D3635D5B00E31830BC18471D46F8E7BA
:10BC100002E008C8121F08C1002AFAD17047704715
:10BC2000002001E001C1121F002AFBD17047000073
:10BC30000146202909DA01208840054A10400028E1
:10BC400001D0012070470020FCE70120FAE7000046
:10BC5000FC06FFBC00BFEFF31081084672B67047C8
:10BC6000FFB591B00F460546002606E025280AD00C
:10BC7000149A139990476D1C761C28780028F5D1EA
:10BC8000304615B0F0BD002400940121F34A02941F
:10BC900000E004436D1C2B780846203B984010427E
:10BCA000F7D128782A280ED0022128780246303A87
:10BCB000092A15D8009A0A235A43303A80180C43AF
:10BCC0006D1C0090F1E701CF0090002805DA0120FB
:10BCD00040030443009840420090022004436D1C3E
:10BCE00028782E2815D10420044368786D1C2A2852
:10BCF0000AD101CF6D1C02900BE002990A22514338
:10BD0000303940186D1C02902878014630390929D5
:10BD1000F3D928786C2810D006DC4C281AD0682873
:10BD20000ED06A2817D104E0742813D07A2812D1D3
:10BD300010E00120400504430CE00121090501E069
:10BD4000032109050C436978814203D101200005D4
:10BD500024186D1C6D1C287803906E281ED00CDCF6
:10BD6000632831D004DC00288AD0582811D1B2E0F1
:10BD700064287BD069280CD178E073282DD004DCAE
:10BD80006F2870D0702804D1A7E075286CD078286F
:10BD90006BD0149A13999047761C62E06002400FB2
:10BDA000022807D003280AD0042838680AD0066081
:10BDB0003F1D56E03868F11706604160F8E73868C3
:10BDC0000680F5E70670F3E73878694608740020C6
:10BDD000487404A80390012003E038680390002011
:10BDE000C0433F1D61070FD5002101E00199491CA7
:10BDF000029A0191914213DA8142F7DB019A039989
:10BE0000895C0029F2D10BE0002101E00199491C75
:10BE100001918142FADB019A0399895C0029F5D1ED
:10BE200001990098139A401A00902146149B00F043
:10BE30003BF901998019461807E0039803990078A7
:10BE4000491C0391149A139990470198401E019040
:10BE5000401CF2D12146149B139A009800F014F96B
:10BE600086196D1C09E741E033E034E00A20002127
:10BE7000049005916002410F022905D001CFC2173D
:10BE80009446032905D007E0FF1DFF08FF0003CFFC
:10BE900006E000B2C2179446042902D140B2C1178D
:10BEA0008C4600226146944506DA0A46002140424B
:10BEB00091418C462D2102E0210504D52B216A46B3
:10BEC0001176012103E0E10701D02021F7E701917C
:10BED00054E00A200BE0102009E01020049000211B
:10BEE0000420044308200591029003E0082000216B
:10BEF000059104906002410F022905D001CF002274
:10BF00009446032906D006E0FF1DFF08FF0003CF7B
:10BF10008C4603E080B2042900D1C0B20021019117
:10BF200021072BD50399702906D0049A1021059B6F
:10BF30004A401A4305D00EE040216A46117601219D
:10BF400008E06146014306D030216A461176039924
:10BF5000517602210191049A0821059B4A401A4317
:10BF60000CD16146014301D1610707D530216A46F2
:10BF70001176012101910299491E029103995829D4
:10BF800004D037A103910FA90F910DE039A1F9E772
:10BF90006146059B049AFFF71FF9039B8C469B5C47
:10BFA0000F9A521E0F92137061460143F0D10F9801
:10BFB00007A9081A20300390600704D50120000467
:10BFC0008443029801E0012002900399884201DD38
:10BFD000401A00E0002041180290019809180098CA
:10BFE000401A0090E00306D42146149B139A00984F
:10BFF00000F05AF886190020049008E006A9085CB1
:10C00000149A139990470498401C761C0490019947
:10C010008842F3DBE0030CD52146149B139A009869
:10C0200000F042F8861904E0149A302013999047E2
:10C03000761C0299481E02900029F5DC08E00F9852
:10C040000F990078491C0F91149A13999047761C08
:10C050000399481E03900029F1DCFBE60928010042
:10C06000303132333435363738396162636465666E
:10C070000000000030313233343536373839414230
:10C080004344454600000000F8B5044600251E461E
:10C090001746880404D405E039462020B0476D1CBB
:10C0A000641EF9D52846F8BDFFB50446002581B0C9
:10C0B0001E46C80301D5302700E02027880404D598
:10C0C00005E038460399B0476D1C641EF9D5284633
:10C0D00005B0F0BD4A68002A06D00A68531C0B6000
:10C0E00010704868401E48607047000038B50B4823
:10C0F000006800900A49684607F094FA044600BFB9
:10C100002546002D04D000BF284600F07FFB00BF6D
:10C1100000BF044807F070FA38BD00008CAB020085
:10C1200029C10100C020002070B5044620780028F5
:10C130001CD10F490860002508E069006068405E76
:10C140000B49096840180A4908606D1C2089A842FB
:10C15000F3D8218906480068FEF7D8FF0449086033
:10C1600000200449087007F089FA00BF70BD000084
:10C17000BC2000206820002010B5FF20013007F00F
:10C1800077F900BF00201E49086000BF00BF0846C5
:10C19000806800B21B49C9681A4A527C5200885212
:10C1A0001848407C401C174948740846407C097C6C
:10C1B000884223DA0024134880684068002804D1AC
:10C1C000104840680F49886005E00E488068406864
:10C1D0000C49886001240B498968086807F036F922
:10C1E00000BF01200649086000BF002C04D000BF3A
:10C1F000054A106000BF00BF002010BD0120FCE711
:10C2000000750040542F00200070004070B50546B6
:10C210000C46002D01D0002C01D1002070BD2878E3
:10C220002178884201D00020F8E70622611C681CB2
:10C23000FEF7C5FF002801D10120EFE70020EDE760
:10C240000246002105E0505C002801D00120704723
:10C25000491C0629F7D30020F9E7000010B5044671
:10C26000002C0ED008480068A0420AD80648406852
:10C27000A04206D3204605F010FF002801D001207F
:10C2800010BD0020FCE70000AC230020014600297F
:10C2900002D0012906D102E0044800687047044832
:10C2A0000068FBE701480068F8E700008C230020E5
:10C2B0009C230020F7B582B0044616460025378837
:10C2C000002030802D20005D00280CD03A463146F9
:10C2D000039801F035FB054600BF002D02D028462B
:10C2E00005B0F0BD00BFA07800280BD03A4631461B
:10C2F000039800F07DFC054600BF002D01D02846C4
:10C30000EEE700BFE07800280DD0E17848B23B4668
:10C310003246039903F0FAFF054600BF002D01D015
:10C320002846DDE700BF606800280ED00020616865
:10C3300008563B46324603990DF09CFE054600BF69
:10C34000002D01D02846CBE700BF208900280FDD53
:10C35000019700960622022120460830039B0EF02A
:10C3600011F9054600BF002D01D02846B8E700BFEF
:10C37000208A00280FDD019700960722032120461E
:10C380001030039B0EF0FEF8054600BF002D01D0D3
:10C390002846A5E700BF208B00280FDD01970096F7
:10C3A0001522142120461830039B0EF0EBF80546A9
:10C3B00000BF002D01D0284692E700BF206A002868
:10C3C0000CD03B463246206A039903F029F9054612
:10C3D00000BF002D01D0284682E700BF606A002818
:10C3E0000CD03B463246606A039906F091FB054645
:10C3F00000BF002D01D0284672E700BF2C20005D51
:10C4000000280CDD3B463246204603990CF030FDF7
:10C41000054600BF002D01D0284661E700BF207807
:10C4200000280CD03B4632462046039906F04CFFCC
:10C43000054600BF002D01D0284651E700BF284621
:10C440004EE7000070B504461748FFF7F9FE0546B1
:10C45000012C06D0022C0DD0032C14D0042C20D19A
:10C4600018E012484078002803D0002D01D00120A8
:10C4700070BD00BF0D488078002803D0002D01D08A
:10C480000220F5E700BF0948C078002801D003204A
:10C49000EEE700BF05480079002801D00420E7E757
:10C4A00000BF0020E4E70000B92100201828002088
:10C4B0000246511CC817800F401880108000081ACF
:10C4C000C0B270470146C87804221040002801D14C
:10C4D000072070470020FCE710B50A22002108461B
:10C4E00002F0B8FB044600BF002C03D0072C01D09B
:10C4F000204610BD00BF0020FBE7000070B598B0DB
:10C500003C2109A8FEF749FE0526022108A8017171
:10C5100001218171C6716846818619490E912021D9
:10C5200001A8FEF73AFE0121684601710021417120
:10C53000817100200390049001216846C171282078
:10C540000590B4200690684601721920C00107903A
:10C55000012008900B480C4B01AA0021009009A86B
:10C5600000F0EEFD044600BF2546002D04D000BFBC
:10C57000284600F04BF900BF00BF18B070BD0000A6
:10C580009A20002031D10100E14E020070B5254A09
:10C5900010212548FEF7FAFD0820244908602248AA
:10C5A0000AF0C8F9214801681F480BF09BF90446BE
:10C5B00000BF2546002D04D000BF284600F026F914
:10C5C00000BF00BF1948016817480AF0D1FB0446B4
:10C5D000062C09D000BF2546002D04D000BF2846F8
:10C5E00000F014F900BF00BF0020114908700F4887
:10C5F0000068002803D000200E49087002E00120E6
:10C600000C490870032000F0FDFE044600BF2546DB
:10C61000002D04D000BF284600F0F8F800BF00BF8E
:10C6200070BD0000FFFF000010260020A0200020A9
:10C63000A4200020D021002070B58CB004460D4607
:10C640001646002005E00F21091A615C6A46115464
:10C65000401C1028F7D30D2104A8FEF79EFD0020F2
:10C6600005E02A5C0F210B1A04A9CA54401C0328B8
:10C67000F7D368464DDF002005E00F210A1A08A90C
:10C68000895C3154401C0328F7D30CB070BD000006
:10C6900010B50446002001F091FD08480078401EC6
:10C6A0000649087008460078002806D1044800684A
:10C6B00000F038FA002001F09FFD10BDB8200020E6
:10C6C000C0AB020010B5002407E0E100064A126882
:10C6D000505C012107F0B0F8641C044800788442E3
:10C6E000F3D3002010BD0000B4220020B8220020A7
:10C6F000FEB506460C461746052F01D20720FEBDA3
:10C7000007F0AEF9002808D107F07CF9054600BF14
:10C71000002D01D02846F2E700BF174806601748F1
:10C720000470174807600020164908601649086021
:10C7300017E0E0008019019014480068009001980B
:10C7400080786946487001990878114A694607F06F
:10C75000D1F8054600BF002D01D02846CFE700BF25
:10C7600000BF2046611ECCB20028E2D1094A002158
:10C77000094800F021F9C2E7B4220020B8220020C5
:10C78000BC220020C0220020C422002090AD020064
:10C79000F10D020071F801008CAD020013A101201F
:10C7A00008F0C8F900BF08F0A9F800BF00BF08F002
:10C7B000ABF80028FBD100BF00BF00BF00BF00BF27
:10C7C00000BF00BFBFF34F8F00BF00BF00BF0D48C9
:10C7D0000D49C86000BF00BF00BFBFF34F8F00BF4F
:10C7E00000BF00BF00BF00BFFDE700004150505F29
:10C7F0004552524F523A4552524F523A4661746135
:10C800006C0D0A000400FA0500ED00E03EB5044698
:10C81000002000900190029002946A460021024894
:10C82000FFF7BCFF3EBD000001400000F7B582B03D
:10C8300007460C4627480088844246DC264D0020E7
:10C84000019001A800F08AF900BF24480078009008
:10C850002348007806F0EEFD0099884201D10120BE
:10C8600000E00020002806D11D480578007806F079
:10C87000E1FD1B4908706846007900F099F91648F7
:10C88000854220D0E900174A049812685050002FC2
:10C8900011D0002C0FDD0F4909886943124A126834
:10C8A000881822463946FEF75FFCE8000D49096802
:10C8B0004018848005E00021E8000A4A12688018C8
:10C8C0008180002600E0042600E00926304605B0FD
:10C8D000F0BD0000D2220020FFFF0000D022002087
:10C8E000D1220020C8220020CC220020F8B51AE076
:10C8F00015480478154800886043154909684518AB
:10C90000E0001449096840188688E0001149096868
:10C910000F5831462846B8470B48007806F08AFD84
:10C920000949087000BF00BF002000280BD100BFDC
:10C930000549087808490978814201D1012100E0C0
:10C9400000210029D4D0F8BDD0220020D22200201E
:10C95000CC220020C8220020D122002030B503467E
:10C96000481CC004040C10468507AD0F002D01D1F2
:10C97000012500E00025002D01D1072030BD084829
:10C9800002601019074D28600020074D2870074DE0
:10C99000287007480380074801800020EEE7000068
:10C9A000C8220020CC220020D1220020D02200204A
:10C9B000D2220020D422002010B503460C4600BF2E
:10C9C0000D484068002801D1082010BD00BF002A92
:10C9D00001D10720F9E7002B01D10720F5E71868FE
:10C9E000007C002801D00820EFE7196800200874B7
:10C9F0004C744A6100BFE8E7D8220020F8B504462D
:10CA00000D46264600BF082D01D1012000E0002080
:10CA10000746002F03D100BFFFF7F8FE00BF00BF9D
:10CA2000316870688847F8BD7CB504460D460094AF
:10CA30000195034A08216846FFF7F8FE7CBD000017
:10CA4000FDC90100F8B507460D4614461E462046AE
:10CA50008107890F002901D1012100E0002100296F
:10CA600001D10720F8BD002C01D10720FAE70BF017
:10CA70001DFE1148066000201049087048700846E5
:10CA80008570446000200E4908600E4908700E4908
:10CA900008701420FEF7EAFD03211420FEF768FE5B
:10CAA0001420FEF701FE38460BF0D6FD0BF0CEFD4C
:10CAB000064908600020D5E7F4220020D822002093
:10CAC000E0220020F0220020F1220020E4220020B9
:10CAD000F8B504460E461746254600BF1048406884
:10CAE000002801D10820F8BD00BF002C01D108208A
:10CAF000F9E7052E01D20720F5E76869002801D182
:10CB00000820F0E7687C012801D1304600E00020D1
:10CB100000903B4631462846009A0DF06BF8E2E75C
:10CB2000D822002070B50446254600BF0A48406858
:10CB3000002801D1082070BD00BF002C02D0686918
:10CB4000002801D10820F6E7002028740221284699
:10CB50000DF07EF8EFE70000D822002070B5044603
:10CB600000BFFFF777F805460E48406800280ED151
:10CB700001200C4948600C4800680C4908400949EC
:10CB800008600A48084908600020207001E0012080
:10CB90002070002D03D100BF62B600BF00BF00BFF0
:10CBA00070BD0000FC22002080E100E0FC06FFBC1C
:10CBB00070B5044625460C484068002812D0002D68
:10CBC00010D1FFF747F80646074800680749086094
:10CBD000002005494860002E03D100BF62B600BFA7
:10CBE00000BF00BF00BF70BDFC22002000E100E0DC
:10CBF000F8B505460C4617462088001DB84201D9F5
:10CC00000C20F8BD684679DF064600BF002E01D033
:10CC10003046F6E700BF0320218868542088401C76
:10CC200020801920218868542088401C208020887A
:10CC30004119684600880DF0F3FA218840182080D9
:10CC40000020DEE770B505460C462068401C002831
:10CC500005D0206807F0FAFB206807F086FB6068C3
:10CC6000401C002803D00021606807F056FB2868AC
:10CC7000A169052212028218516200BF617D227DE6
:10CC800028680B461343052636028619F36600BF53
:10CC900062682168286808F01AF9207D012816D1F9
:10CCA000A068401C002803D00021A06807F035FBD5
:10CCB000E068401C002805D0E06807F0C7FBE0688A
:10CCC00007F053FBA268E168286808F0DEF870BD41
:10CCD00030B58BB01448007800F0FCFD05462846BE
:10CCE0000BF0AEFD00281CD001A800F04FFD14226F
:10CCF00001A906A8FEF738FA00240EE0620007A991
:10CD0000885A0949097800F0F3FD002804D0620030
:10CD100007A9885A05F088FC641C0698A042EDD843
:10CD200000BF0BB030BD00000222002010B5044649
:10CD300063799A07920F2179208805F043FB10BD93
:10CD400010B504462079002803D1204600F008F8E9
:10CD500003E02046FFF7EAFF00BF00BF10BD000060
:10CD6000F0B589B004460025208800F081FD074613
:10CD7000208804F06DFE0646A0680890607A07904F
:10CD8000208800222249097800F0C6FD002F01D139
:10CD900009B0F0BD60794007C00F002811D007210D
:10CDA000304609F03DFA0546002D16D008216846A8
:10CDB00001712188C1800681039501A802F058FF06
:10CDC0000BE020881349097800F092FD002804D078
:10CDD000304604F025FE039000BF0321684601742D
:10CDE0002188418260794007C10F68460175A079AA
:10CDF0004007C10F04A84171811D08A80078087080
:10CE000004A86946097FC17102F032FF00BFBFE785
:10CE1000462200204822002030B585B01421684603
:10CE2000FEF7BBF900200090012168460171002047
:10CE3000029064216846017300BF407B010909012B
:10CE4000491C68464173407BF02188432030694685
:10CE5000487300BF00BF6846807B00090001401C8A
:10CE600088736846807BF021884320306946887348
:10CE700000BF00BF6846C07B00090001C873684658
:10CE8000C07BF02188436946C87300BF00BF684675
:10CE9000007C01090901491C68460174007CF021ED
:10CEA000884320306946087400BF084800F0B4FB8E
:10CEB000044600BF2546002D04D000BF2846FFF7DA
:10CEC000A5FC00BF00BF05B030BD000088250020D4
:10CED000F0B591B004460D46207D002819D0002001
:10CEE000099000BF08A8007901090901491C08A898
:10CEF00001710079F0218843103008A9087100BF42
:10CF0000697B08A84171807906218843801C08A9A3
:10CF100088711C210AA8FEF740F908A8007A0221AE
:10CF20008843811C08A80172007A10218843217D62
:10CF3000002901D0012100E0002109011022114047
:10CF4000084308A9087200200B900D900E90207DD8
:10CF5000002801D009A800E000200F9000201090C8
:10CF600000BF0121684681734949818100BF0020CB
:10CF70000290A97B68460172E97B4172807A0621A2
:10CF80008843811C68468172807A08218843014663
:10CF900068468172807A1021884301466846817212
:10CFA000807A4108490068468172297B01911421E9
:10CFB00004A8FEF7F2F803A8049002A80590012146
:10CFC00068460183002141830121818301A80890E3
:10CFD000A088A31D04AA0AA9A2DF0646002E02D03B
:10CFE000304611B0F0BDA86800284DD000BF012127
:10CFF000684681732749818100BF00200290287C08
:10D000006946087200BF6846407A0109090168460E
:10D010004172407AF02188436946487200BF6846F1
:10D02000807A06218843811C68468172807A0821B3
:10D030008843014668468172807A10218843014600
:10D0400068468172807A4108490068468172A96801
:10D0500000F032FF0746142104A8FEF79EF803A84B
:10D06000049002A805906846078300214183018B44
:10D0700081830890E08822460E3204A9A3DF064689
:10D08000002E03D03046ACE70020E0810020A8E766
:10D09000192A000008290000F3B593B00D461F219E
:10D0A000129111911398002818D01398FFF70AFADB
:10D0B000044600BF002C02D0204615B0F0BD00BFD2
:10D0C00012AA09A91398FFF7F5F8044600BF002C2F
:10D0D00001D02046F1E700BF09AE02E000260020A3
:10D0E0001290002D17D028460CF035FC044600BFE6
:10D0F000002C01D02046E0E700BF11AA01A9284674
:10D10000FFF7D8F8044600BF002C01D02046D4E732
:10D1100000BF01AF02E000270020119010A8808816
:10D12000C3B210A80089C1B23A46304672DFC4E7E4
:10D1300010B5044600BF2046FFF768FB00BF10BDD6
:10D14000F8B504460F4615461E46002C01D0002DAA
:10D1500001D10E20F8BD0120574908700020574921
:10D160000870202229465648FDF7FEFF5548066004
:10D170005549069808600020C0435449088007219B
:10D180005348FEF70AF83C215248FEF706F820788B
:10D1900050490870A0788870E078C870607848704E
:10D1A000084662692169426101610146E268A0683E
:10D1B000CA6088600846E269A169C2618161606AEB
:10D1C00000281BD044484349486244498160606A52
:10D1D00000884049496A0880606A80883D49496AF8
:10D1E0008880002005E0616A8968095C3B4A115427
:10D1F000401C3849496A89888142F4D8A06A0028CD
:10D2000024D03749374881603249886234493148EF
:10D21000806A8160A06A80882E49896A8880A06AB5
:10D2200000882C49896A0880002005E0A16A896885
:10D23000095C2B4A1154401C2649896A898881421D
:10D24000F4D82C20015D234820300173206A002887
:10D250000BD025481F490862206A4088096A488027
:10D26000206A00881B49096A08806068002802D08B
:10D27000184960684860002008E0C100091A1B4A8C
:10D2800089181B4A12688300D150401C0828F4DB1F
:10D29000002007E00101174A8A18154989688300B0
:10D2A000CA50401C0828F5DB39460A48FFF7F4FE4F
:10D2B000009000984EE70000B4210020B721002024
:10D2C00018280020C8210020CC210020C4210020E3
:10D2D000B821002038280020742800208028002051
:10D2E000AC280020A0280020C02100200C2900200C
:10D2F000D42100204429002010B50446208810289D
:10D3000004D0112806D01B280CD107E0204608F0D5
:10D3100087F808E0204608F0DBF804E0204608F033
:10D3200009FA00E000BF00BF10BD000070B505465F
:10D33000022D02D0032D18D100E000BF0C48007868
:10D34000002811D000200A4908700A48007800F02F
:10D3500059F80446002C07D007480068002803D07D
:10D36000204605490968884700E000BF00BF70BD3E
:10D37000B5210020B7210020CC21002010B50446A3
:10D3800007480078002801D1082010BD002004497A
:10D390000870072221460348FDF7E6FE0020F4E767
:10D3A000BF210020B821002010B574DF01201149F1
:10D3B000087006201049C87000210F48FFF76CFE66
:10D3C0000446002C01D0204610BD03200B490870F4
:10D3D0000846007800F016F80446002C07D00848EC
:10D3E0000068002803D020460549096888470020C6
:10D3F000EAE70000D021002038280020B7210020D3
:10D40000CC21002070B586B005465C480078002825
:10D4100002D1082006B070BD5948057002F0E0FF47
:10D42000002804D00120574908700020F2E70721A6
:10D430005548FDF7B2FE55484078002803D05048C3
:10D44000007801280FD051488078002803D04C483C
:10D450000078012807D04D488078002812D048482D
:10D46000007802280ED14A480068002807D0012021
:10D4700048490870082046490968884702E00020AA
:10D48000444908702846FEF7DDFF3D4908704048D2
:10D490000068002817D008460078032803D0084603
:10D4A000007804280FD13948007800280BD03A487A
:10D4B0000078002807D10120384908700720344936
:10D4C0000968884702E0002034490870182168463E
:10D4D000FDF763FE0021684601700172284800785C
:10D4E0000300FEF787FB051804090E131C006846AD
:10D4F0000BF01AFD044613E068460BF025FD0446C8
:10D500000EE068460BF036FD044609E068460BF075
:10D5100069FD044604E000202149087000E000BFD6
:10D5200000BF17480078002806D0684673DF04461D
:10D53000002C17D020466DE71A480078002811D03B
:10D54000002018490870FEF7A1FE0646164905F0AE
:10D5500030F9002803D01449491E002070DF002054
:10D5600000F054FE0A480068002804D00C480078F7
:10D5700007490968884700204CE70000B4210020D3
:10D58000B7210020B5210020B82100201828002054
:10D59000C8210020BF210020D0210020D12100205F
:10D5A000B621002065200020AA200020FFB581B010
:10D5B00007460D461E4616480078002802D108206E
:10D5C00005B0F0BD00201249087012490D710E73AC
:10D5D00000240AE00F4A1268A300D058E200121B90
:10D5E000D1190722FDF7C0FD641CAC42F2D3002420
:10D5F0000AE0084A9268A300D0582301039A9918B8
:10D600001022FDF7B1FD641CB442F2D30020D7E72D
:10D61000D1210020D4210020F8B504460D46002C6D
:10D6200001D0002D01D10E20F8BD28682060002017
:10D63000C043608228792075FF20207400BF01213B
:10D64000684681700849018000BF221D694601209B
:10D65000A0DF0646002E01D03046E5E729462046E9
:10D66000FFF736FCE0E700000F18000070B5054634
:10D670000C46002D01D0002C00D170BD2088102850
:10D6800004D0112807D050280FD109E021462846A0
:10D6900007F09EFE0AE02146284607F00FFF05E04E
:10D6A0002146284608F0A4F800E000BF00BF00BFF4
:10D6B000E3E7000070B505461C2229461448FDF733
:10D6C00053FD002013490870286800280BD0082259
:10D6D00011482968FDF748FD0F487ADF0446002C01
:10D6E00008D0204670BD0C487BDF0446002C01D0DA
:10D6F0002046F7E70020C043084908800020084979
:10D700000870084A00210848FFF756F9EAE70000C8
:10D71000C4290020F8210020E4210020EE2100206F
:10D72000EC210020A1A2020008AC020010B50446C2
:10D730002088102806D0112808D012280ED0502892
:10D740001DD107E0204607F025FE19E0204607F02E
:10D7500093FE15E0204608F021F811E00948007812
:10D76000002808D12089122805D16089122802D109
:10D77000012005490870204607F000FE00E000BFC8
:10D7800000BF10BD622000206320002010B50446B9
:10D790000348027D011D20460BF0C6F810BD0000B5
:10D7A000002A002010B504460348C17D2246001D12
:10D7B0000BF0A4F810BD0000002A002010B50446AC
:10D7C0000348017E2246001D0BF098F810BD0000B2
:10D7D000002A002070B504462088102804D01128A3
:10D7E0001ED01A283FD11FE00AF0CCFCA0880AF016
:10D7F00031FB002804D100BF0420FFF707F80EE03A
:10D80000A07D022801D1012000E000200546A28869
:10D810002B461649084612380BF0A9F800BF22E043
:10D82000A0880AF0D1FC1EE0207A0009012801DD61
:10D83000012000E000200346A2880C49491C08464C
:10D8400013380BF094F8207A0009022801DD01203A
:10D8500000E000200346A2880449891C08461438C9
:10D860000BF085F800BF00BF70BD0000162A002035
:10D8700070B5044600250C48017D2246001D0BF0C2
:10D880003DF800280DD00848817D2246001D0BF090
:10D8900035F80646002E01D0022000E001200546A2
:10D8A00000BF284670BD0000002A002010B50024EB
:10D8B0000BE020460CF04CFD002804D120460CF073
:10D8C0003DFD204610BD601CC4B2182CF1DB1820B1
:10D8D000F8E7000010B5044620460CF039FD00289A
:10D8E00002D00248005D10BD0020FCE7192A00208C
:10D8F00070B505460C4620460CF02AFD002806D0DF
:10D900000448015D2A4615380AF0F8FF70BD002072
:10D91000FCE70000192A002070B505460C461646A3
:10D9200020460CF015FD002806D0044801193346A6
:10D930002A4615380BF01BF870BD0000192A00208C
:10D94000FEB505460C46174620880930B84201D975
:10D950000C20FEBD684671DF0646C0216846417056
:10D96000022181700321C17004210171C0218171E4
:10D97000012101706946002070DF00BF002E01D038
:10D980003046E6E700BF0820218868542088401C04
:10D9900020801B20218868542088401C20802188FA
:10D9A0004819062200A90131FDF7DEFB2088801D01
:10D9B000208068460078002802D12188685402E05F
:10D9C0000120218868542088401C20800020C0E766
:10D9D0007FB5044600BF0121684681735D4981819E
:10D9E00000BF5D4A03A90120A0DF0546002D02D03B
:10D9F000284604B070BD208800280DDD57480090EF
:10DA0000228823463C335648616801F081FC054674
:10DA1000002D01D02846ECE7208900280EDD514872
:10DA20000090228923463C334D48401FE16801F0B5
:10DA30006FFC0546002D01D02846DAE7208A002831
:10DA40000EDD49480090228A23463C334448001F9B
:10DA5000616901F05DFC0546002D01D02846C8E74C
:10DA6000208B00280EDD41480090228B23463C335A
:10DA70003B48801EE16901F04BFC0546002D01D0BA
:10DA80002846B6E7208C00280EDD39480090228C0D
:10DA900023463C333248C01E616A01F039FC05461A
:10DAA000002D01D02846A4E7208D00280EDD314846
:10DAB0000090228D23463C332948401EE16A01F044
:10DAC00027FC0546002D01D0284692E7206B002850
:10DAD00013D001A8216B0BF07DFF274823463C3370
:10DAE000082201A900901E48801F01F011FC054684
:10DAF000002D01D028467CE700BF606B00280FD0C6
:10DB00001E480090606B027923463C33016814483C
:10DB1000401C01F0FDFB0546002D01D0284668E7BA
:10DB2000A06B002813D001A8A16B09F0EDFE1448EA
:10DB300023463C33072201A900900948273001F011
:10DB4000E7FB0546002D01D0284652E700BF002024
:10DB50004FE700000A180000602200206222002027
:10DB6000292A00006A220020722200207A22002046
:10DB7000822200208A220020922200209A22002065
:10DB8000A222002010B504462046FFF723FE2046BF
:10DB900009F0F6FB204600F0B3FB204607F030FB0F
:10DBA0002046FFF7A9FB2046FFF7C0FD21460448A9
:10DBB00000F04CF921460348FFF758FD10BD000066
:10DBC0001024002088250020FFB587B005460F46A9
:10DBD000109EFF207730405B224988423DD0F01CE8
:10DBE00081B206916846008B082834DC00BF012012
:10DBF00000BF684607740998C1B2684641740A9824
:10DC0000C1B268468174002E04DD3246133011998A
:10DC1000FDF7AAFA00200090019002900390FF20E7
:10DC20005F30415B68460180012181700021818065
:10DC300006A8029004A80390FF217731485B69464B
:10DC4000A6DF0446002C05D1F01C6946098B8842EA
:10DC500000D00C2400E00C2400E0082420460BB087
:10DC6000F0BD0000FFFF00007CB506460C46A07A20
:10DC70000A2805DC207C0A2802DC207E0A2801DD37
:10DC800007207CBD2068306060687060A07AB07446
:10DC9000217C78208155217EDE2081550021C943D9
:10DCA000FF207730815300BF0121684681714749C9
:10DCB000818000BF3246083201A90120A0DF05465D
:10DCC000002D01D02846DCE72146304603F038FF1E
:10DCD0000546002D01D02846D3E7207A002802D13E
:10DCE000607A002809D021463C31304609F060FEB8
:10DCF0000546002D01D02846C3E72146304603F0F3
:10DD0000E3FF0546002D01D02846BAE721463046FC
:10DD100007F05CFE0546002D01D02846B1E72146FC
:10DD2000304602F049FA0546002D01D02846A8E702
:10DD3000214630460AF04EFB0546002D01D028460C
:10DD40009FE7207A002818D03046FF304F30234616
:10DD5000433308221E490090304600F027F905465B
:10DD6000002D01D028468CE72146304600F0A2F96C
:10DD70000546002D01D0284683E7607A002810D0A0
:10DD80003046FF305F3023464033082210491131BE
:10DD90000090304600F00AF90546002D01D02846D3
:10DDA0006FE72146304603F0EFF90546002D01D01C
:10DDB000284666E721463E31304603F08DF9054698
:10DDC000002D01D028465CE700205AE71218000019
:10DDD000222A0000FFB587B004460E461746A07CF5
:10DDE000B0422DDD0A2070432146143140180690C0
:10DDF000FF207730005B144988421FD00197002034
:10DE0000029003900490059006980188684601816D
:10DE1000012181720021818101A804900A98059056
:10DE2000FF217731085B02A9A6DF0546002D04D14A
:10DE300068468088B84200D00C2500E0082500E044
:10DE4000072528460BB0F0BDFFFF000070B5054662
:10DE50000C462088102806D0112809D050280CD054
:10DE6000512814D10EE02146284607F0B4FA0FE0FD
:10DE70002146284607F026FB0AE02146284607F0FF
:10DE8000DBFC05E02146284607F03DFC00E000BF32
:10DE900000BF70BD70B504460D462846FDF788F9F1
:10DEA0002080656070BD70B5044620460CF0B2F964
:10DEB0000546E807C00F70BDF8B505460E460024BC
:10DEC00032782146641C6A5472782146641C6A5474
:10DED00000BF022C01D1012000E000200746002FE6
:10DEE00003D100BFFEF792FC00BF00BF2046F8BD83
:10DEF00070B586B028480068059000BF274B4822BF
:10DF0000274905A80BF068FC054600BF2E46002EE9
:10DF100004D000BF3046FEF779FC00BF00BF00BF51
:10DF20006A46012100200BF017FC044600BF25467D
:10DF3000002D04D000BF2846FEF768FC00BF00BFDC
:10DF400068460BF0B1FB044600BF2546002D04D007
:10DF500000BF2846FEF75AFC00BF00BF11480BF077
:10DF600095FB044600BF2546002D04D000BF28467F
:10DF7000FEF74CFC00BF00BF0B480BF087FC0446CB
:10DF800000BF2546002D04D000BF2846FEF73EFC0A
:10DF900000BF00BF06B070BD28AB0200B197020001
:10DFA000A826002085DB0100C3990200F0B58FB0E0
:10DFB00005460E4617461C460020079000BF6846DF
:10DFC000007F01090901491C68460177007FF021A3
:10DFD000884310306946087700BF2178684641774A
:10DFE000807F06218843811C684681771C2108A810
:10DFF000FDF7D3F808A8007802218843811C08A8FF
:10E000000170007808218843A1780907090F0029C9
:10E0100001D0012100E00021C9000822114008437D
:10E0200008A9087008A8007810218843103008A9B2
:10E030000870002009900B900C9007A80D9000200C
:10E040000E9000BF012168468171868000BF0020CC
:10E050000090617868460170A1784170807806214F
:10E060008843811C68468170807808218843014676
:10E070006846817080781021884301466846817027
:10E0800080784108490068468170142102A8FDF794
:10E0900084F801A802906846039000210182418221
:10E0A000878200200690288902AA08A9149BA2DF73
:10E0B0000FB0F0BD30B58FB004460D461C2108A846
:10E0C000FDF76BF808A8007802218843811C08A896
:10E0D0000170007808218843411808A80170007871
:10E0E00004218843001D08A90870002009900B90A6
:10E0F0000C900D900E9000BF0121684681721E4960
:10E10000018100BF002001904620415D68460171F9
:10E110004720415D68464171807906218843811C12
:10E12000684681718079082188430146684681717B
:10E1300080791021884301466846817180794108C1
:10E14000490068468171142103A8FDF726F802A84A
:10E15000039001A80490002168468182C1820121B8
:10E1600001830020079020892346FF33573303AAF9
:10E1700008A9A2DF0FB030BD322A000001460148D5
:10E18000405C7047B2AB020010B501460A4B585CC8
:10E1900000BF05242407234600BF24151C19246949
:10E1A000C440E407E40F002C01D0012000E000206F
:10E1B00002460120504010BDB2AB020030B502460D
:10E1C0000C49885C00BF05242407214624150C193E
:10E1D0006368012484409C4305252D024D19AC60E1
:10E1E000012484401C4005252D024D19EC6000BF20
:10E1F00030BD0000B0AB020010B504460249085D16
:10E20000012106F05BF910BDB0AB020010B5044669
:10E210000249085D002106F051F910BDB0AB0200C3
:10E2200010B501460A4B585C00BF0524240723465D
:10E2300000BF24151C196468C440E407E40F002CD7
:10E2400001D0012000E0002002460120504010BD16
:10E25000B0AB02007CB500240CE00948055D00204D
:10E2600000900346012211460190284605F0DAFF8E
:10E2700000BF641C022CF0D300F004F87CBD000049
:10E28000B0AB020010B5002403E02046FFF7B4FF56
:10E29000641C022CF9D310BD10B5002403E0204605
:10E2A000FFF7B4FF641C022CF9D310BD0246002016
:10E2B000C043002106E0054B5B5C934201D1084658
:10E2C00002E0491C0829F6D300BF7047B2AB020038
:10E2D00070B505460C46002607480560002C02D0A4
:10E2E00020460BF040FB05480068002802D1FEF7ED
:10E2F000F3F80646304670BDAC210020B021002066
:10E3000070B505462888102802D0112832D118E0AF
:10E310001A48006800280ED101F062FA044600BFD6
:10E32000002C07D016480068002803D02046144966
:10E330000968884700BF11480068401C0F49086001
:10E3400019E00E480068401E0C4908600846006845
:10E3500000280ED1FEF7C0F8044600BF002C07D0FD
:10E3600007480068002803D0204605490968884707
:10E3700000BF00E000BF00BF70BD0000B021002062
:10E38000AC21002010B5002000F092FE044600BF32
:10E39000002C03D0062C01D0204610BD00BF012068
:10E3A00000F086FE044600BF002C03D0062C01D0EE
:10E3B0002046F2E700BF0020EFE70000F3B581B090
:10E3C0000746002500243846FFF770FF0446082C56
:10E3D00042D20298002825D0012802D002283AD142
:10E3E00033E06000201822490D5C600020184018BE
:10E3F000407800280ED01F4800680A22504301468A
:10E400001D4A1E480068FEF763FB0646002E01D138
:10E41000194807706000201815494018807818497D
:10E42000085518E015480068FEF77CFB1448005DAD
:10E43000610061180E4A89188978884204D1600009
:10E44000201811464018857805E06000201808491A
:10E450004018457800BF00BF002D07D0094800686C
:10E46000002803D02846074909688847FEBD0000F8
:10E47000E027002094210020A0210020C4AB02004E
:10E48000A12100209C21002010B504462046FFF762
:10E490007BFE10BDF0B585B005460026FB48008820
:10E4A000FB4988427ED0FB480078002803D1FA4817
:10E4B0000078002877D0F9480078002815D1F8496D
:10E4C00005F000FB044600BF2746002F04D000BF24
:10E4D0003846FEF79BF900BF00BF002006F0DCFBCA
:10E4E00005F0DCFA0120ED490870281F0300FDF754
:10E4F00081FB1BEFEDEDECEDED75EDEDEDEDEDEBF5
:10E50000EAE9E8E70FEDEDEDE6E5E4E3E274ED00BE
:10E51000DE480088DE4988425ED0E2480068FF217C
:10E52000AD31884258D3E0480078002822D1DF4935
:10E5300008460DC8C9686F460DC703911A21684681
:10E54000C1701E218170192141701821017000BF16
:10E55000D74A6946D74805F013FC0746002F04D078
:10E5600000BF3846FEF752F900BF00BF0120CE4978
:10E57000087000BFD0480078002805D1B12001F014
:10E58000ADFA0120CC490870CC480078002820D191
:10E590000022E521CA480068FEF79AFA044600BF47
:10E5A000274601E0D0E1D1E2002F04D000BF384679
:10E5B000FEF72CF900BF00BF0120C0490870C14818
:10E5C0000078002805D0172005F006F90020BD4985
:10E5D00008700020B3490860B5E1B4E10020BA49F1
:10E5E0000880AB4808F0BCFE06460CE0B64801883F
:10E5F0000088401CB44A10804800B4490E5230468E
:10E6000007F012FC0646A2488642EFD10AF022FD2E
:10E610000120AF49087013219C48008876DF04462A
:10E62000A1480078002820D1A04B10330FCB6F46B3
:10E630000FC71A216846C1701E21817019214170CF
:10E640001821017000BF9A4A69469A4805F098FB64
:10E650000746002F04D000BF3846FEF7D7F800BFAA
:10E6600000BF01209049087000BF9348007800283F
:10E6700005D1B12001F032FA01208F4908708F488E
:10E680000078002813D10022E5218D480068FEF7AC
:10E690001FFA044600BF2746002F04D000BF3846AB
:10E6A000FEF7B4F800BF00BF0120844908700020C5
:10E6B0007C49086047E135E114E1C6E0A5E084E06B
:10E6C00020E1D2E0B1E090E06FE013E03AE1FFE753
:10E6D00013216E48008876DF0446082C09D000BF5D
:10E6E0002746002F04D000BF3846FEF78FF800BF42
:10E6F00000BF28E17748007802280AD176480078E0
:10E70000401CC0B27449087005280CDB0120087059
:10E7100009E071480078401CC0B26F4908700428B5
:10E7200001DB012008706C4800784000401E6B49F6
:10E7300008705D480078002824D15C4B20339A682B
:10E7400019685868DB6801AF0DC700911A21684647
:10E75000C1701E218170192141701821017000BF04
:10E76000534A6946534805F00BFB0746002F04D077
:10E7700000BF3846FEF74AF800BF00BF01204A49F3
:10E78000087000BF544800780BF04AFE172000F0D4
:10E7900099FA044600BF2746002F04D000BF384630
:10E7A000FEF734F800BF00BFCDE038480088384994
:10E7B000884209D04A480078012108434849087036
:10E7C0000846007804F0CEFCBDE0304800883049AF
:10E7D000884209D04248007840084000404908700B
:10E7E0000846007804F0BEFCADE0284800882849BF
:10E7F000884209D03A480078022108433849087015
:10E800000846007804F0AEFC9DE0204800882049CE
:10E81000884209D032480078022188433049087084
:10E820000846007804F09EFC8DE0184800881849DE
:10E83000884209D02A4800780421084328490870F2
:10E840000846007804F08EFC7DE0104800881049EE
:10E85000884209D022480078042188432049087062
:10E860000846007804F07EFC6DE0084800880849FE
:10E87000884209D01A4800780821084318490870CE
:10E880000846007804F06EFC5DE000008C2000205B
:10E89000FFFF000062200020642000206A2000208A
:10E8A000697A020054200020672000202CAB02006F
:10E8B000A9980200C8AA02006B2000206020002056
:10E8C000D0AA02006C200020822000206E200020B0
:10E8D0006520002086210020B7200020B8200020DD
:10E8E000A5200020C9480088C949884209D0C948E4
:10E8F000007808218843C74908700846007804F06A
:10E9000031FC20E0C1480088C149884209D0C14893
:10E91000007810210843BF4908700846007804F0C9
:10E9200021FC10E0B9480088B949884209D0B948AB
:10E93000007810218843B74908700846007804F031
:10E9400011FC00E000BF01E1152D48D1B24800687C
:10E95000FF21AD31884241D3B048007800281FD153
:10E96000AF4B0FCB6F460FC71A216846C1701E21EF
:10E970008170192141701821017000BFA94A6946B0
:10E98000A94805F0FDF90746002F04D000BF38461E
:10E99000FDF73CFF00BF00BF0120A049087000BF89
:10E9A0000022E521A1480068FEF792F8044600BF66
:10E9B0002746002F04D000BF3846FDF727FF00BFD1
:10E9C00000BF00209449086099480078002879D059
:10E9D000172004F001FF00209549087072E00A2D0D
:10E9E00070D1002093490880894808F0B9FC064698
:10E9F0000CE0904801880088401C8E4A1080480036
:10EA00008D490E52304607F00FFA0646804886427E
:10EA1000EFD10AF01FFB89480078032808D0874807
:10EA20000078042804D0012085490870FEF7BCFC5A
:10EA30007A480078002820D1794B10330FCB6F46ED
:10EA40000FC71A216846C1701E21817019214170BB
:10EA50001821017000BF734A6946734805F090F9A8
:10EA60000746002F04D000BF3846FDF7CFFE00BF99
:10EA700000BF01206949087000BF72480078002873
:10EA800005D1B12001F02AF801206E4908706E48C6
:10EA90000078002813D10022E52164480068FEF7C1
:10EAA00017F8044600BF2746002F04D000BF3846A1
:10EAB000FDF7ACFE00BF00BF0120634908700020D5
:10EAC00055490860284610380300FDF793F80C07F5
:10EAD00015233131313131310E1C2A314D48007846
:10EAE000012108434B49087023E04A480078400858
:10EAF0004000484908701CE046480078022108435D
:10EB00004449087015E04348007802218843414990
:10EB100008700EE03F480078042108433D49087022
:10EB200007E03C480078042188433A49087000E037
:10EB300000BF00BF41480078002807D10A2D05D04A
:10EB40003F480078002801D1FDF720FD3F480078BC
:10EB5000002855D02F480078072851D12E4800684A
:10EB6000FF21AD31884247D32C480078002825D1B9
:10EB70002B4B20335A6899681868DB68039301921D
:10EB8000029100901A216846C1701E2181701921DE
:10EB900041701821017000BF224A6946224805F0E1
:10EBA000EFF80746002F04D000BF3846FDF72EFED1
:10EBB00000BF00BF01201949087000BF214800783C
:10EBC000002805D1B12000F089FF01201D490870FF
:10EBD0000022E52115480068FDF77AFF044600BFD2
:10EBE0002746002F04D000BF3846FDF70FFE00BFB8
:10EBF00000BF00200849086001201549087002E0A4
:10EC000000201349087005B0F0BD00008C200020E2
:10EC1000FFFF0000A52000205420002067200020D6
:10EC20005CAB0200A9980200C8AA0200D0AA0200A8
:10EC30006C200020822000206E200020B6210020C1
:10EC4000652000206B200020602000206220002032
:10EC50006620002070B503460020082B2DD2012A23
:10EC600007D1012903D11C460E34E4B200E0002490
:10EC70002246002918D0012902D002291AD10DE01C
:10EC80005C001C190E4D2A55012B06D91446093477
:10EC90005D005D190A4EAD19AC700DE05C001C19E9
:10ECA000074D6419627007E05C001C19044D64197B
:10ECB000A27001E0072000BF00E0072070BD000047
:10ECC000E027002070B50446002506480078C007FC
:10ECD000C00F002803D0204600F064F805462846FF
:10ECE00070BD000098210020F7B505460E460024AF
:10ECF00022480660224805602249029808600220E6
:10ED00002840002822D0022706E00122114638467A
:10ED1000FFF7A0FF04467F1C082F01D2002CF4D07F
:10ED2000002C05D1720808211748FDF7E1FC0446C4
:10ED3000002C02D1FDF7C6FC0446002C05D1134A75
:10ED400000211348FDF738FE044600BFE807C00F56
:10ED5000002801D0FFF77EFA002C05D10D4A0021D2
:10ED60000D48FDF729FE0446002C05D10B4A012170
:10ED70000B48FDF721FE04462046FEBD94210020ED
:10ED8000982100209C210020C8AB020099F10100CD
:10ED9000C4AB0200BD200200BCAB020091C6010062
:10EDA000C0AB0200F8B5044600250026BB48007839
:10EDB000002804D00020B9490870FFF763FA230047
:10EDC000FCF718FF190EF9134142709CAAB0BECE91
:10EDD000DCFAF7F6F5F4F3F2F1F0EFEEFFECF90000
:10EDE000FFF750FAAE48047055E10020FFF718FA1B
:10EDF00000280BD00020FFF7FFF9022C02D1FF20E2
:10EE0000F53001E07D20400106460AE00020FFF7D2
:10EE1000FDF9022C02D1FF20F53001E0FF209130F6
:10EE200006469F48047064213046FCF76FF99D49FF
:10EE3000096848430746002239469B480068FDF7A9
:10EE400047FE054627E126E10020FFF7E9F9002803
:10EE50000BD00020FFF7D0F9042C02D17D20400117
:10EE600001E07D20400106460AE00020FFF7CEF9D0
:10EE7000042C02D1FF20913001E0FF2091300646A2
:10EE80008748047064213046FCF740F985490968D9
:10EE9000484307460022394683480068FDF718FEBC
:10EEA0000546F8E00020FFF7BBF900280AD0002053
:10EEB000FFF7A2F9052C01D1C82001E07D20400117
:10EEC000064609E00020FFF7A1F9052C01D1C82072
:10EED00001E0FF20913006467148047064213046FD
:10EEE000FCF714F96F490968484307460022394680
:10EEF0006D480068FDF7ECFD0546CCE00020FFF70B
:10EF00005DF9674804706748002201686648006838
:10EF1000FDF7DEFD0546BEE00020FFF76DF9604815
:10EF20000470B8E001205D490870FFF747F95D48BB
:10EF3000002201685C480068FDF7CAFD0546AAE0AA
:10EF4000012056490870FFF739F9564800688200D9
:10EF50008118002254480068FDF7BAFD05469AE082
:10EF600001204E490870FFF729F94E480022016838
:10EF70004D480068FDF7ACFD05468CE0012047498F
:10EF80000870FFF71BF947480068820081180022CB
:10EF900045480068FDF79CFD05467CE075E010E003
:10EFA00072E066E05DE054E04EE027E025E023E01B
:10EFB00021E01FE000E06DE0FFF76EF938480470D3
:10EFC00069E03A480068FDF7ADFD0546002D0DD11A
:10EFD0003448006882008118002234480068FDF738
:10EFE00077FD05460020FFF711F902E00020FFF74A
:10EFF00003F950E000BF00BF00BF00BF2B4800680E
:10F00000FDF790FD05461120061B002E18D0002D9F
:10F0100016D1012E10D9C821714308466421FCF78E
:10F0200075F82049096848430746002239461F48B9
:10F030000068FDF74DFD05460220FFF7E7F802E006
:10F040000220FFF7D9F826E0FFF71CF914480470F6
:10F0500021E0FFF717F90020FFF7D8F810480470F7
:10F0600019E0FFF70FF90120FFF7D0F80C48047002
:10F0700011E0FFF707F90020FFF7C8F80120FFF7BC
:10F08000C5F80748047006E000BFFFF705F904481B
:10F09000047000E000BF00BF2846F8BD91210020A9
:10F0A0009021002094210020BCAB0200C0AB0200E4
:10F0B00070B504462046FFF761F80546032105F0C8
:10F0C0006CF9002070BD0246002901DA002003E03F
:10F0D00013685B181360012070470000F0B585B01D
:10F0E00004460D46641C0127012003900020029075
:10F0F00002A8FDF733FD1F48006828601D4800681E
:10F100001C494968411A1B488068401C461AE0198E
:10F1100001900198B04221D9002E1CD016480068F9
:10F12000009000988005800D144909688902890AB9
:10F130008902084300900F48009A00680D49096849
:10F14000491C0C4B19601946896808408100184613
:10F150000C30425000BF0020039004E005480068D6
:10F160000019044908606846007AFDF721FD0398FC
:10F1700005B0F0BD0C320020D0AD020030230020DD
:10F180000448406803490968884201D1012070475A
:10F190000020FCE70C32002010B504462078022144
:10F1A000FFF70CF910BD0000F8B50546134A1449E5
:10F1B0000320FFF799FD044600BF2646002E04D029
:10F1C00000BF3046FDF722FB00BF00BF69460020AC
:10F1D000FFF77EF8044600BF2646002E04D000BF8D
:10F1E0003046FDF713FB00BF00BF684600780228D9
:10F1F00001D1012000E000202870F8BD95E4010055
:10F20000CD0C000030B502460B4602210EE08D0009
:10F2100014462C412007000F092802DD044637342C
:10F2200001E00446303401256D1A5C550C46491E38
:10F23000002CECD130BD000001468879012808D1AE
:10F240000879012805D14888034A904201D101205C
:10F2500070470020FCE70000022900000021C9439C
:10F260008200054B9950042804DB0B46011F024A1B
:10F270005032535470470000742E0020014688001D
:10F28000014A105870470000742E0020F7B585B071
:10F290000B460020C0430490002A01D0002000E06B
:10F2A00004200390002A01D0042000E00C200290EA
:10F2B00003991EE08800124C2058401C002817D1EA
:10F2C0000846059C0093019246B20D4D30352E55EF
:10F2D00085000B4E009B7351019A002A04D166B23F
:10F2E000051F074F50377E5500BF48B2049003E01A
:10F2F000491C02988142DDD300BF049808B0F0BDDC
:10F30000742E00200146014840567047A42E00206C
:10F31000F0B58FB007460D4614461E4600BF002DBF
:10F3200001D0012000E0002000900098002803D1C7
:10F3300000BFFDF76BFA00BF00BF00BF002C01DD6E
:10F34000012000E0002000900098002803D100BFB9
:10F35000FDF75CFA00BF00BF1C2107A8FBF71DFFEB
:10F360006946087F02218843801C6946087700208F
:10F3700008900A900B900C900D9000BF012108A8F6
:10F3800081766846078700BF002001903178684683
:10F39000017171784171807906218843811C68462A
:10F3A000817180790821884301466846817180799E
:10F3B00010218843014668468171807941084900DF
:10F3C00068468171142102A8FBF7E7FE0EA802909F
:10F3D00001A8039068460482002141828482069538
:10F3E00002AA07A902480088149BA2DF0FB0F0BD53
:10F3F000602200200146002907D00548884204D831
:10F400000448884201D9012070470020FCE7000031
:10F410008C230020BC23002070B505460E46002436
:10F4200007E0E100685802F038FE002800D170BD06
:10F43000641CB442F5D30120F9E700000A49496C85
:10F4400000290FD00849096CC900074A89180160D2
:10F450001146096C491C4907490F11641146496C52
:10F46000491E5164704700002030002006490268A0
:10F470008A4203D001680831016070470249383977
:10F48000016000BFF9E70000583000200178022930
:10F4900002D0017803290BD106490A6C817D5118ED
:10F4A000044A116411464A6C817D511A014A516423
:10F4B0007047000020300020F8B504460D46104E7D
:10F4C000304684420BD1FF210131284607F0FCFE73
:10F4D0000646FF20013086420FD126460DE0FF2C64
:10F4E0000BDC2146284607F0DEFE0746002F01D040
:10F4F000204600E00248064600BF3046F8BD000046
:10F50000FFFF000070B50546002D01D1094C01E058
:10F51000084C08340AE0204602F0C8FD0646002EDA
:10F5200000D104E028467168884700BFF3E700BFB8
:10F5300070BD0000682E0020FEB51F48006800283E
:10F5400036D01D480068056809F080F801901B4816
:10F550000468214601980AF089FAC61C1848007808
:10F56000002801D109F084F8AE4201D2284600E01B
:10F57000304604192402240A204609F061F809F0F3
:10F5800065F80090019900980AF070FAC71C2046AF
:10F5900001990AF06BFA874209D909F057F8074632
:10F5A00009F04EF82F2003F0C3FF0AF0BDFB01E085
:10F5B00009F07CF8FEBD0000E0220020E4220020DB
:10F5C000F822002001460888062808DB088819224E
:10F5D000D201904205DD0888104A904201D00720F0
:10F5E00070474888062808DB48881922D2019042D3
:10F5F00005DD4888094A904201D00720F0E70888D5
:10F60000064A904208D04888904205D008884A8827
:10F61000904201DD0720E3E70020E1E7FFFF000063
:10F62000FFB581B006460D4614462088801D04991A
:10F63000884202D90C2005B0F0BD3046FFF7C2FF6A
:10F64000074600BF002F01D03846F4E700BF052071
:10F65000218868542088401C20801220218868540A
:10F660002088401C20802288511930880AF0D8FD5B
:10F670002188401820802288511970880AF0D0FD16
:10F680002188401820800020D5E710B5044600BF2F
:10F690002046FDF7BBF800BF10BD000030B587B0B5
:10F6A0001C216846FBF779FD002000900520C0036F
:10F6B00001900F200004029003216846017300218D
:10F6C000C181017400200590084806906846FDF746
:10F6D000F1FF044600BF2546002D04D000BF284698
:10F6E000FDF794F800BF00BF07B030BD8BF60100F6
:10F6F00038B51F4802F036FC002829D11D48007893
:10F7000000280AD01C484069002820D00020009022
:10F71000194841696846884719E018480078002868
:10F7200002D11548456801E0134885680022294642
:10F7300013480068FDF7CCF90446002C07D00E48AA
:10F740008069002803D00C488169204688470AE078
:10F7500009484069002806D0012000900648416908
:10F760006846884700BF00200249087038BD000085
:10F77000F0210020F8210020C4290020EC210020E5
:10F7800008AC02003EB504462088FEF70BF80028BE
:10F790001AD020880F490978FEF7AAF8002805D169
:10F7A000208800220C490978FEF7B6F821886846BF
:10F7B0004180052101702088FEF700F86946087134
:10F7C000684600F055FA04E020880122034900F061
:10F7D0006BF93EBD472200204622002006100000A3
:10F7E00010B50A2200210846FFF734FA044600BF8C
:10F7F000002C03D0072C01D0204610BD00BF0722EB
:10F8000001210846FFF726FA044600BF002C03D06A
:10F81000072C01D02046F0E700BF0020EDE70000F4
:10F8200070B506460D46002E01D0012070BD287926
:10F83000002804D0012809D0022811D10EE0284662
:10F8400008F076FB0446022028710BE0284600F001
:10F85000F1FC04460A2C00D1044C03E0034C01E007
:10F860000F2400BF00BF2046E0E700001D1D000080
:10F87000F8B5002535E0E8001C49096844182178EE
:10F880000120884006461A4800683040002826D0EB
:10F8900017480068B04316490860207804F0A6F8BD
:10F8A00007462178012088401249096808402278DB
:10F8B00039469140884211D16078012800D100E09A
:10F8C000002078400121484000906068002804D062
:10F8D000009BD9B220786268904700BF00BF681CC7
:10F8E000C5B2054800788542C5DBF8BDB4220020CA
:10F8F000C4220020C0220020B822002030B593B0DE
:10F900000221684601711E49C1801E490181012101
:10F910004181402103A8FBF740FC1BA103A8FEF78F
:10F92000B9FA01A8119000BF10A8007A01090901D5
:10F93000491C10A80172007AF0218843203010A9D8
:10F94000087200BF00BF12A840780009000112A988
:10F95000487012A84078F021884312A9487000BF6F
:10F9600003A8FEF735F8044600BF2546002D04D055
:10F9700000BF2846FCF74AFF00BF00BF13B030BDF0
:10F9800015190000EEEE00004E6F72646963536556
:10F990006D69636F6E647563746F720070B5044651
:10F9A00020793D2801D1054801E0112000020546DB
:10F9B00020880022294602F005FD70BD3D100000A0
:10F9C000014614480078144A127890421DD011481C
:10F9D0000078401C0F4A107010460078022801D1B0
:10F9E000002010700B48007880000C4A1058086006
:10F9F0000B4A086812688018094A106010460068AF
:10FA00000002000A1060012070470020086000BF5B
:10FA1000FAE70000F0220020F1220020E822002076
:10FA2000E4220020F8B504460D4628882070FF2106
:10FA3000090201400912617002210E46AA7831467E
:10FA4000761C6254EA783146761C625400BF042E5C
:10FA500001D1012000E000200746002F03D100BFA4
:10FA6000FCF7D4FE00BF00BF3046F8BDF8B5054630
:10FA70000E46002406270620009039460948FBF769
:10FA80008CFB00BF0AE020460099FBF755FB705C39
:10FA9000295D484003490855601CC4B2BC42F2DBF2
:10FAA0000048F8BD88210020FEB504460D461646E4
:10FAB000084A07CA6B4607C368464480858086713A
:10FAC0000022054801782046FDF726FF684600F031
:10FAD000CFF8FEBD7CAC02004622002010B50446E3
:10FAE0005A2109200AF006FE61B205200AF002FE42
:10FAF000002109200AF0FEFD10BD10B50446A089C2
:10FB000028DF10BD00B502781300FCF773F8073446
:10FB1000050811212A31340000220A702CE001224C
:10FB20000A7003898B818388CB81C2688A6023E055
:10FB300002220A7003898B818388CB81C2688A6024
:10FB4000027C062A01D1012300E000230B7413E09C
:10FB500003220A70C3888B810389CB81C2688A60C3
:10FB60000AE004220A70C3888B810023CB8103E062
:10FB700005220A7000E000BF00BF00BD70B5054659
:10FB800000240AE0A00006490858002804D0A0007C
:10FB90000A46115828468847641C082CF2D370BDC9
:10FBA000882F00203EB505460C46002C1BD0112C9A
:10FBB00019D0002000900190029068464580019481
:10FBC0000D2C03D10B206946087008E0862C03D168
:10FBD0000A206946087002E00920694608706846F4
:10FBE00000F056F800BF3EBD70B50546002405E0A4
:10FBF000A000044A115828468847641C002CF7D0FE
:10FC000070BD0000FC21002070B50546002405E011
:10FC1000A000044A115828468847641C002CF7D0DD
:10FC200070BD00000822002070B50546002405E0E4
:10FC3000A000044A115828468847641C022CF7D3B8
:10FC400070BD000024AC020070B50546002405E03C
:10FC5000A000054A115828468847641C03480078CC
:10FC60008442F5DB70BD0000142E002042220020EB
:10FC700070B50546002405E0A000044A1158284646
:10FC80008847641C022CF7D370BD000044AC02000E
:10FC900070B50546002405E0A000044A1158284626
:10FCA0008847641C002CF7D070BD000088AC0200AF
:10FCB000F0B50346002420E0134E306806689E42EB
:10FCC00003D90668F61A06601BE006689B1B0668E7
:10FCD0003419002606600C4E35680B4FC6693E602D
:10FCE000C668002E08D00E193602360A4660C6686D
:10FCF00086601668C661156000BF0348006800286A
:10FD0000DAD100BFF0BD0000E02200201FB504469C
:10FD10006068002801D1012000E0002003902078D5
:10FD20000300FBF767FF068A04053456838A00BF89
:10FD3000A08900F09FFA002804D1E08908F014FAA5
:10FD4000002823D0A08900F08FFA69464880E08916
:10FD500008F004FA694608712078012807D1606824
:10FD6000002800D100E003206946087007E06068C1
:10FD7000002801D1012000E0042069460870606875
:10FD80000390A0680290684606F012FB56E0A08936
:10FD900000F070FA002804D1E08908F0E5F90028A5
:10FDA00016D0A08900F060FA69464880E08908F022
:10FDB000D5F9694608716068002801D1022000E089
:10FDC000052069460870A0680290684606F0F0FABF
:10FDD00034E0A08900F04EFA002826D0E0890028FF
:10FDE00023D1A08900F040FA69464880E08908F0F4
:10FDF000B5F9014668460171FF210171606800286C
:10FE000006D1062069460870488806F0F5FC02E035
:10FE100007206946087000200E4908700E490870D6
:10FE200006F038FC684606F0C3FA07E00820694689
:10FE30000870684606F0BCFA00E000BF00BF054845
:10FE40000078002804D000200249087006F022FC47
:10FE50001FBD00001D2200201E22002010B588B00A
:10FE60000446022000F03EFA002802D1022008B029
:10FE700010BD0C48844201D10420F8E705216846F2
:10FE800001710121017201A8C4800022114605F010
:10FE900051FD002803D007F054FF0020E7E70820B9
:10FEA000E5E70000FFFF000000B587B0022000F08A
:10FEB00019FA002802D1022007B000BD06206946C9
:10FEC000087000221146684605F034FD00280AD06B
:10FED00006480078002802D001200449087307F082
:10FEE00030FF0020E8E70820E6E700008830002027
:10FEF00010B58CB0142107A8FBF74FF9022000F0D1
:10FF0000F1F9002805D007A8FFF738FE00200CB053
:10FF100010BD012000F0E6F9002801D00020F6E72E
:10FF2000012000F0EBF900F017FB01206946087092
:10FF300005F04EFE04462300FBF75CFE0C07150897
:10FF40001628230A24281A1F1B2800BF0B20DEE7CF
:10FF5000022000F0D3F9012000F0AAF907A8FFF76A
:10FF60000DFE0020D3E700BF0020694608710EE0B7
:10FF700000BF03206946087109E002206946087144
:10FF800005E000BF01206946087100E000BF00BF26
:10FF900000221146684605F0CDFC07F0D2FE002095
:10FFA000B5E7000038B50446002C01D1052038BD66
:10FFB0006946204607F0DAFF00281DD06846008811
:10FFC00000010F4940188089002813DDA07A00281D
:10FFD00010D068460088000140188089401E81B218
:10FFE000684600880001064A801881810020A072BE
:10FFF000002502E0062500E00A252846D7E7000094
:020000040002F8
:10000000683000207FB514461D462B46224601A9C4
:10001000684607F045FF04B070BD37B50C4615467D
:100020002B4622466946002007F03AFF3EBD37B511
:100030000C4615462B4622460021684607F030FF45
:100040003EBD0246002A01D0002901D1052070479B
:10005000106808600020FAE738B504460D46002C09
:1000600001D0002D01D1052038BD6946204607F09A
:100070007DFF002816D061686846008800010A4AA2
:1000800080188089401C82B2684600880001064BB7
:10009000C0188281296060680C3068600120A072FD
:1000A0000020E1E70A20DFE76830002070B5044651
:1000B0000D46002C01D1052070BD032300222946E6
:1000C00020460AF0D1FBF7E770B504460D4602233F
:1000D0000022294620460AF0C7FB70BD70B50546D0
:1000E0000E461446002C01D1052070BD0223224685
:1000F000314628460AF0B8FBF7E700000146094AF6
:100100001278082A01D10C200AE0064A12789200DF
:10011000054B9950034A1278521C024B1A7000206A
:100120007047000009230020882F0020F8B50446FE
:100130000D46022000F0D6F8002801D10220F8BDBB
:10014000002C01D10520FAE7694628460AF084FC14
:100150000646002E03D16846008820806580304620
:10016000EDE7000070B50446022000F0BBF800285F
:1001700001D1022070BD002C01D10520FAE72088B2
:10018000022801DD0420F5E720880001094946180E
:1001900071896088C01C081A08D4218860880AF018
:1001A0004DFC002020806080002500E004252846CA
:1001B000E0E7000068300020F0B585B007460C4647
:1001C000207E002834D0E069002831D000252BE0C3
:1001D000E900E0694618002003906846007B022190
:1001E0008843811C03916846007B082188430830BE
:1001F00003900A2068433946E0314018F179C90775
:10020000C90F321D0092019102903288B31C03A9DC
:10021000384608F019F804900498002802D0049891
:1002200005B0F0BD681CC5B2207EA842D0DC00BF7E
:100230000020F5E73EB504460A4B6A460021A01DA2
:1002400007F02EFE0546002D06D1064A918801983A
:1002500007F0FEFE054603E0024800210160416010
:1002600028463EBD18230020014603208003081ABB
:1002700080B27047014603208003814204DB0348BB
:10028000814201DC012070470020FCE7FEFF0000F6
:1002900010B50446A07EFF2802D0A07E04F0E2F84C
:1002A000002060762071201D2168884710BD000065
:1002B000024909788143014A1170704708230020E0
:1002C00010B504462078182802D1FDF7EFFA207007
:1002D00010BD10B504462078182802D1FDF7E6FAC3
:1002E000207010BD0146044800780840002801D065
:1002F000012070470020FCE708230020024909780C
:100300000143014A117070470823002030B50446AC
:100310001088C01C984201D90C2030BD02201588DD
:1003200048551088401C10800120158848551088B9
:10033000401C108015884C551088401C10800020EF
:10034000EBE70000F8B506460C46154600270020EE
:100350000090862C03D0112C01D0002C37D1862C94
:1003600003D10020009001270AE0112C03D10120C5
:100370000090002704E0002C02D10020009000270C
:10038000002D18D03A46124801783046FDF7C4FADD
:10039000104801783046009AFDF7BEFA00220E4858
:1003A00001783046FDF7B8FA00220C480178304653
:1003B000FDF7B2FA0BE03A46074801783046FDF700
:1003C000ABFA064801783046009AFDF7A5FAF8BD69
:1003D0005D2200205C2200205922002058220020AB
:1003E00008B5684600F01AF90098002801D00120ED
:1003F00008BD0020FCE70000F8B505460C4616468F
:100400001F461F480078C007C00F002801D10120F7
:10041000F8BD2846FEF7EEFF002801D10220F7E7DD
:10042000002C01D10320F3E7A005800D002801D0A6
:100430000620EDE72868A04204D8B00200196968D8
:10044000884201D90520E3E7002E01D10420DFE72F
:10045000684607F069FB002801D10720D8E700981B
:10046000476000980560022000990872A001000C06
:10047000009988810098068207F070FC0020C7E789
:100480002223002070B505460C46204607F07EFB6F
:1004900070BD0000F8B505460E46002428780028F7
:1004A00001D1002E3AD02878012836D1002E34D13F
:1004B0001B480088002802D001282CD117E01948D9
:1004C0000078002812D0002406E01748005DA10043
:1004D000164A5050601CC4B2062CF6DB0020009077
:1004E00013480623114A016800F0A4F814E0002420
:1004F00006E01048005DA1000C4A5050601CC4B2D8
:10050000062CF6DB002000900B480623074A016802
:1005100000F090F800E000BF00E000BFF8BD000070
:100520003620002062200020AA2000201C2000206D
:100530008C230020072000209C23002005484169CF
:10054000481C002801D00846704701200007406978
:100550008002F9E700100010FEB52D482D49401A21
:1005600004092B48401A0509FFF7E8FF02902A48C2
:100570000078C007C00F002801D00020FEBD002079
:100580000AE00201234BD1180A68002A03D04A6806
:10059000002A00D06D1E401CA042F2D300202CE0A7
:1005A00002011C4BD11800220192C2B2009200221B
:1005B00013E01601174FF3191E68002E03D05E6872
:1005C000002E00D008E05F7B019EB74203DD5E7B1A
:1005D0000196D6B2009600BF521CA242E9D3009AFF
:1005E00012010C4BD118029A4A600A7B9302029ABC
:1005F000D21A0A600A680292401CA842D0D3064868
:10060000007801210843044908700020B6E7000083
:10061000BC2300208C230020222300200146002937
:1006200001D1032070470248406E08600020F9E7BE
:10063000A4300020F8B505460C4616461F46234850
:100640000078C007C00F002801D10120F8BD28465E
:10065000FEF7D0FE002801D10220F7E7002E01D0DE
:10066000002C01D10320F1E7B007800F002803D14F
:10067000A007800F002801D00620E7E72868A042E5
:1006800004D8B90009196868884201D20520DDE75D
:10069000002F01D10420D9E7684607F045FA002869
:1006A00001D10720D2E700990698486000980560BC
:1006B0000120009908720098C660009804610098B3
:1006C000878207F04BFB0020C0E7000022230020B8
:1006D00070B504461848006E18214843164945185D
:1006E000164800780221084000280DD0022C02D0C4
:1006F000032C08D103E0284604F04EFF03E028460F
:1007000004F034FF00BF14E00C48007804210840D6
:1007100000280ED009480078884308490870064828
:10072000406E002805D0084600780221084303499E
:10073000087007F07FFA70BDA4300020222300204B
:100740003EB500BF6846007801090901491C0091C7
:1007500068460078F02188431030009000BF25489B
:100760000078002805D0122223A168467CDF0446C9
:1007700004E0092225A168467CDF044600BF254627
:10078000002D04D000BF2846FCF740F800BF00BF92
:10079000214878DF044600BF2546002D04D000BF65
:1007A0002846FCF733F800BF00BF002001900290FC
:1007B000062168468180C1800E480078002806D056
:1007C000822168460181FF212D31418104E0002111
:1007D000684601810A21418101A87ADF044600BFF1
:1007E0002546002D04D000BF2846FCF70FF800BFB7
:1007F00000BF3EBD62200020426C7565746F6F744F
:10080000685F4D6F757365342E3000004F6E6C79E4
:100810005F74657374000000C203000070B5054684
:10082000002D01D0012070BD1848007B002803D0A6
:1008300000201649087301E000F0D8F8134800784A
:100840000300FBF7D7F9081D05090D111D15191D2A
:1008500000F03CF8044615E000F0B4F8044611E05E
:1008600000F090F804460DE000F044F8044609E07A
:1008700000F020F9044605E000F02CF9044601E000
:100880000F2400BF00BF2046CDE7000088300020C5
:100890000C480089401C0B490881002048800873DF
:1008A00000BF0CE00101084A515C002901D101227E
:1008B00000E0002203490A310A54411C88B2022890
:1008C000F0DB7047883000206830002010B5074802
:1008D00000F032F8002806D10449891E08704880CB
:1008E0004860034810BD00F06DF8FBE78A30002037
:1008F0001D1D000070B50D48458828010C494018A1
:10090000808900280DD128010A4680180023012281
:1009100041680848FFF770FD044604200349087049
:1009200002E000F08FF80446204670BD88300020B9
:1009300068300020AC23002010B5014600220020C2
:1009400016E00E4B1B5C002B10D000240B4B1C54EC
:1009500003010B4C1B199B89002B07D103011B19A9
:100960009B7B012B02D10880012203E0431C98B23B
:100970000228E6DB00BF104610BD000092300020C8
:1009800068300020F8B50C4844680C4800680B49F2
:100990008988890045186088C01C86B203200649F2
:1009A00008700020009008463346294642680448F3
:1009B000FFF740FEF8BD0000883000201023002023
:1009C000AC23002010B508494888091D07F00EFB2C
:1009D000002803D0FFF7D6FF044602E0FFF78AFFA6
:1009E0000446204610BD00008830002010B5144891
:1009F00000780300FBF7FEF8080520200B111718FC
:100A00001C20FFF745FF01200D49087015E000F09C
:100A10006DF802200A4908700FE000F029F806205E
:100A20000749087009E000BF07200549087004E085
:100A300001200349087000E000BF00BF10BD0000A6
:100A40008830002010B505200649087002200649AC
:100A5000888008460023012201680448FFF7CCFC87
:100A600010BD00008830002010230020AC2300209F
:100A70000D4908680D49498809010D4A89184968D6
:100A8000094A1160094949880901094A89184860D9
:100A900005498988054A52881201054BD2181181EF
:100AA0000221014A918070471023002088300020E5
:100AB0006830002010B506200449087049880901F3
:100AC000034A8918486805F061F810BD8830002095
