:020000040001F9
:10B00000F83F0020D5B00100EFB00100F1B0010021
:10B010000000000000000000000000000000000030
:10B02000000000000000000000000000F3B001007C
:10B030000000000000000000F5B00100F7B00100C2
:10B0400059B9010095BA010025BD0100CDBB010031
:10B05000F9B001000000000089B40100F5B2010060
:10B06000F5BC01000DBD0100F9B00100F9B001000F
:10B07000F9B0010015BB0100F9B00100F9B0010001
:10B08000F9B00100A5BB0100ADB90100F9B00100A4
:10B09000E5BB0100F9B00100EDBB010021BC0100DE
:10B0A000F9B00100F9B0010000000000000000004C
:10B0B0000000000000000000000000000000000090
:10B0C0000348854600F0B8F8004800479D2D02006F
:10B0D000F83F00200321094802680A43026008483B
:10B0E00002680A4302600748804707480047FEE7B6
:10B0F000FEE7FEE7FEE7FEE7FEE70000240500406E
:10B100005405004091BC0100C1B0010030B50B46B0
:10B11000014600202022012409E00D46D5409D4231
:10B1200005D31D469540491B2546954040191546B7
:10B13000521E002DF1DC30BD70B5002425460028DC
:10B1400001DA01244042002901DA01254942FFF7D2
:10B15000DDFFAC4200D04042002C00D0494270BD1F
:10B160000048704790D4020003460B439B0703D06E
:10B1700009E008C9121F08C0042AFAD203E00B78BC
:10B180000370401C491C521EF9D27047D2B201E034
:10B190000270401C491EFBD270470022F6E710B532
:10B1A00013460A4604461946FFF7F0FF204610BD35
:10B1B000421C0178401C0029FBD1801A704730B531
:10B1C00004460020034600E05B1C934203D2E05C8F
:10B1D000CD5C401BF8D030BDF0B51FB40646002052
:10B1E00082B005464024019100901BE0019922465F
:10B1F0000F46304600F042F8049A059B801A9941A8
:10B2000010D310461946224600F028F8361A8F410E
:10B210000197224601200021009F00F01FF83818F6
:10B220004D4100902046641E0028DFDC019B009801
:10B230002946324607B0F0BD064C0125064E05E012
:10B24000E36807CC2B430C3C98471034B442F7D347
:10B25000FFF73AFFE4D4020004D5020010B5202A1B
:10B2600004DB0146203A9140002010BD914020238C
:10B270009C1A0346E3401943904010BD10B5202AA4
:10B2800004DB0846203AD040002110BD0B46D340D5
:10B29000D0402024A21A91400843194610BD70B531
:10B2A0008C180578401C6B075B0F01D10378401C9C
:10B2B0002A1106D10278401C03E006780E70401C6B
:10B2C000491C5B1EF9D12B0705D40023521E0DD457
:10B2D0000B70491CFAE70378401CCB1A921C03E060
:10B2E0001D780D70491C5B1C521EF9D5A142D8D3A4
:10B2F000002070BD0EB51D48C06800281CD1FF207D
:10B30000013009F0DFFA012009F0E4FA00BF002063
:10B310001749086000BF01216846017000BF14484A
:10B32000806801B26846818001201049887408460F
:10B3300001686846884718E000F0D6FF002814D05E
:10B34000012009F0C7FA0020694608700748C06864
:10B3500001900648017C68460181012003498874F8
:10B36000084601686846884700BF0EBDF42E0020DD
:10B37000007500407FB5002500F05AF82649087096
:10B3800040E026480078002802D025480AF016F848
:10B3900024480078030000F0E5FC06040A05060BCB
:10B3A000070E00BF00BF00BF11F0DEFA04E000BFCF
:10B3B00000F04BF800E000BF00BF184800780028FC
:10B3C0001CD0194B0FCB6C460FC41A216846C170B4
:10B3D0001E218170192141701821017000BF134A8C
:10B3E00069460F4809F01EFF0446002C04D000BF38
:10B3F000204601F0F5FA00BF00BF00BF00F018F8CA
:10B400000549087004480078002804D12846691CC2
:10B410004DB20328B5DB7FBD792100207C200020C0
:10B4200090D002007B210020E0D1020049B8020048
:10B4300010B500200EF00EFC0446302C01D0312C4B
:10B4400001D1012010BD0020FCE710B518200AF042
:10B450003CFC012118200AF0A2FC642009F09AFAB1
:10B46000002118200AF09BFC642009F093FA0121C6
:10B4700018200AF094FC012009F063FAFF202D3017
:10B4800009F088FA10BD0000F0B58FB000200E90D2
:10B490000D90FF2001300C900126002416E00C983E
:10B4A0000AF0FCFC00280BD000BF924840683040F6
:10B4B000002805D00C980AF0E9FC0E9830430E9055
:10B4C00076000C98001D80B20C90641C042CE6D30E
:10B4D000FF207D300AF0E2FC00280DD0FF207D30F7
:10B4E0000AF0D4FC0121C9070E9808430E900DAA5A
:10B4F000012100200AF0ACFC0E980007000F002884
:10B500002CD00126002427E00E983040002821D0BE
:10B5100000BF7948512109014018A10040581F215E
:10B5200009020840000A074600BF7348512109017B
:10B530004018A1004058032109040840000C0B905A
:10B54000204603F0C3FE0546002D02D038460B9975
:10B55000A84700BF7600641C042CD5D30E98C00FFA
:10B56000C007002876D000200B900A90002505E047
:10B570000020C043A90009AA50506D1C002DF7D02F
:10B5800000BF00200B9000247AE05C48005D08902A
:10B59000C02108988843074658480057401C002897
:10B5A0006DD009A9384609F0A1F9002867D0C0215B
:10B5B0000898084080110790384603F0CBFE0590AC
:10B5C00003F084FE06900698002802D1079803280D
:10B5D00054D10798032815D10AA803970290039F16
:10B5E000F9080191039F7907490F03910199029886
:10B5F000415C0123039A93401943CAB20199425412
:10B6000000BF00BF00BF00BF052109070846B90001
:10B610000722120282185158032212041140090C09
:10B6200005910DA9384609F061F9049004980028A5
:10B6300002D00598022805D0049800281DD105984D
:10B6400003281AD10798032810D10598022802D19F
:10B65000032001E04BE002200390384603990AF0F2
:10B660004CFB0B98401CC0B20B9000BF0698002802
:10B6700003D03846069A0799904700BF00BF641C64
:10B68000082C82D30B9800282CD0012708AA01216E
:10B6900000200AF0DDFB00250AE0A80008A90858F0
:10B6A000A9000DAA5158884201D0002702E06D1C64
:10B6B000002DF2D000BF002F02D000200B9010E030
:10B6C00000250CE0A80008A90858A9000DAA5050B0
:10B6D000A8000AA90858A90009AA50506D1C002DFD
:10B6E000F0D000BF0B98002800D04AE700BF0FB091
:10B6F000F0BD00000063004000600040642E0020A8
:10B7000020BF40BF20BF7047C206D20E012191402A
:10B71000014A11607047000080E200E0C206D20ECC
:10B7200001219140014A11607047000080E200E071
:10B73000C206D20E01219140014A116070470000FB
:10B7400080E100E0C206D20E01219140014A116061
:10B750007047000080E100E0C206D20E0121914056
:10B76000014A11607047000000E100E0C206D20EFD
:10B7700001219140014A11607047000000E100E0A2
:10B78000C206D20E01219140014A116070470000AB
:10B7900000E100E0C206D20E01219140014A116091
:10B7A0007047000000E200E0C206D20E0121914085
:10B7B000014A11607047000000E200E010B5002867
:10B7C00019DA1A4A03071B0F083B9B089B00D25843
:10B7D0008307DC0EFF23A3409A438B071B0E8407CD
:10B7E000E40EA3401A43114B0407240F083CA4089D
:10B7F000A4001A5118E00E4A03231B02D218830832
:10B800009B00D2588307DC0EFF23A3409A438B078B
:10B810001B0E8407E40EA3401A43054B03242402A5
:10B820001B198408A4001A5110BD00001CED00E093
:10B8300000E100E010B5002819DA1A4A03071B0FCF
:10B84000083B9B089B00D2588307DC0EFF23A340D4
:10B850009A438B071B0E8407E40EA3401A43114B37
:10B860000407240F083CA408A4001A5118E00E4A4B
:10B8700003231B02D21883089B00D2588307DC0ED7
:10B88000FF23A3409A438B071B0E8407E40EA340BB
:10B890001A43054B032424021B198408A4001A51DF
:10B8A00010BD00001CED00E000E100E010B5002834
:10B8B00019DA1A4A03071B0F083B9B089B00D25852
:10B8C0008307DC0EFF23A3409A438B071B0E8407DC
:10B8D000E40EA3401A43114B0407240F083CA408AC
:10B8E000A4001A5118E00E4A03231B02D218830841
:10B8F0009B00D2588307DC0EFF23A3409A438B079B
:10B900001B0E8407E40EA3401A43054B03242402B4
:10B910001B198408A4001A5110BD00001CED00E0A2
:10B9200000E100E000BF00BF00BFBFF34F8F00BFCA
:10B9300000BF00BF06480749C86000BF00BF00BF86
:10B94000BFF34F8F00BF00BF00BF00BF00BFFDE7C8
:10B950000400FA0500ED00E010B5FF20013008F00A
:10B96000D0FF00280CD0FF20013008F0D5FF0120C7
:10B9700008F0D8FF01200C494870002003F01CFE9D
:10B98000FF20053008F0BDFF00280BD0FF20053058
:10B9900008F0C2FF022008F0C5FF012002498870AC
:10B9A00003F00AFE10BD0000002E00201CB500BFF1
:10B9B000FF20013034494018006800281AD00120C7
:10B9C0000AF0DCFD002815D000BF0021FF20013067
:10B9D0002D4A8018016000BF91156846018000BFA4
:10B9E0002A48C06841B268468170294A0199009886
:10B9F0001268904700BFFF200530234940180068B7
:10BA0000002822D002200AF0B9FD00281DD000BF76
:10BA10000021FF2005301C4A8018016000BFFF2173
:10BA200005316846018000BF1848806901B2684648
:10BA3000418000BF15484030806881B268468180EF
:10BA4000134A019900981268904700BFFF200930FF
:10BA50000D4940180068002815D004200AF08EFD1A
:10BA6000002810D000BF0020FF210931064A8918A4
:10BA7000086000BFFF20093069460880044A019928
:10BA80000098126890471CBD00200140002501402D
:10BA9000A022002010B51B480068002808D01A48D2
:10BAA0004068C007C00F002802D000201549086078
:10BAB0001448C06800280FD0134840680821084087
:10BAC000002809D000200F49C860104800680028ED
:10BAD00002D00E48006880470A48006900280FD04D
:10BAE0000948406810210840002809D00020054975
:10BAF000086107480068002802D0054800688047B0
:10BB000010BD000000110040001300406C23002015
:10BB1000682300201CB50020019001A801F008F95D
:10BB20000FF07EFE002830D100BFFF200130194900
:10BB300040180068002801D0012000E00020002803
:10BB400023D00120144989680140002901D0012136
:10BB500000E00021002918D000BF0020FF210131A2
:10BB60000C4A8918086000BF00BF0C488068C0B24A
:10BB7000009069460A480AF029FD09480AF00FFDBD
:10BB8000002801D009F01AFB00BF6846007901F0D7
:10BB9000F9F81CBD00D0004000D3004000D50040A3
:10BBA00040D3020010B50020074908600021064874
:10BBB00041608160C16000200349403908604860ED
:10BBC00010F02AFA10BD00004011014010B5034CDE
:10BBD0002146034806F020FC10BD00008C2E0020FA
:10BBE0000030004010B510F027F910BD70B50B48BB
:10BBF000006800280ED0094800688047044600BF4E
:10BC00002546002D04D000BF284600F0E9FE00BF05
:10BC100000BF01E006F012FB70BD000020230020F1
:10BC20003EB519480068019002A809F063FD04467A
:10BC3000002C27D115480068002823D00298C0079F
:10BC4000C00F002806D000206946087068460F49DA
:10BC500009688847022102980840002806D0012080
:10BC600069460870684609490968884704210298AE
:10BC70000840002806D0022069460870684603493B
:10BC8000096888473EBD0000602300204023002053
:10BC900010B506F001FC002805D010481049486096
:10BCA000C8131049886106F0DBFB002802D0012090
:10BCB0000D49886006F026FC00280ED00B4800686D
:10BCC000012807D00A480949086000BF07480068F2
:10BCD0000128FBD1C0200549486110BDDFFF07C026
:10BCE00000050040006C00400006004000EC0640EB
:10BCF0007593000010B504220249034806F058FB72
:10BD000010BD0000AC2E00200080004010B50422C1
:10BD10000249034806F04CFB10BD0000B82E00207D
:10BD20000090004010B50249024810F0CCFB10BD55
:10BD3000702E0020002000400FB41CB50A46521E91
:10BD40000192009007A9064B6A46069800F040F859
:10BD5000009A002111701CBC08BC04B018470000F8
:10BD600045C2010030B47446641E2578641CAB42A1
:10BD700004D3635D5B00E31830BC18471D46F8E749
:10BD800002E008C8121F08C1002AFAD170477047A4
:10BD9000002001E001C1121F002AFBD17047000002
:10BDA0000146202909DA01208840054A1040002870
:10BDB00001D0012070470020FCE70120FAE70000D5
:10BDC000FC06FFBC00BFEFF31081084672B6704757
:10BDD000FFB591B00F460546002606E025280AD09B
:10BDE000149A139990476D1C761C28780028F5D179
:10BDF000304615B0F0BD002400940121F34A0294AE
:10BE000000E004436D1C2B780846203B984010420C
:10BE1000F7D128782A280ED0022128780246303A15
:10BE2000092A15D8009A0A235A43303A80180C433D
:10BE30006D1C0090F1E701CF0090002805DA012089
:10BE400040030443009840420090022004436D1CCC
:10BE500028782E2815D10420044368786D1C2A28E0
:10BE60000AD101CF6D1C02900BE002990A225143C6
:10BE7000303940186D1C0290287801463039092964
:10BE8000F3D928786C2810D006DC4C281AD0682802
:10BE90000ED06A2817D104E0742813D07A2812D162
:10BEA00010E00120400504430CE00121090501E0F8
:10BEB000032109050C436978814203D10120000563
:10BEC00024186D1C6D1C287803906E281ED00CDC85
:10BED000632831D004DC00288AD0582811D1B2E080
:10BEE00064287BD069280CD178E073282DD004DC3D
:10BEF0006F2870D0702804D1A7E075286CD07828FE
:10BF00006BD0149A13999047761C62E06002400F40
:10BF1000022807D003280AD0042838680AD006600F
:10BF20003F1D56E03868F11706604160F8E7386851
:10BF30000680F5E70670F3E7387869460874002054
:10BF4000487404A80390012003E03868039000209F
:10BF5000C0433F1D61070FD5002101E00199491C35
:10BF6000029A0191914213DA8142F7DB019A039917
:10BF7000895C0029F2D10BE0002101E00199491C04
:10BF800001918142FADB019A0399895C0029F5D17C
:10BF900001990098139A401A00902146149B00F0D2
:10BFA0003BF901998019461807E003980399007836
:10BFB000491C0391149A139990470198401E0190CF
:10BFC000401CF2D12146149B139A009800F014F9FA
:10BFD00086196D1C09E741E033E034E00A200021B6
:10BFE000049005916002410F022905D001CFC217CC
:10BFF0009446032905D007E0FF1DFF08FF0003CF8B
:10C0000006E000B2C2179446042902D140B2C1171B
:10C010008C4600226146944506DA0A4600214042D9
:10C0200091418C462D2102E0210504D52B216A4641
:10C030001176012103E0E10701D02021F7E701910A
:10C0400054E00A200BE0102009E0102004900021A9
:10C050000420044308200591029003E008200021F9
:10C06000059104906002410F022905D001CF002202
:10C070009446032906D006E0FF1DFF08FF0003CF0A
:10C080008C4603E080B2042900D1C0B200210191A6
:10C0900021072BD50399702906D0049A1021059BFE
:10C0A0004A401A4305D00EE040216A46117601212C
:10C0B00008E06146014306D030216A4611760399B3
:10C0C000517602210191049A0821059B4A401A43A6
:10C0D0000CD16146014301D1610707D530216A4681
:10C0E0001176012101910299491E02910399582963
:10C0F00004D037A103910FA90F910DE039A1F9E701
:10C100006146059B049AFFF767F8039B8C469B5C8E
:10C110000F9A521E0F92137061460143F0D10F988F
:10C1200007A9081A20300390600704D501200004F5
:10C130008443029801E0012002900399884201DDC6
:10C14000401A00E000204118029001980918009858
:10C15000401A0090E00306D42146149B139A0098DD
:10C1600000F05AF886190020049008E006A9085C3F
:10C17000149A139990470498401C761C04900199D6
:10C180008842F3DBE0030CD52146149B139A0098F8
:10C1900000F042F8861904E0149A30201399904771
:10C1A000761C0299481E02900029F5DC08E00F98E1
:10C1B0000F990078491C0F91149A13999047761C97
:10C1C0000399481E03900029F1DCFBE609280100D1
:10C1D00030313233343536373839616263646566FD
:10C1E00000000000303132333435363738394142BF
:10C1F0004344454600000000F8B5044600251E46AD
:10C200001746880404D405E039462020B0476D1C49
:10C21000641EF9D52846F8BDFFB50446002581B057
:10C220001E46C80301D5302700E02027880404D526
:10C2300005E038460399B0476D1C641EF9D52846C1
:10C2400005B0F0BD4A68002A06D00A68531C0B608E
:10C2500010704868401E48607047000038B50B48B1
:10C26000006800900A49684608F02EFC044600BFAA
:10C270002546002D04D000BF284600F0B1FB00BFCA
:10C2800000BF044808F00AFC38BD000048D1020095
:10C2900099C20100B420002070B50446207800281F
:10C2A0001CD10F490860002508E069006068405E05
:10C2B0000B49096840180A4908606D1C2089A8428A
:10C2C000F3D8218906480068FEF720FF044908607A
:10C2D00000200449087008F023FC00BF70BD000076
:10C2E000AC2000207320002010B5FF20013008F0A2
:10C2F000E9FA00BF00201E49086000BF00BF0846E1
:10C30000806800B21B49C9681A4A527C52008852A0
:10C310001848407C401C174948740846407C097CFA
:10C32000884223DA0024134880684068002804D13A
:10C33000104840680F49886005E00E4880684068F2
:10C340000C49886001240B498968086808F0A8FA3C
:10C3500000BF01200649086000BF002C04D000BFC8
:10C36000054A106000BF00BF002010BD0120FCE79F
:10C3700000750040F42E00200070004070B50546A6
:10C380000C46002D01D0002C01D1002070BD287872
:10C390002178884201D00020F8E70622611C681C41
:10C3A000FEF70DFF002801D10120EFE70020EDE7A7
:10C3B00010B50446204602F043FF00BA10BD024605
:10C3C000002105E0505C002801D001207047491C85
:10C3D0000629F7D30020F9E710B50446002C0ED04B
:10C3E00008480068A0420AD806484068A04206D320
:10C3F000204606F0BEF8002801D0012010BD002024
:10C40000FCE70000B823002000B501460B00FFF751
:10C41000A9FC0504070A0D1014000948006800BDB6
:10C4200008480068FBE708480068F8E70748006824
:10C43000F5E7044800681830F1E701480068EEE7C6
:10C44000782300208823002098230020A8230020A0
:10C45000F7B582B0044616460025378800203080A4
:10C460002D20005D00280CD03A463146039801F09B
:10C4700033FB054600BF002D02D0284605B0F0BDB5
:10C4800000BFA07800280BD03A463146039800F050
:10C4900099FC054600BF002D01D02846EEE700BFFD
:10C4A000E07800280DD0E17848B23B463246039947
:10C4B00004F084F8054600BF002D01D02846DDE7D2
:10C4C00000BF606800280ED00020616808563B4617
:10C4D000324603990FF0DCFF054600BF002D01D066
:10C4E0002846CBE700BF208900280FDD0197009682
:10C4F0000622022120460830039B10F003FB05466C
:10C5000000BF002D01D02846B8E700BF208A0028D0
:10C510000FDD019700960722032120461030039B70
:10C5200010F0F0FA054600BF002D01D02846A5E71F
:10C5300000BF208B00280FDD0197009615221421E3
:10C5400020461830039B10F0DDFA054600BF002D91
:10C5500001D0284692E700BF206A00280CD03B4655
:10C560003246206A039903F0C3F8054600BF002D48
:10C5700001D0284682E700BF606A00280CD03B4605
:10C580003246606A039907F0F5FC054600BF002DAE
:10C5900001D0284672E700BF2C20005D00280CDD8A
:10C5A0003B463246204603990EF0FCFB054600BF91
:10C5B000002D01D0284661E700BF207800280CD06C
:10C5C0003B4632462046039908F0A8F8054600BFCE
:10C5D000002D01D0284651E700BF28464EE7000055
:10C5E00070B504461748FFF7EAFE0546012C06D051
:10C5F000022C0DD0032C14D0042C20D118E01248AA
:10C600004078002803D0002D01D0012070BD00BF6C
:10C610000D488078002803D0002D01D00220F5E7D6
:10C6200000BF0948C078002801D00320EEE700BF12
:10C6300005480079002801D00420E7E700BF00206A
:10C64000E4E70000AD210020B82700200246511C7D
:10C65000C817800F401880108000081AC0B27047B9
:10C660000146C87804221040002801D107207047F5
:10C670000020FCE710B504220221012002F0BCFAE0
:10C68000044600BF002C03D0072C01D0204610BD6B
:10C6900000BF07220021012002F0AEFA044600BFCD
:10C6A000002C03D0072C01D02046F0E700BF0A225F
:10C6B0000021084602F0A0FA044600BF002C03D077
:10C6C000072C01D02046E2E700BF0020DFE7000092
:10C6D00070B598B03C2109A8FEF75FFD0526022140
:10C6E00008A8017101218171C671684681861949C6
:10C6F0000E91202101A8FEF750FD0121684601712D
:10C70000002141718171002003900490012168464D
:10C71000C17128200590B420069068460172192046
:10C72000C0010790012008900B480C4B01AA002182
:10C73000009009A800F0A8FD044600BF2546002D82
:10C7400004D000BF284600F04BF900BF00BF18B06E
:10C7500070BD00008A20002079D20100D16702005C
:10C7600070B5254A10212548FEF710FD0820244900
:10C77000086022480BF0C0FF214801681F480CF0F8
:10C7800053FF044600BF2546002D04D000BF2846B5
:10C7900000F026F900BF00BF1948016817480CF0E7
:10C7A00085F90446062C09D000BF2546002D04D08B
:10C7B00000BF284600F014F900BF00BF0020114957
:10C7C00008700F480068002803D000200E49087048
:10C7D00002E001200C490870032000F0B7FE044677
:10C7E00000BF2546002D04D000BF284600F0F8F811
:10C7F00000BF00BF70BD0000FFFF0000C02500208B
:10C800009020002094200020C421002070B58CB01E
:10C8100004460D461646002005E00F21091A615C0A
:10C820006A461154401C1028F7D30D2104A8FEF7C6
:10C83000B4FC002005E02A5C0F210B1A04A9CA549D
:10C84000401C0328F7D368464DDF002005E00F2188
:10C850000A1A08A9895C3154401C0328F7D30CB08C
:10C8600070BD000010B50446002001F06DFD0848C1
:10C870000078401E0649087008460078002806D156
:10C880000448006800F038FA002001F07BFD10BD7C
:10C89000A820002000D2020010B5002407E0E1002B
:10C8A000064A1268505C012108F018FA641C04481A
:10C8B00000788442F3D3002010BD0000A82200209D
:10C8C000AC220020FEB506460C461746052F01D2C5
:10C8D0000720FEBD08F016FB002808D108F0E4FA96
:10C8E000054600BF002D01D02846F2E700BF1748DB
:10C8F0000660174804701748076000201649086052
:10C900001649086017E0E00080190190144800689B
:10C910000090019880786946487001990878114A1A
:10C92000694608F039FA054600BF002D01D02846B7
:10C93000CFE700BF00BF2046611ECCB20028E2D185
:10C94000094A0021094800F021F9C2E7A822002085
:10C95000AC220020B0220020B4220020B822002007
:10C96000D0D30200251202005DF90100CCD30200F1
:10C9700013A1012009F058FD00BF09F039FC00BFE8
:10C9800000BF09F03BFC0028FBD100BF00BF00BF87
:10C9900000BF00BF00BF00BFBFF34F8F00BF00BF8D
:10C9A00000BF0D480D49C86000BF00BF00BFBFF306
:10C9B0004F8F00BF00BF00BF00BF00BFFDE70000FA
:10C9C0004150505F4552524F523A4552524F523A9F
:10C9D000466174616C0D0A000400FA0500ED00E088
:10C9E0003EB50446002000900190029002946A46F1
:10C9F00000210248FFF7BCFF3EBD000001400000DF
:10CA0000F7B582B007460C4627480088844246DCCA
:10CA1000264D0020019001A800F08AF900BF2448AB
:10CA2000007800902348007807F02EFF0099884294
:10CA300001D1012000E00020002806D11D48057822
:10CA4000007807F021FF1B4908706846007900F064
:10CA500099F91648854220D0E900174A04981268CF
:10CA60005050002F11D0002C0FDD0F490988694369
:10CA7000124A1268881822463946FEF775FBE8000C
:10CA80000D4909684018848005E00021E8000A4A41
:10CA9000126880188180002600E0042600E0092644
:10CAA000304605B0F0BD0000C6220020FFFF0000A8
:10CAB000C4220020C5220020BC220020C022002069
:10CAC000F8B51AE015480478154800886043154900
:10CAD00009684518E0001449096840188688E00094
:10CAE000114909680F5831462846B8470B48007865
:10CAF00007F0CAFE0949087000BF00BF00200028E7
:10CB00000BD100BF0549087808490978814201D155
:10CB1000012100E000210029D4D0F8BDC42200206A
:10CB2000C6220020C0220020BC220020C5220020F6
:10CB300030B50346481CC004040C10468507AD0FF1
:10CB4000002D01D1012500E00025002D01D1072095
:10CB500030BD084802601019074D28600020074DBD
:10CB60002870074D2870074803800748018000207F
:10CB7000EEE70000BC220020C0220020C5220020D9
:10CB8000C4220020C6220020C822002010B503467F
:10CB90000C4600BF0D484068002801D1082010BD98
:10CBA00000BF002A01D10720F9E7002B01D107209F
:10CBB000F5E71868007C002801D00820EFE7196825
:10CBC000002008744C744A6100BFE8E7CC220020C2
:10CBD000F8B504460D46264600BF082D01D10120B8
:10CBE00000E000200746002F03D100BFFFF7F8FE4A
:10CBF00000BF00BF316870688847F8BD7CB5044647
:10CC00000D4600940195034A08216846FFF7F8FE97
:10CC10007CBD0000D1CB0100F8B507460D46144697
:10CC20001E4620468107890F002901D1012100E01D
:10CC30000021002901D10720F8BD002C01D10720D7
:10CC4000FAE70DF07FFC11480660002010490870DB
:10CC5000487008468570446000200E4908600E49FF
:10CC600008700E4908701420FEF74EFD03211420B1
:10CC7000FEF7E0FD1420FEF76FFD38460DF038FC9E
:10CC80000DF030FC064908600020D5E7E8220020BE
:10CC9000CC220020D4220020E4220020E522002023
:10CCA000D8220020F8B504460E461746254600BF98
:10CCB00010484068002801D10820F8BD00BF002CB2
:10CCC00001D10820F9E7052E01D20720F5E76869B0
:10CCD000002801D10820F0E7687C012801D1304606
:10CCE00000E0002000903B4631462846009A0FF0B5
:10CCF00043F9E2E7CC22002070B50446254600BF88
:10CD00000A484068002801D1082070BD00BF002CEF
:10CD100002D06869002801D10820F6E700202874B5
:10CD2000022128460FF056F9EFE70000CC22002040
:10CD300070B5044600BFFFF745F805460E48406849
:10CD400000280ED101200C4948600C4800680C49AD
:10CD50000840094908600A48084908600020207016
:10CD600001E001202070002D03D100BF62B600BF9A
:10CD700000BF00BF70BD0000F022002080E100E095
:10CD8000FC06FFBC70B5044625460C4840680028E8
:10CD900012D0002D10D1FFF715F80646074800689D
:10CDA00007490860002005494860002E03D100BFF4
:10CDB00062B600BF00BF00BF00BF70BDF022002000
:10CDC00000E100E0F8B505460C4617462088001D36
:10CDD000B84201D90C20F8BD684679DF064600BF8D
:10CDE000002E01D03046F6E700BF032021886854AA
:10CDF0002088401C20801920218868542088401CED
:10CE0000208020884119684600880FF00EFC218898
:10CE1000401820800020DEE730B58BB01448007841
:10CE200000F024FE054628460DF0C0FC00281CD06A
:10CE300001A800F077FD142201A906A8FEF794F9D5
:10CE400000240EE0620007A9885A0949097800F019
:10CE50001BFE002804D0620007A9885A05F050FE86
:10CE6000641C0698A042EDD800BF0BB030BD000096
:10CE7000F621002010B5044663799A07920F2179B4
:10CE8000208805F00BFD10BD10B504462079002860
:10CE900003D1204600F008F803E02046FFF7EAFF40
:10CEA00000BF00BF10BD0000F0B589B004460025EA
:10CEB000208800F0A9FD0746208805F011F80646F5
:10CEC000A0680890607A079020880022224909789B
:10CED00000F0EEFD002F01D109B0F0BD60794007F0
:10CEE000C00F002811D0072130460BF07BF8054613
:10CEF000002D16D00821684601712188C180068165
:10CF0000039501A803F00CF80BE020881349097879
:10CF100000F0BAFD002804D0304604F0C9FF0390A9
:10CF200000BF03216846017421884182607940076F
:10CF3000C10F68460175A0794007C10F04A841716F
:10CF4000811D08A80078087004A86946097FC1718E
:10CF500002F0E6FF00BFBFE73A2200203C2200209B
:10CF600030B585B014216846FEF717F9002000900F
:10CF70000121684601710020029064216846017316
:10CF800000BF407B01090901491C68464173407B91
:10CF9000F021884320306946487300BF00BF6846CF
:10CFA000807B00090001401C88736846807BF0216B
:10CFB000884320306946887300BF00BF6846C07B45
:10CFC00000090001C8736846C07BF02188436946A8
:10CFD000C87300BF00BF6846007C01090901491CF5
:10CFE00068460174007CF02188432030694608744B
:10CFF00000BF084800F0B4FB044600BF2546002DE2
:10D0000004D000BF2846FFF7EBFC00BF00BF05B00F
:10D0100030BD000068250020F0B591B004460D46F3
:10D02000207D002819D00020099000BF08A80079B1
:10D0300001090901491C08A801710079F021884300
:10D04000103008A9087100BF697B08A84171807978
:10D0500006218843801C08A988711C210AA8FEF7B4
:10D060009CF808A8007A02218843811C08A8017254
:10D07000007A10218843217D002901D0012100E0A0
:10D080000021090110221140084308A9087200205C
:10D090000B900D900E90207D002801D009A800E093
:10D0A00000200F900020109000BF0121684681737E
:10D0B0004949818100BF00200290A97B6846017226
:10D0C000E97B4172807A06218843811C684681721F
:10D0D000807A08218843014668468172807A10214F
:10D0E0008843014668468172807A41084900684653
:10D0F0008172297B0191142104A8FEF74EF803A840
:10D10000049002A805900121684601830021418313
:10D110000121818301A80890A088A31D04AA0AA95F
:10D12000A2DF0646002E02D0304611B0F0BDA8683E
:10D1300000284DD000BF01216846817327498181B5
:10D1400000BF00200290287C6946087200BF684634
:10D15000407A0109090168464172407AF02188430A
:10D160006946487200BF6846807A06218843811C60
:10D1700068468172807A0821884301466846817238
:10D18000807A10218843014668468172807A41087E
:10D19000490068468172A96800F05AFF07461421C9
:10D1A00004A8FDF7FAFF03A8049002A805906846BA
:10D1B000078300214183018B81830890E088224608
:10D1C0000E3204A9A3DF0646002E03D03046ACE79A
:10D1D0000020E0810020A8E7192A000008290000AB
:10D1E000F3B593B00D461F211291119113980028A9
:10D1F00018D01398FFF734FA044600BF002C02D071
:10D20000204615B0F0BD00BF12AA09A91398FFF778
:10D210001FF9044600BF002C01D02046F1E700BFF3
:10D2200009AE02E0002600201290002D17D02846FB
:10D230000EF061FB044600BF002C01D02046E0E761
:10D2400000BF11AA01A92846FFF702F9044600BF52
:10D25000002C01D02046D4E700BF01AF02E0002738
:10D260000020119010A88088C3B210A80089C1B214
:10D270003A46304672DFC4E710B5044600BF204688
:10D28000FFF7AEFB00BF10BDF8B504460F461546CC
:10D290001E46002C01D0002D01D10E20F8BD01202A
:10D2A00057490870002057490870202229465648DF
:10D2B000FDF75AFF5548066055490698086000205A
:10D2C000C0435449088007215348FDF766FF3C21BD
:10D2D0005248FDF762FF207850490870A0788870A6
:10D2E000E078C870607848700846626921694261D8
:10D2F00001610146E268A068CA6088600846E26988
:10D30000A169C2618161606A00281BD04448434919
:10D31000486244498160606A00884049496A0880DF
:10D32000606A80883D49496A8880002005E0616A1A
:10D330008968095C3B4A1154401C3849496A89880C
:10D340008142F4D8A06A002824D037493748816048
:10D350003249886234493148806A8160A06A808895
:10D360002E49896A8880A06A00882C49896A0880C9
:10D37000002005E0A16A8968095C2B4A1154401C11
:10D380002649896A89888142F4D82C20015D234886
:10D3900020300173206A00280BD025481F490862FD
:10D3A000206A4088096A4880206A00881B49096A07
:10D3B00008806068002802D0184960684860002032
:10D3C00008E0C100091A1B4A89181B4A1268830029
:10D3D000D150401C0828F4DB002007E00101174A67
:10D3E0008A18154989688300CA50401C0828F5DB53
:10D3F00039460A48FFF7F4FE009000984EE7000017
:10D40000A8210020AB210020B8270020BC2100204B
:10D41000C0210020B8210020AC210020D827002006
:10D4200014280020202800204C280020402800201C
:10D43000B4210020AC280020C8210020E4280020CE
:10D4400010B504462088102804D0112806D01B28C7
:10D450000CD107E0204609F097FC08E0204609F0CF
:10D46000EBFC04E020460AF047F800E000BF00BFF4
:10D4700010BD000070B50546022D02D0032D18D155
:10D4800000E000BF0C480078002811D000200A49B5
:10D4900008700A48007800F059F80446002C07D0BC
:10D4A00007480068002803D02046054909688847D6
:10D4B00000E000BF00BF70BDA9210020AB2100200B
:10D4C000C021002010B5044607480078002801D18B
:10D4D000082010BD00200449087007222146034897
:10D4E000FDF742FE0020F4E7B3210020AC2100202C
:10D4F00010B574DF01201149087006201049C8706A
:10D5000000210F48FFF76CFE0446002C01D0204696
:10D5100010BD03200B4908700846007800F016F88B
:10D520000446002C07D008480068002803D0204695
:10D530000549096888470020EAE70000C421002067
:10D54000D8270020AB210020C021002070B586B074
:10D5500005465C480078002802D1082006B070BD5E
:10D560005948057003F094F8002804D00120574969
:10D5700008700020F2E707215548FDF70EFE5548D8
:10D580004078002803D05048007801280FD0514837
:10D590008078002803D04C480078012807D04D48F7
:10D5A0008078002812D04848007802280ED14A48D6
:10D5B0000068002807D00120484908700820464923
:10D5C0000968884702E00020444908702846FFF7B0
:10D5D00007F83D49087040480068002817D0084601
:10D5E0000078032803D00846007804280FD1394872
:10D5F000007800280BD03A480078002807D1012095
:10D6000038490870072034490968884702E000203B
:10D610003449087018216846FDF7BFFD00216846AF
:10D6200001700172284800780300FEF79BFB051883
:10D6300004090E131C0068460DF06EFC044613E04E
:10D6400068460DF079FC04460EE068460DF08AFC51
:10D65000044609E068460DF0BDFC044604E00020E5
:10D660002149087000E000BF00BF1748007800287B
:10D6700006D0684673DF0446002C17D020466DE7BD
:10D680001A480078002811D0002018490870FEF7C9
:10D69000BBFE0646164905F0F8FA002803D01449E7
:10D6A000491E002070DF002000F076FE0A48006866
:10D6B000002804D00C4800780749096888470020F2
:10D6C0004CE70000A8210020AB210020A921002068
:10D6D000AC210020B8270020BC210020B32100206D
:10D6E000C4210020C5210020AA2100207020002094
:10D6F0009A200020FFB581B007460D461E46164809
:10D700000078002802D1082005B0F0BD00201249A1
:10D71000087012490D710E7300240AE00F4A126856
:10D72000A300D058E200121BD1190722FDF71CFDFF
:10D73000641CAC42F2D300240AE0084A9268A300B9
:10D74000D0582301039A99181022FDF70DFD641C8F
:10D75000B442F2D30020D7E7C5210020C821002021
:10D76000F8B504460D46002C01D0002D01D10E2045
:10D77000F8BD286820600020C043608228792075A9
:10D78000FF20207400BF0121684681700849018094
:10D7900000BF221D69460120A0DF0646002E01D0F1
:10D7A0003046E5E729462046FFF736FCE0E7000073
:10D7B0000F18000070B505460C46002D01D0002C56
:10D7C00000D170BD2088102804D0112807D050281F
:10D7D0000FD109E02146284609F0AEFA0AE02146B9
:10D7E000284609F01FFB05E02146284609F0E2FE25
:10D7F00000E000BF00BF00BFE3E7000038B504460B
:10D80000082221461348FDF7AFFC12487ADF05468F
:10D81000002D1CD1104804F011FE00280BD101206E
:10D820000E4908700B490E48008875DF0546012037
:10D830000C4908700BE00C484069002806D0012014
:10D840000090094841696846884700BF002528467E
:10D8500038BD0000D8210020E4210020EC21002068
:10D86000E2210020E02100206429002070B5054657
:10D870001C2229461448FDF777FC00201349087044
:10D88000286800280BD0082211482968FDF76CFC95
:10D890000F487ADF0446002C08D0204670BD0C48A3
:10D8A0007BDF0446002C01D02046F7E70020C04370
:10D8B00008490880002008490870084A00210848E3
:10D8C000FFF764F9EAE7000064290020EC2100205A
:10D8D000D8210020E2210020E021002059C80200C8
:10D8E00048D2020010B504462088102806D011281E
:10D8F00008D012280ED0502810D107E0204609F099
:10D90000EBF90CE0204609F06BFA08E0204609F03C
:10D9100027FE04E0204609F0D3F900E000BF00BF75
:10D9200010BD000010B504460348027D011D2046CD
:10D930000CF0B0FF10BD0000A029002010B5044677
:10D940000348C17D2246001D0CF08EFF10BD000073
:10D95000A029002010B504460348017E2246001D80
:10D960000CF082FF10BD0000A029002070B5044615
:10D970002088102804D011281ED01A283FD11FE07B
:10D980000CF03EFBA0880CF0A3F9002804D100BFE6
:10D990000420FFF725F80EE0A07D022801D1012028
:10D9A00000E000200546A2882B461649084612389A
:10D9B0000CF093FF00BF22E0A0880CF043FB1EE0B8
:10D9C000207A0009012801DD012000E00020034643
:10D9D000A2880C49491C084613380CF07EFF207AB7
:10D9E0000009022801DD012000E000200346A28892
:10D9F0000449891C084614380CF06FFF00BF00BFB3
:10DA000070BD0000B629002070B5044600250C4802
:10DA1000017D2246001D0CF027FF00280DD008488C
:10DA2000817D2246001D0CF01FFF0646002E01D00E
:10DA3000022000E00120054600BF284670BD00001E
:10DA4000A029002010B500240BE020460EF05CFF5A
:10DA5000002804D120460EF04DFF204610BD601C6A
:10DA6000C4B2182CF1DB1820F8E7000010B504460A
:10DA700020460EF049FF002802D00248005D10BD8C
:10DA80000020FCE7B929002070B505460C46204669
:10DA90000EF03AFF002806D00448015D2A461538EA
:10DAA0000CF0E2FE70BD0020FCE70000B929002068
:10DAB00070B505460C46164620460EF025FF002898
:10DAC00006D00448011933462A4615380CF005FFE4
:10DAD00070BD0000B9290020FEB505460C4617466A
:10DAE00020880930B84201D90C20FEBD684671DF9C
:10DAF0000646C02168464170022181700321C17031
:10DB000004210171C0218171012101706946002049
:10DB100070DF00BF002E01D03046E6E700BF0820CE
:10DB2000218868542088401C20801B20218868544C
:10DB30002088401C208021884819062200A9013134
:10DB4000FDF712FB2088801D2080684600780028A1
:10DB500002D12188685402E001202188685420887D
:10DB6000401C20800020C0E77FB5044600BF012193
:10DB7000684681735D49818100BF5D4A03A9012028
:10DB8000A0DF0546002D02D0284604B070BD2088D5
:10DB900000280DDD57480090228823463C33564824
:10DBA000616801F0DDFB0546002D01D02846ECE759
:10DBB000208900280EDD51480090228923463C33FD
:10DBC0004D48401FE16801F0CBFB0546002D01D018
:10DBD0002846DAE7208A00280EDD49480090228A8C
:10DBE00023463C334448001F616901F0B9FB0546F8
:10DBF000002D01D02846C8E7208B00280EDD4148C3
:10DC00000090228B23463C333B48801EE16901F0A3
:10DC1000A7FB0546002D01D02846B6E7208C00283A
:10DC20000EDD39480090228C23463C333248C01E1A
:10DC3000616A01F095FB0546002D01D02846A4E756
:10DC4000208D00280EDD31480090228D23463C3384
:10DC50002948401EE16A01F083FB0546002D01D0F2
:10DC6000284692E7206B002813D001A8216B0DF005
:10DC70004AFF274823463C33082201A900901E484A
:10DC8000801F01F06DFB0546002D01D028467CE782
:10DC900000BF606B00280FD01E480090606B0279B7
:10DCA00023463C3301681448401C01F059FB0546EB
:10DCB000002D01D0284668E7A06B002813D001A8EA
:10DCC000A16B0BF0C3FC144823463C33072201A987
:10DCD00000900948273001F043FB0546002D01D094
:10DCE000284652E700BF00204FE700000A18000056
:10DCF0005422002056220020292A00005E22002003
:10DD0000662200206E220020762200207E22002043
:10DD1000862200208E2200209622002010B5044684
:10DD20002046FFF723FE20460BF0CCF9204600F0FA
:10DD3000ADFB204608F000FF2046FFF781FB2046A0
:10DD4000FFF7D0FD2146044800F04CF92146034876
:10DD5000FFF730FD10BD0000F023002068250020F3
:10DD6000FFB587B005460F46109EFF207730405B19
:10DD7000224988423DD0F01C81B206916846008B52
:10DD8000082834DC00BF012000BF684607740998EA
:10DD9000C1B2684641740A98C1B268468174002EC7
:10DDA00004DD324613301199FDF7DEF900200090B2
:10DDB000019002900390FF205F30415B6846018034
:10DDC000012181700021818006A8029004A803909F
:10DDD000FF217731485B6946A6DF0446002C05D158
:10DDE000F01C6946098B884200D00C2400E00C240A
:10DDF00000E0082420460BB0F0BD0000FFFF00004B
:10DE00007CB506460C46A07A0A2805DC207C0A2848
:10DE100002DC207E0A2801DD07207CBD20683060FE
:10DE200060687060A07AB074217C78208155217E72
:10DE3000DE2081550021C943FF207730815300BF88
:10DE40000121684681714749818000BF324608320E
:10DE500001A90120A0DF0546002D01D02846DCE7FE
:10DE60002146304604F0B4F80546002D01D028467E
:10DE7000D3E7207A002802D1607A002809D0214611
:10DE80003C3130460BF068FC0546002D01D0284699
:10DE9000C3E72146304604F083F90546002D01D042
:10DEA0002846BAE72146304609F072FC0546002DA7
:10DEB00001D02846B1E72146304602F0D5FA0546A2
:10DEC000002D01D02846A8E7214630460CF0C0F9C5
:10DED0000546002D01D028469FE7207A002818D05B
:10DEE0003046FF304F302346433308221E4900900E
:10DEF000304600F027F90546002D01D028468CE772
:10DF00002146304600F0A2F90546002D01D02846F2
:10DF100083E7607A002810D03046FF305F30234618
:10DF200040330822104911310090304600F00AF9C0
:10DF30000546002D01D028466FE72146304603F004
:10DF40003DFB0546002D01D0284666E721463E31BF
:10DF5000304603F0DBFA0546002D01D028465CE789
:10DF600000205AE712180000222A0000FFB587B0EF
:10DF700004460E461746A07CB0422DDD0A207043B1
:10DF80002146143140180690FF207730005B144979
:10DF900088421FD0019700200290039004900590C2
:10DFA00006980188684601810121817200218181E2
:10DFB00001A804900A980590FF217731085B02A917
:10DFC000A6DF0546002D04D168468088B84200D0FF
:10DFD0000C2500E0082500E0072528460BB0F0BD21
:10DFE000FFFF000070B505460C462088102806D0BB
:10DFF000112809D050280CD0512814D10EE0214608
:10E00000284608F09CFE0FE02146284608F00EFF47
:10E010000AE02146284609F0F1FA05E021462846A3
:10E0200009F053FA00E000BF00BF70BD70B50446B0
:10E030000D462846FDF7BCF82080656070BD70B5C0
:10E04000044620460EF0EBFA0546E807C00F70BD07
:10E05000F8B505460E46002432782146641C6A5401
:10E0600072782146641C6A5400BF022C01D1012041
:10E0700000E000200746002F03D100BFFEF7B0FCF0
:10E0800000BF00BF2046F8BD70B586B028480068C4
:10E09000059000BF274B4822274905A80DF06CFBCF
:10E0A000054600BF2E46002E04D000BF3046FEF7C6
:10E0B00097FC00BF00BF00BF6A46012100200DF0A1
:10E0C0001BFB044600BF2546002D04D000BF284698
:10E0D000FEF786FC00BF00BF68460DF0B5FA0446A7
:10E0E00000BF2546002D04D000BF2846FEF778FC6F
:10E0F00000BF00BF11480DF099FA044600BF254645
:10E10000002D04D000BF2846FEF76AFC00BF00BF08
:10E110000B480DF08BFB044600BF2546002D04D0B4
:10E1200000BF2846FEF75CFC00BF00BF06B070BD14
:10E13000F4D0020051B70200482600201DDD010086
:10E14000F5BA0200F0B58FB005460E4617461C46DC
:10E150000020079000BF6846007F01090901491CA3
:10E1600068460177007FF0218843103069460877C0
:10E1700000BF217868464177807F06218843811C53
:10E18000684681771C2108A8FDF707F808A80078E1
:10E1900002218843811C08A8017000780821884367
:10E1A000A1780907090F002901D0012100E0002111
:10E1B000C90008221140084308A9087008A800787F
:10E1C00010218843103008A90870002009900B9096
:10E1D0000C9007A80D9000200E9000BF012168460A
:10E1E0008171868000BF00200090617868460170D0
:10E1F000A1784170807806218843811C684681702F
:10E200008078082188430146684681708078102113
:10E210008843014668468170807841084900684615
:10E220008170142102A8FCF7B8FF01A8029068468B
:10E230000390002101824182878200200690288974
:10E2400002AA08A9149BA2DF0FB0F0BD30B58FB0B1
:10E2500004460D461C2108A8FCF79FFF08A800787B
:10E2600002218843811C08A8017000780821884396
:10E27000411808A80170007804218843001D08A9EE
:10E280000870002009900B900C900D900E9000BF2C
:10E290000121684681721E49018100BF0020019062
:10E2A0004620415D684601714720415D68464171E5
:10E2B000807906218843811C684681718079082114
:10E2C0008843014668468171807910218843014660
:10E2D000684681718079410849006846817114213E
:10E2E00003A8FCF75AFF02A8039001A8049000219C
:10E2F00068468182C1820121018300200790208924
:10E300002346FF33573303AA08A9A2DF0FB030BD5D
:10E31000322A000010B501460A4B585C00BF0524A4
:10E320002407234600BF24151C192469C440E407B0
:10E33000E40F002C01D0012000E000200246012063
:10E34000504010BDF2D1020030B502460C49885C45
:10E3500000BF05242407214624150C1963680124F5
:10E3600084409C4305252D024D19AC600124844056
:10E370001C4005252D024D19EC6000BF30BD00008A
:10E38000F0D1020010B504460249085D012107F0F2
:10E3900026FD10BDF0D1020010B504460249085D0B
:10E3A000002107F01CFD10BDF0D1020010B50146A0
:10E3B0000A4B585C00BF05242407234600BF2415E0
:10E3C0001C196468C440E407E40F002C01D001204C
:10E3D00000E0002002460120504010BDF0D10200B4
:10E3E0007CB500240CE00948055D00200090034640
:10E3F000012211460190284607F0E5FB00BF641C8E
:10E40000022CF0D300F004F87CBD0000F0D1020033
:10E4100010B5002403E02046FFF7B4FF641C022C73
:10E42000F9D310BD10B5002403E02046FFF7B4FF78
:10E43000641C022CF9D310BD02460020C043002109
:10E4400006E0054B5B5C934201D1084602E0491CA3
:10E450000829F6D300BF7047F2D1020070B5054617
:10E460000C46002607480560002C02D020460DF01F
:10E4700013FB05480068002802D1FEF7FBF80646AA
:10E48000304670BDA0210020A421002070B50546B3
:10E490002888102802D0112832D118E01A480068C4
:10E4A00000280ED101F004FA044600BF002C07D06A
:10E4B00016480068002803D0204614490968884798
:10E4C00000BF11480068401C0F49086019E00E4861
:10E4D0000068401E0C4908600846006800280ED1FC
:10E4E000FEF7C8F8044600BF002C07D007480068B4
:10E4F000002803D0204605490968884700BF00E08E
:10E5000000BF00BF70BD0000A4210020A02100209A
:10E51000F3B581B00746002500243846FFF78CFF8D
:10E520000446082C42D20298002825D0012802D0A7
:10E5300002283AD133E06000201822490D5C6000C7
:10E5400020184018407800280ED01F48006832225A
:10E55000504301461D4A1E480068FEF7A3FB0646CD
:10E56000002E01D119480770600020181549401885
:10E5700080781849085518E015480068FEF7BCFB7C
:10E580001448005D610061180E4A89188978884234
:10E5900004D16000201811464018857805E060001D
:10E5A000201808494018457800BF00BF002D07D04B
:10E5B00009480068002803D02846074909688847A9
:10E5C000FEBD00008027002088210020942100202B
:10E5D00004D20200952100209021002010B50446AD
:10E5E0002046FFF797FE10BDF0B585B00546002622
:10E5F000FE480088FE4988427ED0FE480078002808
:10E6000003D1FD480078002877D0FC480078002826
:10E6100015D1FB4906F0A8FC044600BF2746002F91
:10E6200004D000BF3846FEF7DBF900BF00BF002072
:10E6300007F0ACFF06F084FC0120F0490870281FA9
:10E640000300FDF78FFB1B74FAFA7EFAFA70FAFAF0
:10E65000FAFAFAE1F9F8F7F60FFAFAFAFBF4F3F23C
:10E66000F16FFA00E1480088E149884259D0E54855
:10E670000088FF21AD31884253DBE3480078002851
:10E6800026D1E248007800281FD0E14801460EC993
:10E69000C0686F460EC703901A216846C1701E21DC
:10E6A0008170192141701821017000BFD94A694653
:10E6B000D94806F0B7FD0746002F04D000BF384602
:10E6C000FEF78EF900BF00BF00BF0120CE490870E1
:10E6D000D2480078002805D11B2001F0E9FA01207A
:10E6E000CE490870CE480078002817D10022FF21BB
:10E6F0000731CC48006801E032E102E2FEF7D2FACD
:10E70000044600BF2746002F04D000BF3846FEF75E
:10E7100067F900BF00BF0120C14908700020B94956
:10E7200008801CE11BE1022004F0C2FA17E101207D
:10E73000BD4908700020FFF72FFE0120FFF72CFED7
:10E740000DE1B9480078002803D0022004F0B0FAA7
:10E7500059E0B648007802280AD1B5480078401C34
:10E76000C0B2B349087005280CDB0120087009E02D
:10E77000AF480078401CC0B2AD490870042801DBE6
:10E7800001200870AA4800784000401EA94908707E
:10E790009D480078002824D19C48007800281DD08E
:10E7A0009B4B10330FCB6F460FC71A216846C170C1
:10E7B0001E218170192141701821017000BF954AF6
:10E7C0006946954806F02EFD0746002F04D000BF8D
:10E7D0003846FEF705F900BF00BF00BF01208A4997
:10E7E0000870934800780EF0DBF8172000F03CFA30
:10E7F000044600BF2746002F04D000BF3846FEF76E
:10E80000EFF800BF00BFAAE0784800887849884246
:10E8100009D08948007801210843874908700846D3
:10E82000007805F0C9FE9AE088E067E046E025E060
:10E8300004E073E052E031E010E08FE06B480088C4
:10E840006B49884209D07C480078400840007A49EA
:10E8500008700846007805F0AFFE80E06348008845
:10E860006349884209D074480078022108437249FC
:10E8700008700846007805F09FFE70E05B4800884D
:10E880005B49884209D06C480078022188436A4974
:10E8900008700846007805F08FFE60E05348008855
:10E8A0005349884209D064480078042108436249EA
:10E8B00008700846007805F07FFE50E04B4800885D
:10E8C0004B49884209D05C480078042188435A4962
:10E8D00008700846007805F06FFE40E04348008865
:10E8E0004349884209D054480078082108435249D6
:10E8F00008700846007805F05FFE30E03B4800886D
:10E900003B49884209D04C480078082188434A494D
:10E9100008700846007805F04FFE20E03348008874
:10E920003349884209D044480078102108434249BD
:10E9300008700846007805F03FFE10E02B4800887C
:10E940002B49884209D03C480078102188433A4935
:10E9500008700846007805F02FFE00E000BFD0E008
:10E96000152D6FD127480088FF21AD31884266DB25
:10E9700025480078002824D12448007800281DD09C
:10E98000234B20330FCB6F460FC71A216846C17047
:10E990001E218170192141701821017000BF1D4A8C
:10E9A00069461D4806F03EFC0746002F04D000BF14
:10E9B0003846FEF715F800BF00BF00BF012012491E
:10E9C00008700022FF21073116480068FEF76AF937
:10E9D000044600BF2746002F04D000BF3846FDF78D
:10E9E000FFFF00BF00BF0020064929E0862000206D
:10E9F000FFFF00006D2000206F2000207520002008
:10EA00001198020062200020722000207C2000204B
:10EA1000F8D0020049B8020090D002007620002011
:10EA20006B20002098D00200782000207A2100205E
:10EA3000A7200020A82000209520002002E01CE054
:10EA400008801AE00A2D03D1022004F031F914E005
:10EA5000042D09D101205A4908700020FFF79CFCC1
:10EA60000120FFF799FC08E0072D06D154480078F3
:10EA7000002802D0022004F01BF9284610380300B9
:10EA8000FDF770F90C0715233131313131310E1C8E
:10EA90002A314C480078012108434A49087023E094
:10EAA0004848007840084000464908701CE0454846
:10EAB0000078022108434349087015E04148007876
:10EAC000022188433F4908700EE03E480078042147
:10EAD00008433C49087007E03A480078042188431D
:10EAE0003849087000E000BF00BF374800780028B0
:10EAF00007D10A2D05D035480078002801D1FDF74F
:10EB00002FFE33480078002854D02E48007807287C
:10EB100050D130480088FF21AD31884246DB2E4875
:10EB20000078002823D12D48007800281CD02C4BD9
:10EB30000FCB6F460FC71A216846C1701E21817026
:10EB4000192141701821017000BF264A69462648E4
:10EB500006F068FB0746002F04D000BF3846FDF7DB
:10EB60003FFF00BF00BF00BF01201B4908701F48C6
:10EB70000078002805D11B2001F09AF801201B49DC
:10EB800008700022FF21073119480068FEF78AF853
:10EB9000044600BF2746002F04D000BF3846FDF7CB
:10EBA0001FFF00BF00BF00200A4908800120114953
:10EBB000087002E000200F49087005B0F0BD0000A9
:10EBC0007820002095200020AA210020702000201D
:10EBD0006D20002062200020722000207C20002078
:10EBE00028D1020049B8020090D00200762000200F
:10EBF00098D002007120002070B503460020082B39
:10EC00002DD2012A07D1012903D11C460E34E4B2CA
:10EC100000E000242246002918D0012902D0022950
:10EC20001AD10DE05C001C190E4D2A55012B06D996
:10EC3000144609345D005D190A4EAD19AC700DE043
:10EC40005C001C19074D6419627007E05C001C1918
:10EC5000044D6419A27001E0072000BF00E0072006
:10EC600070BD00008027002070B5044600250648CE
:10EC70000078C007C00F002803D0204600F064F8D9
:10EC80000546284670BD00008C210020F7B50546DA
:10EC90000E46002422480660224805602249029858
:10ECA000086002202840002822D0022706E0012226
:10ECB00011463846FFF7A0FF04467F1C082F01D2FB
:10ECC000002CF4D0002C05D1720808211748FDF75C
:10ECD000F9FD0446002C02D1FDF7DEFD0446002CB0
:10ECE00005D1134A00211348FDF750FF044600BF29
:10ECF000E807C00F002801D0FFF772FB002C05D1F8
:10ED00000D4A00210D48FDF741FF0446002C05D1B6
:10ED10000B4A01210B48FDF739FF04462046FEBD92
:10ED2000882100208C2100209021002008D20200A0
:10ED3000A1F1010004D2020095250200FCD10200DD
:10ED400065C8010000D20200F8B50446002500267F
:10ED5000BF480078002804D00020BD490870FFF7A4
:10ED600057FB2300FCF7FEFF190EF013474876A26D
:10ED7000B0B6C4D4F1EEEDECEBEAE9E8E7E6E5E4A1
:10ED8000E3E2F000FFF744FBB24804705CE10020CE
:10ED9000FFF70CFB00280ED0AF480078002801D107
:10EDA000FFF7F0FA022C02D1FF20F53001E07D20C0
:10EDB000400106460DE0A8480078002801D1FFF781
:10EDC000EBFA022C02D1FF20F53001E0FF20913058
:10EDD0000646A048047064213046FCF797F99F4925
:10EDE000096848430746002239469D480068FDF7F8
:10EDF00059FF054628E127E10020FFF7D7FA002850
:10EE00000BD00020FFF7BEFA042C02D17D20400178
:10EE100001E07D20400106460AE00020FFF7BCFA31
:10EE2000042C02D1FF20913001E0FF2091300646F2
:10EE30008848047064213046FCF768F987490968FE
:10EE4000484307460022394685480068FDF72AFFF7
:10EE50000546F9E00020FFF7A9FA00280AD00020B3
:10EE6000FFF790FA052C01D1C82001E07D20400178
:10EE7000064609E00020FFF78FFA052C01D1C820D3
:10EE800001E0FF209130064672480470642130464C
:10EE9000FCF73CF9714909684843074600223946A6
:10EEA0006F480068FDF7FEFE0546CDE00020FFF745
:10EEB0004BFA684804706948002201686848006895
:10EEC000FDF7F0FE0546BFE00020FFF75BFA614862
:10EED0000470B9E001205E490870FFF735FA5F4819
:10EEE000002201685E480068FDF7DCFE0546ABE0E5
:10EEF000012057490870FFF727FA58480068820038
:10EF00008118002256480068FDF7CCFE05469BE0BC
:10EF100001204F490870FFF717FA50480022016896
:10EF20004F480068FDF7BEFE05468DE086E021E013
:10EF300083E077E06EE065E05FE038E036E034E003
:10EF400032E030E011E000E07DE00120404908704F
:10EF5000FFF7FAF941480068820081180022404812
:10EF60000068FDF79FFE05466EE0FFF75BFA394843
:10EF7000047069E03B480068FDF7BEFE0546002DC1
:10EF80000DD136480068820081180022354800689B
:10EF9000FDF788FE05460020FFF7FEF902E000209D
:10EFA000FFF7F0F950E000BF00BF00BF00BF2D48E1
:10EFB0000068FDF7A1FE05461120061B002E18D0A3
:10EFC000002D16D1012E10D9C821714308466421A5
:10EFD000FCF79CF821490968484307460022394656
:10EFE00020480068FDF75EFE05460220FFF7D4F9D1
:10EFF00002E00220FFF7C6F926E0FFF709FA1548FC
:10F00000047021E0FFF704FA0020FFF7C5F911486A
:10F01000047019E0FFF7FCF90120FFF7BDF90D4876
:10F02000047011E0FFF7F4F90020FFF7B5F90120B3
:10F03000FFF7B2F90748047006E000BFFFF7F2F9E6
:10F040000448047000E000BF00BF2846F8BD00007F
:10F0500085210020842100207420002088210020A8
:10F06000FCD1020000D202000246002901DA002091
:10F0700003E013685B18136001207047F0B585B09A
:10F0800004460D46641C01270120039000200290D5
:10F0900002A8FDF74DFE1F48006828601D48006863
:10F0A0001C494968411A1B488068401C461AE019EF
:10F0B00001900198B04221D9002E1CD0164800685A
:10F0C000009000988005800D144909688902890A1A
:10F0D0008902084300900F48009A00680D490968AA
:10F0E000491C0C4B19601946896808408100184674
:10F0F0000C30425000BF0020039004E00548006837
:10F100000019044908606846007AFDF73BFE039841
:10F1100005B0F0BDAC300020E8D302001C23002075
:10F120000448406803490968884201D101207047BA
:10F130000020FCE7AC30002070B504460D461448B2
:10F14000007801281BD012480078042817D00F201F
:10F1500005F094FD112005F091FD122005F08EFDC3
:10F16000132005F08BFD142005F088FD152005F017
:10F1700085FD162005F082FD172005F07FFD00209B
:10F180000449086004490880044806F0AFF970BDDE
:10F190007B2100201C200020642000206CD0020075
:10F1A00010B5044620780221FFF7B2F910BD000027
:10F1B000F8B50546134A14490320FFF767FD0446D6
:10F1C00000BF2646002E04D000BF3046FDF708FCE5
:10F1D00000BF00BF69460020FFF740F9044600BFAA
:10F1E0002646002E04D000BF3046FDF7F9FB00BFD5
:10F1F00000BF68460078022801D1012000E000200D
:10F200002870F8BDE9E50100CD0C000030B50246DC
:10F210000B4602210EE08D0014462C412007000F02
:10F22000092802DD0446373401E004463034012564
:10F230006D1A5C550C46491E002CECD130BD000007
:10F24000014608680D4A024012090C4BDB4303409B
:10F250001B011A4310460A4A02409208084BDB433E
:10F2600003409B001A431046064A02405208054BD1
:10F27000DB4303405B001A4310467047F0F0F0F0A8
:10F28000CCCCCCCCAAAAAAAA01468879012808D15C
:10F290000879012805D14888034A904201D101200C
:10F2A00070470020FCE70000022900000021C9434C
:10F2B0008200054B9950042804DB0B46011F024ACB
:10F2C0005032535470470000142E0020014688002D
:10F2D000014A105870470000142E0020F7B585B081
:10F2E0000B460020C0430490002A01D0002000E01B
:10F2F00004200390002A01D0042000E00C2002909A
:10F3000003991EE08800124C2058401C002817D199
:10F310000846059C0093019246B20D4D30352E559E
:10F3200085000B4E009B7351019A002A04D166B2EE
:10F33000051F074F50377E5500BF48B2049003E0C9
:10F34000491C02988142DDD300BF049808B0F0BD8B
:10F35000142E00200146014840567047442E0020DC
:10F36000F0B58FB007460D4614461E4600BF002D6F
:10F3700001D0012000E0002000900098002803D177
:10F3800000BFFDF72DFB00BF00BF00BF002C01DD5B
:10F39000012000E0002000900098002803D100BF69
:10F3A000FDF71EFB00BF00BF1C2107A8FBF7F5FE01
:10F3B0006946087F02218843801C6946087700203F
:10F3C00008900A900B900C900D9000BF012108A8A6
:10F3D00081766846078700BF002001903178684633
:10F3E000017171784171807906218843811C6846DA
:10F3F000817180790821884301466846817180794E
:10F40000102188430146684681718079410849008E
:10F4100068468171142102A8FBF7BFFE0EA8029076
:10F4200001A80390684604820021418284820695E7
:10F4300002AA07A902480088149BA2DF0FB0F0BD02
:10F44000542200200146002907D00548884204D8EC
:10F450000448884201D9012070470020FCE70000E1
:10F4600078230020C823002070B505460E460024EE
:10F4700007E0E100685803F07CF8002800D170BD77
:10F48000641CB442F5D30120F9E700000A49496C35
:10F4900000290FD00849096CC900074A8918016082
:10F4A0001146096C491C4907490F11641146496C02
:10F4B000491E516470470000C02F002006490268B1
:10F4C0008A4203D001680831016070470249383927
:10F4D000016000BFF9E70000F82F00200178022941
:10F4E00002D0017803290BD106490A6C817D51189D
:10F4F000044A116411464A6C817D511A014A5164D3
:10F5000070470000C02F0020F8B504460D46104E8D
:10F51000304684420BD1FF210131284609F076FDA7
:10F520000646FF20013086420FD126460DE0FF2C13
:10F530000BDC2146284609F058FD0746002F01D074
:10F54000204600E00248064600BF3046F8BD0000F5
:10F55000FFFF000010B5FF2014301049086010496B
:10F56000C87C1049096888470F4810494860002046
:10F570000F49086101200F49086100BF0C4800696C
:10F580000028FBD000200A490861FF2018300349F9
:10F59000086001200749486010BD000000120040CB
:10F5A000C434002070230020A6370020001500403E
:10F5B000001100400010004070B50546002D01D13B
:10F5C000094C01E0084C08340AE0204602F0DAFF5A
:10F5D0000646002E00D104E028467168884700BF27
:10F5E000F3E700BF70BD0000082E00200020054991
:10F5F000086001208107086000BF024800680028F9
:10F60000FBD0704700010040FEB51F48006800288D
:10F6100036D01D48006805680AF064FF01901B4859
:10F620000468214601980CF0D7FAC61C18480078E7
:10F63000002801D10AF068FFAE4201D2284600E05E
:10F64000304604192402240A20460AF045FF0AF035
:10F6500049FF0090019900980CF0BEFAC71C2046A3
:10F6600001990CF0B9FA874209D90AF03BFF074625
:10F670000AF032FF2F2005F0ADF90CF017FD01E084
:10F680000AF060FFFEBD0000D4220020D822002036
:10F69000EC22002001460888062808DB0888192289
:10F6A000D201904205DD0888104A904201D007201F
:10F6B00070474888062808DB48881922D201904202
:10F6C00005DD4888094A904201D00720F0E7088804
:10F6D000064A904208D04888904205D008884A8857
:10F6E000904201DD0720E3E70020E1E7FFFF000093
:10F6F000FFB581B006460D4614462088801D04994A
:10F70000884202D90C2005B0F0BD3046FFF7C2FF99
:10F71000074600BF002F01D03846F4E700BF0520A0
:10F72000218868542088401C208012202188685439
:10F730002088401C20802288511930880CF075FFE9
:10F740002188401820802288511970880CF06DFFA4
:10F750002188401820800020D5E710B5044600BF5E
:10F760002046FDF73DF900BF10BD000030B587B061
:10F770001C216846FBF711FD002000900520C00306
:10F7800001900F20000402900321684601730021BC
:10F79000C181017400200590084806906846FEF774
:10F7A00065F8044600BF2546002D04D000BF28465A
:10F7B000FDF716F900BF00BF07B030BD5BF70100D1
:10F7C00038B51F4802F03AFE002829D11D480078BC
:10F7D00000280AD01C484069002820D00020009052
:10F7E000194841696846884719E018480078002898
:10F7F00002D11548456801E0134885680022294672
:10F8000013480068FDF74EFA0446002C07D00E4856
:10F810008069002803D00C488169204688470AE0A7
:10F8200009484069002806D0012000900648416937
:10F830006846884700BF00200249087038BD0000B4
:10F84000E4210020EC21002064290020E021002098
:10F8500048D202003EB504462088FEF76FF8002823
:10F860001AD020880F490978FEF70EF9002805D133
:10F87000208800220C490978FEF71AF92188684689
:10F880004180052101702088FEF764F869460871FF
:10F89000684600F045FB04E020880122034900F09F
:10F8A000EDF93EBD3B2200203A2200200610000068
:10F8B00010B50A2200210846FFF79EF9044600BF52
:10F8C000002C03D0072C01D0204610BD00BF07221A
:10F8D00000210120FFF790F9044600BF002C03D05F
:10F8E000072C01D02046F0E700BF042202210120AE
:10F8F000FFF782F9044600BF002C03D0072C01D08B
:10F900002046E2E700BF0020DFE7000070B50646B2
:10F910000D46002E01D0012070BD2879002804D0AA
:10F92000012809D0022811D10EE028460AF03EFA3B
:10F930000446022028710BE0284600F0D3FD04465F
:10F940000A2C00D1044C03E0034C01E00F2400BF5B
:10F9500000BF2046E0E700001D1D0000F8B50025AF
:10F9600035E0E8001C4909684418217801208840E6
:10F9700006461A4800683040002826D0174800681C
:10F98000B04316490860207805F082FA07462178CE
:10F990000120884012490968084022783946914080
:10F9A000884211D16078012800D100E00020784021
:10F9B0000121484000906068002804D0009BD9B223
:10F9C00020786268904700BF00BF681CC5B2054838
:10F9D00000788542C5DBF8BDA8220020B8220020AF
:10F9E000B4220020AC22002030B593B0022168463A
:10F9F00001711E49C1801E490181012141814021BF
:10FA000003A8FBF7CAFB1BA103A8FEF70FFB01A885
:10FA1000119000BF10A8007A01090901491C10A823
:10FA20000172007AF0218843203010A9087200BFCB
:10FA300000BF12A840780009000112A9487012A85E
:10FA40004078F021884312A9487000BF03A8FEF750
:10FA50008BF8044600BF2546002D04D000BF284681
:10FA6000FCF7BEFF00BF00BF13B030BD151900008A
:10FA7000EEEE00004E6F7264696353656D69636FEB
:10FA80006E647563746F720070B5044620793D280A
:10FA900001D1054801E0112000020546208800221E
:10FAA000294602F0FBFE70BD3D10000020B50D4858
:10FAB0000078401C0B490870084600780007000FCA
:10FAC00008700949074A1278885C05F021FF00BFD9
:10FAD0002546002D04D000BF2846FCF781FF00BF5B
:10FAE00000BF20BDE91F00205CD0020070B50024DB
:10FAF000182006F0EAF80021192006F0BEF80021CF
:10FB00001E2006F0BAF8002512E00021182006F0A9
:10FB100046F90121182006F042F9600044B21E2087
:10FB200006F017F9002801D001200443681C45B2F3
:10FB3000082DEADB204670BD70B50446182006F09B
:10FB4000C4F81E2006F0C1F80021192006F095F82F
:10FB5000002518E00021182006F021F9802020401F
:10FB6000002804D001211E2006F019F903E000212D
:10FB70001E2006F014F96006040E0121182006F07C
:10FB80000EF9681CC5B2082DE4DB00211E2006F02A
:10FB900006F970BD014614480078144A1278904264
:10FBA0001DD011480078401C0F4A10701046007894
:10FBB000022801D1002010700B48007880000C4A08
:10FBC000105808600B4A086812688018094A1060CB
:10FBD000104600680002000A1060012070470020F3
:10FBE000086000BFFAE70000E4220020E5220020C0
:10FBF000DC220020D8220020F8B504460D462888D3
:10FC00002070FF21090201400912617002210E4695
:10FC1000AA783146761C6254EA783146761C6254E2
:10FC200000BF042E01D1012000E000200746002F74
:10FC300003D100BFFCF7D4FE00BF00BF3046F8BDC3
:10FC4000F8B505460E4600240627062000903946E2
:10FC50000948FBF7A2FA00BF0AE020460099FBF72B
:10FC60006BFA705C295D484003490855601CC4B2BA
:10FC7000BC42F2DB0048F8BD7D210020FEB5044601
:10FC80000D461646084A07CA6B4607C368464480B5
:10FC9000858086710022054801782046FDF708FF1F
:10FCA000684600F03DF9FEBDBCD202003A220020B9
:10FCB00070B504465A2109200CF0DCFF062009F03B
:10FCC000C9FFC5B26D076D0F132C06D1082028435C
:10FCD000014606200CF0CEFF03E0294606200CF07A
:10FCE000C9FF21464B200CF0C5FF002109200CF074
:10FCF000C1FF70BD10B50446A08928DF10BD00000B
:10FD000010B588B028A0006807901822274901A8DC
:10FD1000FBF72AFA012168460171FF21F5310182C2
:10FD20000021017322480290684641710121017649
:10FD30000521C175022141730521418201A805F009
:10FD4000FBFC044600BF002C02D0204608B010BDCA
:10FD500000BF032005F09AFD044600BF002C01D02F
:10FD60002046F3E700BF07A805F0B4FD044600BF36
:10FD7000002C01D02046E9E700BFA321002005F0B8
:10FD80006BFE044600BF002C01D02046DEE700BF1A
:10FD9000042005F0D5FD044600BF002C01D020460C
:10FDA000D4E700BF2046D1E73E145B6D5CD1020072
:10FDB0006D56020000B502781300FBF7D3FF07343D
:10FDC000050811212A31340000220A702CE001229A
:10FDD0000A7003898B818388CB81C2688A6023E0A3
:10FDE00002220A7003898B818388CB81C2688A6072
:10FDF000027C062A01D1012300E000230B7413E0EA
:10FE000003220A70C3888B810389CB81C2688A6010
:10FE10000AE004220A70C3888B810023CB8103E0AF
:10FE200005220A7000E000BF00BF00BD70B50546A6
:10FE300000240AE0A00006490858002804D0A000C9
:10FE40000A46115828468847641C082CF2D370BD16
:10FE5000282F00203EB505460C46002C1BD0112C47
:10FE600019D00020009001900290684645800194CE
:10FE70000D2C03D10B206946087008E0862C03D1B5
:10FE80000A206946087002E0092069460870684641
:10FE900000F056F800BF3EBD70B50546002405E0F1
:10FEA000A000044A115828468847641C002CF7D04B
:10FEB00070BD0000F021002070B50546002405E06B
:10FEC000A000044A115828468847641C002CF7D02B
:10FED00070BD0000FC21002070B50546002405E03F
:10FEE000A000044A115828468847641C022CF7D306
:10FEF00070BD000064D2020070B50546002405E024
:10FF0000A000054A115828468847641C0348007819
:10FF10008442F5DB70BD0000B42D002036220020A5
:10FF200070B50546002405E0A000044A1158284693
:10FF30008847641C022CF7D370BD000084D20200F5
:10FF400070B50546002405E0A000044A1158284673
:10FF50008847641C002CF7D070BD0000C8D2020096
:10FF6000F0B50346002420E0134E306806689E4238
:10FF700003D90668F61A06601BE006689B1B066834
:10FF80003419002606600C4E35680B4FC6693E607A
:10FF9000C668002E08D00E193602360A4660C668BA
:10FFA00086601668C661156000BF034800680028B7
:10FFB000DAD100BFF0BD0000D42200201FB50446F6
:10FFC0006068002801D1012000E000200390207823
:10FFD0000300FBF7C7FE068A04053456838A00BF78
:10FFE000A08900F09FFA002804D1E08909F0FAFF07
:10FFF000002823D0A08900F08FFA69464880E08964
:020000040002F8
:1000000009F0EAFF694608712078012807D1606885
:10001000002800D100E003206946087007E060680E
:10002000002801D1012000E00420694608706068C2
:100030000390A0680290684608F09CF856E0A089FA
:1000400000F070FA002804D1E08909F0CBFF002805
:1000500016D0A08900F060FA69464880E08909F06E
:10006000BBFF694608716068002801D1022000E0EA
:10007000052069460870A0680290684608F07AF882
:1000800034E0A08900F04EFA002826D0E08900284C
:1000900023D1A08900F040FA69464880E08909F040
:1000A0009BFF014668460171FF21017160680028CD
:1000B00006D1062069460870488808F07FFA02E0F9
:1000C00007206946087000200E4908700E49087024
:1000D00008F0C2F9684608F04DF807E008206946C4
:1000E0000870684608F046F800E000BF00BF054809
:1000F0000078002804D000200249087008F0ACF90C
:100100001FBD0000112200201222002010B588B06F
:100110000446022000F03EFA002802D1022008B076
:1001200010BD0C48844201D10420F8E7052168463F
:1001300001710121017201A8C4800022114607F05B
:10014000DBFA002803D009F0E2FC0020E7E70820F2
:10015000E5E70000FFFF000000B587B0022000F0D7
:1001600019FA002802D1022007B000BD0620694616
:10017000087000221146684607F0BEFA00280AD02F
:1001800006480078002802D001200449087309F0CD
:10019000BEFC0020E8E70820E6E700002830002049
:1001A00010B58CB0142107A8FAF7F7FF022000F071
:1001B000F1F9002805D007A8FFF738FE00200CB0A1
:1001C00010BD012000F0E6F9002801D00020F6E77C
:1001D000012000F0EBF900F0DDFB0120694608701A
:1001E00007F0D8FB04462300FBF7BCFD0C071508FD
:1001F0001628230A24281A1F1B2800BF0B20DEE71D
:10020000022000F0D3F9012000F0AAF907A8FFF7B7
:100210000DFE0020D3E700BF0020694608710EE004
:1002200000BF03206946087109E002206946087191
:1002300005E000BF01206946087100E000BF00BF73
:1002400000221146684607F057FA09F060FC0020CA
:10025000B5E7000038B50446002C01D1052038BDB3
:100260006946204609F0C0FD00281DD06846008878
:1002700000010F4940188089002813DDA07A00286A
:1002800010D068460088000140188089401E81B265
:10029000684600880001064A801881810020A0720B
:1002A000002502E0062500E00A252846D7E70000E1
:1002B000083000207FB514461D462B46224601A972
:1002C000684609F02BFD04B070BD37B50C461546E5
:1002D0002B4622466946002009F020FD3EBD37B579
:1002E0000C4615462B4622460021684609F016FDAD
:1002F0003EBD0246002A01D0002901D105207047E9
:10030000106808600020FAE738B504460D46002C56
:1003100001D0002D01D1052038BD6946204609F0E5
:1003200063FD002816D061686846008800010A4A0B
:1003300080188089401C82B2684600880001064B04
:10034000C0188281296060680C3068600120A0724A
:100350000020E1E70A20DFE70830002070B50446FE
:100360000D46002C01D1052070BD03230022294633
:1003700020460CF047FDF7E770B504460D46022312
:100380000022294620460CF03DFD70BD70B50546A3
:100390000E461446002C01D1052070BD02232246D2
:1003A000314628460CF02EFDF7E700000146094AC9
:1003B0001278082A01D10C200AE0064A127892002D
:1003C000054B9950034A1278521C024B1A700020B8
:1003D00070470000FD220020282F0020F8B50446B9
:1003E0000D46022000F0D6F8002801D10220F8BD09
:1003F000002C01D10520FAE7694628460CF0FAFDE9
:100400000646002E03D1684600882080658030466D
:10041000EDE7000070B50446022000F0BBF80028AC
:1004200001D1022070BD002C01D10520FAE72088FF
:10043000022801DD0420F5E720880001094946185B
:1004400071896088C01C081A08D4218860880CF063
:10045000C3FD002020806080002500E004252846A0
:10046000E0E7000008300020F0B585B007460C46F4
:10047000207E002834D0E069002831D000252BE010
:10048000E900E0694618002003906846007B0221DD
:100490008843811C03916846007B0821884308300B
:1004A00003900A2068433946E0314018F179C907C2
:1004B000C90F321D0092019102903288B31C03A92A
:1004C000384609F0FFFD04900498002802D00498F3
:1004D00005B0F0BD681CC5B2207EA842D0DC00BFCC
:1004E0000020F5E73EB504460A4B6A460021A01DF0
:1004F00009F014FC0546002D06D1064A91880198A2
:1005000009F0E4FC054603E0024800210160416077
:1005100028463EBD0C230020014603208003081A14
:1005200080B27047014603208003814204DB034808
:10053000814201DC012070470020FCE7FEFF000043
:1005400010B50446A07EFF2802D0A07E05F01BFC5B
:10055000002060762071201D2168884710BD0000B2
:10056000024909788143014A11707047FC2200203A
:1005700010B504462078182802D1FDF763FA2070E0
:1005800010BD10B504462078182802D1FDF75AFA9C
:10059000207010BD0146044800780840002801D0B2
:1005A000012070470020FCE7FC2200200249097866
:1005B0000143014A11707047FC22002030B5044607
:1005C0001088C01C984201D90C2030BD022015882B
:1005D00048551088401C1080012015884855108807
:1005E000401C108015884C551088401C108000203D
:1005F000EBE70000F8B506460C461546002700203C
:100600000090862C03D0112C01D0002C37D1862CE1
:1006100003D10020009001270AE0112C03D1012012
:100620000090002704E0002C02D100200090002759
:10063000002D18D03A46124801783046FDF738FAB6
:10064000104801783046009AFDF732FA00220E4831
:1006500001783046FDF72CFA00220C48017830462C
:10066000FDF726FA0BE03A46074801783046FDF7D9
:100670001FFA064801783046009AFDF719FAF8BDCE
:1006800051220020502200204D2200204C22002028
:1006900008B5684600F0E0F90098002801D0012074
:1006A00008BD0020FCE7000002210B4A516000BF9A
:1006B0000A4909680029FBD00749886000BF07493B
:1006C00009680029FBD00021034A516000BF03499B
:1006D00009680029FBD0704700E5014000E40140B3
:1006E00001220B4B5A6000BF0A4A1268002AFBD055
:1006F000016000BF074A1268002AFBD00022044BA9
:100700005A6000BF034A1268002AFBD070470000FD
:1007100000E5014000E40140F8B505460C461646E8
:100720001F461F480078C007C00F002801D10120D4
:10073000F8BD2846FEF786FE002801D10220F7E723
:10074000002C01D10320F3E7A005800D002801D083
:100750000620EDE72868A04204D8B00200196968B5
:10076000884201D90520E3E7002E01D10420DFE70C
:10077000684609F0BFF8002801D10720D8E70098A3
:10078000476000980560022000990872A001000CE3
:10079000009988810098068209F0C6F90020C7E711
:1007A0001623002070B505460C46204609F0D4F803
:1007B00070BD0000F0B585B005460E4600242878CF
:1007C00000284BD1002E49D15A480078022804D085
:1007D000032806D004283FD13AE0032002F068FA4B
:1007E0003BE055480078002823D154480078002881
:1007F0001CD0534B0FCB6F460FC71A216846C170F0
:100800001E218170192141701821017000BF4D4ACD
:1008100069464D4804F006FD0746002F04D000BF8E
:100820003846FCF7DDF800BF00BF00BF0120424999
:10083000087046480078002805D11B20FFF738FAD9
:10084000012042490870052004F072F8FBF76AF8AD
:10085000022002F02DFA00E000BF68E028780128AD
:1008600064D1002E62D133480078002806D00128D8
:1008700024D0022836D0042856D13EE034480078EF
:1008800000281AD033480078002816D13248007862
:10089000002812D1002406E03048005DA100304A53
:1008A0005050601CC4B2062CF6DB002000902D488E
:1008B00006232B4A016800F0DBF836E0002406E04E
:1008C0002948005DA100264A5050601CC4B2062C85
:1008D000F6DB0020009025480623214A016800F03D
:1008E000C7F822E000201E4908600090204801233C
:1008F0001B4A016800F0BCF817E0002006E01D4A22
:10090000411C515C8200164B9950401C0628F6DBB6
:100910000020009015480068014618310623104A4F
:10092000124800F0A5F800E000BF00E000BF05B0ED
:10093000F0BD000050200020722000207C2000200C
:1009400038D1020049B8020090D002007620002081
:100950006D20002036200020352000209A20002025
:100960003820002078230020292000208823002020
:10097000982300202220002005484169481C0028B7
:1009800001D0084670470120000740698002F9E75E
:1009900000100010FEB52D482D49401A04092B48BF
:1009A000401A0509FFF7E8FF02902A480078C007BF
:1009B000C00F002801D00020FEBD00200AE0020187
:1009C000234BD1180A68002A03D04A68002A00D0B5
:1009D0006D1E401CA042F2D300202CE002011C4BF3
:1009E000D11800220192C2B20092002213E0160137
:1009F000174FF3191E68002E03D05E68002E00D03A
:100A000008E05F7B019EB74203DD5E7B0196D6B2B4
:100A1000009600BF521CA242E9D3009A12010C4B6F
:100A2000D118029A4A600A7B9302029AD21A0A608B
:100A30000A680292401CA842D0D3064800780121DF
:100A40000843044908700020B6E70000C8230020CE
:100A500078230020162300200146002901D103201D
:100A600070470248406E08600020F9E744300020DB
:100A7000F8B505460C4616461F4623480078C007C1
:100A8000C00F002801D10120F8BD2846FEF7DAFC8E
:100A9000002801D10220F7E7002E01D0002C01D15F
:100AA0000320F1E7B007800F002803D1A007800FD3
:100AB000002801D00620E7E72868A04204D8B90042
:100AC00009196868884201D20520DDE7002F01D1AD
