:020000040003F7
:105C0000983C0020095D0300235D0300255D03002F
:105C10000000000000000000000000000000000084
:105C2000000000000000000000000000275D0300ED
:105C30000000000000000000295D03002B5D030050
:105C40002D5D03002D5D03002D5D03002D5D030020
:105C50002D5D0300000000002D5D03002D5D03009D
:105C60002D5D03002D5D03002D5D03002D5D030000
:105C70002D5D03000D6D03002D5D03002D5D030000
:105C80002D5D03006D6D03002D5D03002D5D030090
:105C9000FD6D03002D5D0300056E03002D5D030007
:105CA0002D5D03002D5D03000000000000000000DA
:105CB00000000000000000000000000000000000E4
:105CC0000348854600F0CCF800480047418B0300AC
:105CD000983C0020056885F308884068FF2464B27A
:105CE000EFF30585002D01D1A6460047254606465F
:105CF00021273FBAF0B40024002500260027F0B485
:105D0000F92040B2004700000321094802680A4315
:105D10000260084802680A43026007488047074853
:105D20000047FEE7FEE7FEE7FEE7FEE7FEE70000CE
:105D30002405004054050040256E0300C15C0300AB
:105D400010B5202A04DB0146203A9140002010BD06
:105D5000914020239C1A0346E3401943904010BD14
:105D600000487047F8CE030003460B439B0703D05F
:105D700009E008C9121F08C0042AFAD203E00B7810
:105D80000370401C491C521EF9D27047D2B201E088
:105D90000270401C491EFBD270470022F6E710B586
:105DA00013460A4604461946FFF7F0FF204610BD89
:105DB000421C0178401C0029FBD1801A704730B585
:105DC00004460020034600E05B1C934203D2E05CE3
:105DD000CD5C401BF8D030BD03460A780270401CF1
:105DE000491C002AF9D1184670470321001D401EA6
:105DF000037812021A43491EF9D510467047F0B5D0
:105E00001FB40646002082B0054640240191009050
:105E10001BE0019922460F46304600F033F8049A01
:105E2000059B801A994110D3104619462246FFF768
:105E300087FF361A8F410197224601200021009FDB
:105E4000FFF77EFF38184D4100902046641E002861
:105E5000DFDC019B00982946324607B0F0BD000008
:105E6000064C0125064E05E0E36807CC2B430C3CAD
:105E700098471034B442F7D3FFF726FF78D30300D6
:105E800098D3030010B5202A04DB0846203AD040FE
:105E9000002110BD0B46D340D0402024A21A9140CF
:105EA0000843194610BDF0B50025141C1E1C8DB00A
:105EB000129B029003915D571F1D3B1C04A8111CEF
:105EC0000095029A00F09FFC04A8011C129A00F0B1
:105ED0008AFC029804AA011C129B00F074FC201C8E
:105EE000211C04AA129B00F06EFC3B1C301C311CD0
:105EF000039A009500F087FC04A8311C129A00F068
:105F000072FC04A8011C029A3B1C009500F07BFC6B
:105F100004A8011C221C3B1C009500F074FC201CF2
:105F2000211C029A3B1C009500F06DFC0398221C7A
:105F3000011C129B00F047FC201C029904AA3B1C88
:105F4000009500F060FC301C311C221C129B00F0FC
:105F50003AFC301C311C039A3B1C009500F053FCAA
:105F6000201C04A92A1C00F0DEFC0DB0F0BDF0B529
:105F70001C1C071C161C0D1C89B06846111C1A1C21
:105F800000F031FC381C391C6A46231C00F01BFC55
:105F900068466946321C231C00F015FC281C291C8D
:105FA0006A46231C00F00FFC09B0F0BD002A03D0A4
:105FB000013A8B5C8354F9E77047F7B51E1C0191D9
:105FC0000223F15E051CC81DC3171F315B0F1B1890
:105FD000C817C00E41184911DB100091141E9C42D5
:105FE00000D91C1C6B460027DF57281C391C00F009
:105FF00063FA221C281C0199FFF7D8FF0223F25EE6
:10600000E400944220D9A41A0022009B9B00EB18C4
:10601000043B191D8D4209D21968081CE040024357
:106020001A602022121B91400A1CF1E72436301C12
:10603000291C3A1C00F04CFA012805D0281C291C08
:10604000321C3B1C00F0D4FCF7BD0000F0B500266C
:1060500097B0049103939E57051C311C101C141C0F
:1060600000F05BFA002800D096E006A80499039A95
:1060700000F0B9FB039B0EA8291C06AA00F0A3FBA5
:1060800006A8011C039A00F0AEFB0498039B011CB8
:10609000221C00F098FB201C211C039A00F0A3FB9B
:1060A000039B281C1F1D291C221C3B1C009600F072
:1060B000D3FA201C211C221C3B1C009600F0CCFAB9
:1060C000201C291C221C3B1C009600F09CFB281C59
:1060D000291C221C039B00F076FB201C291C2A1C77
:1060E0003B1C009600F0B8FA281C3B1C0096291CAB
:1060F000221C00F0B1FA2B68281CDB0713D53A1CD0
:10610000331C291C00F0ACF9311C0590281C00F050
:10611000FBFB224B059AF3189B00EB181968D2077A
:106120000A431A6002E0311C00F0EEFB201C291C1F
:10613000039A00F058FB201C211C0EAA3B1C009661
:1061400000F061FB201C211C0EAA3B1C009600F0F5
:106150005AFB0EA8011C221C3B1C009600F053FBAE
:10616000281C291C0EAA039B00F02DFB06A8021C6C
:106170003B1C291C009600F046FB281C211C321CED
:1061800000F0D1FB201C0499321C00F0CCFB0498D9
:1061900006A9321C00F0C7FB17B0F0BDFFFFFF3FA0
:1061A00000487047C8D20300F0B50025EFB01C1CB2
:1061B000749B08901B7807910493749B09920222A8
:1061C0009B5E4EAF1F33DA17D20ED3185B115BB252
:1061D0000393013B9B000693069A26AB56AED5501F
:1061E000D55195510122749B211C9A56381CFFF7FA
:1061F000DDFE0122749B301C9A56A118FFF7D6FED3
:1062000010246B461C57381C211C00F086F90490A2
:10621000A84200D01EE1301C211C00F07EF9049D34
:106220000590002800D015E1749B391C2433181CFC
:10623000039A049300F04CF9059D012800D009E170
:106240000498311C039A00F043F9059D012800D001
:1062500000E1311C1EA8049A039B00F016FA069B6D
:10626000059A0EAE9A51301C0799099A749BFFF754
:10627000A4FE039B301C311C00931EAA049B00F05B
:106280008FFA039B5EAD391C009316A8049B1EAACF
:1062900000F086FA281C0899221C00F044FBA30099
:1062A0000693EF18069A089B381C9918221C00F0D8
:1062B0003AFB749B36A84433191C221C099300F046
:1062C00032FB211C749B10318900591804313EA8FF
:1062D000221C00F028FB749B291C04331EA836AA3C
:1062E0000094079300F08FFA749B2A1C009336A841
:1062F0003EA93B1CFFF7D7FD1EA8011C079A231CD3
:1063000000F0C3F9281C1EAA391C749BFFF72FFE4E
:10631000059B301C0A93099B03990B93089B0D95D1
:106320000C9300F0CFFA0399061C16A800F0CAFAE5
:10633000051CB04200DA351CADB26F1E3FB2391CED
:106340000EA800F083FB061C391C701E864116A89F
:1063500000F07CFB431E9841400006430AABB600A8
:10636000F65826A8311C221C00F0DDFA069B2EA848
:10637000F118221C00F0D7FA1EA8211C00F09CF88E
:106380000123023D1E93ADB22FB2002F43DB749B5D
:106390001EAAA4331E6826A8749B2EA9B047391CD8
:1063A0000EA800F053FB061C391C701E864116A86F
:1063B00000F04CFB431E984140000643B6000AAB78
:1063C000F658002E25D036A8311C221C00F0ABFA5E
:1063D000069B3EA8F118221C00F0A5FA36A83EA99B
:1063E0001EAA749BFFF7C3FD46A826A936AA079BE1
:1063F000009400F008FA749B36A800933EA926AAE0
:106400002EABFFF750FD1EA8011C46AA749B00F09E
:10641000DAF9013DB7E71EA8011C079A231C00F01A
:1064200034F926A82EA91EAA749BFFF7A0FD049894
:1064300026A9039A00F04CF8012805D026A8011CD3
:10644000049A039B00F0D4FA26A84EA9221C00F05F
:1064500052F8051C281C6FB0F0BD000000000000C1
:1064600070B50824E31ADB000133041C002003A5E7
:106470005B1920C940CAAD1920C4184720C940CAB9
:10648000754120C420C940CA754120C420C940CAF2
:10649000754120C420C940CA754120C420C940CAE2
:1064A000754120C420C940CA754120C420C940CAD2
:1064B000754120C4404170BD002310B55AB28A42D4
:1064C00005DA0024920001331450DBB2F6E710BD68
:1064D00010B5013AD2B253B2002B07DB9B00C4586F
:1064E000CB589C4204D8F4D2FF2002E0002000E008
:1064F000012040B210BD002330B5013AD2B254B2EF
:10650000002C07DBA4000D590459013A6C402343C9
:10651000D2B2F4E75842584130BD00231A1C10B5DE
:106520005CB28C4205DAA400245801332243DBB26A
:10653000F6E75042504110BDF0B51D1CA7B016AB98
:1065400003900591101C291C0493161C00F0BAF945
:10655000AB01181A83B200936B460027DF5F3D4BF7
:10656000FC17E40EE4196411E4B23B4004D5202783
:10657000013B7F423B43013364B29FB2211C06A81A
:10658000FFF79AFF3BB2A400002B11DD06AA1419F5
:106590000022111CAF00BA4210D0B05898400143FD
:1065A000A1502021B058C91AC8400432011CF2E79A
:1065B00006AB1819311C2A1C00F0B5F901246B0038
:1065C0000193AF0006ABDB1902936B4600229B5E82
:1065D000002B36DB0020031C019A41B2914216DAEF
:1065E00004AEA20092598900565806AA8A58B21AD7
:1065F000D21AB24202D096429B415B420126361B20
:10660000B60004AFBE5901307250C0B2E4E7E41ADC
:106610006242624106AE301C291CD4B200F074F90B
:106620006B1EAA009B0092599959D2070A430298FF
:10663000291C9A5100F068F90098013883B2009340
:10664000C3E704ABA4000398E1582A1C00F06BF9DF
:1066500027B0F0BD1F00008070B500251E1C04ABE4
:106660005D57041C2B1CFFF7FBFE002806D1301CD5
:10667000211C2A1CFFF72CFF012805D0201C211CFF
:10668000321C2B1C00F0B4F970BDF0B5061CA3B091
:106690000F1C081C191C151C1C1CFFF73EFF0028B2
:1066A00004D0301C211CFFF707FF77E002A8391C3B
:1066B000221C00F038F90AA8291C221C00F033F92A
:1066C00012A8211CFFF7F8FE01231AA8211C12931F
:1066D000FFF7F2FE02A80AA9221CFFF7F9FE002824
:1066E00057D0029B01930123019A1A4204D102A8B8
:1066F000211C00F009F927E00A9A01921A4204D1FC
:106700000AA8211C00F000F93DE000281EDD02A8C7
:106710000AAA011C231C00F06BF902A8211C00F03E
:10672000F3F812A81AA9221CFFF7D2FE002805DAF6
:1067300012A8011C2A1C231CFFF792FE12A8011CA0
:106740001AAA231C00F054F912A81DE00AA802AAF4
:10675000011C231C00F04CF90AA8211C00F0D4F8FD
:106760001AA812A9221CFFF7B3FE002805DA1AA8FE
:10677000011C2A1C231CFFF773FE1AA8011C12AA75
:10678000231C00F035F91AA8291C221C00F042FA3B
:10679000A0E7301C12A9221C00F0C5F823B0F0BD00
:1067A00070B50024061C1D1C90B014AB1C57684625
:1067B000231C00F03AF8301C69462A1C231CFFF702
:1067C000BBFE10B070BD30B51C1C0023051C91B081
:1067D000E3566846AC3400F028F82368281C694664
:1067E000984711B030BD30B5141C0022051C91B083
:1067F000A2566846AC3400F0A2F82368281C69460B
:10680000984711B030BD70B500251E1C04AB5D5714
:10681000041C2B1C00F0ECF8002805D0201C211CC7
:10682000321C2B1CFFF71CFE70BDF0B55F465646B0
:106830004D464446F0B4013B9B0098465B009946A8
:10684000002300240025002601B4002702E03700C1
:1068500040463F1A9A46A346AC46B646F01B14582B
:10686000C859030C80B2250CA4B21E006E436343CA
:10687000454360431C041B0C00195E412C042D0C85
:1068800000196E4153465C4665461B187441002052
:10689000454176460437474501DCB742DADD0098CA
:1068A000835123462C46002504364645CDDD4E4512
:1068B000CDDD835101BC3CBC90469946A246AB4617
:1068C000F0BD00000139C9B24BB2002B0ADA002337
:1068D0000131C9B2994213D00A4A49B28A189200CA
:1068E000125804E09B001B58002BEBD0EFE7002A66
:1068F00002D052080133FAE70139490159188BB225
:1069000018B27047FFFFFF3F002210B58900411801
:1069100004390B1D984205D20C68630813430B60C1
:10692000E207F5E710BD30B5002463B2934205DA03
:106930009B00CD580134C550E4B2F6E730BDF0B548
:106940005F4656464D464446F0B4013A92009046A2
:1069500052009146002200230024002501B40026A5
:1069600002E02E004046361A92469B46A446AE46AA
:10697000AF1BCB598859020C80B21C0C9BB215007E
:1069800065435A43444358431304120CC0185541FD
:106990002304240CC018654152465B466446BE423F
:1069A00003DA002712186B417C41002712186B4153
:1069B0007C4175460436AE4202DAAF1BBE42D3DDDF
:1069C000009842511A462346002404354545C6DD49
:1069D0004D45C6DD425101BC3CBC90469946A2469D
:1069E000AB46F0BD00000000000000000000000009
:1069F00070B50824E31ADB000133002403A5C04668
:106A00005B1920C940CAAD1B20C0184720C940CA25
:106A1000B54120C020C940CAB54120C020C940CAE4
:106A2000B54120C020C940CAB54120C020C940CAD4
:106A3000B54120C020C940CAB54120C020C940CAC4
:106A4000B54120C064416042604170BD1F234A11BE
:106A500019401E3B8B4092001058184070470000B0
:106A6000F0B50C1C00278BB00822051CFFF75BFF5C
:106A7000E36A02A80593236B011C0693636B021C57
:106A80000793A36B04970893E36B03970993082379
:106A90000297FFF7E5FC291C061C02AA0823281C04
:106AA000FFF7DEFC236B86190593636B02A8069340
:106AB000A36B011C0793E36B021C0893082309973F
:106AC000FFF7CEFC291C361802AA0823281CFFF762
:106AD000C7FC236A36180293636A291C0393A36ACE
:106AE00002AA0493A36B281C0893E36B07970993EE
:106AF000082306970597FFF7B3FC636AA26B02931E
:106B0000A36A06920393E36AE26B0493636B3618FD
:106B100005930893236A07920993291C02AA082364
:106B2000281CFFF79DFCE36A36180293236B291C8F
:106B30000393636B02AA0493236A281C0893A36A35
:106B400007970993082306970597FFF751FF236BD3
:106B5000361A0293636B291C0393A36B02AA049356
:106B6000E36B281C0593636A07970893E36A06970B
:106B700009930823FFF73CFF636B361A0293A36B5C
:106B8000291C0393E36B02AA0493236A281C059330
:106B9000636A08970693A36A0793236B09930823F4
:106BA000FFF726FFA36B361A0293E36B281C0393AF
:106BB000636A291C0593A36A02AA0693E36A0497F1
:106BC0000793636B0897019309930823FFF710FF5E
:106BD000341A0F4EBC4216DA321D281C291C082319
:106BE000FFF73EFC0419F7D410E0301D291C0822E1
:106BF000FFF76EFC012809D0321D281C291C082330
:106C0000FFF7F6FE241A002CEFD0F5E70BB0F0BD2D
:106C1000C8D2030070B5141C0268051C0B1C0026AA
:106C2000D20705D51A1C291C231CFFF719FC061CCA
:106C3000281C211CFFF768FE002E08D0044BE41826
:106C40008023A400281902681B061343036070BD4B
:106C5000FFFFFF3FF0B5141C8DB0051C0E1C04A8EF
:106C600000212022FFF79BF803232778281C311CE2
:106C7000221C7FB20493FFF7B6FD231D281C291C9C
:106C800004AA00970393FFF7BEFD281C291C321CA1
:106C9000231CFFF798FD221C00978432281C291C16
:106CA000039BFFF7D9FC0DB0F0BD00008307FF2266
:106CB000DB0E9A408907090E994000280BDA00077D
:106CC000000F0838830808489B001818C3699343CD
:106CD0000B43C3617047830804489B001B18186866
:106CE000904308431860704700ED00E000E400E0C6
:106CF000BFF34F8F04490348C860BFF34F8F00BFF5
:106D0000FDE700000400FA0500ED00E01CB50024DA
:106D10006846047000F0C6FD05F0A0FD002818D1FB
:106D20000E480168002914D00D498968C907C90FA8
:106D30000FD004600B4880686946087101A90A48B1
:106D400004F008FA084804F0EFF9002801D003F035
:106D5000E3FF6846007800F0C3FD1CBD00D1004091
:106D600000D3004000D500403CCD030010B50649DB
:106D70000020086048608860C860034940390860A6
:106D8000486005F009FE10BD4011014010B50348F0
:106D90000078002801D100F095F810BD20340020C3
:106DA00070B50E4618214843134914464518E86A41
:106DB0001835002804D001280FD0022805D113E08F
:106DC000284600F0B5F8A04201D2002411E0224686
:106DD0003146284600F0E7F80BE0284600F0A8F816
:106DE000A042F4D20446F2E73146284600F0ABF860
:106DF0000446204670BD00002034002010B505F088
:106E00003DFD10BD10B506484068002805D08047FC
:106E1000002801D000F0EAFB10BD01F04DFD10BDCF
:106E20007026002010B501F097FD002805D01F49FD
:106E30001D484860C8131E4988611E48018CC9B2AC
:106E400001290BD1828C120708D1028D1206120F74
:106E5000042A03D1828D1206120F0AD0012921D1F2
:106E6000818C09071ED1018D0906090F0A2904D05A
:106E700007E0114A01219160F5E7828D1206120F99
:106E800005D00D290ED1808D0006000F0AD10B48C8
:106E90000168012904D00A49016001680129FCD177
:106EA000C021416110BD0000DFFF07C000050040A8
:106EB000006C0040C00F00F00006004000EC0640EF
:106EC0007593000010B5124C02202061606111A082
:106ED000A0611348E0610120400220620020A0620E
:106EE00060620CA1A1642146E0621039E1641021C6
:106EF0002165A0656065E0650AA1E01DFEF76CFFF5
:106F000009A12046FEF768FF2020A07110BD0000F7
:106F1000203400205465726D696E616C00000000C1
:106F20001032002052545400534547474552000048
:106F30000269C1688A4203D88068401A801800E05C
:106F4000501A401E7047F7B5064682B000200090E8
:106F5000F46817463069A04201D9051B02E0B16808
:106F6000201A0D1AB0686D1E001BA84200D80546F5
:106F7000BD4200D33D4670682A4600190399FEF7CA
:106F8000F3FE00987F1B4019009003986419401984
:106F90000390B068A04200D10024F460002FD9D142
:106FA000009805B0F0BDF7B5C6681746044680687E
:106FB000851B6068BD4206D980190199FEF7D4FE91
:106FC000F019E060FEBD2A4680190199FEF7CCFE5B
:106FD00001987E1B411932466068FEF7C5FEE660E7
:106FE000FEBD00000FB41CB50A46521E019200906F
:106FF00007A9064B6A46069800F034F8009A00216B
:1070000011701CBC08BC04B018470000D974030000
:1070100030B47446641E2578641CAB4200D21D4611
:10702000635D5B00E31830BC184702E008C8121F1C
:1070300008C1002AFAD170477047002001E001C161
:10704000121F002AFBD17047202804DA0121814059
:107050000348014201D00120704700207047000022
:10706000FC06FFBCFFB591B00F460546002606E0C2
:1070700025280AD0149A139990476D1C761C2878FD
:107080000028F5D1304615B0F0BD00240094012150
:10709000F34A029400E004436D1C2B780846203B21
:1070A00098401042F7D128782A280ED0022128785B
:1070B0000246303A092A15D8009A0A235A43303A30
:1070C00080180C436D1C0090F1E701CF0090002860
:1070D00005DA01204003044300984042009002205A
:1070E00004436D1C28782E2815D1042004436878A9
:1070F0006D1C2A280AD101CF6D1C02900BE0029969
:107100000A225143303940186D1C029028780146FC
:1071100030390929F3D928786C2810D006DC4C289E
:107120001AD068280ED06A2817D104E0742813D02A
:107130007A2812D110E00120400504430CE001211F
:10714000090501E0032109050C436978814203D157
:107150000120000524186D1C6D1C287803906E28F2
:107160001ED00CDC632831D004DC00288AD05828DB
:1071700011D1B2E064287BD069280CD178E0732863
:107180002DD004DC6F2870D0702804D1A7E07528BA
:107190006CD078286BD0149A13999047761C62E0D3
:1071A0006002400F022807D003280AD0042838685C
:1071B0000AD006603F1D56E03868F117066041604E
:1071C000F8E738680680F5E70670F3E7387869462F
:1071D00008740020487404A80390012003E0386874
:1071E00003900020C0433F1D61070FD5002101E03F
:1071F0000199491C029A0191914213DA8142F7DB0D
:10720000019A0399895C0029F2D10BE0002101E089
:107210000199491C01918142FADB019A0399895C29
:107220000029F5D101990098139A401A009021463F
:10723000149B00F03BF901998019461807E0039868
:1072400003990078491C0391149A13999047019867
:10725000401E0190401CF2D12146149B139A0098C5
:1072600000F014F986196D1C09E741E033E034E0C1
:107270000A200021049005916002410F022905D0E7
:1072800001CFC2179446032905D007E0FF1DFF0870
:10729000FF0003CF06E000B2C2179446042902D1D2
:1072A00040B2C1178C4600226146944506DA0A4670
:1072B0000021404291418C462D2102E0210504D558
:1072C0002B216A461176012103E0E10701D020213C
:1072D000F7E7019154E00A200BE0102009E01020AC
:1072E000049000210420044308200591029003E04B
:1072F00008200021059104906002410F022905D069
:1073000001CF00229446032906D006E0FF1DFF08A6
:10731000FF0003CF8C4603E080B2042900D1C0B245
:107320000021019121072BD50399702906D0049AD9
:107330001021059B4A401A4305D00EE040216A46C1
:107340001176012108E06146014306D030216A46EA
:1073500011760399517602210191049A0821059B27
:107360004A401A430CD16146014301D1610707D558
:1073700030216A461176012101910299491E02913C
:107380000399582904D037A103910FA90F910DE05B
:1073900039A1F9E76146059B049AFEF730FD039B8E
:1073A0008C469B5C0F9A521E0F92137061460143EC
:1073B000F0D10F9807A9081A20300390600704D570
:1073C000012000048443029801E001200290039907
:1073D000884201DD401A00E0002041180290019827
:1073E00009180098401A0090E00306D42146149B27
:1073F000139A009800F05AF886190020049008E0CB
:1074000006A9085C149A139990470498401C761CAE
:10741000049001998842F3DBE0030CD52146149BCC
:10742000139A009800F042F8861904E0149A30206C
:1074300013999047761C0299481E02900029F5DCAA
:1074400008E00F980F990078491C0F91149A13992E
:107450009047761C0399481E03900029F1DCFBE657
:10746000092801003031323334353637383961621A
:1074700063646566000000003031323334353637DE
:10748000383941424344454600000000F8B50446FF
:1074900000251E461746880404D405E039462020FE
:1074A000B0476D1C641EF9D52846F8BDFFB50446EB
:1074B000002581B01E46C80301D5302700E02027F3
:1074C000880404D505E038460399B0476D1C641E56
:1074D000F9D5284605B0F0BD4A68002A06D00A68EA
:1074E000531C0B6010704868401E4860704786B09F
:1074F0000B2269468A8202220A7001234B7088702F
:107500000320C8700A7159204871FE20887102A8B2
:1075100005A901307DDF002816D16846808A0B2836
:1075200007D8411C6A46D17109210930117280B215
:1075300005E00C206946C871082008721420C1B209
:1075400000231A46684672DF06B0704710B5144C27
:1075500086B0207A800702D5002006B010BD182121
:107560006846FEF71AFC0620FFF7C1FF0028F4D199
:10757000694608700190087228220A82488268468B
:1075800073DF0028E9D1012006494003C8600C20C0
:1075900003F0F6FBA06802210843A060DCE70000CE
:1075A00018260020000500500B46024602A10120CB
:1075B00003F04FFDFFF79CFB3A4552524F523A728F
:1075C000656365697665642061206661756C742108
:1075D0002069643A203078253038782C2070633A5E
:1075E000203078263038780D0A000000024603A1CA
:1075F000012003F027FDFFF77BFB00003A455252C4
:107600004F523A726563656976656420616E2065E4
:1076100072726F723A20307825303878210D0A0066
:10762000F7B5244C82B060880E4681423FD80025D1
:107630006846214F057000F035F922786078A188FE
:10764000884201DA401C00E00020C0B2904204D120
:107650006846007800F044F927E065786078884251
:1076600001DA401C00E0002060706846007800F0FD
:1076700037F9BD4219D0A068EF000499C1510299B1
:1076800000290CD0002E0AD0608832464543E068BD
:107690002818FEF769FBA0683818868002E00021F0
:1076A00038188180002005B0F0BD0420FBE70920D8
:1076B000F9E7000030260020FFFF000010B50D4C58
:1076C00003E0401C00E000202070207861788142B7
:1076D0000FD021786088E26848438018A368CA0008
:1076E000D1189A58898890472078A1888842EADA88
:1076F000E7E710BD3026002030B5CB0008339DB23F
:1077000093070024002B01D0072030BD044B9A6062
:107710005219DA605C701C7058809980002030BD6E
:1077200030260020094B5B68002B07D0002A07D0C9
:10773000002805D00068037C002B03D00820704788
:107740000720704741744261002070475026002096
:1077500010B50446082902D00020FFF747FF216832
:107760006068884710BD00001CB501910090034A75
:1077700008216846FFF754FF1CBD00005177030045
:10778000FFB507469007002581B01E461446002825
:1077900025D1002C23D004F06FFD3046114EF0604F
:1077A00030461030057045700299817044607560F4
:1077B000357001240C4875702405046003211420E1
:1077C000FFF774FA09480460094CA76003211120EF
:1077D000FFF76CFA6068B060002005B0F0BD0720CC
:1077E000FBE700004026002080E200E000E100E02E
:1077F00000150140FEB51F4B5B68002B30D0002800
:107800002ED0052901D20720FEBD4369002B27D0C9
:10781000437C012B26D000270291044600256946AF
:1078200016460D70684600F03DF801A805F04AF9CB
:10783000002819D0012101700F4944604968816016
:10784000029907614661C16068460A49007948703B
:107850006846007800F044F805F052F82846FEBD6E
:107860000820FEBD0F46D7E768460425007800F0E3
:1078700037F8F3E7502600200015014010B50849FD
:10788000496800290AD0002808D04169002905D09C
:1078900000210174022105F05BF810BD082010BD25
:1078A0005026002030B5EFF3108172B6094A5468B3
:1078B0000123002C04D00370002900D162B630BD32
:1078C0005360054B1D68054C254015601C60002267
:1078D0000270F1E76426002080E100E0FC06FFBCB6
:1078E00008494A68002A0CD000280AD1EFF310801A
:1078F00072B60A68044B1A6000224A60002800D160
:1079000062B670476426002000E100E070B50546CD
:1079100001461C220E48FEF727FA0E4C0026267060
:107920002968002906D00822201DFEF71DFA201D17
:107930007ADF02E00748001D7BDF002807D1401EE8
:1079400060806670044A00210448FFF7EBFE70BDBA
:10795000542C00200426002061CA0300D0CC030070
:1079600070B504460088102817D01E4E1E4D1128F1
:1079700017D0122825D050280ED1E188EA89A01D01
:10798000914209D14189022906D10C3000F040F919
:1079900000280CD000F038FA70BD204603F0C4FC7B
:1079A00070BD00211148C9434180002141703068F9
:1079B000FFF764FF0028F3D0A9690029F0D08847B9
:1079C00070BD22890AA1032003F03CFB628908A153
:1079D000032003F037FB05480822A1180C30FEF7FE
:1079E000C3F9D7E7D0CC0300542C00200426002094
:1079F0003A494E464F3A424C455F4741505F4556E3
:107A0000545F434F4E4E5F504152414D5F5550447D
:107A10004154453A25640D0A0000000010B50248A3
:107A20000068FFF72BFF10BDD0CC030070B50546F2
:107A30000020C043134C86B020800126684686741F
:107A4000114901822A4604A93046A0DF002817D137
:107A50000E4B0FCB03936B4607C3A91C684663DF2D
:107A600000280DD1284600F077FD002808D12846CF
:107A700000F0F4FA002803D1A0683043A060002091
:107A800006B070BD1826002059FE0000D8CC0300B7
:107A900070B51F4D0024A868410701D5002070BDB6
:107AA00004210843A8601BA1032003F0C5FA29495B
:107AB0002748294A096800BF00BF00BF00BF00BFB8
:107AC00000BF00BF00BF914200D000BF0138F2D11B
:107AD00022A1032003F0B0FA28882649884204D066
:107AE000132176DF0400DAD10DE0287A80070AD569
:107AF00074DF0028D3D10D2003F042F9A8680221D9
:107B000008430024A860FFF789FF204670BD0000ED
:107B1000182600203A494E464F3A57616974696EFB
:107B20006720666F72206275666665727320746F77
:107B300020626520636C6561726564206265666FB2
:107B4000726520646973636F6E6E6563740D0A00FD
:107B5000C0D40100842600200024F4003A494E4697
:107B60004F3A446973636F6E6E656374696E670D37
:107B70000A000000FFFF000000B587B00D2003F0F1
:107B8000E9F80C2003F0E6F80D2003F0F9F80C20DA
:107B900003F0F6F8012000F043F8002825D114483E
:107BA00004F0A8FD002820D100F056FE00281CD1CA
:107BB0001048FFF73BFF002817D11C216846FEF74D
:107BC000ECF80D48019001208003029003216846E3
:107BD00001730021C1810174084806906846FFF7CF
:107BE00095FE002801D1FFF7B1FC07B000BD0000F1
:107BF000017C0300B82C0020CD0C0000017E0300A6
:107C000010B50446FFF7ACFE204603F0FBFA10BDAA
:107C10004178027808021043C007C00F7047000087
:107C200000B5144987B009680591002803D002F017
:107C3000D1FB00281CD1104A10A1032003F002FA46
:107C40000D4813DF002813D1144B4822144905A80E
:107C500004F0D8FD002801D0FFF7C8FC01216A46D6
:107C6000084604F0A3FD002802D1684604F04CFD4C
:107C700007B000BDD4CC0300005C03003A494E4677
:107C80004F3A766563746F72207461626C653A2056
:107C90003078253038780D0A00000000E9C703006D
:107CA000702C002010B50349085C012103F070F826
:107CB00010BD0000C4CC030010B50349085C0021CE
:107CC00003F066F810BD0000C4CC03007CB50024AE
:107CD000074E2546305D012200950023114601958F
:107CE00003F024F8641C022CF4D300F003F87CBDEC
:107CF000C4CC030010B500242046FFF7D3FF641C5A
:107D0000022CF9D310BD002901DA00207047026867
:107D1000511801600120704710B543689C184460F9
:107D2000002904D105E018780870491C5B1C521E1C
:107D3000F9D2012010BD0000002807D0044981427B
:107D400004D80449814201D90120704700207047BE
:107D50008826002098260020F8B52348416800298D
:107D60003ED00E6821494C6887688078E11B0D027F
:107D70002D0AED1C002814D101201D4A000450607A
:107D80001B4A403A50601B49400008601A4908608D
:107D90001A49012008602F2001F022F81249012021
:107DA0008870B54200D23546E81900020F4B000A30
:107DB000403318600D4A5168001B091B0902090A6B
:107DC0000002000AC91C814209D9506818602F209E
:107DD00001F006F801200749400480390860F8BD29
:107DE00004F04AFAF8BD00004026002000150140CA
:107DF0004013014080E200E000E100E0001001409B
:107E000010B5FFF7F3FB10BDF8B5164800F096FD6E
:107E1000144D00260C3D144C002807D06169002940
:107E20001CD001206A461070684616E028780028A9
:107E300005D06169002911D0684606700DE06878A8
:107E400000280DD0A168094800220068FFF7D2FC85
:107E5000002803D0A169002900D088472E70F8BD02
:107E60006168F0E710260020542C0020D0CC0300DD
:107E7000F0B50026F643002A04D01268D24300234E
:107E8000094F0DE03246FAE7C45C62400824550809
:107E9000D20700D032463A406A40641EF7D15B1CDC
:107EA0008B42F1D3D043F0BD2083B8EDF0B5146917
:107EB00007462068251D8DB01646002819D00229D6
:107EC0001BD00A2000906B4609AA384604F0DFF860
:107ED00000280CD009A901A8009A03F0ADFF01AF5A
:107EE0000FCF0FC7236871682A4605A898470DB0C1
:107EF000F0BD384604F014F8F9E76946384603F057
:107F0000A3FF0028F3D0236871682A466846984783
:107F10000028ECD002980028F5D101987860012063
:107F2000E5E710B553685B789B099B0103D0402BB4
:107F300004D0002010BD00F005F810BDFFF7B6FF1B
:107F400010BD0000F0B50F4651680646487814464B
:107F50000207120F324D9300ED58302385B01840C0
:107F600006D0102806D0202808D0302855D140E06F
:107F700022694FE061690120087049E0022F2AD18F
:107F8000042A28D80120009001A93046676903F02F
:107F90005BFF00281DD00AE00A79424320691218CD
:107FA00001A8A847002810D03878401C38700398E2
:107FB000002804D0616838784A799042ECD302985E
:107FC00070600398002828D102E000200090F6E7B6
:107FD000009805B0F0BD62690B79107827694343BA
:107FE0004979DB19884218D2401C10701A46616822
:107FF00010E008786169072A087009D16068017982
:108000002069FDF7CAFE60682169806803F037FFC8
:10801000226961683046A847DBE70020D9E7000005
:1080200050CE030010B50B4909480B4A096800BF40
:1080300000BF00BF00BF00BF00BF00BF00BF914234
:1080400000D000BF0138F2D1FFF738FB10BD0000AF
:10805000A0860100842600200024F40030B58FB0F3
:1080600004461C216846FDF798FE142109A8FDF777
:1080700094FE0020694607900A7808210A431023DD
:108080001A4369460A70A27808A98A7001256946D0
:1080900002070D84120F0A77EA184A778A7FF921BE
:1080A0000A40921C1A432A4369468A7708A9099113
:1080B00007A917220A9169460A860D90234620884F
:1080C0000C3309AAA2DF0FB030BD0000024881685E
:1080D000491E816070470000E02500201FB511484F
:1080E0000146826B5C31684603F0A6FE6C460ECCFE
:1080F0000D480EC00C490D48C8600D4900200860AD
:1081000048600C4A0C49084803F020FC002802D0C3
:10811000012004B010BD09A1032002F08DFF002052
:10812000F7E7000000300020242C002081BC030071
:10813000FC2500209826002058CC03003A494E46E2
:108140004F3A48616E646C65723A20496E76616C94
:1081500069642070726F746F636F6C2062756666FD
:1081600065722073747265616D0D0A00FFB581B090
:108170000546041D0398002600282DD004980028E9
:108180002AD05F20005D834F002803D06020005D6F
:10819000002848D1207A00281ED0E06833281BD15F
:1081A0000020217C16E08200121953690322120379
:1081B000928992B293420CD12046203000904079AF
:1081C00000280CD0012813D002280DD003281ED17E
:1081D0000AE0401C8142E6DC0A2005B0F0BD2078B0
:1081E0000028F9D0BE6803E020780028F4D0FE68AB
:1081F00069A133460320626802F02BFF00984079A2
:10820000002809D002280BD003280CD108E06CA16B
:10821000032002F011FFDFE76068B042DCD302E028
:108220006068B042D8D92E466036307C0028D3D161
:108230006C486B490160202141606BA1032002F072
:10824000FBFE388F534A83B25C326DA1032002F0EB
:10825000DBFE6BA1032002F0EFFE6CA1032002F015
:10826000EBFE049866A183B20320039A02F0CCFED1
:1082700063A1032002F0E0FE5A4B0520049A039903
:1082800000F072FD0028A7D1294655487231727C52
:108290000D462030FDF768FD62A1032002F0CCFE00
:1082A000737C2A4656A1032002F0AEFE54A103209F
:1082B00002F0C2FE4A494B48203108380160727C06
:1082C00042605DA1032002F0BDFE464B454A083BDB
:1082D0006049042000F06EFD002801D005207CE7F5
:1082E0005DA1032002F0A8FE3E4D00201C3D286148
:1082F000204620304379002B2DD0012B36D05C4A0C
:10830000FF218902891A022B2AD0032B00D07EE795
:10831000027B002A00D15FE780790028FBD0A26AA7
:10832000206B13182B61002A26D0002824D0884205
:108330000FD8214620223F312948FDF715FD286935
:10834000002819D0274A0021103A01F07FFC0028AC
:1083500014D0042041E7007D0028DCD0A06B09E0A8
:10836000007B0028D7D0206B2861E0E780790028C7
:10837000D1D0A06A2861DCE703202EE73DA10320CD
:10838000EA6802F05FFE44A1032002F055FE0120DE
:1083900023E70000003000203A494E464F3A52652C
:1083A000712076657273696F6E3A2025642C2050B7
:1083B000726573656E743A2025640D0A0000000032
:1083C0003A494E464F3A556E6B6E6F776E20465760
:1083D0002075706461746520747970650D0A000001
:1083E000C42B0020FC2500203A494E464F3A496EE6
:1083F000697420636F6D6D616E643A0D0A00000050
:108400003A494E464F3A0D0A000000003A494E469E
:108410004F3A705F496E697420636F6D6D616E6471
:108420003A0D0A003A494E464F3A5369676E6174F5
:108430007572650D0A0000003A494E464F3A73695D
:10844000676E6174757265206C656E3A2025640DE7
:108450000A000000BCCC03003A494E464F3A496D31
:108460006167652076657269666965640D0A00005A
:10847000005C03003A494E464F3A577269746520D2
:10848000616464726573732073657420746F203047
:1084900078253038780D0A003A494E464F3A44461E
:1084A000552070726576616C6964617465205355FE
:1084B000434345535346554C210D0A0010B582786D
:1084C000012A01D0052010BD0D4A0CCAFFF74EFE4F
:1084D0000446012805D00BA1032002F0ADFD204683
:1084E00010BD0FA1032002F0A7FD13A1032002F08D
:1084F000A3FD002002F08CFA0028F0D00A2010BD65
:10850000FC2500203A494E464F3A50726576616C20
:108510006964617465204641494C4544210D0A0057
:108520003A494E464F3A50726576616C696461749F
:1085300065204F4B2E0D0A003A494E464F3A536183
:1085400076696E6720696E697420636F6D6D616E08
:10855000642E2E2E0D0A000010B58EB004461C218C
:108560006846FDF71AFC142109A8FDF716FC002245
:108570006946079208780421084369460870A07884
:1085800008A98870022069460884501C0007000F63
:108590000A7710304877887FF92108400121801C34
:1085A00008436946887708A8099007A80A9014200C
:1085B00008860D922088231D09AAA2DF0EB010BDE7
:1085C000044A002901D1002313705268002A00D008
:1085D0001047704728260020F8B51C4617460D4660
:1085E00006001ED0002D1CD0002C1AD000F0D8F9A7
:1085F000002818D0284600F0D3F9002813D02046D0
:1086000000F0CEF900280ED0FDF7CAFD00902346F9
:108610003A4629463046FDF7C7FD002805D0002020
:10862000F8BD0E20F8BD1020F8BD0B20F8BD0000ED
:1086300010B50E4900230A784C78A24212D0521C81
:10864000D2B20A70022A00D10B700A78074B92004E
:1086500018339A580260886810180002000A88606F
:10866000012010BD0360002010BD00004026002046
:10867000F8B506461C481F46007815460C46C0074C
:108680000AD03046FFF758FB002807D0002C07D04F
:10869000A00507D00620F8BD0120F8BD0220F8BDD6
:1086A0000320F8BD3068A04204D8A8027168001900
:1086B000884201D90520F8BD002D10D0684603F08E
:1086C00073FC00280DD000980221C0C00170A101E8
:1086D000090C8180058103F0B9FC0020F8BD04205D
:1086E000F8BD0720F8BD00006C260020F8B50D4C41
:1086F000074620680225400840000E4620600029F9
:108700000DD009A1032002F097FC206828432060C7
:108710007A68002A02D0314638469047F8BDA8430F
:10872000F5E70000242600203A494E464F3A4765B7
:108730006E65726174696E67206661696C757265D9
:108740000D0A000003480122017811430170002046
:10875000704700006C2600200348406E042801D0BA
:1087600000207047012070478C310020F8B5074683
:108770001E481E46007815460C46C0070ED03846E7
:10878000FFF7DAFA00280BD0002D0BD0002C09D00F
:1087900028462043800707D00620F8BD0120F8BDF9
:1087A0000220F8BD0320F8BD3868A04204D8B1000B
:1087B00078680919884201D20520F8BD002E11D031
:1087C000684603F0F1FB00280ED000980699076078
:1087D000416001210172C5600461868203F036FCAC
:1087E0000020F8BD0420F8BD0720F8BD6C2600204D
:1087F00070B5174B0446186E182148431549C01828
:108800000A78950715D5022C02D0032C1CD102E062
:1088100002F0FCFE18E04A78521CD2B24A70032AD9
:1088200012D900224A70082103F08AFD03F0A6FB4A
:108830000AE0500708D5FB2002400A70586E002855
:1088400002D0022002430A7003F0CAFB70BD000090
:108850008C3100206C26002010B5002486B0601CEE
:108860000007000F0194694610300294087003A8B5
:1088700071DF002819D16946487B401C487303A961
:10888000002070DF002810D1072209A168467CDF94
:1088900000280AD10C21684681801821C180FF215F
:1088A00004819131418101A87ADF06B010BD00003A
:1088B0004466755461726700F8B51F4C2078002833
:1088C00039D02069002807D00026E068002805D0AC
:1088D0000025002E04D014E00126F6E70125F8E774
:1088E0006078002827D1684652DF052804D0002888
:1088F00004D0FEF77BFE04E0012602E02169009827
:108900008847002D13D16078002814D1608869460B
:108910000880A06861DF052804D0002804D0FEF795
:1089200065FE04E0012502E0E168A0688847002EAA
:10893000D6D0002DCDD0F8BD702600204188054846
:108940000288914204D34088814201D801207047B7
:1089500000207047082600201048018CC9B2012968
:1089600017D1818C090714D1018D09060A0F03D193
:10897000828D1206120F0ED0090F012903D1828DAC
:108980001206120F07D0032903D1808D0006000FB5
:1089900001D000207047012070470000C00F00F098
:1089A000800701D0002070470120704770B5054650
:1089B00008680C4686684A683146284603F086F9FE
:1089C0006068286120460C30686170788009022850
:1089D00001D1241D2C6170BDF0B5284C2146103901
:1089E00048688B68227886469C46CF78667836E061
:1089F000182353436168521CC918A378D2B293421A
:108A000000D100220B78022B02D0032B27D123E0C8
:108A100003464D68194603E0A94204D00B46C969D4
:108A200000291CD0F8E7002919D08B4208D1C06971
:108A3000002805D1124F0125BD600025AC46012755
:108A40000D68C969D961002909D00B685B190B60F1
:108A500005E00174C06900E000210028F9D19642C8
:108A6000C6D10649624610398A604860CF707045A9
:108A700001D00120F0BD0020F0BD000050260020F4
:108A800000100140F8B52C4E044670680025009097
:108A900041E0002C02D02046E46920E0264818235B
:108AA0001030017842684B43491CC9B2D21801709A
:108AB0008378994200D105701178506801292CD132
:108AC000017C002929D191684160D16881601169D8
:108AD000C16051698161F178002900D04560436827
:108AE000B268164F991A0902090AB94202D282687D
:108AF000891806E0D11A09028268090A8A4202D955
:108B0000511A016000E00560456001218560017433
:108B1000C56103F0FDFE002CBBD107481030017881
:108B200040788142BAD171680098814201D0012019
:108B3000F8BD0020F8BD000040260020FFFF7F00A8
:108B400010B5002002F0AAFA11A1032002F074FA75
:108B5000FFF7BCF80220FFF7AFF8032211461220FE
:108B600002F002F903221146132002F0FDF800F092
:108B7000C9F8002801D0FEF739FD03200003806802
:108B800000F01AF807A1032002F056FA002010BDE9
:108B90003A494E464F3A496E73696465206D616982
:108BA0006E0D0A003A494E464F3A4166746572208E
:108BB0006D61696E0D0A000010B50446024612A1EF
:108BC000032002F03FFA01F005FC002801D01EA1AD
:108BD00011E028A1032002F02FFA00202D49C04304
:108BE000086022462CA1032002F02CFA204613DF55
:108BF000002804D034A1032002F01EFA10BD204644
:108C0000FDF768F810BD00003A494E464F3A5275DC
:108C10006E6E696E67206E72665F626F6F746C6FE6
:108C2000616465725F6170705F73746172742077E4
:108C300069746820616464726573733A20307825C2
:108C40003038780D0A0000003A494E464F3A4661E6
:108C5000696C65642072756E6E696E67206E7266EF
:108C60005F6466755F6D62725F696E69745F73647D
:108C70000D0A00003A494E464F3A44697361626CEE
:108C8000696E6720696E74657272757074730D0A0F
:108C90000000000080E100E03A494E464F3A53653B
:108CA0007474696E6720534420766563746F722014
:108CB0007461626C6520626173653A20307825309A
:108CC00038780D0A000000003A494E464F3A466196
:108CD000696C65642072756E6E696E672073645F7F
:108CE000736F66746465766963655F766563746FD8
:108CF000725F7461626C655F626173655F736574F6
:108D00000D0A000010B507A1032002F095F901F04B
:108D10003FFA040004D10BA1032002F08DF9204694
:108D200010BD00003A494E464F3A496E206E7266B9
:108D30005F626F6F746C6F616465725F696E697496
:108D40000D0A00003A494E464F3A4166746572205A
:108D50006E72665F626F6F746C6F616465725F697B
:108D60006E69740D0A00000070B59CB01C46154673
:108D70000E46052802D006201CB070BD6068202871
:108D800001D00920F8E7684603F0B0FB0028F3D1D2
:108D90002A463146684603F085FC0028ECD10122C2
:108DA0006846216803F01AFB0028E5D120206060A6
:108DB0000020E1E770B5042801D0062070BD4868A6
:108DC000402802D15868402801D0092070BD30CA1F
:108DD00008681B682A462146FFF7FEFB70BD0000AD
:108DE00000280FD00849094A096800BF00BF00BF2A
:108DF00000BF00BF00BF00BF00BF914200D000BF56
:108E00000138F2D170470000842600200024F400CD
:108E1000F1B537480321466A0903006B896882B0BF
:108E20000918351A009133A1032002F005F9012435
:108E3000A402A54200D82C4600220121009801F08E
:108E40005BF8002822D1002322460299009801F005
:108E50003DF900281AD122460299009801F08EFAB5
:108E6000070006D02C490320029B009A02F0F1F87B
:108E70000BE000220121029801F03EF8070006D025
:108E800026A10320029A02F0DDF83846FEBD1848FC
:108E9000016B09190163002001F0BAFD0098001967
:108EA00000900298001902902D1BC0D103200003EE
:108EB000806800223146FEF7DBFF0D4C0546A26AB2
:108EC000AA4208D124A1032002F0B6F8A66101202D
:108ED000E561206204E003462749032002F0B9F867
:108EE0000348243001F03EFA002001F091FDFEBD60
:108EF000003000203A494E464F3A456E7465722064
:108F00006E72665F6466755F6170705F636F6E74CA
:108F1000696E75650D0A0000D4D003003A494E46CB
:108F20004F3A417070207570646174653A204661F3
:108F3000696C7572652065726173696E6720706116
:108F4000676520617420616464723A20307825304E
:108F500038780D0A000000003A494E464F3A5365F2
:108F60007474696E67206170702061732076616C23
:108F700069640D0A0000000034D2030010B511A18D
:108F8000032002F059F8184C206A012801D017A1DB
:108F90000DE0E06900280FD003200003A16980687C
:108FA0000022FEF765FFE169814205D019A1032087
:108FB00002F042F8002010BD1DA1032002F03CF891
:108FC000012010BD3A494E464F3A456E74657220F5
:108FD0006E72665F6466755F6170705F69735F76FD
:108FE000616C69640D0A0000003000203A494E4669
:108FF0004F3A52657475726E2066616C73652069B4
:109000006E2076616C6964206170702063686563AE
:109010006B0D0A003A494E464F3A52657475726EAE
:109020002066616C736520696E204352430D0A000F
:109030003A494E464F3A52657475726E2074727595
:10904000652E20417070207761732076616C6964B1
:109050000D0A0000F8B50E460A681949496B0D184B
:10906000541A03200003009482682B4615A10320A4
:1090700001F0F7FF22462946224801F07FF9002837
:1090800011D023462A462049032001F0E2FF214661
:10909000284601F081F9040003D01CA1032001F04F
:1090A000CBFF2046F8BD22A1032001F0C5FF3046CA
:1090B00001F058F9002001F0ABFC0446F1E7000094
:1090C000003000203A494E464F3A5665726966793B
:1090D000696E6720424C3A20416464723A203078CD
:1090E000253038782C205372633A20307825303878
:1090F000782C204C656E3A203078253038780D0A6F
:1091000000000000005C030018D103003A494E46FD
:109110004F3A5265717565737420746F20636F7078
:109120007920424C206661696C65640D0A0000007C
:109130003A494E464F3A426F6F746C6F6164657284
:10914000207761732076657269666965640D0A002F
:10915000F8B55F4F0D46097838465C301446012655
:1091600000900B00FDF754FF07AD05295024ADA179
:10917000AD0058A1032001F05FFFA868002805D0CA
:10918000FF210131884203D90420F8BD0320F8BD36
:1091900059A1032001F050FF5F48002484704C481F
:1091A00020213830FCF7F9FD3C63A868B8638DE0F6
:1091B0005AA1032001F040FF21E05FA1032001F04C
:1091C0003BFFAA68F86BBB6B1118994207D9606026
:1091D000386CA06060A1032001F02EFFD6E7009B51
:1091E0006968C018FCF7C0FDF86BA968384A4018D8
:1091F000F8634032A9686868FEF73AFE3864F86B95
:109200006060386CA06061E060A1032001F014FF91
:10921000F96BB86B814205D065A1032001F00CFF0A
:109220000820F8BD6BA1032001F006FF3A4CA0789E
:10923000002801D00120F8BD388F6EA183B2032031
:10924000009A01F0E1FE6BA1032001F0F5FEFEF7AC
:1092500045FF012801D00520F8BD6948007D0028A0
:109260000CD068A1032001F0E7FE65486D49183075
:10927000FFF724F90646012810D027E0604860383F
:109280000078002805D068A1032001F0D5FE0A2649
:109290001CE06EA1032001F0CFFEDCE777A10320E4
:1092A00001F0CAFE0120A07010E07EA1032001F0B1
:1092B000C3FE386CA060F86B6060FF200130206056
:1092C00004E084A1032001F0B7FE02263046F8BD79
:1092D000003000203A494E464F3A4265666F72654B
:1092E000204F502063726561746520636F6D6D61FE
:1092F0006E640D0A000000003A494E464F3A56612E
:109300006C696420436F6D6D616E642043726561AA
:1093100074650D0A00000000E02500203A494E4621
:109320004F3A56616C696420436F6D6D616E6420C5
:109330004352430D0A0000003A494E464F3A4265F7
:10934000666F7265204F5020777269746520636F75
:109350006D6D616E640D0A003A494E464F3A457292
:10936000726F722E20496E697420636F6D6D616E2D
:1093700064206C6172676572207468616E20657824
:109380007065637465642E200D0A00003A494E46EC
:109390004F3A4265666F7265204F5020657865636D
:1093A00075746520636F6D6D616E640D0A00000059
:1093B0003A494E464F3A457865637574652077693A
:1093C0007468206661756C7479206F666673657465
:1093D0000D0A00003A494E464F3A56616C696420C6
:1093E000636F6D6D616E6420657865637574650D7E
:1093F0000A0000003A494E464F3A0D0A00000000AC
:10940000F82600203A494E464F3A48616E646C692E
:109410006E67207369676E656420636F6D6D616E42
:10942000640D0A00242C00203A494E464F3A486108
:109430006E646C696E6720756E7369676E65642013
:10944000636F6D6D616E640D0A0000003A494E460F
:109450004F3A4465636F64656420636F6D6D616E40
:10946000642062757420697420686173206E6F20B7
:10947000636F6E74656E7421210D0A003A494E4681
:109480004F3A53657474696E672044465520666C84
:10949000616720746F20696E697469616C697A65AF
:1094A000640D0A003A494E464F3A56616C69642091
:1094B000436F6D6D616E643A204E52465F4446556F
:1094C0005F4F424A4543545F4F505F53454C4543BD
:1094D000540D0A003A494E464F3A496E76616C691E
:1094E0006420436F6D6D616E64204F7065726174AE
:1094F000696F6E0D0A00000070B505460320000379
:1095000084680CA1032001F097FD124908460A69FE
:109510001830012A08D04A69002A05D089690E4A04
:109520000C30891891430C192A46214600F016F890
:1095300070BD00003A494E464F3A456E7465722040
:109540006E72665F6466755F636F6E74696E756573
:109550000D0A000000300020FF030000F7B50546AB
:1095600080680024164601280CD00127A52816D0B3
:10957000AA282CD0AC2833D01EA1032001F05CFD1A
:109580002046FEBD23A1032001F056FD2648406978
:109590000128F5D10198FFF73BFC0446F0E723A131
:1095A000032001F049FD2946019801F0C9F80400A3
:1095B00004D023A1032001F03FFD06E0284600F07F
:1095C000D1FE002001F024FA04463760D8E726A136
:1095D000032001F031FD29460198FFF73BFDDCE750
:1095E00026A1032001F028FD2946019801F058F832
:1095F000EAE700003A494E464F3A53696E676C6598
:109600003A20496E76616C69642062616E6B0D0A66
:10961000000000003A494E464F3A56616C6964209A
:109620004170700D0A000000003000203A494E469B
:109630004F3A56616C69642053440D0A00000000E3
:109640003A494E464F3A5344207570646174652020
:10965000636F6E74696E756174696F6E206661699F
:109660006C65640D0A0000003A494E464F3A566157
:109670006C696420424C0D0A000000003A494E46D5
:109680004F3A53696E676C653A2056616C69642085
:109690005344202B20424C0D0A000000FEB501204F
:1096A0000190087816460C46CA4DCB4F0300FDF7D3
:1096B000AFFC07FE0566FDFCFEFBFE00C7A1032014
:1096C00001F0BAFCA268002A09D0900509D0686DA3
:1096D00039698018884204D0C749012068E0032016
:1096E000FEBD01200003824204D9C4A1032001F081
:1096F000A3FC50E0B87800280AD06B6D386999183F
:1097000081420AD90090C849032001F0AAFC44E034
:10971000C6A1032001F090FC3FE0D4A1032001F09A
:109720008BFCE86CA864A0686864686D2865286391
:109730007978D54A491C8907890F79700021B98049
:10974000B968491CB960A1688918FA68890A801843
:10975000CE4A00F0D1FB002808D0B868CCA1401E4A
:10976000B860032001F068FC0520FEBDA86C0090E5
:10977000CF4903202B6D6A6C01F073FC22E1286D48
:109780007060A86CB060B878002806D0FF20A1688F
:109790000130814203D90420FEBD0820FEBD286DA2
:1097A0006A6D0818801A6A6C904204D9C1A103201E
:1097B00001F042FC93E7874A60684832FEF758FBA5
:1097C00084498864086DA268801808657060886C98
:1097D000B060B888A5682918FF2907D87A78616829
:1097E0001302BC4A9A1810182A4649E0FF21013199
:1097F000091A8DB2797863680A02B64951180818B7
:109800002A461946FCF7B0FAB888A04B401982B234
:10981000BA80A068D21C401BA06060689208401902
:109820006C4D6060286BF96840180090B868401C67
:10983000B86078780102A7480918009800F046FC43
:1098400000285CD0B868A4A1401EB860BA88032084
:10985000009B01F0FEFBE86CA864686D28657060F1
:10986000E86CB06078780021401C8007800F787029
:10987000B980A268002A41D003029648616818188E
:10988000FCF772FA2089B9884018B8800004000CEF
:10989000F1D0504C626D216B636C8A1A12189A4297
:1098A0002CD3FA688D1803E081E03EE046E08BE0BF
:1098B000B968C01C491C8208B9607878734B0102F2
:1098C00084480918284600F001FC002822D0B86816
:1098D0002B46401EB860BA887FA1032001F0B9FB77
:1098E000E06CA064606D20657060E06CB0607878BA
:1098F000401C8007800F78700020B88062E0BA8832
:1099000082A10320009B01F0A4FBB988286B4018BA
:109910002863A7E72B46BA887CA1032001F099FBB6
:10992000B988206B40182063E1E780A1032001F093
:1099300083FB286D7060A86CB06043E081A10320B8
:1099400001F07AFB696D286D6A6C431A934204D06A
:1099500083A1032001F07DFB1FE78CA1032001F010
:109960006BFB00206864286D6865A86CE8640020C3
:1099700001F04EF8002801D00A20FEBD286D39699B
:1099800088421FD188490320BA6801F05BFB01E0DF
:1099900001F0BEF9B8680028FAD184A1032001F0D3
:1099A0004BFB4C48B03800F021FD01900AE086A145
:1099B000032001F041FBA86CB060286D70600120AD
:1099C000000330600198FEBD87A1032001F034FB45
:1099D0000220EAE700300020E02500203A494E4608
:1099E0004F3A4265666F7265204F50206372656121
:1099F00074650D0A0000000048CF03003A494E4646
:109A00004F3A496E76616C69642073697A652066A5
:109A10006F72206F626A6563742028746F6F206CA8
:109A200061726765290D0A00D8CF03003A494E4696
:109A30004F3A547279696E6720746F206372656162
:109A400074652064617461206F626A656374207755
:109A50006974686F75742076616C696420696E69D9
:109A60007420636F6D6D616E640D0A003A494E4655
:109A70004F3A56616C696420446174612043726599
:109A80006174650D0A000000FF030000CD80030033
:109A90003A494E464F3A4572617365206F70657260
:109AA0006174696F6E206661696C65640D0A0000FF
:109AB00094CF03003A494E464F3A57726974652075
:109AC0007265717565737420746F6F206C6F6E674B
:109AD0000D0A0000C42700203A494E464F3A212182
:109AE00021204661696C65642073746F72696E67CA
:109AF0002025642042206174206164647265737360
:109B00003A203078253038780D0A00003A494E4620
:109B10004F3A53746F72696E67202564204220614A
:109B2000743A203078253038780D0A003A494E468C
:109B30004F3A4265666F7265204F50206372630D25
:109B40000A0000003A494E464F3A4265666F726518
:109B5000204F5020657865637574650D0A0000001C
:109B60003A494E464F3A496E76616C6964206461A9
:109B7000746120686572653A206578703A202564C2
:109B80002C20676F743A2025640D0A003A494E462E
:109B90004F3A56616C696420446174612045786570
:109BA000637574650D0A0000FCCE03003A494E4609
:109BB0004F3A446F696E6720706F737476616C6999
:109BC000646174650D0A00003A494E464F3A566189
:109BD0006C69642044617461205265616420696E1F
:109BE000666F0D0A000000003A494E464F3A496E32
:109BF00076616C69642044617461204F70657261A4
:109C000074696F6E0D0A000010B50E480169890C69
:109C1000C907C90F04D10069C00CC007C00F0ED01E
:109C20000948816D012901D0002010BD0021816506
:109C3000084600F0EDFE002801D0FDF7D7FC01201A
:109C400010BD00000005005000300020F7B50646AA
:109C50003A4882B041690320000380681746081A19
:109C600003218902401A009035A1032001F0E4F994
:109C70000098B04201D23BA13EE047A1032001F091
:109C8000DBF94B4C4BA10320226901F0DBF94FA11A
:109C90000320A369226A01F0DCF956A10320636A5C
:109CA000E26A01F0D6F90320000380683860254697
:109CB000206A1835012804D00020206157A1606176
:109CC00024E05FA10320009A01F0BCF967482968ED
:109CD00033460818810A00988902411A0A46009101
:109CE00063A1032001F0B5F9009901208E4215D936
:109CF0000399002906D067A1032001F09DF90420F3
:109D000005B0F0BD206100206CA16061032001F06E
:109D100093F9002068602E60A860F1E700212161BE
:109D200060615248A169224D0818800A39682435BB
:109D300080024018386069A10320E8E70010001095
:109D40003A494E464F3A456E746572206E72665FB0
:109D50006466755F66696E645F63616368650D0A5A
:109D6000000000003A494E464F3A4E6F2077617925
:109D700020746F2066697420746865206E65772092
:109D80006669726D77617265206F6E2064657669B1
:109D900063650D0A000000003A494E464F3A4261A1
:109DA0006E6B20636F6E74656E740D0A00000000A8
:109DB000003000203A494E464F3A42616E6B2074A3
:109DC0007970653A2025640D0A0000003A494E4634
:109DD0004F3A42616E6B203020636F64653A2030E9
:109DE00078253032783A2053697A653A2025640D17
:109DF0000A0000003A494E464F3A42616E6B2031EC
:109E000020636F64653A203078253032783A2053E9
:109E1000697A653A2025640D0A0000003A494E46E9
:109E20004F3A4E6F2070726576696F75732C20758E
:109E300073696E672062616E6B20300D0A0000004E
:109E40003A494E464F3A667265655F73697A652096
:109E50006265666F72652062616E6B2073656C650A
:109E600063743A2025640D0A00000000FF0300001F
:109E70003A494E464F3A667265655F73697A653A4C
:109E80002025642C2073697A655F7265713A2025FC
:109E9000640D0A003A494E464F3A4661696C757244
:109EA000653A206475616C2062616E6B2072657327
:109EB0007472696374696F6E0D0A00003A494E4608
:109EC0004F3A456E666F7263696E672073696E679D
:109ED0006C652062616E6B0D0A0000003A494E46C7
:109EE0004F3A5573696E67207365636F6E642062C5
:109EF000616E6B0D0A000000F0B5054685B00020CC
:109F000017460E460B4600902A4625A1032001F075
:109F1000A0F82C4C2068410722D5810706D52AA13C
:109F2000032001F089F80A2005B0F0BD01210843A3
:109F30002060B2B23B4629462C48FEF799FB0090C0
:109F4000002808D002462AA1032001F07BF82068EF
:109F50004008400002E020680121084320601CE026
:109F6000A801040C284601F0ABF8012080022D184E
:109F7000761EF7D1002F10D0244A91681068D2685D
:109F8000019002970492039168468481A801010C14
:109F90006846C181002101A8B8470098C4E70000C5
:109FA0003A494E464F3A45726173696E673A2030BE
:109FB00078253038782C206E756D3A2025640D0A8E
:109FC00000000000242600203A494E464F3A4572D0
:109FD0006173653A204661696C7572652073696EBC
:109FE0006365206C6173740D0A00000088260020F0
:109FF0003A494E464F3A4572617365206661696C15
:10A0000065643A2025640D0A00000000E8CC0300D6
:10A0100010B5014600200D4C002915D00CA10320DD
:10A0200001F00AF8FEF78EFB002801D013A105E02D
:10A030001B4802F019FC002805D01AA1032000F0EB
:10A04000FBFF082010BD0421216010BD2426002044
:10A050003A494E464F3A2D2D2D2D2D2D2D206E7225
:10A06000665F6466755F666C6173685F696E69746C
:10A070002D2D2D2D2D2D2D0D0A0000003A494E4677
:10A080004F3A4E6F7420696E697469616C697A69C0
:10A090006E6720746865207468696E670D0A000039
:10A0A000F18703003A494E464F3A4E6F7420696E6D
:10A0B000697469616C697A696E6720746865207477
:10A0C00068696E6720320D0A00000000F0B5164680
:10A0D0001D4A074610681D46002485B0430721D558
:10A0E000830706D519A1032000F0A6FF0A2005B0BA
:10A0F000F0BD0123144A184310600A46B3B2394632
:10A100001B480095FEF732FB040005D0024619A15A
:10A11000032000F097FF14E00B480122016811436F
:10A1200001600EE03246384600F0E0FF002D08D016
:10A1300000200090039002970195684686810021D7
:10A14000A8472046D3E70000242600203A494E467F
:10A150004F3A466C6173683A204661696C75726566
:10A160002073696E6365206C6173740D0A000000D2
:10A17000882600203A494E464F3A466C6173683A49
:10A18000206661696C65642025640D0A000000008A
:10A1900038B5002000902EA1032000F04DFF00F004
:10A1A000F1FB6846FFF7A8F90124002804D030A18C
:10A1B000032000F041FF0094FFF726FD002805D0A2
:10A1C00038A1032000F038FF00941AE0009800281E
:10A1D00017D1FEF7D3FE002813D0FEF7CFFE0028DC
:10A1E00009D0032424033AA10320A26800F02AFF27
:10A1F000A068FEF7E1FC3DA1032000F01DFF002058
:10A2000038BD424B424A05210020FDF7B9FA00282B
:10A2100001D0FDF7EBF93E4A142178320820FDF712
:10A220006BFA002801D0FDF7E1F900F019FD0400F8
:10A2300005D038A1032000F0FFFE204638BD00F015
:10A24000CFF941A1032000F0F7FEFDF737FAFCE754
:10A250003A494E464F3A496E207265616C206E72E3
:10A26000665F6466755F696E69740D0A00000000C0
:10A270003A494E464F3A436F756C64206E6F7420B6
:10A28000636F6E74696E756520444655206F706506
:10A29000726174696F6E3A203078253038780D0A13
:10A2A000000000003A494E464F3A4170706C6963B5
:10A2B0006174696F6E2073656E7420626F6F746C69
:10A2C0006F6164657220726571756573740A000050
:10A2D0003A494E464F3A4A756D70696E6720746F01
:10A2E0003A203078253038780D0A00003A494E4639
:10A2F0004F3A4166746572207265616C206E7266B9
:10A300005F6466755F696E69740D0A0069770300A2
:10A31000DC2C00203A494E464F3A436F756C64205E
:10A320006E6F7420696E6974616C697A6520444649
:10A3300055207472616E73706F72743A2030782594
:10A340003038780D0A0000003A494E464F3A5761BE
:10A350006974696E6720666F72206576656E7473C6
:10A360000D0A000000210160416081600248016324
:10A370004163016141617047003000201FB5054B0A
:10A3800092081B6A01AC009307C4684618DF04B04A
:10A3900010BD0000F8CC03001FB58908002201ABF6
:10A3A000009207C3684618DF04B010BD1FB59208BD
:10A3B00013061B0E02D0092004B010BD044B1B680D
:10A3C0000290009303920191684618DFF4E70000C1
:10A3D000F8CC03001FB5044B6C460FCB0FC4684686
:10A3E00018DF04B010BD000008CD0300F8B5044626
:10A3F00020300090407F012603280CD00A26454FCC
:10A400007869002825D001282AD043A1032000F034
:10A4100013FE0A20F8BD4D4D4B48286020202B46E6
:10A42000686018461C380269C1680520FEF79CFC6C
:10A43000002800D00A26214620223F312868FBF759
:10A44000BEFC0028DBD042A1032000F0F5FD05266C
:10A45000D5E745A1032000F0EFFD2E4D183505E0AE
:10A4600049A1032000F0E8FD2A4D2435012E03D038
:10A470000020A860686036E04BA1032000F0DCFDFE
:10A480000098407900280FD001280FD002280FD063
:10A49000032810D00A265F20005D002810D060201D
:10A4A000005D00280CD019E0012002E0A52003E0A7
:10A4B000AA20A860EFE7AC20A860A06A7863EAE76A
:10A4C00000984079002804D0022805D0032805D13F
:10A4D00002E06068B86001E06068F860B86C6860CD
:10A4E0001A481C38006928600A4820213830FBF7D8
:10A4F00054FC0848FF22B2215C30FBF747FC0020E7
:10A500003863364800F084FA002800D00A26304626
:10A51000F8BD0000003000203A494E464F3A496EDF
:10A520007465726E616C206572726F722C20696E38
:10A5300076616C69642063757272656E7420626105
:10A540006E6B0D0A00000000C42B0020FC250020CB
:10A550003A494E464F3A48617368206661696C75A6
:10A5600072650D0A000000003A494E464F3A4375A5
:10A570007272656E742062616E6B20697320626115
:10A580006E6B20300D0A00003A494E464F3A437533
:10A590007272656E742062616E6B206973206261F5
:10A5A0006E6B20310D0A00003A494E464F3A537502
:10A5B000636365737366756C6C792072756E207455
:10A5C000686520706F737476616C69646174696F1B
:10A5D0006E20636865636B210D0A0000C9B5030036
:10A5E00070B50120FFF714FD002821D1114D124C48
:10A5F000A860A06B00281AD0FDF770FD002816D0C7
:10A60000206A00280BD1A069002808D0094A00213F
:10A610000C322861FFF71AFB0120A87007E0E06AFE
:10A62000002804D1A069002801D0606AEEE700206C
:10A6300070BD0000E02500200030002010B50C782F
:10A640000E4B012C01D0062C07D10C79012C03D024
:10A65000022C01D0072010BD1C701B78012B07D0E5
:10A66000022B08D006A1032000F0E6FC052010BD57
:10A67000FEF76EFD10BDFFF711F810BDE0250020BC
:10A680003A494E464F3A496E76616C69642072656C
:10A69000717565737420747970650D0A000000008F
:10A6A00070B50D4606460CA1032000F0C5FC2946F6
:10A6B000304600F045F8040001D011A106E029461B
:10A6C0003046FEF7C7FC040004D015A1032000F0BB
:10A6D000B3FC204670BD00003A494E464F3A456EE5
:10A6E000746572206E72665F6466755F73645F6224
:10A6F0006C5F636F6E74696E75650D0A0000000013
:10A700003A494E464F3A53442B424C3A2053442048
:10A71000636F7079206661696C65640D0A000000E2
:10A720003A494E464F3A53442B424C3A20424C2031
:10A73000636F7079206661696C65640D0A000000C2
:10A74000F3B53F4F0121386B09034518796B85B08C
:10A75000091A3C4809188E0AB602B1080818840A7A
:10A76000A40239A1032000F067FC386B0599411859
:10A770000591796B002908D0884206D13EA10320BB
:10A7800000F05AFC002007B0F0BD032000038089D0
:10A7900040A182B2032000F055FC281904900095D6
:10A7A0000190059802940319024644A103200393E3
:10A7B00000F060FC224628460599FFF7F7FD0700E8
:10A7C00004D000942A464D49059B14E00498009556
:10A7D000019002944A490320039B059A00F04AFC29
:10A7E000224628460599FFF7C9FD070008D00094C6
:10A7F0004449059B2A46032000F033FC3846C2E753
:10A8000004980095019002943FA10320039B059AB0
:10A8100000F030FC049D03980590B44201D9002655
:10A8200000E0361B48A1032000F006FC0448416B01
:10A83000891B0163002000F0EBF8002EADD1A2E7E8
:10A8400000300020FF0300003A494E464F3A456E63
:10A85000746572206E72665F626F6F746C6F616494
:10A8600065725F6466755F73645F636F6E74696E53
:10A8700075650D0A000000003A494E464F3A5344B0
:10A8800020616C726561647920636F706965640D25
:10A890000A0000003A494E464F3A557064617469A7
:10A8A0006E672053442E204F6C64205344207665FD
:10A8B000723A203078253034780D0A003A494E46F5
:10A8C0004F3A436F7079696E67205B307825303876
:10A8D000782D3078253038785D20746F205B3078A3
:10A8E000253038782D3078253038785D3A204C6521
:10A8F0006E3A203078253038780D0A00F0D1030008
:10A900005CD10300A8D103003A494E464F3A566144
:10A910006C696461746564203078253038782D3036
:10A92000782530387820746F203078253038782DAD
:10A930003078253038783A2053697A653A20307873
:10A94000253038780D0A00003A494E464F3A46699C
:10A950006E6973686564207769746820746865201F
:10A960005344207570646174652E0D0A0000000068
:10A9700010B5002258210248FDF77AFA10BD0000F8
:10A980000430002070B514A1032000F055FB1C49D1
:10A9900000200870FF255D352A461A491A48FBF742
:10A9A000E3F9194C2068401C04D0FFF7E1FF21684F
:10A9B000814210D01549032000F03EFB2946124881
:10A9C000FBF7EBF901206060002000F021F800287F
:10A9D00001D0FCF70BFE70BD3A494E464F3A7275F6
:10A9E0006E6E696E67206E72665F6466755F736512
:10A9F0007474696E67735F696E69740D0A00000094
:10AA00002826002000FC03000030002090D0030026
:10AA100070B50546244A25A1032000F013FB2D4CF8
:10AA200005E02DA1032000F007FBFDF7FBFA2078DD
:10AA30000028F6D101202070656002F059F800224C
:10AA400001211948FFF758FA0728F6D000250028F9
:10AA500001D02FA11BE0FFF78BFF38495722086078
:10AA600037A1032000F0EEFAFF2234495D32881A44
:10AA7000FBF77AF902F03CF8394B572239490A487A
:10AA8000FFF724FB0728F5D0002806D036A10120C7
:10AA900000F0D2FA2570032070BD3EA1032000F023
:10AAA000CBFA002070BD000000FC03003A494E467E
:10AAB0004F3A45726173696E67206F6C64207365ED
:10AAC0007474696E67732061743A20307825303869
:10AAD000780D0A00282600203A494E464F3A576121
:10AAE0006974696E6720666F72206F746865722082
:10AAF000666C617368206F7065726174696F6E2037
:10AB0000746F2066696E6973682E0D0A000000007C
:10AB10003A4552524F523A45726173696E672066E8
:10AB2000726F6D20666C617368206D656D6F7279F0
:10AB3000206661696C65642E0D0A000000300020FB
:10AB40003A494E464F3A57726974696E67203078B9
:10AB50002530387820776F7264730D0A000000008A
:10AB6000C1850300A42E00203A4552524F523A5359
:10AB7000746F72696E6720746F20666C61736820F1
:10AB80006D656D6F7279206661696C65642E0D0A62
:10AB9000000000003A494E464F3A57726974696E98
:10ABA000672073657474696E67732E2E2E0D0A000C
:10ABB000F8B50F480F4F0025C01BC6080EA1032093
:10ABC00000F03AFA324615A1032000F03BFA0024C7
:10ABD00006E0E000C01940688047050002D1641C0F
:10ABE000B442F6D314A1032000F026FA2846F8BD9B
:10ABF000A0D3030098D303003A494E464F3A496E1A
:10AC0000206E72665F6466755F7472616E73706FDA
:10AC10007274735F636C6F73650D0A003A494E4638
:10AC20004F3A6E756D207472616E73706F727473CB
:10AC30003A2025640D0A00003A494E464F3A4166D3
:10AC4000746572206E72665F6466755F7472616EA1
:10AC500073706F7274735F696E69740D0A0000001F
:10AC6000F8B50F480F4F0025C01BC6080EA10320E2
:10AC700000F0E2F9324615A1032000F0E3F90024C8
:10AC800006E0E000C01900688047050002D1641C9E
:10AC9000B442F6D314A1032000F0CEF92846F8BD43
:10ACA000A0D3030098D303003A494E464F3A496E69
:10ACB000206E72665F6466755F7472616E73706F2A
:10ACC0007274735F696E69740D0A00003A494E46EA
:10ACD0004F3A6E756D207472616E73706F7274731B
:10ACE0003A2025640D0A00003A494E464F3A416623
:10ACF000746572206E72665F6466755F7472616EF1
:10AD000073706F7274735F696E69740D0A0000006E
:10AD100010B5FCF7D3FC10BD024901208860024940
:10AD20000860704700D3004004D0004070B5520066
:10AD30000A439900049D0A432902059E0A433104EF
:10AD400005240A432407800007210019090240183E
:10AD5000026070BD052212078000801807220321BF
:10AD60001202801801607047890012040523114304
:10AD70001B0780000722C01812028018016070476C
:10AD800001218140014881607047000000050050AA
:10AD9000012282400348002901D082607047C260CE
:10ADA000704700000005005000487047D5AD030013
:10ADB00070B5074D04462878002802D06878844290
:10ADC00004D0FBF7E3FF012028706C70002070BDF9
:10ADD0006E260020F0B5C5B0174600220846009246
:10ADE0004D994B9A1E4651180391002801D00A2113
:10ADF00000E0002104AD0191002E15D16A462946DC
:10AE000001F00AFE002870D03846FAF7D1FFC228B8
:10AE100000D9C22004460098224628183946FAF77D
:10AE2000A3FF009800190090009A0198111804A837
:10AE3000841831314518002003E020212170401C86
:10AE4000641C01998842F8D300270398864207D3EF
:10AE5000202020706070A0702870E41C6D1C2CE015
:10AE60004B98864202D24A98805D02E0311A4C9893
:10AE7000405C22468446012102908B006046D84007
:10AE80000007000F092801D9373000E030300123D6
:10AE90005B1AD054491EF0D220209070D41CFAF7CF
:10AEA0005FFF01680298085C8006C00E01D002981E
:10AEB00000E02E2028706D1C761C7F1C102FC4D340
:10AEC0000D2028700A2068702020207000990198B9
:10AED0000918433104A8009101F06AFA002804D04F
:10AEE00000200090039886429ED3304645B0F0BDC6
:10AEF000FFB5C7B008460025509F06AE1C46314638
:10AF000005AA059501F088FD002836D03846FF27B0
:10AF100001370300FCF77CF80705131B333F4B5741
:10AF200025004998FAF744FF059905464018FF287F
:10AF300017D870182A464999FAF716FF11E00598B4
:10AF40002368391A3018499AFCF74CF808E0606811
:10AF5000009005982368391A3018499AFCF742F88E
:10AF60000546294605A8FCF7CEFE0599002839D0EC
:10AF7000B94237D806A801F01BFA4BB0F0BDA16862
:10AF800060680090019105982368391A3018499A31
:10AF9000FCF728F8E4E7201D07C86B4607C30598AF
:10AFA0002368391A3018499AFCF71CF8D8E7201D95
:10AFB0000FC86D460FC505982368391A3018499A8D
:10AFC000FCF710F8CCE7204608300FC801AD0FC5DC
:10AFD0006068009005982368391A3018499AFCF780
:10AFE00001F8BDE70020C8E700487047F1AE030054
:10AFF00038B50093034B0D465C69134600212A4681
:10B00000A04738BDF4310020FFB51C46002385B0B1
:10B0100017461D46074801940295009703958669D7
:10B020000021069A0598B0470346A042F2D309B022
:10B03000F0BD0000F431002010B500231A46FFF7E0
:10B04000D7FF10BD08B5009201236A46FFF7D0FF75
:10B0500008BD1CB50193009202236A46FFF7C8FFA2
:10B060001CBD3EB56D46069C1CC503236A46FFF712
:10B07000BFFF3EBD70B586B00AAC70CC04966E467C
:10B080003CC605236A46FFF7B3FF06B070BD00005B
:10B09000014A916150617047F431002070B5012080
:10B0A000FFF786FE040008D1FFF79EFF0546FFF775
:10B0B0007BFE01462846FFF7EBFF204670BD0000EF
:10B0C000084A0221516008490B68002BFCD09060AF
:10B0D00008680028FCD00020506008680028FCD0D8
:10B0E0007047000000E5014000E40140F0B50C4D60
:10B0F00001236B600B4C2368002BFCD0002306E07F
:10B100009E008F5987512668002EFCD05B1C93420D
:10B11000F6D30020686020680028FCD0F0BD000055
:10B1200000E5014000E40140016880684A6882420D
:10B1300001D2521C00E000220868824201D10120A5
:10B140007047002070478068884201D9481C7047CA
:10B1500000207047FEB504460E4600206946019067
:10B1600008706846FCF79EFB2046FFF7DDFF0700EE
:10B170000AD0207C002807D004200190684600787F
:10B18000FCF7AEFB0198FEBD2068416820460D46E5
:10B19000FFF7D9FF2168002F486006D020680168BA
:10B1A0002046FFF7D0FF21680860E268012A15D029
:10B1B000022A17D0042A1AD0082A1DD01046616826
:10B1C000684308183146FAF7CFFD204600F04CFFDF
:10B1D00021688A688242D1D28860CFE7616830787E
:10B1E0004855F2E7616830886A008852EDE7616887
:10B1F0003068AA008850E8E7626803CEEB00D218F6
:10B2000003C2E2E770B50446344D00882E88142846
:10B2100052D00DDC022836D010281CD0112828D09E
:10B22000132817D100231A46852130467FDF0DE011
:10B2300050284DD051282AD0522843D0552809D122
:10B24000A079002806D11321304676DF002801D0EE
:10B25000FCF7CCF970BD012021490003C8600D2026
:10B26000FFF78EFDA0882880A86802218843A86087
:10B2700070BDFCF76BF9002801D0FCF7B7F900208E
:10B28000C043288070BD0021304667DFDEE7A0792B
:10B290000028F7D02146134800F0E2F90028F1D049
:10B2A000214608310F4800F097F80200EAD00EA1BD
:10B2B0000120FFF7C7FE70BD0023A0881A4619467B
:10B2C00086DFC3E70023A0881A461946A9DFBDE739
:10B2D0002146044800F00CFA70BD0000182600203A
:10B2E00000050050B82C00203A4552524F523A43C4
:10B2F0006F756C64206E6F742068616E646C65207D
:10B300006F6E5F6374726C5F70745F77726974657F
:10B310002E206572725F636F64653A203078253045
:10B3200034780D0A0000000010B50F4C8188618050
:10B3300001462046082218310C30FAF715FD00208E
:10B3400060700A48C089002801D1FCF75DFD064CF9
:10B3500007A10C3422880320FFF774FE628811A134
:10B360000320FFF76FFE10BD04260020542C0020A0
:10B370003A494E464F3A6D5F63757272656E745FFF
:10B38000636F6E6E5F706172616D732E6D696E5F5B
:10B39000636F6E6E5F696E74657276616C3A256478
:10B3A0000D0A00003A494E464F3A6D5F637572725E
:10B3B000656E745F636F6E6E5F706172616D732E28
:10B3C0006D61785F636F6E6E5F696E7465727661D2
:10B3D0006C3A25640D0A000070B5064688B000205E
:10B3E000059003900490009001900290087B0C4619
:10B3F000434D0300FBF70CFE077D053446267D5DBB
:10B400007D006089062801D0032219E03DA10320B8
:10B41000FFF712FE6888A880607B0E3401902046FA
:10B42000FAF7E3FCE1780002000A090608430290FB
:10B4300001206946087003AA0020FFF7FFF80246C2
:10B4400001214CE037A10320FFF7F6FD03206946F8
:10B45000087003AA0020FFF7F1F8024604213EE03D
:10B4600038A10320FFF7E8FD6089032801D00322FB
:10B4700006E0A07B617B000208436880A88001226F
:10B4800002212CE036A10320FFF7D6FD04206946F7
:10B49000087003AA0020FFF7D1F80246012801D066
:10B4A00003211CE03046059A049900F01FFE08B005
:10B4B00070BD33A10320FFF7BFFD6089022801D0D2
:10B4C00003220BE0607B019006206946087003AA06
:10B4D0000020FFF7B3F80246012804D006213046C9
:10B4E00000F08EFEE3E703AC0ECC304600F04EFEDB
:10B4F000DDE72BA10320FFF79FFD217B0322EEE771
:10B50000182600203A494E464F3A526563656976DF
:10B51000656420637265617465206F626A65637437
:10B520000D0A00003A494E464F3A52656365697606
:10B5300065642065786563757465206F626A65630C
:10B54000740D0A003A494E464F3A536574207265AD
:10B550006365697074206E6F7469660D0A0000007F
:10B560003A494E464F3A5265636569766564206391
:10B57000616C63756C617465204352430D0A000071
:10B580003A494E464F3A5265636569766564207361
:10B59000656C656374206F626A6563740D0A0000F0
:10B5A0003A494E464F3A526563656976656420753F
:10B5B0006E737570706F72746564204F5020636F86
:10B5C00064650D0A0000000007A10320FFF734FDA9
:10B5D000FFF7EEFABFF34F8F0B490A48C860BFF37D
:10B5E0004F8F00BFFDE700003A494E464F3A526583
:10B5F00073657474696E67206465766963652E206F
:10B600000D0A00000400FA0500ED00E010B5134A31
:10B6100000215170017A012911D002290ED18189AE
:10B62000491C8181C189491C89B2C181028A914228
:10B6300004D1002100F084FE00F0A0FC10BD838A3C
:10B64000C28A991AFF2901DC89B201E0FF21013188
:10B65000511889B2C1829942EBD010BD6C260020EE
:10B6600030B587B0002401940294039404948A1D99
:10B670008B790831022B33D153888589AB422FD186
:10B68000127A042A2CD0062A2AD0052A28D002238E
:10B690006A461371012595720D8995814D89D58171
:10B6A0000C310594049193820692104D018A05AAEB
:10B6B0002888A5DF002804D16846FCF7A9FA0028ED
:10B6C00007D06846048101A92888A8DF00280AD08D
:10B6D00006E0FF20FE306946088101A92888A8DF1E
