:020000040001F9
:10B00000B03F0020D5B00100EFB00100F1B0010069
:10B010000000000000000000000000000000000030
:10B02000000000000000000000000000F3B001007C
:10B030000000000000000000F5B00100F7B00100C2
:10B0400059B9010095BA010039BD0100E1BB010009
:10B05000F9B001000000000089B40100F5B2010060
:10B0600009BD010021BD0100F9B00100A5BB01002F
:10B07000F9B0010015BB0100F9B00100F9B0010001
:10B08000F9B00100B9BB0100ADB90100F9B0010090
:10B09000F9BB0100F9B0010001BC010035BC0100A1
:10B0A000F9B00100F9B0010000000000000000004C
:10B0B0000000000000000000000000000000000090
:10B0C0000348854600F0B8F800480047813C02007C
:10B0D000B03F00200321094802680A430260084883
:10B0E00002680A4302600748804707480047FEE7B6
:10B0F000FEE7FEE7FEE7FEE7FEE70000240500406E
:10B1000054050040A5BC0100C1B0010030B50B469C
:10B11000014600202022012409E00D46D5409D4231
:10B1200005D31D469540491B2546954040191546B7
:10B13000521E002DF1DC30BD70B5002425460028DC
:10B1400001DA01244042002901DA01254942FFF7D2
:10B15000DDFFAC4200D04042002C00D0494270BD1F
:10B1600000487047A0E4020003460B439B0703D04E
:10B1700009E008C9121F08C0042AFAD203E00B78BC
:10B180000370401C491C521EF9D27047D2B201E034
:10B190000270401C491EFBD270470022F6E710B532
:10B1A00013460A4604461946FFF7F0FF204610BD35
:10B1B000421C0178401C0029FBD1801A704730B531
:10B1C00004460020034600E05B1C934203D2E05C8F
:10B1D000CD5C401BF8D030BDF0B51FB40646002052
:10B1E00082B005464024019100901BE0019922465F
:10B1F0000F46304600F042F8049A059B801A9941A8
:10B2000010D310461946224600F028F8361A8F410E
:10B210000197224601200021009F00F01FF83818F6
:10B220004D4100902046641E0028DFDC019B009801
:10B230002946324607B0F0BD064C0125064E05E012
:10B24000E36807CC2B430C3C98471034B442F7D347
:10B25000FFF73AFFF4E4020014E5020010B5202ADB
:10B2600004DB0146203A9140002010BD914020238C
:10B270009C1A0346E3401943904010BD10B5202AA4
:10B2800004DB0846203AD040002110BD0B46D340D5
:10B29000D0402024A21A91400843194610BD70B531
:10B2A0008C180578401C6B075B0F01D10378401C9C
:10B2B0002A1106D10278401C03E006780E70401C6B
:10B2C000491C5B1EF9D12B0705D40023521E0DD457
:10B2D0000B70491CFAE70378401CCB1A921C03E060
:10B2E0001D780D70491C5B1C521EF9D5A142D8D3A4
:10B2F000002070BD0EB51D48C06800281CD1FF207D
:10B30000013009F0BBFF012009F0C0FF00BF0020A1
:10B310001749086000BF01216846017000BF14484A
:10B32000806801B26846818001201049887408460F
:10B3300001686846884718E000F0E0FF002814D054
:10B34000012009F0A3FF0020694608700748C06883
:10B3500001900648017C68460181012003498874F8
:10B36000084601686846884700BF0EBDA82E002029
:10B37000007500407FB5002500F05AF82649087096
:10B3800040E026480078002802D025480AF06EFEEA
:10B3900024480078030000F0EFFC06040A05060BC1
:10B3A000070E00BF00BF00BF12F086FA04E000BF26
:10B3B00000F04BF800E000BF00BF184800780028FC
:10B3C0001CD0194B0FCB6C460FC41A216846C170B4
:10B3D0001E218170192141701821017000BF134A8C
:10B3E00069460F480AF076FD0446002C04D000BFE1
:10B3F000204601F0FBFA00BF00BF00BF00F018F8C4
:10B400000549087004480078002804D12846691CC2
:10B410004DB20328B5DB7FBD232100208D20002005
:10B4200048E0020025210020F0E1020079C7020077
:10B4300010B500200FF000FB0446302C01D0312C59
:10B4400001D1012010BD0020FCE710B518200BF041
:10B45000B7FA012118200BF03DFB642009F082FFB0
:10B46000002118200BF036FB642009F07BFF01213E
:10B4700018200BF02FFB012009F04AFFFF202D3090
:10B4800009F070FF10BD0000F0B58FB000200E90E5
:10B490000D90FF2001300C900126002416E00C983E
:10B4A0000BF096FB00280BD000BF9248406830405C
:10B4B000002805D00C980BF083FB0E9830430E90BB
:10B4C00076000C98001D80B20C90641C042CE6D30E
:10B4D000FF207D300BF07CFB00280DD0FF207D305D
:10B4E0000BF06EFB0121C9070E9808430E900DAAC0
:10B4F000012100200BF046FB0E980007000F0028EA
:10B500002CD00126002427E00E983040002821D0BE
:10B5100000BF7948512109014018A10040581F215E
:10B5200009020840000A074600BF7348512109017B
:10B530004018A1004058032109040840000C0B905A
:10B54000204603F011FF0546002D02D038460B9926
:10B55000A84700BF7600641C042CD5D30E98C00FFA
:10B56000C007002876D000200B900A90002505E047
:10B570000020C043A90009AA50506D1C002DF7D02F
:10B5800000BF00200B9000247AE05C48005D08902A
:10B59000C02108988843074658480057401C002897
:10B5A0006DD009A9384609F07DFE002867D0C0217A
:10B5B0000898084080110790384603F019FF05905D
:10B5C00003F0D2FE06900698002802D107980328BF
:10B5D00054D10798032815D10AA803970290039F16
:10B5E000F9080191039F7907490F03910199029886
:10B5F000415C0123039A93401943CAB20199425412
:10B6000000BF00BF00BF00BF052109070846B90001
:10B610000722120282185158032212041140090C09
:10B6200005910DA9384609F03DFE049004980028C4
:10B6300002D00598022805D0049800281DD105984D
:10B6400003281AD10798032810D10598022802D19F
:10B65000032001E04BE002200390384603990BF0F1
:10B66000C7F90B98401CC0B20B9000BF0698002889
:10B6700003D03846069A0799904700BF00BF641C64
:10B68000082C82D30B9800282CD0012708AA01216E
:10B6900000200BF077FA00250AE0A80008A9085856
:10B6A000A9000DAA5158884201D0002702E06D1C64
:10B6B000002DF2D000BF002F02D000200B9010E030
:10B6C00000250CE0A80008A90858A9000DAA5050B0
:10B6D000A8000AA90858A90009AA50506D1C002DFD
:10B6E000F0D000BF0B98002800D04AE700BF0FB091
:10B6F000F0BD00000063004000600040182E0020F4
:10B7000020BF40BF20BF7047C206D20E012191402A
:10B71000014A11607047000080E200E0C206D20ECC
:10B7200001219140014A11607047000080E200E071
:10B73000C206D20E01219140014A116070470000FB
:10B7400080E100E0C206D20E01219140014A116061
:10B750007047000080E100E0C206D20E0121914056
:10B76000014A11607047000000E100E0C206D20EFD
:10B7700001219140014A11607047000000E100E0A2
:10B78000C206D20E01219140014A116070470000AB
:10B7900000E100E0C206D20E01219140014A116091
:10B7A0007047000000E200E0C206D20E0121914085
:10B7B000014A11607047000000E200E010B5002867
:10B7C00019DA1A4A03071B0F083B9B089B00D25843
:10B7D0008307DC0EFF23A3409A438B071B0E8407CD
:10B7E000E40EA3401A43114B0407240F083CA4089D
:10B7F000A4001A5118E00E4A03231B02D218830832
:10B800009B00D2588307DC0EFF23A3409A438B078B
:10B810001B0E8407E40EA3401A43054B03242402A5
:10B820001B198408A4001A5110BD00001CED00E093
:10B8300000E100E010B5002819DA1A4A03071B0FCF
:10B84000083B9B089B00D2588307DC0EFF23A340D4
:10B850009A438B071B0E8407E40EA3401A43114B37
:10B860000407240F083CA408A4001A5118E00E4A4B
:10B8700003231B02D21883089B00D2588307DC0ED7
:10B88000FF23A3409A438B071B0E8407E40EA340BB
:10B890001A43054B032424021B198408A4001A51DF
:10B8A00010BD00001CED00E000E100E010B5002834
:10B8B00019DA1A4A03071B0F083B9B089B00D25852
:10B8C0008307DC0EFF23A3409A438B071B0E8407DC
:10B8D000E40EA3401A43114B0407240F083CA408AC
:10B8E000A4001A5118E00E4A03231B02D218830841
:10B8F0009B00D2588307DC0EFF23A3409A438B079B
:10B900001B0E8407E40EA3401A43054B03242402B4
:10B910001B198408A4001A5110BD00001CED00E0A2
:10B9200000E100E000BF00BF00BFBFF34F8F00BFCA
:10B9300000BF00BF06480749C86000BF00BF00BF86
:10B94000BFF34F8F00BF00BF00BF00BF00BFFDE7C8
:10B950000400FA0500ED00E010B5FF20013009F009
:10B96000ACFC00280CD0FF20013009F0B1FC012014
:10B9700009F0B4FC01200C494870002003F06AFE75
:10B98000FF20053009F099FC00280BD0FF2005307E
:10B9900009F09EFC022009F0A1FC012002498870F8
:10B9A00003F058FE10BD0000B42D00201CB500BFF0
:10B9B000FF20013034494018006800281AD00120C7
:10B9C0000BF076FC002815D000BF0021FF200130CD
:10B9D0002D4A8018016000BF91156846018000BFA4
:10B9E0002A48C06841B268468170294A0199009886
:10B9F0001268904700BFFF200530234940180068B7
:10BA0000002822D002200BF053FC00281DD000BFDC
:10BA10000021FF2005301C4A8018016000BFFF2173
:10BA200005316846018000BF1848806901B2684648
:10BA3000418000BF15484030806881B268468180EF
:10BA4000134A019900981268904700BFFF200930FF
:10BA50000D4940180068002815D004200BF028FC80
:10BA6000002810D000BF0020FF210931064A8918A4
:10BA7000086000BFFF20093069460880044A019928
:10BA80000098126890471CBD00200140002501402D
:10BA90004C22002010B51B480068002808D01A4826
:10BAA0004068C007C00F002802D000201549086078
:10BAB0001448C06800280FD0134840680821084087
:10BAC000002809D000200F49C860104800680028ED
:10BAD00002D00E48006880470A48006900280FD04D
:10BAE0000948406810210840002809D00020054975
:10BAF000086107480068002802D0054800688047B0
:10BB000010BD000000110040001300402023002061
:10BB10001C2300201CB50020019001A801F00EF9A3
:10BB200010F016FE002830D100BFFF200130194967
:10BB300040180068002801D0012000E00020002803
:10BB400023D00120144989680140002901D0012136
:10BB500000E00021002918D000BF0020FF210131A2
:10BB60000C4A8918086000BF00BF0C488068C0B24A
:10BB7000009069460A480BF0C3FB09480BF0A9FB8B
:10BB8000002801D00AF03CF800BF6846007901F0B7
:10BB9000FFF81CBD00D0004000D3004000D500409D
:10BBA00050E3020010B50322002102480AF020F9F8
:10BBB00010BD000000B0004010B50020074908602B
:10BBC0000021064841608160C1600020034940397E
:10BBD0000860486011F0BCF910BD00004011014040
:10BBE00010B5034C2146034807F058FB10BD000078
:10BBF000402E00200030004010B511F0B9F810BD03
:10BC000070B50B48006800280ED0094800688047CE
:10BC1000044600BF2546002D04D000BF284600F092
:10BC2000E5FE00BF00BF01E007F04AFA70BD00006A
:10BC3000D42200203EB519480068019002A80AF0FD
:10BC4000C1FB0446002C27D115480068002823D0EA
:10BC50000298C007C00F002806D00020694608706F
:10BC600068460F4909688847022102980840002861
:10BC700006D0012069460870684609490968884766
:10BC8000042102980840002806D002206946087066
:10BC900068460349096888473EBD00001423002018
:10BCA000F422002010B507F039FB002805D0104819
:10BCB00010494860C8131049886107F013FB002839
:10BCC00002D001200D49886007F05EFB00280ED0ED
:10BCD0000B480068012807D00A480949086000BFDE
:10BCE000074800680128FBD1C0200549486110BD04
:10BCF000DFFF07C000050040006C00400006004068
:10BD000000EC06407593000010B504220249034878
:10BD100007F090FA10BD0000602E00200080004067
:10BD200010B504220249034807F084FA10BD000050
:10BD30006C2E00200090004010B50249024811F01E
:10BD40006AFB10BD242E0020002000400FB41CB55B
:10BD50000A46521E0192009007A9064B6A460698B1
:10BD600000F040F8009A002111701CBC08BC04B01F
:10BD70001847000059C2010030B47446641E25788B
:10BD8000641CAB4204D3635D5B00E31830BC18470E
:10BD90001D46F8E702E008C8121F08C1002AFAD1C0
:10BDA00070477047002001E001C1121F002AFBD13B
:10BDB000704700000146202909DA01208840054A21
:10BDC0001040002801D0012070470020FCE701202E
:10BDD000FAE70000FC06FFBC00BFEFF31081084645
:10BDE00072B67047FFB591B00F460546002606E0D3
:10BDF00025280AD0149A139990476D1C761C287830
:10BE00000028F5D1304615B0F0BD00240094012182
:10BE1000F34A029400E004436D1C2B780846203B53
:10BE200098401042F7D128782A280ED0022128788D
:10BE30000246303A092A15D8009A0A235A43303A62
:10BE400080180C436D1C0090F1E701CF0090002892
:10BE500005DA01204003044300984042009002208C
:10BE600004436D1C28782E2815D1042004436878DB
:10BE70006D1C2A280AD101CF6D1C02900BE002999B
:10BE80000A225143303940186D1C0290287801462F
:10BE900030390929F3D928786C2810D006DC4C28D1
:10BEA0001AD068280ED06A2817D104E0742813D05D
:10BEB0007A2812D110E00120400504430CE0012152
:10BEC000090501E0032109050C436978814203D18A
:10BED0000120000524186D1C6D1C287803906E2825
:10BEE0001ED00CDC632831D004DC00288AD058280E
:10BEF00011D1B2E064287BD069280CD178E0732896
:10BF00002DD004DC6F2870D0702804D1A7E07528EC
:10BF10006CD078286BD0149A13999047761C62E005
:10BF20006002400F022807D003280AD0042838688E
:10BF30000AD006603F1D56E03868F1170660416080
:10BF4000F8E738680680F5E70670F3E73878694661
:10BF500008740020487404A80390012003E03868A6
:10BF600003900020C0433F1D61070FD5002101E071
:10BF70000199491C029A0191914213DA8142F7DB3F
:10BF8000019A0399895C0029F2D10BE0002101E0BC
:10BF90000199491C01918142FADB019A0399895C5C
:10BFA0000029F5D101990098139A401A0090214672
:10BFB000149B00F03BF901998019461807E003989B
:10BFC00003990078491C0391149A1399904701989A
:10BFD000401E0190401CF2D12146149B139A0098F8
:10BFE00000F014F986196D1C09E741E033E034E0F4
:10BFF0000A200021049005916002410F022905D01A
:10C0000001CFC2179446032905D007E0FF1DFF08A2
:10C01000FF0003CF06E000B2C2179446042902D104
:10C0200040B2C1178C4600226146944506DA0A46A2
:10C030000021404291418C462D2102E0210504D58A
:10C040002B216A461176012103E0E10701D020216E
:10C05000F7E7019154E00A200BE0102009E01020DE
:10C06000049000210420044308200591029003E07D
:10C0700008200021059104906002410F022905D09B
:10C0800001CF00229446032906D006E0FF1DFF08D9
:10C09000FF0003CF8C4603E080B2042900D1C0B278
:10C0A0000021019121072BD50399702906D0049A0C
:10C0B0001021059B4A401A4305D00EE040216A46F4
:10C0C0001176012108E06146014306D030216A461D
:10C0D00011760399517602210191049A0821059B5A
:10C0E0004A401A430CD16146014301D1610707D58B
:10C0F00030216A461176012101910299491E02916F
:10C100000399582904D037A103910FA90F910DE08D
:10C1100039A1F9E76146059B049AFFF75DF8039B97
:10C120008C469B5C0F9A521E0F921370614601431E
:10C13000F0D10F9807A9081A20300390600704D5A2
:10C14000012000048443029801E001200290039939
:10C15000884201DD401A00E0002041180290019859
:10C1600009180098401A0090E00306D42146149B59
:10C17000139A009800F05AF886190020049008E0FD
:10C1800006A9085C149A139990470498401C761CE1
:10C19000049001998842F3DBE0030CD52146149BFF
:10C1A000139A009800F042F8861904E0149A30209F
:10C1B00013999047761C0299481E02900029F5DCDD
:10C1C00008E00F980F990078491C0F91149A139961
:10C1D0009047761C0399481E03900029F1DCFBE68A
:10C1E000092801003031323334353637383961624D
:10C1F0006364656600000000303132333435363711
:10C20000383941424344454600000000F8B5044631
:10C2100000251E461746880404D405E03946202030
:10C22000B0476D1C641EF9D52846F8BDFFB504461D
:10C23000002581B01E46C80301D5302700E0202725
:10C24000880404D505E038460399B0476D1C641E88
:10C25000F9D5284605B0F0BD4A68002A06D00A681C
:10C26000531C0B6010704868401E48607047000007
:10C2700038B50B48006800900A49684609F00CF987
:10C28000044600BF2546002D04D000BF284600F01C
:10C29000ADFB00BF00BF044809F0E8F838BD00005E
:10C2A00030E10200ADC20100C420002070B5044698
:10C2B000207800281CD10F490860002508E069009B
:10C2C0006068405E0B49096840180A4908606D1CA7
:10C2D0002089A842F3D8218906480068FEF716FF96
:10C2E0000449086000200449087009F001F900BF02
:10C2F00070BD0000BC2000208220002010B5FF206F
:10C30000013008F0BBFF00BF00201E49086000BFDD
:10C3100000BF0846806800B21B49C9681A4A527CAF
:10C32000520088521848407C401C174948740846FF
:10C33000407C097C884223DA0024134880684068E6
:10C34000002804D1104840680F49886005E00E4875
:10C35000806840680C49886001240B498968086836
:10C3600008F07AFF00BF01200649086000BF002CDA
:10C3700004D000BF054A106000BF00BF002010BD00
:10C380000120FCE700750040A82E0020007000404E
:10C3900070B505460C46002D01D0002C01D10020BF
:10C3A00070BD28782178884201D00020F8E7062265
:10C3B000611C681CFEF703FF002801D10120EFE794
:10C3C0000020EDE710B50446204602F087FF00BAD2
:10C3D00010BD0246002105E0505C002801D001207C
:10C3E0007047491C0629F7D30020F9E710B5044629
:10C3F000002C0ED008480068A0420AD806484068C1
:10C40000A04206D3204606F0F6FF002801D0012006
:10C4100010BD0020FCE700006C23002000B50146A1
:10C420000B00FFF7A9FC0504070A0D1014000948CA
:10C43000006800BD08480068FBE708480068F8E7A6
:10C4400007480068F5E7044800681830F1E701483C
:10C450000068EEE72C2300203C2300204C23002022
:10C460005C230020F7B582B00446164600253788C5
:10C47000002030802D20005D00280CD03A46314647
:10C48000039801F01DFB054600BF002D02D0284691
:10C4900005B0F0BD00BFA07800280BD03A46314669
:10C4A000039800F095FC054600BF002D01D02846FA
:10C4B000EEE700BFE07800280DD0E17848B23B46B7
:10C4C0003246039904F0B0FF054600BF002D01D0AD
:10C4D0002846DDE700BF606800280ED000206168B4
:10C4E00008563B463246039910F07AFF054600BFD6
:10C4F000002D01D02846CBE700BF208900280FDDA2
:10C50000019700960622022120460830039B11F075
:10C51000A1FA054600BF002D01D02846B8E700BFAC
:10C52000208A00280FDD019700960722032120466C
:10C530001030039B11F08EFA054600BF002D01D08C
:10C540002846A5E700BF208B00280FDD0197009645
:10C550001522142120461830039B11F07BFA054662
:10C5600000BF002D01D0284692E700BF206A0028B6
:10C570000CD03B463246206A039903F007F9054682
:10C5800000BF002D01D0284682E700BF606A002866
:10C590000CD03B463246606A039908F007F805461E
:10C5A00000BF002D01D0284672E700BF2C20005D9F
:10C5B00000280CDD3B463246204603990FF034FB41
:10C5C000054600BF002D01D0284661E700BF207856
:10C5D00000280CD03B4632462046039908F07AFDED
:10C5E000054600BF002D01D0284651E700BF284670
:10C5F0004EE7000070B504461748FFF7EAFE05460F
:10C60000012C06D0022C0DD0032C14D0042C20D1E8
:10C6100018E012484078002803D0002D01D00120F6
:10C6200070BD00BF0D488078002803D0002D01D0D8
:10C630000220F5E700BF0948C078002801D0032098
:10C64000EEE700BF05480079002801D00420E7E7A5
:10C6500000BF0020E4E70000592100206C270020E3
:10C6600010B504460521601CFEF766FDC8B210BD7A
:10C670000146C87804221040002801D107207047E5
:10C680000020FCE710B504220221012002F01AFB71
:10C69000044600BF002C03D0072C01D0204610BD5B
:10C6A00000BF07220021012002F00CFB044600BF5E
:10C6B000002C03D0072C01D02046F0E700BF0A224F
:10C6C0000221002002F0FEFA044600BF002C03D035
:10C6D000072C01D02046E2E700BF0020DFE7000082
:10C6E00070B598B03C2109A8FEF757FD0526022138
:10C6F00008A8017101218171C671684681861849B7
:10C700000E91202101A8FEF748FD01216846017124
:10C710004171817120200390B42004906846C1715A
:10C7200028200590B4200690684601721920C001A7
:10C730000790012008900B480B4B01AA00210090A4
:10C7400009A800F0A7FD044600BF2546002D04D02F
:10C7500000BF284600F04AF900BF00BF18B070BD06
:10C760009C20002085D201005D75020070B5254A2D
:10C7700010212548FEF70AFD0820244908602248B8
:10C780000CF086FE214801681F480DF02FFE04467C
:10C7900000BF2546002D04D000BF284600F026F932
:10C7A00000BF00BF1948016817480DF04BF8044658
:10C7B000062C09D000BF2546002D04D000BF284616
:10C7C00000F014F900BF00BF0020114908700F48A5
:10C7D0000068002803D000200E49087002E0012004
:10C7E0000C490870012000F0B7FE044600BF254642
:10C7F000002D04D000BF284600F0F8F800BF00BFAD
:10C8000070BD0000FFFF000074250020A020002064
:10C81000A42000207021002070B58CB004460D4685
:10C820001646002005E00F21091A615C6A46115482
:10C83000401C1028F7D30D2104A8FEF7AEFC002001
:10C8400005E02A5C0F210B1A04A9CA54401C0328D6
:10C85000F7D368464DDF002005E00F210A1A08A92A
:10C86000895C3154401C0328F7D30CB070BD000024
:10C8700010B50446002001F05BFD08480078401E1A
:10C880000649087008460078002806D10448006868
:10C8900000F038FA002001F069FD10BDB82000203A
:10C8A00010E2020010B5002407E0E100064A126819
:10C8B000505C012108F034FF641C04480078844275
:10C8C000F3D3002010BD00005C2200206022002075
:10C8D000FEB506460C461746052F01D20720FEBDC1
:10C8E00009F032F8002808D109F000F8054600BF29
:10C8F000002D01D02846F2E700BF17480660174810
:10C90000047017480760002016490860164908603F
:10C9100017E0E00080190190144800680090019829
:10C9200080786946487001990878114A694608F08C
:10C9300055FF054600BF002D01D02846CFE700BFB8
:10C9400000BF2046611ECCB20028E2D1094A002176
:10C95000094800F021F9C2E75C2200206022002093
:10C9600064220020682200206C220020E0E3020004
:10C97000A9200200ADFA0100DCE3020013A10120AE
:10C980000AF0ECFB00BF0AF0CDFA00BF00BF0AF0CE
:10C99000CFFA0028FBD100BF00BF00BF00BF00BF1F
:10C9A00000BF00BFBFF34F8F00BF00BF00BF0D48E7
:10C9B0000D49C86000BF00BF00BFBFF34F8F00BF6D
:10C9C00000BF00BF00BF00BFFDE700004150505F47
:10C9D0004552524F523A4552524F523A4661746153
:10C9E0006C0D0A000400FA0500ED00E03EB50446B7
:10C9F000002000900190029002946A4600210248B3
:10CA0000FFF7BCFF3EBD000001400000F7B582B05B
:10CA100007460C4627480088844246DC264D002005
:10CA2000019001A800F08AF900BF24480078009026
:10CA30002348007808F004FC0099884201D10120C5
:10CA400000E00020002806D11D480578007808F095
:10CA5000F7FB1B4908706846007900F099F9164801
:10CA6000854220D0E900174A049812685050002FE0
:10CA700011D0002C0FDD0F4909886943124A126852
:10CA8000881822463946FEF76FFBE8000D49096811
:10CA90004018848005E00021E8000A4A12688018E6
:10CAA0008180002600E0042600E00926304605B01B
:10CAB000F0BD00007A220020FFFF00007822002055
:10CAC000792200207022002074220020F8B51AE09C
:10CAD00015480478154800886043154909684518C9
:10CAE000E0001449096840188688E0001149096887
:10CAF0000F5831462846B8470B48007808F0A0FB8D
:10CB00000949087000BF00BF002000280BD100BFFA
:10CB10000549087808490978814201D1012100E0DE
:10CB200000210029D4D0F8BD782200207A220020EC
:10CB300074220020702200207922002030B50346A4
:10CB4000481CC004040C10468507AD0F002D01D110
:10CB5000012500E00025002D01D1072030BD084847
:10CB600002601019074D28600020074D2870074DFE
:10CB7000287007480380074801800020EEE7000086
:10CB800070220020742200207922002078220020C8
:10CB90007A2200207C22002010B503460C4600BFFC
:10CBA0000D484068002801D1082010BD00BF002AB0
:10CBB00001D10720F9E7002B01D10720F5E718681C
:10CBC000007C002801D00820EFE7196800200874D5
:10CBD0004C744A6100BFE8E780220020F8B50446A3
:10CBE0000D46264600BF082D01D1012000E000209F
:10CBF0000746002F03D100BFFFF7F8FE00BF00BFBC
:10CC0000316870688847F8BD7CB504460D460094CD
:10CC10000195034A08216846FFF7F8FE7CBD000035
:10CC2000DDCB0100F8B507460D4614461E462046EA
:10CC30008107890F002901D1012100E0002100298D
:10CC400001D10720F8BD002C01D10720FAE70EF032
:10CC50006BFB1148066000201049087048700846B8
:10CC60008570446000200E4908600E4908700E4926
:10CC700008701420FEF748FD03211420FEF7DAFDAA
:10CC80001420FEF769FD38460EF024FB0EF01CFB65
:10CC9000064908600020D5E79C2200208022002061
:10CCA0008822002098220020992200208C22002037
:10CCB000F8B504460E461746254600BF10484068A2
:10CCC000002801D10820F8BD00BF002C01D10820A8
:10CCD000F9E7052E01D20720F5E76869002801D1A0
:10CCE0000820F0E7687C012801D1304600E00020F0
:10CCF00000903B4631462846009A10F0D9F8E2E70A
:10CD00008022002070B50446254600BF0A484068CE
:10CD1000002801D1082070BD00BF002C02D0686936
:10CD2000002801D10820F6E70020287402212846B7
:10CD300010F0ECF8EFE700008022002070B5044608
:10CD400000BFFFF749F805460E48406800280ED19D
:10CD500001200C4948600C4800680C49084009490A
:10CD600008600A48084908600020207001E001209E
:10CD70002070002D03D100BF62B600BF00BF00BF0E
:10CD800070BD0000A422002080E100E0FC06FFBC92
:10CD900070B5044625460C484068002812D0002D86
:10CDA00010D1FFF719F806460748006807490860E0
:10CDB000002005494860002E03D100BF62B600BFC5
:10CDC00000BF00BF00BF70BDA422002000E100E052
:10CDD000F8B505460C4617462088001DB84201D913
:10CDE0000C20F8BD684679DF064600BF002E01D052
:10CDF0003046F6E700BF0320218868542088401C95
:10CE000020801920218868542088401C2080208898
:10CE100041196846008810F0B0FB21884018208036
:10CE20000020DEE730B58BB01448007800F012FE29
:10CE3000054628460EF0FCFB00281CD001A800F097
:10CE400065FD142201A906A8FEF78EF900240EE064
:10CE5000620007A9885A0949097800F009FE0028EC
:10CE600004D0620007A9885A06F0BCFD641C06982D
:10CE7000A042EDD800BF0BB030BD0000A2210020C1
:10CE800010B5044663799A07920F2179208806F03D
:10CE900077FC10BD10B504462079002803D1204648
:10CEA00000F008F803E02046FFF7EAFF00BF00BFEC
:10CEB00010BD0000F0B589B004460025208800F0C0
:10CEC00097FD0746208805F04DFF0646A0680890AC
:10CED000607A0790208800222249097800F0DCFD62
:10CEE000002F01D109B0F0BD60794007C00F0028C4
:10CEF00011D0072130460BF041FF0546002D16D01A
:10CF00000821684601712188C1800681039501A826
:10CF100003F03CFF0BE020881349097800F0A8FDDE
:10CF2000002804D0304605F005FF039000BF032120
:10CF3000684601742188418260794007C10F6846C4
:10CF40000175A0794007C10F04A84171811D08A88F
:10CF50000078087004A86946097FC17103F016FFC4
:10CF600000BFBFE7E6210020E821002030B585B0F2
:10CF700014216846FEF711F900200090012168464F
:10CF800001710020029064216846017300BF407B5C
:10CF900001090901491C68464173407BF02188431F
:10CFA00020306946487300BF00BF6846807B000997
:10CFB0000001401C88736846807BF0218843203044
:10CFC0006946887300BF00BF6846C07B0009000146
:10CFD000C8736846C07BF02188436946C87300BFA8
:10CFE00000BF6846007C01090901491C68460174BC
:10CFF000007CF021884320306946087400BF08484F
:10D0000000F0B4FB044600BF2546002D04D000BF4D
:10D010002846FFF7EBFC00BF00BF05B030BD0000A5
:10D020001C250020F0B591B004460D46207D002857
:10D0300019D00020099000BF08A800790109090152
:10D04000491C08A801710079F0218843103008A913
:10D05000087100BF697B08A8417180790621884367
:10D06000801C08A988711C210AA8FEF796F808A858
:10D07000007A02218843811C08A80172007A1021DD
:10D080008843217D002901D0012100E00021090110
:10D0900010221140084308A9087200200B900D903F
:10D0A0000E90207D002801D009A800E000200F90FC
:10D0B0000020109000BF0121684681734949818199
:10D0C00000BF00200290A97B68460172E97B417293
:10D0D000807A06218843811C68468172807A082103
:10D0E0008843014668468172807A10218843014650
:10D0F00068468172807A4108490068468172297BBE
:10D100000191142104A8FEF748F803A8049002A88E
:10D11000059001216846018300214183012181831B
:10D1200001A80890A088A31D04AA0AA9A2DF0646A8
:10D13000002E02D0304611B0F0BDA86800284DD0B6
:10D1400000BF0121684681732749818100BF00200B
:10D150000290287C6946087200BF6846407A01093F
:10D16000090168464172407AF02188436946487255
:10D1700000BF6846807A06218843811C6846817218
:10D18000807A08218843014668468172807A10219E
:10D190008843014668468172807A410849006846A2
:10D1A0008172A96800F048FF0746142104A8FDF722
:10D1B000F4FF03A8049002A80590684607830021A5
:10D1C0004183018B81830890E08822460E3204A9B6
:10D1D000A3DF0646002E03D03046ACE70020E081F6
:10D1E0000020A8E7192A000008290000F3B593B031
:10D1F0000D461F21129111911398002818D01398F1
:10D20000FFF736FA044600BF002C02D0204615B0C6
:10D21000F0BD00BF12AA09A91398FFF723F904462D
:10D2200000BF002C01D02046F1E700BF09AE02E0AC
:10D23000002600201290002D17D028460FF0F3FA98
:10D24000044600BF002C01D02046E0E700BF11AA31
:10D2500001A92846FFF706F9044600BF002C01D0BB
:10D260002046D4E700BF01AF02E000270020119064
:10D2700010A88088C3B210A80089C1B23A463046CF
:10D2800072DFC4E710B5044600BF2046FFF7AEFBCF
:10D2900000BF10BDF8B504460F4615461E46002CCB
:10D2A00001D0002D01D10E20F8BD01205749087092
:10D2B000002057490870202229465648FDF754FFA0
:10D2C000554806605549069808600020C0435449F7
:10D2D000088007215348FDF760FF3C215248FDF7C5
:10D2E0005CFF207850490870A0788870E078C8709A
:10D2F00060784870084662692169426101610146AF
:10D30000E268A068CA6088600846E269A169C261F3
:10D310008161606A00281BD04448434948624449FF
:10D320008160606A00884049496A0880606A808834
:10D330003D49496A8880002005E0616A8968095C86
:10D340003B4A1154401C3849496A89888142F4D8C3
:10D35000A06A002824D03749374881603249886262
:10D3600034493148806A8160A06A80882E49896A80
:10D370008880A06A00882C49896A0880002005E01E
:10D38000A16A8968095C2B4A1154401C2649896AA4
:10D3900089888142F4D82C20015D23482030017314
:10D3A000206A00280BD025481F490862206A40885F
:10D3B000096A4880206A00881B49096A08806068F9
:10D3C000002802D0184960684860002008E0C100C9
:10D3D000091A1B4A89181B4A12688300D150401C45
:10D3E0000828F4DB002007E00101174A8A181549D4
:10D3F00089688300CA50401C0828F5DB39460A4872
:10D40000FFF7F4FE009000984EE700005421002042
:10D41000572100206C270020682100206C2100206B
:10D4200064210020582100208C270020C8270020DC
:10D43000D427002000280020F427002060210020AD
:10D4400060280020742100209828002010B5044690
:10D450002088102804D0112806D01B280CD107E002
:10D4600020460AF065FB08E020460AF0B9FB04E01C
:10D4700020460AF015FF00E000BF00BF10BD00000D
:10D4800070B50546022D02D0032D18D100E000BF73
:10D490000C480078002811D000200A4908700A487A
:10D4A000007800F059F80446002C07D007480068BF
:10D4B000002803D0204605490968884700E000BFDE
:10D4C00000BF70BD55210020572100206C21002095
:10D4D00010B5044607480078002801D1082010BD87
:10D4E000002004490870072221460348FDF73CFE4E
:10D4F0000020F4E75F2100205821002010B574DFE0
:10D5000001201149087006201049C87000210F48F9
:10D51000FFF76CFE0446002C01D0204610BD03200E
:10D520000B4908700846007800F016F80446002CF5
:10D5300007D008480068002803D02046054909683C
:10D5400088470020EAE70000702100208C27002097
:10D55000572100206C21002070B586B005465C483C
:10D560000078002802D1082006B070BD5948057027
:10D5700003F0C4FF002804D00120574908700020A0
:10D58000F2E707215548FDF708FE55484078002886
:10D5900003D05048007801280FD0514880780028E7
:10D5A00003D04C480078012807D04D4880780028E7
:10D5B00012D04848007802280ED14A480068002856
:10D5C00007D0012048490870082046490968884763
:10D5D00002E00020444908702846FFF70BF83D4957
:10D5E000087040480068002817D0084600780328D3
:10D5F00003D00846007804280FD139480078002865
:10D600000BD03A480078002807D10120384908702B
:10D61000072034490968884702E00020344908702F
:10D6200018216846FDF7B9FD0021684601700172B6
:10D63000284800780300FEF79FFB051804090E1325
:10D640001C0068460EF0C2FB044613E068460EF06C
:10D65000CDFB04460EE068460EF0DEFB044609E012
:10D6600068460EF011FC044604E0002021490870D1
:10D6700000E000BF00BF17480078002806D06846C9
:10D6800073DF0446002C17D020466DE71A48007857
:10D69000002811D0002018490870FEF7BFFE06468A
:10D6A000164906F064FA002803D01449491E0020E8
:10D6B00070DF002000F064FE0A480068002804D0F3
:10D6C0000C48007807490968884700204CE70000AB
:10D6D00054210020572100205521002058210020EE
:10D6E0006C270020682100205F210020702100208D
:10D6F00071210020562100207F200020AA20002038
:10D70000FFB581B007460D461E4616480078002832
:10D7100002D1082005B0F0BD00201249087012495E
:10D720000D710E7300240AE00F4A1268A300D0584E
:10D73000E200121BD1190722FDF716FD641CAC4252
:10D74000F2D300240AE0084A9268A300D0582301CB
:10D75000039A99181022FDF707FD641CB442F2D316
:10D760000020D7E77121002074210020F8B504467D
:10D770000D46002C01D0002D01D10E20F8BD2868E7
:10D7800020600020C043608228792075FF2020742B
:10D7900000BF0121684681700849018000BF221D39
:10D7A00069460120A0DF0646002E01D03046E5E79D
:10D7B00029462046FFF736FCE0E700000F1800007E
:10D7C00070B505460C46002D01D0002C00D170BD6F
:10D7D0002088102804D0112807D050280FD109E044
:10D7E000214628460AF07CF90AE0214628460AF03C
:10D7F000EDF905E0214628460AF0A8FD00E000BF4B
:10D8000000BF00BFE3E7000038B504460822214608
:10D810000D48FDF7A9FC0C487ADF0546002D10D114
:10D820000A4805F04DFD00280BD009484069002842
:10D8300006D001200090064841696846884700BF2D
:10D840000025284638BD00008421002090210020BA
:10D850001829002070B505461C2229461448FDF7FA
:10D8600083FC002013490870286800280BD0082288
:10D8700011482968FDF778FC0F487ADF0446002C30
:10D8800008D0204670BD0C487BDF0446002C01D038
:10D890002046F7E70020C0430849088000200849D7
:10D8A0000870084A00210848FFF776F9EAE7000007
:10D8B0001829002098210020842100208E2100209A
:10D8C0008C210020A9D7020058E2020010B50446BE
:10D8D0002088102806D0112808D012280ED05028F1
:10D8E00010D107E020460AF0CBF80CE020460AF001
:10D8F0004BF908E020460AF0FFFC04E020460AF05D
:10D90000B3F800E000BF00BF10BD000010B5044632
:10D910000348027D011D20460DF0FEFE10BD0000F3
:10D920005429002010B504460348C17D2246001D3D
:10D930000DF0DCFE10BD00005429002010B5044697
:10D940000348017E2246001D0DF0D0FE10BD0000F0
:10D950005429002070B504462088102804D01128CE
:10D960001ED01A283FD11FE00DF03CFAA0880DF020
:10D97000A1F8002804D100BF0420FFF737F80EE01B
:10D98000A07D022801D1012000E000200546A288E8
:10D990002B461649084612380DF0E1FE00BF22E082
:10D9A000A0880DF041FA1EE0207A0009012801DD6F
:10D9B000012000E000200346A2880C49491C0846CB
:10D9C00013380DF0CCFE207A0009022801DD012079
:10D9D00000E000200346A2880449891C0846143848
:10D9E0000DF0BDFE00BF00BF70BD00006A29002021
:10D9F00070B5044600250C48017D2246001D0DF03F
:10DA000075FE00280DD00848817D2246001D0DF0CE
:10DA10006DFE0646002E01D0022000E001200546E2
:10DA200000BF284670BD00005429002010B5002416
:10DA30000BE020460FF010FF002804D120460FF025
:10DA400001FF204610BD601CC4B2182CF1DB182069
:10DA5000F8E7000010B5044620460FF0FDFE002850
:10DA600002D00248005D10BD0020FCE76D290020B7
:10DA700070B505460C4620460FF0EEFE002806D095
:10DA80000448015D2A4615380DF030FE70BD0020B7
:10DA9000FCE700006D29002070B505460C461646CF
:10DAA00020460FF0D9FE002806D00448011933465D
:10DAB0002A4615380DF053FE70BD00006D29002078
:10DAC000FEB505460C46174620880930B84201D9F4
:10DAD0000C20FEBD684671DF0646C02168464170D5
:10DAE000022181700321C17004210171C021817163
:10DAF000012101706946002070DF00BF002E01D0B7
:10DB00003046E6E700BF0820218868542088401C82
:10DB100020801B20218868542088401C2080218878
:10DB20004819062200A90131FDF71EFB2088801D3F
:10DB3000208068460078002802D12188685402E0DD
:10DB40000120218868542088401C20800020C0E7E4
:10DB50007FB5044600BF0121684681735D4981811C
:10DB600000BF5D4A03A90120A0DF0546002D02D0B9
:10DB7000284604B070BD208800280DDD574800906D
:10DB8000228823463C335648616801F037FC05463D
:10DB9000002D01D02846ECE7208900280EDD5148F1
:10DBA0000090228923463C334D48401FE16801F034
:10DBB00025FC0546002D01D02846DAE7208A0028FA
:10DBC0000EDD49480090228A23463C334448001F1A
:10DBD000616901F013FC0546002D01D02846C8E715
:10DBE000208B00280EDD41480090228B23463C33D9
:10DBF0003B48801EE16901F001FC0546002D01D083
:10DC00002846B6E7208C00280EDD39480090228C8B
:10DC100023463C333248C01E616A01F0EFFB0546E3
:10DC2000002D01D02846A4E7208D00280EDD3148C4
:10DC30000090228D23463C332948401EE16A01F0C2
:10DC4000DDFB0546002D01D0284692E7206B002819
:10DC500013D001A8216B0EF0EEFE274823463C337B
:10DC6000082201A900901E48801F01F0C7FB05464D
:10DC7000002D01D028467CE700BF606B00280FD044
:10DC80001E480090606B027923463C3301681448BB
:10DC9000401C01F0B3FB0546002D01D0284668E783
:10DCA000A06B002813D001A8A16B0CF0B1FB1448A5
:10DCB00023463C33072201A900900948273001F090
:10DCC0009DFB0546002D01D0284652E700BF0020ED
:10DCD0004FE700000A180000002200200222002066
:10DCE000292A00000A220020122200201A220020E5
:10DCF000222200202A220020322200203A22002064
:10DD00004222002010B504462046FFF723FE20469D
:10DD10000CF0BAF8204600F0ADFB204609F0E0FD1B
:10DD20002046FFF793FB2046FFF7D0FD214604482D
:10DD300000F04CF921460348FFF742FD10BD0000FA
:10DD4000A42300201C250020FFB587B005460F4600
:10DD5000109EFF207730405B224988423DD0F01C66
:10DD600081B206916846008B082834DC00BF012090
:10DD700000BF684607740998C1B2684641740A98A2
:10DD8000C1B268468174002E04DD32461330119909
:10DD9000FDF7EAF900200090019002900390FF2027
:10DDA0005F30415B684601800121817000218180E4
:10DDB00006A8029004A80390FF217731485B6946CA
:10DDC000A6DF0446002C05D1F01C6946098B884269
:10DDD00000D00C2400E00C2400E0082420460BB006
:10DDE000F0BD0000FFFF00007CB506460C46A07A9F
:10DDF0000A2805DC207C0A2802DC207E0A2801DDB6
:10DE000007207CBD2068306060687060A07AB074C4
:10DE1000217C78208155217EDE2081550021C94357
:10DE2000FF207730815300BF012168468171474947
:10DE3000818000BF3246083201A90120A0DF0546DB
:10DE4000002D01D02846DCE72146304605F002F8D7
:10DE50000546002D01D02846D3E7207A002802D1BC
:10DE6000607A002809D021463C3130460CF056FB40
:10DE70000546002D01D02846C3E72146304605F06F
:10DE8000D1F80546002D01D02846BAE72146304694
:10DE90000AF04AFB0546002D01D02846B1E721468D
:10DEA000304603F017FA0546002D01D02846A8E7B2
:10DEB000214630460DF0BEF80546002D01D028461B
:10DEC0009FE7207A002818D03046FF304F30234695
:10DED000433308221E490090304600F027F90546DA
:10DEE000002D01D028468CE72146304600F0A2F9EB
:10DEF0000546002D01D0284683E7607A002810D01F
:10DF00003046FF305F30234640330822104911313C
:10DF10000090304600F00AF90546002D01D0284651
:10DF20006FE72146304604F08BFA0546002D01D0FC
:10DF3000284666E721463E31304604F029FA054678
:10DF4000002D01D028465CE700205AE71218000097
:10DF5000222A0000FFB587B004460E461746A07C73
:10DF6000B0422DDD0A20704321461431401806903E
:10DF7000FF207730005B144988421FD001970020B2
:10DF800002900390049005900698018868460181EC
:10DF9000012181720021818101A804900A980590D5
:10DFA000FF217731085B02A9A6DF0546002D04D1C9
:10DFB00068468088B84200D00C2500E0082500E0C3
:10DFC000072528460BB0F0BDFFFF000070B50546E1
:10DFD0000C462088102806D0112809D050280CD0D3
:10DFE000512814D10EE02146284609F07CFD0FE0AF
:10DFF0002146284609F0EEFD0AE0214628460AF0AF
:10E00000C9F905E0214628460AF033F900E000BFCF
:10E0100000BF70BD70B504460D462846FDF7C8F830
:10E020002080656070BD70B5044620460FF09FFAF1
:10E030000546E807C00F70BDF8B505460E4600243A
:10E0400032782146641C6A5472782146641C6A54F2
:10E0500000BF022C01D1012000E000200746002F64
:10E0600003D100BFFEF7C2FC00BF00BF2046F8BDD1
:10E0700070B586B028480068059000BF274B48223D
:10E08000274905A80EF010FB054600BF2E46002EBE
:10E0900004D000BF3046FEF7A9FC00BF00BF00BFA0
:10E0A0006A46012100200EF0BFFA044600BF254653
:10E0B000002D04D000BF2846FEF798FC00BF00BF2B
:10E0C00068460EF059FA044600BF2546002D04D0DC
:10E0D00000BF2846FEF78AFC00BF00BF11480EF0C3
:10E0E0003DFA044600BF2546002D04D000BF284657
:10E0F000FEF77CFC00BF00BF0B480EF02FFB044670
:10E1000000BF2546002D04D000BF2846FEF76EFC58
:10E1100000BF00BF06B070BDBCE0020081C60200B7
:10E12000FC25002005DD010025CA0200F0B58FB0F6
:10E1300005460E4617461C460020079000BF68465D
:10E14000007F01090901491C68460177007FF02121
:10E15000884310306946087700BF217868464177C8
:10E16000807F06218843811C684681771C2108A88E
:10E17000FDF713F808A8007802218843811C08A83D
:10E180000170007808218843A1780907090F002948
:10E1900001D0012100E00021C900082211400843FC
:10E1A00008A9087008A8007810218843103008A931
:10E1B0000870002009900B900C9007A80D9000208B
:10E1C0000E9000BF012168468171868000BF00204B
:10E1D0000090617868460170A178417080780621CE
:10E1E0008843811C684681708078082188430146F5
:10E1F00068468170807810218843014668468170A6
:10E2000080784108490068468170142102A8FCF713
:10E21000C4FF01A802906846039000210182418258
:10E22000878200200690288902AA08A9149BA2DFF1
:10E230000FB0F0BD30B58FB004460D461C2108A8C4
:10E24000FCF7ABFF08A8007802218843811C08A8CE
:10E250000170007808218843411808A801700078EF
:10E2600004218843001D08A90870002009900B9024
:10E270000C900D900E9000BF0121684681721E49DE
:10E28000018100BF002001904620415D6846017178
:10E290004720415D68464171807906218843811C91
:10E2A00068468171807908218843014668468171FA
:10E2B0008079102188430146684681718079410840
:10E2C000490068468171142103A8FCF766FF02A883
:10E2D000039001A80490002168468182C182012137
:10E2E00001830020079020892346FF33573303AA78
:10E2F00008A9A2DF0FB030BD322A000010B50146D8
:10E300000A4B585C00BF05242407234600BF241590
:10E310001C192469C440E407E40F002C01D001203B
:10E3200000E0002002460120504010BD02E2020041
:10E3300030B502460C49885C00BF052424072146FD
:10E3400024150C196368012484409C4305252D0283
:10E350004D19AC60012484401C4005252D024D1947
:10E36000EC6000BF30BD000000E2020010B50446C2
:10E370000249085D012108F0CDFB10BD00E202005A
:10E3800010B504460249085D002108F0C3FB10BD2A
:10E3900000E2020010B501460A4B585C00BF05249C
:10E3A0002407234600BF24151C196468C440E407F1
:10E3B000E40F002C01D0012000E0002002460120E3
:10E3C000504010BD00E202007CB500240CE009487A
:10E3D000055D002000900346012211460190284669
:10E3E00008F06EFA00BF641C022CF0D300F004F8B1
:10E3F0007CBD000000E2020010B5002403E02046CE
:10E40000FFF7B4FF641C022CF9D310BD10B5002433
:10E4100003E02046FFF7B4FF641C022CF9D310BDC3
:10E4200002460020C043002106E0054B5B5C93429E
:10E4300001D1084602E0491C0829F6D300BF704705
:10E4400002E2020070B505460C460026074805604A
:10E45000002C02D020460EF0B7FA054800680028CC
:10E4600002D1FEF70FF90646304670BD4C21002060
:10E470005021002070B505462888102802D01128A8
:10E4800032D118E01A48006800280ED101F05EFA77
:10E49000044600BF002C07D016480068002803D0AF
:10E4A000204614490968884700BF11480068401C8D
:10E4B0000F49086019E00E480068401E0C490860CA
:10E4C0000846006800280ED1FEF7DCF8044600BFBD
:10E4D000002C07D007480068002803D020460549D3
:10E4E0000968884700BF00E000BF00BF70BD0000A2
:10E4F000502100204C210020F3B581B007460025B3
:10E5000000243846FFF78CFF0446082C42D20298BC
:10E51000002825D0012802D002283AD133E060003B
:10E52000201822490D5C600020184018407800280F
:10E530000ED01F4800683222504301461D4A1E4833
:10E540000068FEF7B5FB0646002E01D1194807709A
:10E55000600020181549401880781849085518E0BF
:10E5600015480068FEF7CEFB1448005D6100611895
:10E570000E4A89188978884204D160002018114613
:10E580004018857805E06000201808494018457853
:10E5900000BF00BF002D07D009480068002803D045
:10E5A0002846074909688847FEBD00003427002037
:10E5B000342100204021002014E2020041210020EB
:10E5C0003C21002010B504462046FFF797FE10BD01
:10E5D000F0B585B005460026FA480088FA49884219
:10E5E00075D0FA480078002803D1F948007800284F
:10E5F0006ED0F8480088F84988425CDBF74800781C
:10E60000002828D1F6480078002821D0F5494B6829
:10E610000A688868C96801930092039102901A21E0
:10E620006846C1701E218170192141701821017046
:10E6300000BFED4A6946ED4807F04CFC0746002F45
:10E6400004D000BF3846FEF7D1F900BF00BF00BFBD
:10E650000120E2490870E648007800280FD11B200D
:10E6600001F0D0FB0EF05EFDE2480078002803D0F8
:10E67000E04800780FF03CF90120DD490870DE48E1
:10E680000078002814D10022FF210731DB48006800
:10E69000FEF70EFB044600BF2746002F04D000BF44
:10E6A0003846FEF7A3F900BF00BF0120D249087029
:10E6B0000020C8490880142D7ED00ADC042D7CD0AF
:10E6C000072D7BD00A2D0FD0132D78D1E1E022E168
:10E6D00061E2152D06D01C2D72D01D2D71D01E2D7E
:10E6E000F3D100E016E115E10020C5490880B648E5
:10E6F0000BF0BAFB06460CE0C14801880088401CBC
:10E70000BF4A10804800BF490E5230460AF03AF91D
:10E710000646AD488642EFD10DF0EEFB0120BA4926
:10E7200008701321A748008876DF0446AB480078BC
:10E73000002824D1AA48007800281DD0A94B103306
:10E740000FCB6F460FC71A216846C1701E2181701A
:10E75000192141701821017000BFA34A6946A348DE
:10E7600007F0B8FB0746002F04D000BF3846FEF77D
:10E770003DF900BF00BF00BF0120984908709C48C8
:10E78000007800280FD11B2001F03CFB0EF0CAFCE2
:10E7900098480078002803D0964800780FF0A8F831
:10E7A0000120934908709448007800281BD100226A
:10E7B000FF210731914805E08BE018E018E0A8E060
:10E7C00077E096E00068FEF773FA044600BF27463C
:10E7D000002F04D000BF3846FEF708F900BF00BF85
:10E7E00001208549087000207A49088092E091E074
:10E7F0008648007802280AD17E480078401CC0B2C2
:10E800007C49087005280CDB0120087009E0794874
:10E810000078401CC0B277490870042801DB012051
:10E820000870744800784000401E794908706B48B1
:10E830000078002829D16A480078002822D0694B46
:10E8400020331A6859689868DB6803930092019135
:10E8500002901A216846C1701E21817019214170F1
:10E860001821017000BF604A6946604807F032FB1A
:10E870000746002F04D000BF3846FEF7B7F800BFA8
:10E8800000BF00BF01205549087001206149087090
:10E8900040E04C4800884C49884209D05E480078E6
:10E8A000082108435C4908700846007806F060FBC0
:10E8B00030E0444800884449884209D056480078EE
:10E8C00008218843544908700846007806F050FB38
:10E8D00020E03C4800883C49884209D04E480078F6
:10E8E000102108434C4908700846007806F040FBA8
:10E8F00010E0344800883449884209D046480078FE
:10E9000010218843444908700846007806F030FB1F
:10E9100000E000BF3FE1152D48D12E4800882E4968
:10E92000884242DB2D480078002829D12C48007805
:10E93000002822D02B4B30335A6899681868DB685E
:10E9400003930192029100901A216846C1701E2122
:10E950008170192141701821017000BF224A694657
:10E96000224807F0B7FA0746002F04D000BF384608
:10E97000FEF73CF800BF00BF00BF01201749087038
:10E980000022FF2107311D480068FEF791F9044677
:10E9900000BF2746002F04D000BF3846FEF726F8F8
:10E9A00000BF00BF00200B490880B0E0132D7DD0D0
:10E9B0000A2D7BD100201249088003480BF054FA3D
:10E9C000064638E098200020FFFF00007C20002051
:10E9D0007E2000206A20002071020000812000209B
:10E9E0008D200020C0E0020079C7020048E002004C
:10E9F00085200020B72000207A20002050E002006F
:10EA000094200020902000207F200020242100203E
:10EA1000B82000208E200020A520002096480188E4
:10EA20000088401C944A1080480094490E52304699
:10EA300009F0A8FF064692488642EFD10DF05CFA35
:10EA400090480078032808D08E480078042804D025
:10EA500001208D490870FEF751FD8C480078002890
:10EA600023D18B48007800281CD08A4B0FCB6F46EF
:10EA70000FC71A216846C1701E218170192141708B
:10EA80001821017000BF844A6946844807F022FAC1
:10EA90000746002F04D000BF3846FDF7A7FF00BF90
:10EAA00000BF00BF01207949087000E02FE07C48DA
:10EAB000007800280FD11B2001F0A4F90EF032FBE2
:10EAC00078480078002803D0764800780EF010FFD0
:10EAD00001207349087074480078002814D100227E
:10EAE000FF21073171480068FEF7E2F8044600BFD5
:10EAF0002746002F04D000BF3846FDF777FF00BF40
:10EB000000BF012068490870002069490880284634
:10EB100010380300FDF730F90C071523313131317E
:10EB200031310E1C2A3163480078012108436149C4
:10EB3000087023E05F480078400840005D49087095
:10EB40001CE05C480078022108435A49087015E02F
:10EB50005848007802218843564908700EE055480D
:10EB60000078042108435349087007E051480078B1
:10EB7000042188434F49087000E000BF00BF4148AE
:10EB80000078002807D10A2D05D03F4800780028DA
:10EB900001D1FDF7EBFD48480078002867D04548D3
:10EBA0000078072803D04348007800285FD0404809
:10EBB00000884249884256DB34480078002829D131
:10EBC00033480078002822D0324B10335A689968B5
:10EBD0001868DB6803930192029100901A2168463D
:10EBE000C1701E218170192141701821017000BF70
:10EBF000294A6946294807F06DF90746002F04D0D5
:10EC000000BF3846FDF7F2FE00BF00BF00BF012085
:10EC10001E4908702248007800280FD11B2001F0FF
:10EC2000F1F80EF07FFA1F480078002803D01D4845
:10EC300000780EF05DFE0120194908700022FF21C6
:10EC400007311A480068FEF733F8044600BF27462C
:10EC5000002F04D000BF3846FDF7C8FE00BF00BF3C
:10EC600000201349088001201549087002E00020A7
:10EC70001349087005B0F0BD9420002090200020BA
:10EC8000FFFF0000562100207F200020812000206F
:10EC90008D20002000E1020079C7020048E0020058
:10ECA00085200020B72000207A20002050E00200BC
:10ECB0006A200020A52000207C2000207102000096
:10ECC0008020002070B503460020082B2DD2012A99
:10ECD00007D1012903D11C460E34E4B200E0002420
:10ECE0002246002918D0012902D002291AD10DE0AC
:10ECF0005C001C190E4D2A55012B06D91446093407
:10ED00005D005D190A4EAD19AC700DE05C001C1978
:10ED1000074D6419627007E05C001C19044D64190A
:10ED2000A27001E0072000BF00E0072070BD0000D6
:10ED30003427002070B50446002506480078C00737
:10ED4000C00F002803D0204600F064F8054628468E
:10ED500070BD000038210020F7B505460E4600249E
:10ED60002248066022480560224902980860022075
:10ED70002840002822D0022706E00122114638460A
:10ED8000FFF7A0FF04467F1C082F01D2002CF4D00F
:10ED9000002C05D1720808211748FDF799FD04469B
:10EDA000002C02D1FDF77EFD0446002C05D1134A4C
:10EDB00000211348FDF7F0FE044600BFE807C00F2E
:10EDC000002801D0FFF700FB002C05D10D4A0021DF
:10EDD0000D48FDF7E1FE0446002C05D10B4A012148
:10EDE0000B48FDF7D9FE04462046FEBD3421002025
:10EDF000382100203C21002018E202003DF20100F1
:10EE000014E202003D3402000CE2020071C801006D
:10EE100010E20200F8B5044600250026A848007854
:10EE2000002804D00020A6490870FFF7E5FA230067
:10EE3000FCF7A2FF190EF01347487677858B99A946
:10EE4000B7C7F1F2F3F4F5EAE9E8E7E6CCE5F0005C
:10EE5000FFF7D2FA9B4804702EE10020FFF79AFAE0
:10EE600000280ED098480078002801D1FFF77EFADC
:10EE7000022C02D1FF20F53001E07D204001064642
:10EE80000DE091480078002801D1FFF779FA022CB3
:10EE900002D1FF20F53001E0FF209130064689487D
:10EEA000047064213046FCF731F988490968484309
:10EEB00007460022394686480068FDF7F9FE0546F8
:10EEC000FAE0F9E00020FFF765FA00280BD00020F7
:10EED000FFF74CFA042C02D17D20400101E07D2097
:10EEE000400106460AE00020FFF74AFA042C02D14E
:10EEF000FF20913001E0FF209130064671480470F8
:10EF000064213046FCF702F9704909684843074616
:10EF1000002239466E480068FDF7CAFE0546CBE080
:10EF2000CAE00020FFF704FA664804706748002230
:10EF3000016867480068FDF7BBFE0546BCE000209D
:10EF4000FFF714FA5F480470B6E001205C490870CE
:10EF5000FFF7EEF95D48002201685D480068FDF7A3
:10EF6000A7FE0546A8E0012055490870FFF7E0F923
:10EF70005648006882008118002255480068FDF755
:10EF800097FE054698E001204D490870FFF7D0F93B
:10EF90004E48002201684E480068FDF789FE05468C
:10EFA0008AE0012046490870FFF7C2F94748006827
:10EFB00082008118002246480068FDF779FE054668
:10EFC0007AE0FFF723FA3F48047075E04148006893
:10EFD000FDF798FE0546002D0DD13C4800688200E3
:10EFE000811800223B480068FDF762FE05460020BC
:10EFF000FFF7C6F902E00020FFF7B8F95CE055E042
:10F0000053E047E03EE035E02FE008E006E004E0B2
:10F0100002E000E04FE000BF00BF00BF00BF2D488E
:10F020000068FDF76FFE05461120061B002E18D064
:10F03000002D16D1012E10D9C82171430846642134
:10F04000FCF764F82149096848430746002239461D
:10F0500020480068FDF72CFE05460220FFF790F9D6
:10F0600002E00220FFF782F926E0FFF7C5F9154814
:10F07000047021E0FFF7C0F90020FFF781F9114883
:10F08000047019E0FFF7B8F90120FFF779F90D488E
:10F09000047011E0FFF7B0F90020FFF771F90120CB
:10F0A000FFF76EF90748047006E000BFFFF7AEF9FE
:10F0B0000448047000E000BF00BF2846F8BD00000F
:10F0C0003121002030210020832000203421002025
:10F0D0000CE2020010E202000246002901DA0020E0
:10F0E00003E013685B18136001207047F0B585B02A
:10F0F00004460D46641C0127012003900020029065
:10F1000002A8FDF71BFE1F48006828601D48006824
:10F110001C494968411A1B488068401C461AE0197E
:10F1200001900198B04221D9002E1CD016480068E9
:10F13000009000988005800D144909688902890AA9
:10F140008902084300900F48009A00680D49096839
:10F15000491C0C4B19601946896808408100184603
:10F160000C30425000BF0020039004E005480068C6
:10F170000019044908606846007AFDF709FE039803
:10F1800005B0F0BD60300020F8E30200D02200207E
:10F190000448406803490968884201D1012070474A
:10F1A0000020FCE76030002070B504460D461120B9
:10F1B00006F086FA122006F083FA132006F080FA91
:10F1C000142006F07DFA152006F07AFA162006F0D3
:10F1D00077FA172006F074FA11480078002804D155
:10F1E00000F052FA01200E49087000200D49086015
:10F1F0000D4908800D480078002805D10C4806F01C
:10F20000CDFF0120094908700A480078002805D080
:10F21000094806F08DFD00200649087070BD000009
:10F2200087200020242000206C200020882000203F
:10F2300014E002008620002024E0020010B50446FD
:10F2400020780221FFF758F910BD0000F8B50546F7
:10F25000134A14490320FFF77FFD044600BF2646EA
:10F26000002E04D000BF3046FDF7C0FB00BF00BF3A
:10F2700069460020FFF7E6F8044600BF2646002E48
:10F2800004D000BF3046FDF7B1FB00BF00BF6846A9
:10F290000078022801D1012000E000202870F8BD8C
:10F2A000D1E501008F02000030B502460B46022175
:10F2B0000EE08D0014462C412007000F092802DDC6
:10F2C0000446373401E00446303401256D1A5C559C
:10F2D0000C46491E002CECD130BD000001460868E8
:10F2E0000D4A024012090C4BDB4303401B011A4339
:10F2F00010460A4A02409208084BDB4303409B0039
:10F300001A431046064A02405208054BDB430340AD
:10F310005B001A4310467047F0F0F0F0CCCCCCCC38
:10F32000AAAAAAAA01468879012808D10879012841
:10F3300005D14888034A904201D10120704700203E
:10F34000FCE70000022900000021C9438200054BB0
:10F350009950042804DB0B46011F024A50325354D3
:10F3600070470000C82D002001468800014A10584F
:10F3700070470000C82D0020F7B585B00B4600206F
:10F38000C0430490002A01D0002000E00420039034
:10F39000002A01D0042000E00C20029003991EE016
:10F3A0008800124C2058401C002817D10846059CA4
:10F3B0000093019246B20D4D30352E5585000B4E0F
:10F3C000009B7351019A002A04D166B2051F074FB2
:10F3D00050377E5500BF48B2049003E0491C0298A4
:10F3E0008142DDD300BF049808B0F0BDC82D0020D5
:10F3F0000146014840567047F82D0020F0B58FB007
:10F4000007460D4614461E4600BF002D01D00120C0
:10F4100000E0002000900098002803D100BFFDF715
:10F42000E5FA00BF00BF00BF002C01DD012000E0B5
:10F43000002000900098002803D100BFFDF7D6FA05
:10F4400000BF00BF1C2107A8FBF7A7FE6946087F85
:10F4500002218843801C69460877002008900A90A2
:10F460000B900C900D9000BF012108A88176684692
:10F47000078700BF002001903178684601717178DC
:10F480004171807906218843811C684681718079A9
:10F49000082188430146684681718079102188439C
:10F4A000014668468171807941084900684681714A
:10F4B000142102A8FBF771FE0EA8029001A8039088
:10F4C00068460482002141828482069502AA07A927
:10F4D00002480088149BA2DF0FB0F0BD002200207C
:10F4E0000146002907D00548884204D804488842CC
:10F4F00001D9012070470020FCE700002C230020E8
:10F500007C23002070B505460E46002407E0E1008C
:10F51000685803F070FF002800D170BD641CB4422D
:10F52000F5D30120F9E700000A49496C00290FD002
:10F530000849096CC900074A891801601146096C1D
:10F54000491C4907490F11641146496C491E516411
:10F5500070470000742F0020064902688A4203D0D9
:10F56000016808310160704702493839016000BF05
:10F57000F9E70000AC2F00200178022902D00178C1
:10F5800003290BD106490A6C817D5118044A116484
:10F5900011464A6C817D511A014A5164704700003E
:10F5A000742F0020F8B504460D46104E30468442B4
:10F5B0000BD1FF21013128460AF00AFC0646FF2044
:10F5C000013086420FD126460DE0FF2C0BDC214690
:10F5D00028460AF0ECFB0746002F01D0204600E049
:10F5E0000248064600BF3046F8BD0000FFFF00009D
:10F5F00010B5FF201430104908601049C87C10492C
:10F60000096888470F481049486000200F49086181
:10F6100001200F49086100BF0C4800690028FBD099
:10F6200000200A490861FF201830034908600120C2
:10F630000749486010BD00000012004078340020E7
:10F64000242300205A3700200015004000110040FC
:10F650000010004070B50546002D01D1094C01E0B5
:10F66000084C08340AE0204603F0CEFE0646002E81
:10F6700000D104E028467168884700BFF3E700BF67
:10F6800070BD0000BC2D002000200549086001204D
:10F690008107086000BF024800680028FBD070475F
:10F6A00000010040FEB51F480068002836D01D4804
:10F6B000006805680BF008FE01901B4804682146AD
:10F6C00001980DF021FAC61C18480078002801D1D5
:10F6D0000BF00CFEAE4201D2284600E03046041981
:10F6E0002402240A20460BF0E9FD0BF0EDFD00900A
:10F6F000019900980DF008FAC71C204601990DF0F9
:10F7000003FA874209D90BF0DFFD07460BF0D6FD5F
:10F710002F2005F047FE0DF065FC01E00BF004FE24
:10F72000FEBD0000882200208C220020A0220020A4
:10F7300001460888062808DB08881922D201904271
:10F7400005DD0888104A904201D00720704748889C
:10F75000062808DB48881922D201904205DD488836
:10F76000094A904201D00720F0E70888064A9042F3
:10F7700008D04888904205D008884A88904201DD28
:10F780000720E3E70020E1E7FFFF0000FFB581B0BD
:10F7900006460D4614462088801D0499884202D9E9
:10F7A0000C2005B0F0BD3046FFF7C2FF074600BF92
:10F7B000002F01D03846F4E700BF052021886854A7
:10F7C0002088401C20801220218868542088401CFA
:10F7D00020802288511930880DF0CFFE21884018F2
:10F7E00020802288511970880DF0C7FE21884018AA
:10F7F00020800020D5E710B5044600BF2046FDF765
:10F80000F5F800BF10BD000030B587B01C21684678
:10F81000FBF7C3FC002000900520C00301900F20DF
:10F82000000402900321684601730021C181017424
:10F8300000200590084806906846FEF70BF804463D
:10F8400000BF2546002D04D000BF2846FDF7CEF8A6
:10F8500000BF00BF07B030BDF7F7010038B51F4843
:10F8600003F02EFD002829D11D48007800280AD079
:10F870001C484069002820D00020009019484169A8
:10F880006846884719E018480078002802D11548D2
:10F89000456801E01348856800222946134800683E
:10F8A000FDF706FA0446002C07D00E4880690028B0
:10F8B00003D00C488169204688470AE0094840691E
:10F8C000002806D001200090064841696846884714
:10F8D00000BF00200249087038BD000090210020C0
:10F8E00098210020182900208C21002058E20200D5
:10F8F0003EB504462088FEF715F800281AD0208867
:10F900000F490978FEF7B4F8002805D120880022B5
:10F910000C490978FEF7C0F8218868464180052126
:10F9200001702088FEF70AF869460871684601F000
:10F930002DFA04E020880122034900F049FA3EBD77
:10F94000E7210020E62100200610000010B50A2261
:10F9500002210020FFF7B6F9044600BF002C03D0B7
:10F96000072C01D0204610BD00BF07220021012036
:10F97000FFF7A8F9044600BF002C03D0072C01D0E4
:10F980002046F0E700BF042202210120FFF79AF988
:10F99000044600BF002C03D0072C01D02046E2E72C
:10F9A00000BF0020DFE7000070B506460D46002EC0
:10F9B00001D0012070BD2879002804D0012809D089
:10F9C000022811D10EE028460BF0E2F8044602208E
:10F9D00028710BE0284601F0BBFC04460A2C00D13C
:10F9E000044C03E0034C01E00F2400BF00BF20469D
:10F9F000E0E700001D1D000010B503211C2006F0EB
:10FA00009EFF03211D2006F09AFF244A01210020B9
:10FA100007F0A0F81C2006F0C7FF00211C2007F00B
:10FA200039F81D2006F0C0FF00211D2007F032F834
:10FA30001A480068010F032088430446002C06D0B2
:10FA4000012C0DD0022C15D0032C24D11AE001205A
:10FA500013490870002013490870134908701BE00F
:10FA600000200F49087001200E49087000200E493F
:10FA7000087011E001200A4908700A4908700A4913
:10FA8000087009E000200649087006490870012046
:10FA90000549087000E000BF00BF10BD1C20002019
:10FAA000E91F0020EA1F0020EB1F0020F8B5002509
:10FAB00035E0E8001C490968441821780120884095
:10FAC00006461A4800683040002826D017480068CB
:10FAD000B04316490860207805F0FCFE07462178FF
:10FAE000012088401249096808402278394691402F
:10FAF000884211D16078012800D100E000207840D0
:10FB00000121484000906068002804D0009BD9B2D1
:10FB100020786268904700BF00BF681CC5B20548E6
:10FB200000788542C5DBF8BD5C2200206C220020F5
:10FB3000682200206022002030B593B00221684680
:10FB400001711E49C1801E4901810121418140216D
:10FB500003A8FBF722FB1BA103A8FEF75BFA01A891
:10FB6000119000BF10A8007A01090901491C10A8D2
:10FB70000172007AF0218843203010A9087200BF7A
:10FB800000BF12A840780009000112A9487012A80D
:10FB90004078F021884312A9487000BF03A8FDF700
:10FBA000D7FF044600BF2546002D04D000BF2846DD
:10FBB000FCF71CFF00BF00BF13B030BDAC05000058
:10FBC0004F0200004E6F7264696353656D69636F25
:10FBD0006E647563746F720070B5044620793D28B9
:10FBE00001D1054801E011200002054620880022CD
:10FBF000294603F0C5FD70BD3D10000070B50E48EC
:10FC00000078401C0C490870084600780007000F77
:10FC100008700A49084A1278885C06F0E1FC04463C
:10FC200000BF2546002D04D000BF2846FCF7DEFEAD
:10FC300000BF00BF70BD0000ED1F002004E0020007
:10FC400070B50024182006F0BBFE0021192006F034
:10FC500083FE00211E2006F07FFE002512E0002119
:10FC6000182006F037FF0121182006F033FF60004E
:10FC700044B21E2006F0E8FE002801D00120044313
:10FC8000681C45B2082DEADB204670BD70B50446FD
:10FC9000182006F095FE1E2006F092FE0021192085
:10FCA00006F05AFE002518E00021182006F012FF89
:10FCB00080202040002804D001211E2006F00AFFE9
:10FCC00003E000211E2006F005FF6006040E01215E
:10FCD000182006F0FFFE681CC5B2082DE4DB0021E9
:10FCE0001E2006F0F7FE70BD014614480078144A45
:10FCF000127890421DD011480078401C0F4A1070B5
:10FD000010460078022801D1002010700B480078BE
:10FD100080000C4A105808600B4A08681268801866
:10FD2000094A1060104600680002000A10600120B5
:10FD300070470020086000BFFAE70000982200200A
:10FD400099220020902200208C220020F8B5044641
:10FD50000D4628882070FF210902014009126170B8
:10FD600002210E46AA783146761C6254EA78314662
:10FD7000761C625400BF042E01D1012000E0002057
:10FD80000746002F03D100BFFCF730FE00BF00BFC5
:10FD90003046F8BDF8B505460E4600240627062075
:10FDA000009039460948FBF7F8F900BF0AE0204601
:10FDB0000099FBF7C1F9705C295D4840034908557B
:10FDC000601CC4B2BC42F2DB0048F8BD2721002011
:10FDD000FEB504460D461646084A07CA6B4607C3D9
:10FDE0006846448085808671002205480178204657
:10FDF000FDF752FE684600F0C9FFFEBDCCE20200EE
:10FE0000E621002070B504465A2109200DF0DAFEE3
:10FE100006200AF011FEC5B26D076D0F132C06D136
:10FE200008202843014606200DF0CCFE03E02946B9
:10FE300006200DF0C7FE21464B200DF0C3FE002129
:10FE400009200DF0BFFE70BD10B504465A210920EF
:10FE50000DF0B8FE214605200DF0B4FE002109206A
:10FE60000DF0B0FE10BD0000F0B591B000200E9076
:10FE70000D9008200C9000200B900A90099000270C
:10FE80000890079000260690012005900020F84970
:10FE90000860F8490880F8490880F8480078002888
:10FEA0006AD0F7480078012807D1F6480078F6496B
:10FEB0000870F448407848702BE0F148007800283A
:10FEC00027D00027EF4880780790012610E07000C7
:10FED0003018801CEB49095C0798814206DB7000F2
:10FEE0003018801CE749085C07903746701CC6B282
:10FEF000E34800788642EADB78003818E149085C7C
:10FF0000E149087078003818401CDE49085CDE4979
:10FF10004870DD49487804F085FBDB480178002013
:10FF200006F002FC054600BF002D02D0284611B0A5
:10FF3000F0BD00BF1F2464032078D34909788842AC
:10FF400007D12079D0494978884202D1207ABC284B
:10FF500011D0204601F0DEFACB480178204601F0AE
:10FF6000F5FAC9484178201D01F0F0FABC2120467D
:10FF7000083001F0EBFA90E01F246403207ABC28DB
:10FF80007DD0112005F09CFB122005F099FB132079
:10FF900005F096FB142005F093FB152005F090FB6F
:10FFA000162005F08DFB172005F08AFBB74806F0F8
:10FFB000E5F80020B6490870B6480078002827D137
:10FFC000B5480078002820D0B44801460EC9C06862
:10FFD00001AD0EC504901A216846C1711E218171C0
:10FFE000192141711821017100BFAD4A01A9AD4825
:10FFF00005F070FF00900098002804D000BF009822
:020000040002F8
:10000000FCF7F4FC00BF00BF00BF0120A14908704D
:10001000A5480078002805D01320FFF7F3FE002044
:10002000A14908709B480078002809D09A480078B8
:10003000002802D09B4806F019F800209549087066
:100040009A480078002808D005F024FD0020974940
:10005000087001F0D3FF96490860964800780028A0
:1000600004D000209349087005F042FA06E006E04B
:1000700006F05EFF002801D10CF03AFDF8E7207988
:1000800004F0D0FA2178002006F04EFB054600BFB0
:10009000002D01D028464AE700BF0020864948715C
:1000A000084640790221084383494871002182486B
:1000B0008171C171017241728172C1727F48417850
:1000C0007D4801737D4881787B48417309207A49D6
:1000D000087001207A4908707749C8700020794972
:1000E000487097E37848007800287DD06F48007802
:1000F000002820D101F082FF6D49096888421AD09A
:100100007249002005F052FC054600BF0495049D8D
:10011000002D04D000BF0498FCF768FC00BF00BFAE
:10012000002007F0CDF805F02DFC01205F49087094
:1001300000204F4908604E4800686549884275D3E1
:100140000021112005F0ECFA0021122005F0E8FA58
:100150000021132005F0E4FA0021142005F0E0FA54
:100160000021152005F0DCFA0021162005F0D8FA50
:100170000021172005F0D4FA444805F0FFFF0020C5
:10018000434908703A49086048480078002808D078
:1001900005F080FC00204549087001F02FFF44491C
:1001A000086044480078002804D0002041490870C5
:1001B00005F09EF90021112005F0B2FA002112206D
:1001C00005F0AEFA0021132005F0AAFA0021142050
:1001D00005F0A6FA0021152005F0A2FA002116204C
:1001E00005F09EFA002100E0D1E1172005F098FA11
:1001F00038480078002805D0012081074860002099
:100200003449087034480078002808D1334805F094
:100210009FFD324805F086FD01202F49087000201F
:100220002F490880BC20FFF70FFEAFE0B0E006F0DA
:100230007FFE002801D1FBF763FA01F0DFFE1C49C5
:100240000968884204D003211120FEF7ADFF9EE02B
:100250000F480078002845D01F480078002805D0B6
:100260001E4805F065FD00201B4908708FE0000066
:1002700024200020942000206C2000201620002044
:1002800028200020382000203220002014E0020026
:1002900088200020812000208D20002074E10200B1
:1002A00079C7020048E00200852000208420002059
:1002B0001820002082200020EE1F0020A92000200E
:1002C00013200020783400202A200020D5A5020029
:1002D000EE020000872000208620002024E002009B
:1002E00078200020FE4800884B21890188424DD1AA
:1002F000FC480078002827D1FB480078002820D04F
:10030000FA4801460EC9C06801AC0EC404901A2117
:100310006846C1711E218171192141711821017135
:1003200000BFF34A01A9F34805F0D4FD00900098FE
:10033000002804D000BF0098FCF758FB00BF00BFA6
:1003400000BF0120E7490870EB480078002805D07D
:100350001320FFF757FD0020E7490870E1480078B7
:10036000002809D0E0480078002802D0E14805F0D4
:100370007DFE0020DB490870E0480078002805D0A9
:10038000DF4805F0D5FC0020DC4908704FE7A7E006
:10039000DC480068FF217831884209D3DA480088B8
:1003A000FF21F5318842F2D1D848D649086097E05C
:1003B000CC480078002828D1CB480078002821D0EC
:1003C000CA48103001460EC9C06801AC0EC4049082
:1003D0001A216846C1711E218171192141711821AC
:1003E000017100BFC24A01A9C24805F073FD009027
:1003F0000098002804D000BF0098FCF7F7FA00BF6F
:1004000000BF00BF0120B7490870BB480078002832
:100410000FD11B20FFF7F6FC0CF084FEBC480078DF
:10042000002803D0BA4800780DF062FA0120B249E2
:100430000870B8480078002852D00020B5490870EC
:10044000B548007802280AD1B1480078401CC0B2F3
:10045000AF49087005280CDB0120087009E0AC48A2
:100460000078401CC0B2AA490870042801DB0120B2
:100470000870A74800784006000EA84908709948FF
:100480000078002828D198480078002821D0974883
:10049000203001460EC9C06801AC0EC404901A2178
:1004A0006846C1711E2181711921417118210171A4
:1004B00000BF8F4A01A98F4805F00CFD00900098FD
:1004C000002804D000BF0098FCF790FA00BF00BFDE
:1004D00000BF0120834908708D4800780DF008FAAC
:1004E00000208F4908708448007800284FD00322EC
:1004F0000FA910A801F042FD002848D089480078D3
:10050000002804D010A80088404201B2109186480B
:100510000078002804D06846808F404201B20F91D5
:1005200082480078002816D06846808FC1B2804883
:1005300001726846808F0004010E7D48417210A848
:100540000088C1B27A48817210A800880004010EA8
:100550007748C17215E010A80088C1B274480172D2
:1005600010A800880004010E714841726846808F0F
:10057000C1B26F4881726846808F0004010E6C48DA
:10058000C1726C480078022108436A4908706948C2
:10059000007800287ED000205A490860654800781D
:1005A000C007C00F002805D062480078400840000E
:1005B000604908705F48007802210840002804D094
:1005C0005C48007888435B4908705A4800780421E9
:1005D000084000280FD057480078884355490870D4
:1005E0005348C079544909684018C1B25048C17194
:1005F00000205149086057E00020504908705049D8
:1006000008704B49C8704F494870494806F0A8F82F
:10061000002848D100BF49480078002803D1484845
:1006200000780028F7D038480088FF21F53188424B
:1006300004DA35480088401C334908803F48007878
:1006400000280FD005203F49C881002005900B905D
:100650002D49088000213648C171017241728172B2
:10066000C17222E00598002804D101200590FFF70F
:10067000C5FA19E000203349C8810B98401C0B9043
:100680000B9820280CD3002129488171C171017277
:10069000417200E010E08172C17200200B9004E012
:1006A000FFF7ACFA00E000E0A6E700BF06F040FC70
:1006B000002801D1FBF724F803210E2006F03FF9B2
:1006C000214A0121002006F045FA1F480068810BED
:1006D0000120884300287DD10E2006F065F935E021
:1006E00078200020812000208D20002084E102005D
:1006F00079C7020048E00200852000208620002003
:1007000024E00200242000206C200020F8240100B6
:10071000B72000201720002024210020B82000202E
:100720002A200020EA1F0020EB1F0020E91F0020E4
:10073000EE1F002029200020602000201320002030
:1007400014200020783400201C20002001210E20DD
:1007500006F0A0F930480088401C2F490880084660
:100760000088472850DB2D480078002827D12C48E6
:100770000078002820D02B4801460EC9C06801AC83
:100780000EC404901A216846C1711E21817119217D
:1007900041711821017100BF234A01A9234805F0C6
:1007A00099FB00900098002804D000BF0098FCF747
:1007B0001DF900BF00BF00BF0120184908701C4888
:1007C0000078002811D11B20FFF71CFB0CF0AAFCBD
:1007D000184800E00EE00078002803D015480078A3
:1007E0000DF086F8012012490870052004F087FDFD
:1007F000FBF798F80E2006F0D7F800210E2006F03F
:1008000049F900200449088006F092FB002801D134
:10081000FAF776FF66E400007020002081200020B7
:100820008D200020B4E1020079C7020048E00200F8
:1008300085200020B7200020F0B58DB000240020D6
:100840000C9008200B9000200A90099000250026AB
:1008500008900790069005900120049058E1642DBF
:100860001EDB0A2E05DB0120AB490870FDF77EFD7B
:100870004FE10998401E80B2099000280CD0002555
:100880000020A649087000260621A548FAF785FC35
:100890000120FDF74DFD03E00120FDF767FD38E184
:1008A000681C85B29F48007800287DD000209D49B3
:1008B000087001209C49C87000209C4948709A48E3
:1008C00005F04EFF00286FD100BF96480078002841
:1008D000FBD00898401CC0B2089001209349487092
:1008E00000209349087005F0ABFE002409E0904811
:1008F0000078002800D008E0012004F013FD601CFF
:1009000084B24B20C0008442F1DB00BF05F0E2FE60
:1009100087480078002878D0002004900890854807
:1009200040793428CFD18348807A834949788842F6
:100930007CD18048C17A80488078814276D17D48D8
:10094000407A00280CD07B48807975490870794836
:10095000C07948700120714908706F490870D8E06B
:10096000002427E0600020186D49095C71488079F7
:1009700081421DD160002018401C6949095C6D4806
:10098000C079814214D160002018801C6449085C41
:10099000FA280CDA60002018801C085C401CC1B2E8
:1009A00060002018801C00E03BE05D4A115403E029
:1009B000601C84B2022CD5DB00BF022C21DB57481F
:1009C000007802281DDA5B488079544909784A008A
:1009D0008918534A50545748C1795048007842000A
:1009E0008018401C4E4A115401214C4800784200A6
:1009F0008018801C4A4A115448480078401C4749D6
:100A00000870701CC6B211E0FFE70498002809D1F5
:100A1000089804280ADB0120049000200890FFF7C2
:100A2000EDF803E000200890FFF7E8F803210E201E
:100A300005F085FF414A0121002006F08BF83F4870
:100A40000068810B01208843002855D10E2005F055
:100A5000ABFF01210E2006F01DF839480088401C2C
:100A6000374908800846008847284FDB354800781A
:100A7000002828D134480078002821D0334B5A6808
:100A800019689868DB6803930192009102901A211B
:100A90006846C1701E2181701921417018210170B2
:100AA00000BF2B4A69462B4805F014FA0746002F71
:100AB00004D000BF3846FBF799FF00BF00BF00BF5E
:100AC0000120204908702448007800280FD11B20FD
