:020000040001F9
:10B00000B03F0020D5B00100EFB00100F1B0010069
:10B010000000000000000000000000000000000030
:10B02000000000000000000000000000F3B001007C
:10B030000000000000000000F5B00100F7B00100C2
:10B040001DB9010059BA0100FDBC0100A5BB0100FA
:10B05000F9B00100000000004DB40100F5B201009C
:10B06000CDBC0100E5BC0100F9B0010069BB0100E5
:10B07000F9B00100D9BA0100F9B00100F9B001003E
:10B08000F9B001007DBB010071B90100F9B0010008
:10B09000BDBB0100F9B00100C5BB0100F9BB010057
:10B0A000F9B00100F9B0010000000000000000004C
:10B0B0000000000000000000000000000000000090
:10B0C0000348854600F0B8F8004800477136020092
:10B0D000B03F00200321094802680A430260084883
:10B0E00002680A4302600748804707480047FEE7B6
:10B0F000FEE7FEE7FEE7FEE7FEE70000240500406E
:10B100005405004069BC0100C1B0010030B50B46D8
:10B11000014600202022012409E00D46D5409D4231
:10B1200005D31D469540491B2546954040191546B7
:10B13000521E002DF1DC30BD70B5002425460028DC
:10B1400001DA01244042002901DA01254942FFF7D2
:10B15000DDFFAC4200D04042002C00D0494270BD1F
:10B160000048704704DA020003460B439B0703D0F4
:10B1700009E008C9121F08C0042AFAD203E00B78BC
:10B180000370401C491C521EF9D27047D2B201E034
:10B190000270401C491EFBD270470022F6E710B532
:10B1A00013460A4604461946FFF7F0FF204610BD35
:10B1B000421C0178401C0029FBD1801A704730B531
:10B1C00004460020034600E05B1C934203D2E05C8F
:10B1D000CD5C401BF8D030BDF0B51FB40646002052
:10B1E00082B005464024019100901BE0019922465F
:10B1F0000F46304600F042F8049A059B801A9941A8
:10B2000010D310461946224600F028F8361A8F410E
:10B210000197224601200021009F00F01FF83818F6
:10B220004D4100902046641E0028DFDC019B009801
:10B230002946324607B0F0BD064C0125064E05E012
:10B24000E36807CC2B430C3C98471034B442F7D347
:10B25000FFF73AFF58DA020078DA020010B5202A28
:10B2600004DB0146203A9140002010BD914020238C
:10B270009C1A0346E3401943904010BD10B5202AA4
:10B2800004DB0846203AD040002110BD0B46D340D5
:10B29000D0402024A21A91400843194610BD70B531
:10B2A0008C180578401C6B075B0F01D10378401C9C
:10B2B0002A1106D10278401C03E006780E70401C6B
:10B2C000491C5B1EF9D12B0705D40023521E0DD457
:10B2D0000B70491CFAE70378401CCB1A921C03E060
:10B2E0001D780D70491C5B1C521EF9D5A142D8D3A4
:10B2F000002070BD0EB51D48C06800281CD1FF207D
:10B30000013009F093FB012009F098FB00BF0020F9
:10B310001749086000BF01216846017000BF14484A
:10B32000806801B26846818001201049887408460F
:10B3300001686846884718E000F0C2FF002814D072
:10B34000012009F07BFB0020694608700748C068AF
:10B3500001900648017C68460181012003498874F8
:10B36000084601686846884700BF0EBDA82E002029
:10B370000075004010B5002400F03AF81849087034
:10B3800023E018480078002802D017480AF046FA4F
:10B3900016480078030000F0D1FC07050B06070CE7
:10B3A000080D100000BF00BF00BF11F0B7FD05E0A1
:10B3B00000BF00BF00F02BF800E000BF00BF04F0AA
:10B3C00007FB00F015F806490870054800780028CA
:10B3D00004D12046611C4CB20328D2DB10BD000012
:10B3E000232100208D200020ECD602002521002002
:10B3F00010B500200EF04AFE0446302C03D0312C4C
:10B4000001D0582C01D1012010BD0020FCE710B55F
:10B4100018200AF0ADFE012118200AF033FF642045
:10B4200009F078FB002118200AF02CFF642009F0B5
:10B4300071FB012118200AF025FF012009F040FBD3
:10B44000FF202D3009F066FB10BD0000F0B58FB075
:10B4500000200E900D90FF2001300C90012600245A
:10B4600016E00C980AF08CFF00280BD000BF924821
:10B4700040683040002805D00C980AF079FF0E98FB
:10B4800030430E9076000C98001D80B20C90641C26
:10B49000042CE6D3FF207D300AF072FF00280DD087
:10B4A000FF207D300AF064FF0121C9070E98084390
:10B4B0000E900DAA012100200AF03CFF0E98000713
:10B4C000000F00282CD00126002427E00E983040E1
:10B4D000002821D000BF7948512109014018A1005E
:10B4E00040581F2109020840000A074600BF734860
:10B4F000512109014018A1004058032109040840C6
:10B50000000C0B90204603F061FD0546002D02D093
:10B5100038460B99A84700BF7600641C042CD5D38D
:10B520000E98C00FC007002876D000200B900A901C
:10B53000002505E00020C043A90009AA50506D1C59
:10B54000002DF7D000BF00200B9000247AE05C486B
:10B55000005D0890C0210898884307465848005766
:10B56000401C00286DD009A9384609F073FA00285C
:10B5700067D0C0210898084080110790384603F032
:10B5800069FD059003F022FD06900698002802D17F
:10B590000798032854D10798032815D10AA80397C0
:10B5A0000290039FF9080191039F7907490F0391C6
:10B5B00001990298415C0123039A93401943CAB24E
:10B5C0000199425400BF00BF00BF00BF0521090719
:10B5D0000846B900072212028218515803221204A9
:10B5E0001140090C05910DA9384609F033FA049071
:10B5F0000498002802D00598022805D00498002855
:10B600001DD1059803281AD10798032810D1059851
:10B61000022802D1032001E04BE0022003903846CB
:10B6200003990AF0BDFD0B98401CC0B20B9000BFFF
:10B630000698002803D03846069A0799904700BF1D
:10B6400000BF641C082C82D30B9800282CD0012743
:10B6500008AA012100200AF06DFE00250AE0A800DA
:10B6600008A90858A9000DAA5158884201D00027FE
:10B6700002E06D1C002DF2D000BF002F02D0002090
:10B680000B9010E000250CE0A80008A90858A900BC
:10B690000DAA5050A8000AA90858A90009AA50509C
:10B6A0006D1C002DF0D000BF0B98002800D04AE799
:10B6B00000BF0FB0F0BD000000630040006000401C
:10B6C000182E002020BF40BF20BF7047C206D20EF8
:10B6D00001219140014A11607047000080E200E0C2
:10B6E000C206D20E01219140014A1160704700004C
:10B6F00080E200E0C206D20E01219140014A1160B1
:10B700007047000080E100E0C206D20E01219140A6
:10B71000014A11607047000080E100E0C206D20ECD
:10B7200001219140014A11607047000000E100E0F2
:10B73000C206D20E01219140014A116070470000FB
:10B7400000E100E0C206D20E01219140014A1160E1
:10B750007047000000E100E0C206D20E01219140D6
:10B76000014A11607047000000E200E0C206D20EFC
:10B7700001219140014A11607047000000E200E0A1
:10B7800010B5002819DA1A4A03071B0F083B9B085B
:10B790009B00D2588307DC0EFF23A3409A438B07FC
:10B7A0001B0E8407E40EA3401A43114B0407240F19
:10B7B000083CA408A4001A5118E00E4A03231B02F7
:10B7C000D21883089B00D2588307DC0EFF23A340C6
:10B7D0009A438B071B0E8407E40EA3401A43054BC4
:10B7E000032424021B198408A4001A5110BD000070
:10B7F0001CED00E000E100E010B5002819DA1A4A5B
:10B8000003071B0F083B9B089B00D2588307DC0EE5
:10B81000FF23A3409A438B071B0E8407E40EA3402B
:10B820001A43114B0407240F083CA408A4001A5122
:10B8300018E00E4A03231B02D21883089B00D2583B
:10B840008307DC0EFF23A3409A438B071B0E84075C
:10B85000E40EA3401A43054B032424021B19840859
:10B86000A4001A5110BD00001CED00E000E100E052
:10B8700010B5002819DA1A4A03071B0F083B9B086A
:10B880009B00D2588307DC0EFF23A3409A438B070B
:10B890001B0E8407E40EA3401A43114B0407240F28
:10B8A000083CA408A4001A5118E00E4A03231B0206
:10B8B000D21883089B00D2588307DC0EFF23A340D5
:10B8C0009A438B071B0E8407E40EA3401A43054BD3
:10B8D000032424021B198408A4001A5110BD00007F
:10B8E0001CED00E000E100E000BF00BF00BFBFF3BF
:10B8F0004F8F00BF00BF00BF06480749C86000BFA8
:10B9000000BF00BFBFF34F8F00BF00BF00BF00BF2D
:10B9100000BFFDE70400FA0500ED00E010B5FF20D0
:10B92000013009F0A2F800280CD0FF20013009F006
:10B93000A7F8012009F0AAF801200C49487000205E
:10B9400003F0BAFCFF20053009F08FF800280BD077
:10B95000FF20053009F094F8022009F097F8012043
:10B960000249887003F0A8FC10BD0000B42D00202F
:10B970001CB500BFFF200130344940180068002882
:10B980001AD001200BF06CF8002815D000BF002160
:10B99000FF2001302D4A8018016000BF91156846D4
:10B9A000018000BF2A48C06841B268468170294AB8
:10B9B000019900981268904700BFFF200530234985
:10B9C00040180068002822D002200BF049F8002817
:10B9D0001DD000BF0021FF2005301C4A80180160E7
:10B9E00000BFFF2105316846018000BF184880690B
:10B9F00001B26846418000BF15484030806881B27E
:10BA000068468180134A019900981268904700BFE8
:10BA1000FF2009300D4940180068002815D0042087
:10BA20000BF01EF8002810D000BF0020FF210931C4
:10BA3000064A8918086000BFFF200930694608805F
:10BA4000044A01990098126890471CBD00200140EB
:10BA5000002501404C22002010B51B48006800283A
:10BA600008D01A484068C007C00F002802D0002044
:10BA7000154908601448C06800280FD01348406872
:10BA800008210840002809D000200F49C86010484C
:10BA90000068002802D00E48006880470A48006904
:10BAA00000280FD00948406810210840002809D01C
:10BAB00000200549086107480068002802D00548B1
:10BAC0000068804710BD00000011004000130040D6
:10BAD000202300201C2300201CB50020019001A879
:10BAE00001F00EF910F02EF9002830D100BFFF2030
:10BAF0000130194940180068002801D0012000E0F9
:10BB00000020002823D00120144989680140002921
:10BB100001D0012100E00021002918D000BF002041
:10BB2000FF2101310C4A8918086000BF00BF0C4892
:10BB30008068C0B2009069460A480AF0B9FF094817
:10BB40000AF09FFF002801D009F032FC00BF6846D0
:10BB5000007901F0FFF81CBD00D0004000D3004088
:10BB600000D50040B4D8020010B5032200210248DD
:10BB700009F016FD10BD000000B0004010B5002017
:10BB8000074908600021064841608160C1600020CB
:10BB9000034940390860486010F006FD10BD000000
:10BBA0004011014010B5034C2146034807F06EF8E0
:10BBB00010BD0000402E00200030004010B510F0F5
:10BBC00003FC10BD70B50B48006800280ED0094872
:10BBD00000688047044600BF2546002D04D000BF02
:10BBE000284600F0E5FE00BF00BF01E006F060FF60
:10BBF00070BD0000D42200203EB5194800680190B5
:10BC000002A809F0B7FF0446002C27D115480068A8
:10BC1000002823D00298C007C00F002806D00020BB
:10BC20006946087068460F490968884702210298EA
:10BC30000840002806D00120694608706846094976
:10BC400009688847042102980840002806D002208D
:10BC50006946087068460349096888473EBD000088
:10BC600014230020F422002010B507F04FF800281C
:10BC700005D0104810494860C8131049886107F082
:10BC800029F8002802D001200D49886007F074F8D7
:10BC900000280ED00B480068012807D00A4809493F
:10BCA000086000BF074800680128FBD1C020054993
:10BCB000486110BDDFFF07C000050040006C004078
:10BCC0000006004000EC06407593000010B5042209
:10BCD0000249034806F0A6FF10BD0000602E0020B8
:10BCE0000080004010B504220249034806F09AFF84
:10BCF00010BD00006C2E00200090004010B50249DD
:10BD0000024810F0BAFE10BD242E00200020004092
:10BD10000FB41CB50A46521E0192009007A9064BAB
:10BD20006A46069800F040F8009A002111701CBC89
:10BD300008BC04B0184700001DC2010030B47446AE
:10BD4000641E2578641CAB4204D3635D5B00E3187A
:10BD500030BC18471D46F8E702E008C8121F08C1AA
:10BD6000002AFAD170477047002001E001C1121F7C
:10BD7000002AFBD1704700000146202909DA012082
:10BD80008840054A1040002801D00120704700205B
:10BD9000FCE70120FAE70000FC06FFBC00BFEFF360
:10BDA0001081084672B67047FFB591B00F46054640
:10BDB000002606E025280AD0149A139990476D1C96
:10BDC000761C28780028F5D1304615B0F0BD002447
:10BDD00000940121F34A029400E004436D1C2B7887
:10BDE0000846203B98401042F7D128782A280ED0E8
:10BDF000022128780246303A092A15D8009A0A23E7
:10BE00005A43303A80180C436D1C0090F1E701CF83
:10BE10000090002805DA01204003044300984042C6
:10BE20000090022004436D1C28782E2815D1042090
:10BE3000044368786D1C2A280AD101CF6D1C02903A
:10BE40000BE002990A225143303940186D1C0290D0
:10BE50002878014630390929F3D928786C2810D080
:10BE600006DC4C281AD068280ED06A2817D104E0C6
:10BE7000742813D07A2812D110E001204005044321
:10BE80000CE00121090501E0032109050C43697853
:10BE9000814203D10120000524186D1C6D1C2878F7
:10BEA00003906E281ED00CDC632831D004DC0028FF
:10BEB0008AD0582811D1B2E064287BD069280CD1EF
:10BEC00078E073282DD004DC6F2870D0702804D15E
:10BED000A7E075286CD078286BD0149A13999047F6
:10BEE000761C62E06002400F022807D003280AD0C7
:10BEF000042838680AD006603F1D56E03868F117FC
:10BF000006604160F8E738680680F5E70670F3E7F9
:10BF10003878694608740020487404A8039001200A
:10BF200003E0386803900020C0433F1D61070FD530
:10BF3000002101E00199491C029A0191914213DA12
:10BF40008142F7DB019A0399895C0029F2D10BE069
:10BF5000002101E00199491C01918142FADB019A1B
:10BF60000399895C0029F5D101990098139A401A28
:10BF700000902146149B00F03BF901998019461866
:10BF800007E0039803990078491C0391149A1399C8
:10BF900090470198401E0190401CF2D12146149B0D
:10BFA000139A009800F014F986196D1C09E741E016
:10BFB00033E034E00A200021049005916002410F33
:10BFC000022905D001CFC2179446032905D007E006
:10BFD000FF1DFF08FF0003CF06E000B2C217944622
:10BFE000042902D140B2C1178C4600226146944513
:10BFF00006DA0A460021404291418C462D2102E09A
:10C00000210504D52B216A461176012103E0E107C1
:10C0100001D02021F7E7019154E00A200BE0102025
:10C0200009E0102004900021042004430820059119
:10C03000029003E008200021059104906002410F66
:10C04000022905D001CF00229446032906D006E03C
:10C05000FF1DFF08FF0003CF8C4603E080B20429D8
:10C0600000D1C0B20021019121072BD5039970297D
:10C0700006D0049A1021059B4A401A4305D00EE0D1
:10C0800040216A461176012108E06146014306D04D
:10C0900030216A4611760399517602210191049A62
:10C0A0000821059B4A401A430CD16146014301D146
:10C0B000610707D530216A46117601210191029965
:10C0C000491E02910399582904D037A103910FA961
:10C0D0000F910DE039A1F9E76146059B049AFFF73E
:10C0E0007BF8039B8C469B5C0F9A521E0F92137039
:10C0F00061460143F0D10F9807A9081A2030039038
:10C10000600704D5012000048443029801E0012067
:10C1100002900399884201DD401A00E00020411896
:10C120000290019809180098401A0090E00306D484
:10C130002146149B139A009800F05AF886190020A3
:10C14000049008E006A9085C149A13999047049893
:10C15000401C761C049001998842F3DBE0030CD567
:10C160002146149B139A009800F042F8861904E0C7
:10C17000149A302013999047761C0299481E029019
:10C180000029F5DC08E00F980F990078491C0F9101
:10C19000149A13999047761C0399481E039000291E
:10C1A000F1DCFBE609280100303132333435363713
:10C1B00038396162636465660000000030313233F3
:10C1C0003435363738394142434445460000000093
:10C1D000F8B5044600251E461746880404D405E039
:10C1E00039462020B0476D1C641EF9D52846F8BD9D
:10C1F000FFB50446002581B01E46C80301D530278F
:10C2000000E02027880404D505E038460399B047AC
:10C210006D1C641EF9D5284605B0F0BD4A68002A99
:10C2200006D00A68531C0B6010704868401E4860B6
:10C230007047000038B50B48006800900A4968460E
:10C2400008F002FD044600BF2546002D04D000BFC3
:10C25000284600F0ADFB00BF00BF044808F0DEFC3C
:10C2600038BD000004D7020071C20100C4200020C4
:10C2700070B50446207800281CD10F4908600025BD
:10C2800008E069006068405E0B49096840180A4987
:10C2900008606D1C2089A842F3D8218906480068EF
:10C2A000FEF734FF0449086000200449087008F0D4
:10C2B000F7FC00BF70BD0000BC20002082200020E1
:10C2C00010B5FF20013008F0B1FB00BF00201E496F
:10C2D000086000BF00BF0846806800B21B49C968FB
:10C2E0001A4A527C520088521848407C401C174918
:10C2F00048740846407C097C884223DA00241348AD
:10C3000080684068002804D1104840680F49886060
:10C3100005E00E48806840680C49886001240B499C
:10C320008968086808F070FB00BF012006490860B2
:10C3300000BF002C04D000BF054A106000BF00BF42
:10C34000002010BD0120FCE700750040A82E002051
:10C350000070004070B505460C46002D01D0002C41
:10C3600001D1002070BD28782178884201D00020BA
:10C37000F8E70622611C681CFEF721FF002801D1A6
:10C380000120EFE70020EDE710B50446204602F05B
:10C39000D7FD00BA10BD0246002105E0505C002820
:10C3A00001D001207047491C0629F7D30020F9E786
:10C3B00010B50446002C0ED008480068A0420AD8E8
:10C3C00006484068A04206D3204606F00CFD00282F
:10C3D00001D0012010BD0020FCE700006C230020EC
:10C3E00000B501460B00FFF7A9FC0504070A0D1074
:10C3F00014000948006800BD08480068FBE70848C9
:10C400000068F8E707480068F5E704480068183056
:10C41000F1E701480068EEE72C2300203C230020D0
:10C420004C2300205C230020F7B582B0044616465A
:10C4300000253788002030802D20005D00280CD09A
:10C440003A463146039801F01DFB054600BF002D1A
:10C4500002D0284605B0F0BD00BFA07800280BD060
:10C460003A463146039800F095FC054600BF002D82
:10C4700001D02846EEE700BFE07800280DD0E17833
:10C4800048B23B463246039904F0F8FC054600BF2B
:10C49000002D01D02846DDE700BF606800280ED0DF
:10C4A0000020616808563B463246039910F0CAFAEC
:10C4B000054600BF002D01D02846CBE700BF2089EC
:10C4C00000280FDD01970096062202212046083041
:10C4D000039B10F001FE054600BF002D01D0284649
:10C4E000B8E700BF208A00280FDD019700960722D9
:10C4F000032120461030039B10F0EEFD054600BFDF
:10C50000002D01D02846A5E700BF208B00280FDDB5
:10C51000019700961522142120461830039B10F035
:10C52000DBFD054600BF002D01D0284692E700BF85
:10C53000206A00280CD03B463246206A039902F05C
:10C5400057FF054600BF002D01D0284682E700BFF7
:10C55000606A00280CD03B463246606A039907F0B7
:10C560000BFD054600BF002D01D0284672E700BF35
:10C570002C20005D00280CDD3B4632462046039906
:10C580000EF07CFE054600BF002D01D0284661E775
:10C5900000BF207800280CD03B4632462046039945
:10C5A00008F070F9054600BF002D01D0284651E77C
:10C5B00000BF28464EE7000070B504461748FFF755
:10C5C000EAFE0546012C06D0022C0DD0032C14D017
:10C5D000042C20D118E012484078002803D0002D08
:10C5E00001D0012070BD00BF0D488078002803D025
:10C5F000002D01D00220F5E700BF0948C0780028CF
:10C6000001D00320EEE700BF05480079002801D0E3
:10C610000420E7E700BF0020E4E7000059210020E4
:10C620006C27002010B504460521601CFEF784FD30
:10C63000C8B210BD0146C87804221040002801D1BC
:10C64000072070470020FCE710B5042202210120DA
:10C6500002F068F9044600BF002C03D0072C01D07B
:10C66000204610BD00BF07220021012002F05AF928
:10C67000044600BF002C03D0072C01D02046F0E771
:10C6800000BF0A220021084602F04CF9044600BF10
:10C69000002C03D0072C01D02046E2E700BF002089
:10C6A000DFE7000070B598B03C2109A8FEF775FDE2
:10C6B0000526022108A8017101218171C671684611
:10C6C000818618490E91202101A8FEF766FD0121FF
:10C6D000684601714171817120200390B42004905B
:10C6E0006846C17128200590B42006906846017202
:10C6F0001920C0010790012008900B480B4B01AA9C
:10C700000021009009A800F0A7FD044600BF2546BF
:10C71000002D04D000BF284600F04AF900BF00BF3A
:10C7200018B070BD9C20002049D201000D6D0200A0
:10C7300070B5254A10212548FEF728FD0820244918
:10C74000086022480CF02CFA214801681F480DF0BF
:10C7500077F9044600BF2546002D04D000BF2846C7
:10C7600000F026F900BF00BF1948016817480CF017
:10C77000F1FB0446062C09D000BF2546002D04D04D
:10C7800000BF284600F014F900BF00BF0020114987
:10C7900008700F480068002803D000200E49087078
:10C7A00002E001200C490870012000F0B7FE0446A9
:10C7B00000BF2546002D04D000BF284600F0F8F841
:10C7C00000BF00BF70BD0000FFFF00007425002007
:10C7D000A0200020A42000207021002070B58CB083
:10C7E00004460D461646002005E00F21091A615C3B
:10C7F0006A461154401C1028F7D30D2104A8FEF7F7
:10C80000CCFC002005E02A5C0F210B1A04A9CA54B5
:10C81000401C0328F7D368464DDF002005E00F21B8
:10C820000A1A08A9895C3154401C0328F7D30CB0BC
:10C8300070BD000010B50446002001F05BFD084803
:10C840000078401E0649087008460078002806D186
:10C850000448006800F038FA002001F069FD10BDBE
:10C86000B820002074D7020010B5002407E0E100D2
:10C87000064A1268505C012108F02AFB641C044837
:10C8800000788442F3D3002010BD00005C22002019
:10C8900060220020FEB506460C461746052F01D241
:10C8A0000720FEBD08F028FC002808D108F0F6FBA0
:10C8B000054600BF002D01D02846F2E700BF17480B
:10C8C0000660174804701748076000201649086082
:10C8D0001649086017E0E0008019019014480068CC
:10C8E0000090019880786946487001990878114A4B
:10C8F000694608F04BFB054600BF002D01D02846D5
:10C90000CFE700BF00BF2046611ECCB20028E2D1B5
:10C91000094A0021094800F021F9C2E75C22002001
:10C920006022002064220020682200206C22002067
:10C9300044D90200991A020011F7010040D90200FF
:10C9400013A1012009F0E2FF00BF09F0C3FE00BF00
:10C9500000BF09F0C5FE0028FBD100BF00BF00BF2B
:10C9600000BF00BF00BF00BFBFF34F8F00BF00BFBD
:10C9700000BF0D480D49C86000BF00BF00BFBFF336
:10C980004F8F00BF00BF00BF00BF00BFFDE700002A
:10C990004150505F4552524F523A4552524F523ACF
:10C9A000466174616C0D0A000400FA0500ED00E0B8
:10C9B0003EB50446002000900190029002946A4621
:10C9C00000210248FFF7BCFF3EBD0000014000000F
:10C9D000F7B582B007460C4627480088844246DCFB
:10C9E000264D0020019001A800F08AF900BF2448DC
:10C9F000007800902348007807F0FAFF00998842F9
:10CA000001D1012000E00020002806D11D48057852
:10CA1000007807F0EDFF1B4908706846007900F0C8
:10CA200099F91648854220D0E900174A04981268FF
:10CA30005050002F11D0002C0FDD0F490988694399
:10CA4000124A1268881822463946FEF78DFBE80024
:10CA50000D4909684018848005E00021E8000A4A71
:10CA6000126880188180002600E0042600E0092674
:10CA7000304605B0F0BD00007A220020FFFF000024
:10CA800078220020792200207022002074220020C9
:10CA9000F8B51AE015480478154800886043154930
:10CAA00009684518E0001449096840188688E000C4
:10CAB000114909680F5831462846B8470B48007895
:10CAC00007F096FF0949087000BF00BF002000284A
:10CAD0000BD100BF0549087808490978814201D186
:10CAE000012100E000210029D4D0F8BD78220020E7
:10CAF0007A22002074220020702200207922002057
:10CB000030B50346481CC004040C10468507AD0F21
:10CB1000002D01D1012500E00025002D01D10720C5
:10CB200030BD084802601019074D28600020074DED
:10CB30002870074D287007480380074801800020AF
:10CB4000EEE70000702200207422002079220020ED
:10CB5000782200207A2200207C22002010B5034693
:10CB60000C4600BF0D484068002801D1082010BDC8
:10CB700000BF002A01D10720F9E7002B01D10720CF
:10CB8000F5E71868007C002801D00820EFE7196855
:10CB9000002008744C744A6100BFE8E7802200203E
:10CBA000F8B504460D46264600BF082D01D10120E8
:10CBB00000E000200746002F03D100BFFFF7F8FE7A
:10CBC00000BF00BF316870688847F8BD7CB5044677
:10CBD0000D4600940195034A08216846FFF7F8FEC8
:10CBE0007CBD0000A1CB0100F8B507460D461446F8
:10CBF0001E4620468107890F002901D1012100E04E
:10CC00000021002901D10720F8BD002C01D1072007
:10CC1000FAE70DF0B3FE11480660002010490870D5
:10CC2000487008468570446000200E4908600E492F
:10CC300008700E4908701420FEF748FD03211420E7
:10CC4000FEF7DAFD1420FEF769FD38460DF06CFEA4
:10CC50000DF064FE064908600020D5E79C22002004
:10CC60008022002088220020982200209922002083
:10CC70008C220020F8B504460E461746254600BF14
:10CC800010484068002801D10820F8BD00BF002CE2
:10CC900001D10820F9E7052E01D20720F5E76869E0
:10CCA000002801D10820F0E7687C012801D1304636
:10CCB00000E0002000903B4631462846009A0FF0E5
:10CCC00023FCE2E78022002070B50446254600BF21
:10CCD0000A484068002801D1082070BD00BF002C20
:10CCE00002D06869002801D10820F6E700202874E6
:10CCF000022128460FF036FCEFE7000080220020DA
:10CD000070B5044600BFFFF749F805460E48406875
:10CD100000280ED101200C4948600C4800680C49DD
:10CD20000840094908600A48084908600020207046
:10CD300001E001202070002D03D100BF62B600BFCA
:10CD400000BF00BF70BD0000A422002080E100E011
:10CD5000FC06FFBC70B5044625460C484068002818
:10CD600012D0002D10D1FFF719F8064607480068C9
:10CD700007490860002005494860002E03D100BF24
:10CD800062B600BF00BF00BF00BF70BDA42200207C
:10CD900000E100E0F8B505460C4617462088001D66
:10CDA000B84201D90C20F8BD684679DF064600BFBD
:10CDB000002E01D03046F6E700BF032021886854DA
:10CDC0002088401C20801920218868542088401C1D
:10CDD000208020884119684600880FF000FF2188D4
:10CDE000401820800020DEE730B58BB01448007872
:10CDF00000F012FE054628460DF044FF00281CD026
:10CE000001A800F065FD142201A906A8FEF7ACF9FF
:10CE100000240EE0620007A9885A0949097800F049
:10CE200009FE002804D0620007A9885A06F0D2FA49
:10CE3000641C0698A042EDD800BF0BB030BD0000C6
:10CE4000A221002010B5044663799A07920F217938
:10CE5000208806F08DF910BD10B504462079002811
:10CE600003D1204600F008F803E02046FFF7EAFF70
:10CE700000BF00BF10BD0000F0B589B0044600251A
:10CE8000208800F097FD0746208805F063FC0646E1
:10CE9000A0680890607A07902088002222490978CB
:10CEA00000F0DCFD002F01D109B0F0BD6079400732
:10CEB000C00F002811D0072130460BF0E7FA0546D5
:10CEC000002D16D00821684601712188C180068195
:10CED000039501A803F084FC0BE02088134909782E
:10CEE00000F0A8FD002804D0304605F01BFC03909C
:10CEF00000BF0321684601742188418260794007A0
:10CF0000C10F68460175A0794007C10F04A841719F
:10CF1000811D08A80078087004A86946097FC171BE
:10CF200003F05EFC00BFBFE7E6210020E8210020FF
:10CF300030B585B014216846FEF72FF90020009027
:10CF40000121684601710020029064216846017346
:10CF500000BF407B01090901491C68464173407BC1
:10CF6000F021884320306946487300BF00BF6846FF
:10CF7000807B00090001401C88736846807BF0219B
:10CF8000884320306946887300BF00BF6846C07B75
:10CF900000090001C8736846C07BF02188436946D8
:10CFA000C87300BF00BF6846007C01090901491C25
:10CFB00068460174007CF02188432030694608747B
:10CFC00000BF084800F0B4FB044600BF2546002D12
:10CFD00004D000BF2846FFF7EBFC00BF00BF05B040
:10CFE00030BD00001C250020F0B591B004460D4670
:10CFF000207D002819D00020099000BF08A80079E2
:10D0000001090901491C08A801710079F021884330
:10D01000103008A9087100BF697B08A841718079A8
:10D0200006218843801C08A988711C210AA8FEF7E4
:10D03000B4F808A8007A02218843811C08A801726C
:10D04000007A10218843217D002901D0012100E0D0
:10D050000021090110221140084308A9087200208C
:10D060000B900D900E90207D002801D009A800E0C3
:10D0700000200F900020109000BF012168468173AE
:10D080004949818100BF00200290A97B6846017256
:10D09000E97B4172807A06218843811C684681724F
:10D0A000807A08218843014668468172807A10217F
:10D0B0008843014668468172807A41084900684683
:10D0C0008172297B0191142104A8FEF766F803A858
:10D0D000049002A805900121684601830021418344
:10D0E0000121818301A80890A088A31D04AA0AA990
:10D0F000A2DF0646002E02D0304611B0F0BDA8686F
:10D1000000284DD000BF01216846817327498181E5
:10D1100000BF00200290287C6946087200BF684664
:10D12000407A0109090168464172407AF02188433A
:10D130006946487200BF6846807A06218843811C90
:10D1400068468172807A0821884301466846817268
:10D15000807A10218843014668468172807A4108AE
:10D16000490068468172A96800F048FF074614210B
:10D1700004A8FEF712F803A8049002A805906846D8
:10D18000078300214183018B81830890E088224638
:10D190000E3204A9A3DF0646002E03D03046ACE7CA
:10D1A0000020E0810020A8E7192A000008290000DB
:10D1B000F3B593B00D461F211291119113980028D9
:10D1C00018D01398FFF736FA044600BF002C02D09F
:10D1D000204615B0F0BD00BF12AA09A91398FFF7A9
:10D1E00023F9044600BF002C01D02046F1E700BF20
:10D1F00009AE02E0002600201290002D17D028462C
:10D200000EF00BFE044600BF002C01D02046E0E7E4
:10D2100000BF11AA01A92846FFF706F9044600BF7E
:10D22000002C01D02046D4E700BF01AF02E0002768
:10D230000020119010A88088C3B210A80089C1B244
:10D240003A46304672DFC4E710B5044600BF2046B8
:10D25000FFF7AEFB00BF10BDF8B504460F461546FC
:10D260001E46002C01D0002D01D10E20F8BD01205A
:10D27000574908700020574908702022294656480F
:10D28000FDF772FF55480660554906980860002072
:10D29000C0435449088007215348FDF77EFF3C21D5
:10D2A0005248FDF77AFF207850490870A0788870BE
:10D2B000E078C87060784870084662692169426108
:10D2C00001610146E268A068CA6088600846E269B8
:10D2D000A169C2618161606A00281BD0444843494A
:10D2E000486244498160606A00884049496A088010
:10D2F000606A80883D49496A8880002005E0616A4B
:10D300008968095C3B4A1154401C3849496A89883C
:10D310008142F4D8A06A002824D037493748816078
:10D320003249886234493148806A8160A06A8088C5
:10D330002E49896A8880A06A00882C49896A0880F9
:10D34000002005E0A16A8968095C2B4A1154401C41
:10D350002649896A89888142F4D82C20015D2348B6
:10D3600020300173206A00280BD025481F4908622D
:10D37000206A4088096A4880206A00881B49096A37
:10D3800008806068002802D0184960684860002062
:10D3900008E0C100091A1B4A89181B4A1268830059
:10D3A000D150401C0828F4DB002007E00101174A97
:10D3B0008A18154989688300CA50401C0828F5DB83
:10D3C00039460A48FFF7F4FE009000984EE7000047
:10D3D00054210020572100206C27002068210020C4
:10D3E0006C21002064210020582100208C2700207F
:10D3F000C8270020D427002000280020F427002080
:10D40000602100206028002074210020982800203E
:10D4100010B504462088102804D0112806D01B28F7
:10D420000CD107E0204609F00BFF08E0204609F088
:10D430005FFF04E020460AF0BBFA00E000BF00BF37
:10D4400010BD000070B50546022D02D0032D18D185
:10D4500000E000BF0C480078002811D000200A49E5
:10D4600008700A48007800F059F80446002C07D0EC
:10D4700007480068002803D0204605490968884706
:10D4800000E000BF00BF70BD5521002057210020E3
:10D490006C21002010B5044607480078002801D10F
:10D4A000082010BD002004490870072221460348C7
:10D4B000FDF75AFE0020F4E75F21002058210020EC
:10D4C00010B574DF01201149087006201049C8709A
:10D4D00000210F48FFF76CFE0446002C01D02046C7
:10D4E00010BD03200B4908700846007800F016F8BC
:10D4F0000446002C07D008480068002803D02046C6
:10D500000549096888470020EAE7000070210020EB
:10D510008C270020572100206C21002070B586B098
:10D5200005465C480078002802D1082006B070BD8E
:10D530005948057003F00CFD002804D0012057491C
:10D5400008700020F2E707215548FDF726FE5548F0
:10D550004078002803D05048007801280FD0514867
:10D560008078002803D04C480078012807D04D4827
:10D570008078002812D04848007802280ED14A4806
:10D580000068002807D00120484908700820464953
:10D590000968884702E00020444908702846FFF7E0
:10D5A0000BF83D49087040480068002817D008462D
:10D5B0000078032803D00846007804280FD13948A2
:10D5C000007800280BD03A480078002807D10120C5
:10D5D00038490870072034490968884702E000206C
:10D5E0003449087018216846FDF7D7FD00216846C8
:10D5F00001700172284800780300FEF79FFB0518B0
:10D6000004090E131C0068460DF0DAFE044613E010
:10D6100068460DF0E5FE04460EE068460DF0F6FEA5
:10D62000044609E068460DF029FF044604E00020A6
:10D630002149087000E000BF00BF174800780028AB
:10D6400006D0684673DF0446002C17D020466DE7ED
:10D650001A480078002811D0002018490870FEF7F9
:10D66000BFFE0646164905F07AFF002803D014498C
:10D67000491E002070DF002000F064FE0A480068A8
:10D68000002804D00C480078074909688847002022
:10D690004CE7000054210020572100205521002094
:10D6A000582100206C270020682100205F210020E5
:10D6B0007021002071210020562100207F200020B1
:10D6C000AA200020FFB581B007460D461E46164829
:10D6D0000078002802D1082005B0F0BD00201249D2
:10D6E000087012490D710E7300240AE00F4A126887
:10D6F000A300D058E200121BD1190722FDF734FD18
:10D70000641CAC42F2D300240AE0084A9268A300E9
:10D71000D0582301039A99181022FDF725FD641CA7
:10D72000B442F2D30020D7E77121002074210020F9
:10D73000F8B504460D46002C01D0002D01D10E2075
:10D74000F8BD286820600020C043608228792075D9
:10D75000FF20207400BF01216846817008490180C4
:10D7600000BF221D69460120A0DF0646002E01D021
:10D770003046E5E729462046FFF736FCE0E70000A3
:10D780000F18000070B505460C46002D01D0002C86
:10D7900000D170BD2088102804D0112807D050284F
:10D7A0000FD109E02146284609F022FD0AE0214672
:10D7B000284609F093FD05E0214628460AF04EF977
:10D7C00000E000BF00BF00BFE3E7000038B504463B
:10D7D000082221460D48FDF7C7FC0C487ADF0546B4
:10D7E000002D10D10A4805F063FA00280BD0094833
:10D7F0004069002806D0012000900648416968462B
:10D80000884700BF0025284638BD0000842100203D
:10D81000902100201829002070B505461C222946B9
:10D820001448FDF7A1FC002013490870286800285F
:10D830000BD0082211482968FDF796FC0F487ADFC3
:10D840000446002C08D0204670BD0C487BDF0446FF
:10D85000002C01D02046F7E70020C043084908808B
:10D86000002008490870084A00210848FFF776F9A7
:10D87000EAE70000182900209821002084210020D8
:10D880008E2100208C2100200DCE0200BCD702008A
:10D8900010B504462088102806D0112808D0122878
:10D8A0000ED0502810D107E0204609F071FC0CE0A2
:10D8B000204609F0F1FC08E020460AF0A5F804E053
:10D8C000204609F059FC00E000BF00BF10BD000079
:10D8D00010B504460348027D011D20460DF046FAAE
:10D8E00010BD00005429002010B504460348C17D36
:10D8F0002246001D0DF024FA10BD0000542900201E
:10D9000010B504460348017E2246001D0DF018FAAA
:10D9100010BD00005429002070B50446208810284E
:10D9200004D011281ED01A283FD11FE00CF084FD2E
:10D93000A0880CF0E9FB002804D100BF0420FFF709
:10D9400037F80EE0A07D022801D1012000E0002080
:10D950000546A2882B461649084612380DF029FACA
:10D9600000BF22E0A0880CF089FD1EE0207A0009AB
:10D97000012801DD012000E000200346A2880C49B7
:10D98000491C084613380DF014FA207A00090228C1
:10D9900001DD012000E000200346A2880449891C23
:10D9A000084614380DF005FA00BF00BF70BD000036
:10D9B0006A29002070B5044600250C48017D2246E6
:10D9C000001D0DF0BDF900280DD00848817D2246CC
:10D9D000001D0DF0B5F90646002E01D0022000E032
:10D9E0000120054600BF284670BD000054290020D4
:10D9F00010B500240BE020460FF060FA002804D197
:10DA000020460FF051FA204610BD601CC4B2182CFD
:10DA1000F1DB1820F8E7000010B5044620460FF0AF
:10DA20004DFA002802D00248005D10BD0020FCE73E
:10DA30006D29002070B505460C4620460FF03EFAD1
:10DA4000002806D00448015D2A4615380DF078F903
:10DA500070BD0020FCE700006D29002070B5054670
:10DA60000C46164620460FF029FA002806D0044836
:10DA7000011933462A4615380DF09BF970BD000098
:10DA80006D290020FEB505460C4617462088093052
:10DA9000B84201D90C20FEBD684671DF0646C021A0
:10DAA00068464170022181700321C1700421017117
:10DAB000C0218171012101706946002070DF00BF23
:10DAC000002E01D03046E6E700BF082021886854C8
:10DAD0002088401C20801B20218868542088401CFE
:10DAE000208021884819062200A90131FDF73CFB5E
:10DAF0002088801D208068460078002802D1218877
:10DB0000685402E00120218868542088401C20804D
:10DB10000020C0E77FB5044600BF0121684681733D
:10DB20005D49818100BF5D4A03A90120A0DF054650
:10DB3000002D02D0284604B070BD208800280DDDDD
:10DB400057480090228823463C335648616801F0CC
:10DB500087FA0546002D01D02846ECE720890028E9
:10DB60000EDD51480090228923463C334D48401F2A
:10DB7000E16801F075FA0546002D01D02846DAE784
:10DB8000208A00280EDD49480090228A23463C3333
:10DB90004448001F616901F063FA0546002D01D079
:10DBA0002846C8E7208B00280EDD41480090228BD4
:10DBB00023463C333B48801EE16901F051FA05469B
:10DBC000002D01D02846B6E7208C00280EDD39480C
:10DBD0000090228C23463C333248C01E616A01F01B
:10DBE0003FFA0546002D01D02846A4E7208D0028E5
:10DBF0000EDD31480090228D23463C332948401EDB
:10DC0000E16A01F02DFA0546002D01D0284692E781
:10DC1000206B002813D001A8216B0EF006FA2748CC
:10DC200023463C33082201A900901E48801F01F0C2
:10DC300017FA0546002D01D028467CE700BF606B2F
:10DC400000280FD01E480090606B027923463C33B9
:10DC500001681448401C01F003FA0546002D01D06C
:10DC6000284668E7A06B002813D001A8A16B0BF031
:10DC7000F9FE144823463C33072201A900900948C5
:10DC8000273001F0EDF90546002D01D0284652E776
:10DC900000BF00204FE700000A180000002200200B
:10DCA00002220020292A00000A220020122200203D
:10DCB0001A220020222200202A22002032220020C4
:10DCC0003A2200204222002010B504462046FFF7E9
:10DCD00023FE20460BF002FC204600F0ADFB204660
:10DCE00009F086F92046FFF793FB2046FFF7D0FDA9
:10DCF0002146044800F04CF921460348FFF742FD55
:10DD000010BD0000A42300201C250020FFB587B013
:10DD100005460F46109EFF207730405B224988421F
:10DD20003DD0F01C81B206916846008B082834DC97
:10DD300000BF012000BF684607740998C1B2684659
:10DD400041740A98C1B268468174002E04DD3246DF
:10DD500013301199FDF708FA00200090019002900D
:10DD60000390FF205F30415B684601800121817094
:10DD70000021818006A8029004A80390FF2177313A
:10DD8000485B6946A6DF0446002C05D1F01C6946B5
:10DD9000098B884200D00C2400E00C2400E0082409
:10DDA00020460BB0F0BD0000FFFF00007CB506462A
:10DDB0000C46A07A0A2805DC207C0A2802DC207E9A
:10DDC0000A2801DD07207CBD206830606068706033
:10DDD000A07AB074217C78208155217EDE20815587
:10DDE0000021C943FF207730815300BF01216846DD
:10DDF00081714749818000BF3246083201A9012064
:10DE0000A0DF0546002D01D02846DCE7214630463C
:10DE100004F018FD0546002D01D02846D3E7207AEE
:10DE2000002802D1607A002809D021463C313046D2
:10DE30000BF09EFE0546002D01D02846C3E7214683
:10DE4000304604F0E7FD0546002D01D02846BAE72C
:10DE50002146304609F0F0FE0546002D01D0284647
:10DE6000B1E72146304602F05FFF0546002D01D0A4
:10DE70002846A8E7214630460CF006FC0546002D52
:10DE800001D028469FE7207A002818D03046FF307E
:10DE90004F302346433308221E490090304600F09D
:10DEA00027F90546002D01D028468CE7214630464B
:10DEB00000F0A2F90546002D01D0284683E7607ADC
:10DEC000002810D03046FF305F3023464033082210
:10DED000104911310090304600F00AF90546002D36
:10DEE00001D028466FE72146304603F0A1FF0546E2
:10DEF000002D01D0284666E721463E31304603F02A
:10DF00003FFF0546002D01D028465CE700205AE778
:10DF100012180000222A0000FFB587B004460E4602
:10DF20001746A07CB0422DDD0A20704321461431F3
:10DF300040180690FF207730005B144988421FD0BC
:10DF400001970020029003900490059006980188A4
:10DF500068460181012181720021818101A804901C
:10DF60000A980590FF217731085B02A9A6DF0546D4
:10DF7000002D04D168468088B84200D00C2500E00E
:10DF8000082500E0072528460BB0F0BDFFFF000084
:10DF900070B505460C462088102806D0112809D0F7
:10DFA00050280CD0512814D10EE02146284609F003
:10DFB00022F90FE02146284609F094F90AE02146AB
:10DFC000284609F06FFD05E02146284609F0D9FCF6
:10DFD00000E000BF00BF70BD70B504460D46284686
:10DFE000FDF7E6F82080656070BD70B504462046F8
:10DFF0000EF0EFFD0546E807C00F70BDF8B5054609
:10E000000E46002432782146641C6A5472782146F8
:10E01000641C6A5400BF022C01D1012000E00020E2
:10E020000746002F03D100BFFEF7C2FC00BF00BFB0
:10E030002046F8BD70B586B028480068059000BF3E
:10E04000274B4822274905A80DF028FE054600BFAA
:10E050002E46002E04D000BF3046FEF7A9FC00BFBC
:10E0600000BF00BF6A46012100200DF0D7FD044625
:10E0700000BF2546002D04D000BF2846FEF798FCBF
:10E0800000BF00BF68460DF071FD044600BF254685
:10E09000002D04D000BF2846FEF78AFC00BF00BF59
:10E0A00011480DF055FD044600BF2546002D04D053
:10E0B00000BF2846FEF77CFC00BF00BF0B480DF0F8
:10E0C00047FE044600BF2546002D04D000BF284669
:10E0D000FEF76EFC00BF00BF06B070BD00D70200A7
:10E0E00075BC0200FC250020C9DC010019C002003B
:10E0F000F0B58FB005460E4617461C460020079027
:10E1000000BF6846007F01090901491C6846017784
:10E11000007FF021884310306946087700BF2178DE
:10E1200068464177807F06218843811C6846817755
:10E130001C2108A8FDF731F808A8007802218843BF
:10E14000811C08A80170007808218843A17809077C
:10E15000090F002901D0012100E00021C900082297
:10E160001140084308A9087008A8007810218843C6
:10E17000103008A90870002009900B900C9007A897
:10E180000D9000200E9000BF0121684681718680AD
:10E1900000BF00200090617868460170A17841704E
:10E1A000807806218843811C684681708078082128
:10E1B0008843014668468170807810218843014673
:10E1C0006846817080784108490068468170142152
:10E1D00002A8FCF7E2FF01A8029068460390002124
:10E1E00001824182878200200690288902AA08A91C
:10E1F000149BA2DF0FB0F0BD30B58FB004460D46C2
:10E200001C2108A8FCF7C9FF08A800780221884350
:10E21000811C08A80170007808218843411808A8CB
:10E220000170007804218843001D08A908700020AF
:10E2300009900B900C900D900E9000BF0121684644
:10E2400081721E49018100BF002001904620415D7E
:10E25000684601714720415D684641718079062119
:10E260008843811C68468171807908218843014672
:10E270006846817180791021884301466846817122
:10E2800080794108490068468171142103A8FCF790
:10E2900084FF02A8039001A80490002168468182AF
:10E2A000C182012101830020079020892346FF338A
:10E2B000573303AA08A9A2DF0FB030BD322A0000ED
:10E2C00010B501460A4B585C00BF052424072346BD
:10E2D00000BF24151C192469C440E407E40F002C76
:10E2E00001D0012000E0002002460120504010BD76
:10E2F00066D7020030B502460C49885C00BF052491
:10E300002407214624150C196368012484409C438A
:10E3100005252D024D19AC60012484401C400525C3
:10E320002D024D19EC6000BF30BD000064D7020023
:10E3300010B504460249085D012107F0C3FF10BD76
:10E3400064D7020010B504460249085D002107F0B9
:10E35000B9FF10BD64D7020010B501460A4B585CE6
:10E3600000BF05242407234600BF24151C19646838
:10E37000C440E407E40F002C01D0012000E000209D
:10E3800002460120504010BD64D702007CB5002435
:10E390000CE00948055D002000900346012211466B
:10E3A0000190284607F064FE00BF641C022CF0D3E5
:10E3B00000F004F87CBD000064D7020010B5002412
:10E3C00003E02046FFF7B4FF641C022CF9D310BD14
:10E3D00010B5002403E02046FFF7B4FF641C022CB4
:10E3E000F9D310BD02460020C043002106E0054BD2
:10E3F0005B5C934201D1084602E0491C0829F6D330
:10E4000000BF704766D7020070B505460C4600266F
:10E4100007480560002C02D020460DF0CFFD0548CE
:10E420000068002802D1FEF70FF90646304670BD9D
:10E430004C2100205021002070B505462888102866
:10E4400002D0112832D118E01A48006800280ED1F5
:10E4500001F0AEF8044600BF002C07D01648006853
:10E46000002803D0204614490968884700BF114896
:10E470000068401C0F49086019E00E480068401E03
:10E480000C4908600846006800280ED1FEF7DCF849
:10E49000044600BF002C07D007480068002803D0BE
:10E4A000204605490968884700BF00E000BF00BF5B
:10E4B00070BD0000502100204C210020F3B581B038
:10E4C0000746002500243846FFF78CFF0446082C39
:10E4D00042D20298002825D0012802D002283AD141
:10E4E00033E06000201822490D5C600020184018BD
:10E4F000407800280ED01F4800687D225043014616
:10E500001D4A1E480068FEF7B5FB0646002E01D1E5
:10E51000194807706000201815494018807818497C
:10E52000085518E015480068FEF7CEFB1448005D5A
:10E53000610061180E4A89188978884204D1600008
:10E54000201811464018857805E060002018084919
:10E550004018457800BF00BF002D07D0094800686B
:10E56000002803D02846074909688847FEBD0000F7
:10E5700034270020342100204021002078D70200D9
:10E58000412100203C21002010B504462046FFF721
:10E5900097FE10BDF8B504460026D0480088D04943
:10E5A00088427AD0CF480078002803D1CE4800783E
:10E5B000002873D0CD480088CD49884231DB01F076
:10E5C00007FACC48007800280FD11B2001F094FAFC
:10E5D0000EF0D4F8C8480078002803D0C648007868
:10E5E0000EF0B8FC0120C3490870C4480078002828
:10E5F00014D10022FF210731C1480068FEF73AFB21
:10E60000054600BF2F46002F04D000BF3846FEF756
:10E61000CFF900BF00BF0120B84908700020B349FE
:10E620000880142C73D008DC042C15D0072C1DD0C6
:10E630000A2C0DD0132C69D147E0152C06D01C2CC8
:10E6400053D01D2C74D01E2CF5D100E081E080E069
:10E65000022004F097FF7CE00120AA490870002006
:10E66000FFF770FE0120FFF76DFE72E0A54800780D
:10E67000002803D0022004F085FF25E0A24800789E
:10E6800002280CD19C480078401CC0B29A490870FE
:10E6900005280EDB012008700BE05BE0DAE096480D
:10E6A0000078401CC0B294490870042801DB0120A6
:10E6B0000870914800784000401E9449087001F0AD
:10E6C00087F901209249087043E084480088844912
:10E6D000884209D08F480078082108438D49087086
:10E6E0000846007806F01CF833E07C4800887C4936
:10E6F000884209D0874800780821884385490870F6
:10E700000846007806F00CF823E000E020E07348AB
:10E7100000887349884209D07E4800781021084358
:10E720007C4908700846007805F0FAFF11E0FFE721
:10E730006A4800886A49884209D0764800781021E2
:10E740008843744908700846007805F0E9FF00E046
:10E7500000BF7FE0152C1CD16448008864498842C2
:10E7600034DB01F035F90022FF21073164480068ED
:10E77000FEF780FA054600BF2F46002F04D000BFE9
:10E780003846FEF715F900BF00BF00205749088042
:10E790001CE0132C1AD00A2C03D1022004F0F2FE44
:10E7A00014E0042C09D10120564908700020FFF71D
:10E7B000C9FD0120FFF7C6FD08E0072C06D151482E
:10E7C0000078002802D0022004F0DCFE2046103839
:10E7D0000300FDF7B3FA0C07152331313131313124
:10E7E0000E1C2A314B480078012108434949087022
:10E7F00023E04848007840084000464908701CE083
:10E8000044480078022108434249087015E0414815
:10E810000078022188433F4908700EE03D480078A7
:10E82000042108433B49087007E03A480078042176
:10E8300088433849087000E000BF00BF36480078C0
:10E84000002807D10A2C05D034480078002801D1CF
:10E85000FDF76EFF2348007800283BD02D48007854
:10E86000072803D02B480078002833D01F480088A1
:10E870001F4988422ADB01F0ABF81E4800780028C7
:10E880000FD11B2001F038F90DF078FF1A480078FD
:10E89000002803D0184800780EF05CFB01201549D1
:10E8A00008700022FF21073115480068FEF7E2F9E1
:10E8B000054600BF2F46002F04D000BF3846FEF7A4
:10E8C00077F800BF00BF00200849088001201449E4
:10E8D000087002E0002012490870F8BD982000205E
:10E8E000FFFF00007C2000207E2000206A20002006
:10E8F0007102000085200020B72000207A2000202F
:10E90000F4D602008920002024210020B820002015
:10E910008E200020A5200020562100207F200020EE
:10E920008020002070B503460020082B2DD2012A3C
:10E9300007D1012903D11C460E34E4B200E00024C3
:10E940002246002918D0012902D002291AD10DE04F
:10E950005C001C190E4D2A55012B06D914460934AA
:10E960005D005D190A4EAD19AC700DE05C001C191C
:10E97000074D6419627007E05C001C19044D6419AE
:10E98000A27001E0072000BF00E0072070BD00007A
:10E990003427002070B50446002506480078C007DB
:10E9A000C00F002803D0204600F064F80546284632
:10E9B00070BD000038210020F7B505460E46002442
:10E9C0002248066022480560224902980860022019
:10E9D0002840002822D0022706E0012211463846AE
:10E9E000FFF7A0FF04467F1C082F01D2002CF4D0B3
:10E9F000002C05D1720808211748FDF74BFF04468B
:10EA0000002C02D1FDF730FF0446002C05D1134A3B
:10EA100000211348FEF7A2F8044600BFE807C00F24
:10EA2000002801D0FFF7B2FC002C05D10D4A0021CF
:10EA30000D48FEF793F80446002C05D10B4A01213E
:10EA40000B48FEF78BF804462046FEBD342100201B
:10EA5000382100203C2100207CD70200A1EE0100DB
:10EA600078D702002D2E020070D7020035C80100B1
:10EA700074D70200F8B5044600250026A84800789F
:10EA8000002804D00020A6490870FFF797FC230057
:10EA9000FDF754F9190EF01347487677858B99A93D
:10EAA000B7C7F1F2F3F4F5EAE9E8E7E6CCE5F00000
:10EAB000FFF784FC9B4804702EE10020FFF74CFC1C
:10EAC00000280ED098480078002801D1FFF730FCCC
:10EAD000022C02D1FF20F53001E07D2040010646E6
:10EAE0000DE091480078002801D1FFF72BFC022CA3
:10EAF00002D1FF20F53001E0FF2091300646894821
:10EB0000047064213046FCF701FB884909684843DA
:10EB100007460022394686480068FEF7ABF80546EE
:10EB2000FAE0F9E00020FFF717FC00280BD00020E6
:10EB3000FFF7FEFB042C02D17D20400101E07D2087
:10EB4000400106460AE00020FFF7FCFB042C02D13E
:10EB5000FF20913001E0FF2091300646714804709B
:10EB600064213046FCF7D2FA7049096848430746E9
:10EB7000002239466E480068FEF77CF80546CBE077
:10EB8000CAE00020FFF7B6FB664804706748002221
:10EB9000016867480068FEF76DF80546BCE0002094
:10EBA000FFF7C6FB5F480470B6E001205C490870BF
:10EBB000FFF7A0FB5D48002201685D480068FEF792
:10EBC00059F80546A8E0012055490870FFF792FB67
:10EBD0005648006882008118002255480068FEF7F8
:10EBE00049F8054698E001204D490870FFF782FB7F
:10EBF0004E48002201684E480068FEF73BF8054683
:10EC00008AE0012046490870FFF774FB4748006816
:10EC100082008118002246480068FEF72BF805465E
:10EC20007AE0FFF7D5FB3F48047075E04148006883
:10EC3000FEF74AF80546002D0DD13C4800688200D9
:10EC4000811800223B480068FEF714F805460020B2
:10EC5000FFF778FB02E00020FFF76AFB5CE055E07D
:10EC600053E047E03EE035E02FE008E006E004E056
:10EC700002E000E04FE000BF00BF00BF00BF2D4832
:10EC80000068FEF721F805461120061B002E18D05B
:10EC9000002D16D1012E10D9C821714308466421D8
:10ECA000FCF734FA214909684843074600223946EF
:10ECB00020480068FDF7DEFF05460220FFF742FB13
:10ECC00002E00220FFF734FB26E0FFF777FB154850
:10ECD000047021E0FFF772FB0020FFF733FB1148BF
:10ECE000047019E0FFF76AFB0120FFF72BFB0D48CA
:10ECF000047011E0FFF762FB0020FFF723FB012007
:10ED0000FFF720FB0748047006E000BFFFF760FB39
:10ED10000448047000E000BF00BF2846F8BD0000B2
:10ED200031210020302100208320002034210020C8
:10ED300070D7020074D702000246002901DA0020D1
:10ED400003E013685B18136001207047F0B585B0CD
:10ED500004460D46641C0127012003900020029008
:10ED600002A8FDF7CDFF1F48006828601D48006815
:10ED70001C494968411A1B488068401C461AE01922
:10ED800001900198B04221D9002E1CD0164800688D
:10ED9000009000988005800D144909688902890A4D
:10EDA0008902084300900F48009A00680D490968DD
:10EDB000491C0C4B196019468968084081001846A7
:10EDC0000C30425000BF0020039004E0054800686A
:10EDD0000019044908606846007AFDF7BBFF0398F4
:10EDE00005B0F0BD603000205CD90200D0220020C8
:10EDF0000448406803490968884201D101207047EE
:10EE00000020FCE76030002070B504460D460F205E
:10EE100006F02EF8112006F02BF8122006F028F844
:10EE2000132006F025F8142006F022F8152006F02D
:10EE30001FF8162006F01CF8172006F019F81148E4
:10EE40000078002804D100F051FA01200D49087023
:10EE500000200D4908600D4908800D480078002801
:10EE600005D10C4806F072FD0120094908700A48D6
:10EE70000078002805D0094806F032FB002006493A
:10EE8000087070BD87200020242000206C20002006
:10EE900088200020B8D6020086200020C8D60200B4
:10EEA00010B5044620780221FFF708FB10BD0000D2
:10EEB000F8B50546134A14490320FFF77DFD0446C3
:10EEC00000BF2646002E04D000BF3046FDF770FD7F
:10EED00000BF00BF69460020FFF796FA044600BF56
:10EEE0002646002E04D000BF3046FDF761FD00BF6E
:10EEF00000BF68460078022801D1012000E0002010
:10EF00002870F8BD95E501008F02000030B502467B
:10EF10000B4602210EE08D0014462C412007000F05
:10EF2000092802DD0446373401E004463034012567
:10EF30006D1A5C550C46491E002CECD130BD00000A
:10EF4000014608680D4A024012090C4BDB4303409E
:10EF50001B011A4310460A4A02409208084BDB4341
:10EF600003409B001A431046064A02405208054BD4
:10EF7000DB4303405B001A4310467047F0F0F0F0AB
:10EF8000CCCCCCCCAAAAAAAA01468879012808D15F
:10EF90000879012805D14888034A904201D101200F
:10EFA00070470020FCE70000022900000021C9434F
:10EFB0008200054B9950042804DB0B46011F024ACE
:10EFC0005032535470470000C82D0020014688007D
:10EFD000014A105870470000C82D0020F7B585B0D1
:10EFE0000B460020C0430490002A01D0002000E01E
:10EFF00004200390002A01D0042000E00C2002909D
:10F0000003991EE08800124C2058401C002817D19C
:10F010000846059C0093019246B20D4D30352E55A1
:10F0200085000B4E009B7351019A002A04D166B2F1
:10F03000051F074F50377E5500BF48B2049003E0CC
:10F04000491C02988142DDD300BF049808B0F0BD8E
:10F05000C82D00200146014840567047F82D002079
:10F06000F0B58FB007460D4614461E4600BF002D72
:10F0700001D0012000E0002000900098002803D17A
:10F0800000BFFDF795FC00BF00BF00BF002C01DDF5
:10F09000012000E0002000900098002803D100BF6C
:10F0A000FDF786FC00BF00BF1C2107A8FCF775F820
:10F0B0006946087F02218843801C69460877002042
:10F0C00008900A900B900C900D9000BF012108A8A9
:10F0D00081766846078700BF002001903178684636
:10F0E000017171784171807906218843811C6846DD
:10F0F0008171807908218843014668468171807951
:10F100001021884301466846817180794108490091
:10F1100068468171142102A8FCF73FF80EA80290FE
:10F1200001A80390684604820021418284820695EA
:10F1300002AA07A902480088149BA2DF0FB0F0BD05
:10F14000002200200146002907D00548884204D843
:10F150000448884201D9012070470020FCE70000E4
:10F160002C2300207C23002070B505460E46002489
:10F1700007E0E100685803F036FE002800D170BDBA
:10F18000641CB442F5D30120F9E700000A49496C38
:10F1900000290FD00849096CC900074A8918016085
:10F1A0001146096C491C4907490F11641146496C05
:10F1B000491E516470470000742F00200649026800
:10F1C0008A4203D00168083101607047024938392A
:10F1D000016000BFF9E70000AC2F00200178022990
:10F1E00002D0017803290BD106490A6C817D5118A0
:10F1F000044A116411464A6C817D511A014A5164D6
:10F2000070470000742F0020F8B504460D46104EDC
:10F21000304684420BD1FF21013128460AF002F921
:10F220000646FF20013086420FD126460DE0FF2C16
:10F230000BDC214628460AF0E4F80746002F01D0EF
:10F24000204600E00248064600BF3046F8BD0000F8
:10F25000FFFF000010B5FF2014301049086010496E
:10F26000C87C1049096888470F4810494860002049
:10F270000F49086101200F49086100BF0C4800696F
:10F280000028FBD000200A490861FF2018300349FC
:10F29000086001200749486010BD000000120040CE
:10F2A00078340020242300205A3700200015004025
:10F2B000001100400010004070B50546002D01D13E
:10F2C000094C01E0084C08340AE0204603F094FDA4
:10F2D0000646002E00D104E028467168884700BF2A
:10F2E000F3E700BF70BD0000BC2D002000200549E1
:10F2F000086001208107086000BF024800680028FC
:10F30000FBD0704700010040FEB51F480068002890
:10F3100036D01D48006805680BF000FB01901B48C3
:10F320000468214601980CF0E9FEC61C18480078D4
:10F33000002801D10BF004FBAE4201D2284600E0C8
:10F34000304604192402240A20460BF0E1FA0BF09F
:10F35000E5FA0090019900980CF0D0FEC71C2046F9
:10F3600001990CF0CBFE874209D90BF0D7FA07467A
:10F370000BF0CEFA2F2005F0EDFB0DF05FF901E068
:10F380000BF0FCFAFEBD0000882200208C22002039
:10F39000A022002001460888062808DB08881922D8
:10F3A000D201904205DD0888104A904201D0072022
:10F3B00070474888062808DB48881922D201904205
:10F3C00005DD4888094A904201D00720F0E7088807
:10F3D000064A904208D04888904205D008884A885A
:10F3E000904201DD0720E3E70020E1E7FFFF000096
:10F3F000FFB581B006460D4614462088801D04994D
:10F40000884202D90C2005B0F0BD3046FFF7C2FF9C
:10F41000074600BF002F01D03846F4E700BF0520A3
:10F42000218868542088401C20801220218868543C
:10F430002088401C20802288511930880DF0CFFB95
:10F440002188401820802288511970880DF0C7FB50
:10F450002188401820800020D5E710B5044600BF61
:10F460002046FDF7A5FA00BF10BD000030B587B0FB
:10F470001C216846FBF791FE002000900520C00388
:10F4800001900F20000402900321684601730021BF
:10F49000C181017400200590084806906846FEF777
:10F4A000BBF9044600BF2546002D04D000BF284606
:10F4B000FDF77EFA00BF00BF07B030BD5BF401006E
:10F4C00038B51F4803F0F4FB002829D11D48007807
:10F4D00000280AD01C484069002820D00020009055
:10F4E000194841696846884719E01848007800289B
:10F4F00002D11548456801E0134885680022294675
:10F5000013480068FDF7B6FB0446002C07D00E48F0
:10F510008069002803D00C488169204688470AE0AA
:10F5200009484069002806D001200090064841693A
:10F530006846884700BF00200249087038BD0000B7
:10F540009021002098210020182900208C210020E3
:10F55000BCD702003EB504462088FEF7C5F9002856
:10F560001AD020880F490978FEF764FA002805D1DF
:10F57000208800220C490978FEF770FA2188684635
:10F580004180052101702088FEF7BAF969460871AB
:10F59000684601F025F904E020880122034900F0C3
:10F5A00091FA3EBDE7210020E62100200610000070
:10F5B00010B50A2200210846FFF7B4F9044600BF3F
:10F5C000002C03D0072C01D0204610BD00BF07221D
:10F5D00000210120FFF7A6F9044600BF002C03D04C
:10F5E000072C01D02046F0E700BF042202210120B1
:10F5F000FFF798F9044600BF002C03D0072C01D078
:10F600002046E2E700BF0020DFE7000070B50646B5
:10F610000D46002E01D0012070BD2879002804D0AD
:10F62000012809D0022811D10EE028460AF0DAFD9F
:10F630000446022028710BE0284601F0B3FB044683
:10F640000A2C00D1044C03E0034C01E00F2400BF5E
:10F6500000BF2046E0E700001D1D000010B503219B
:10F660001C2006F044FD03211D2006F040FD244A25
:10F670000121002006F046FE1C2006F06DFD002151
:10F680001C2006F0DFFD1D2006F066FD00211D2078
:10F6900006F0D8FD1A480068010F0320884304468D
:10F6A000002C06D0012C0DD0022C15D0032C24D117
:10F6B0001AE001201349087000201349087013490B
:10F6C00008701BE000200F49087001200E490870E7
:10F6D00000200E49087011E001200A4908700A490B
:10F6E00008700A49087009E00020064908700649B8
:10F6F000087001200549087000E000BF00BF10BD80
:10F700001C200020E91F0020EA1F0020EB1F002022
:10F71000F8B5002535E0E8001C490968441821784F
:10F720000120884006461A4800683040002826D04C
:10F7300017480068B04316490860207805F0A2FC1D
:10F74000074621780120884012490968084022783C
:10F7500039469140884211D16078012800D100E0FB
:10F76000002078400121484000906068002804D0C3
:10F77000009BD9B220786268904700BF00BF681C28
:10F78000C5B2054800788542C5DBF8BD5C22002083
:10F790006C220020682200206022002030B593B047
:10F7A0000221684601711E49C1801E490181012163
:10F7B0004181402103A8FBF7F0FC1BA103A8FEF741
:10F7C0000BFC01A8119000BF10A8007A01090901E3
:10F7D000491C10A80172007AF0218843203010A93A
:10F7E000087200BF00BF12A840780009000112A9EA
:10F7F000487012A84078F021884312A9487000BFD1
:10F8000003A8FEF787F9044600BF2546002D04D063
:10F8100000BF2846FDF7CCF800BF00BF13B030BDD5
:10F82000AC0500004F0200004E6F726469635365BF
:10F830006D69636F6E647563746F720010B505480F
:10F840000078002805D0044805F0E8FF00200149B1
:10F85000087010BD81200020ECD6020070B504466F
:10F8600020793D2801D1054801E01120000205461C
:10F8700020880022294603F07BFC70BD3D1000006B
:10F8800070B50E480078401C0C4908700846007896
:10F890000007000F08700A49084A1278885C06F0D1
:10F8A00077FA044600BF2546002D04D000BF284645
:10F8B000FDF77EF800BF00BF70BD0000ED1F002007
:10F8C000A8D6020070B50024182006F051FC0021D3
:10F8D000192006F019FC00211E2006F015FC002559
:10F8E00012E00021182006F0CDFC0121182006F0BE
:10F8F000C9FC600044B21E2006F07EFC002801D046
:10F9000001200443681C45B2082DEADB204670BD87
:10F9100070B50446182006F02BFC1E2006F028FCCB
:10F920000021192006F0F0FB002518E00021182026
:10F9300006F0A8FC80202040002804D001211E20D1
:10F9400006F0A0FC03E000211E2006F09BFC6006F0
:10F95000040E0121182006F095FC681CC5B2082D84
:10F96000E4DB00211E2006F08DFC70BD014614482A
:10F970000078144A127890421DD011480078401C3B
:10F980000F4A107010460078022801D10020107034
:10F990000B48007880000C4A105808600B4A086831
:10F9A00012688018094A1060104600680002000AB8
:10F9B0001060012070470020086000BFFAE70000D7
:10F9C0009822002099220020902200208C220020E2
:10F9D0001FB516480078002826D1154B0FCB6C4672
:10F9E0000FC41A216846C1701E218170192141700F
:10F9F000182101700F480078062802D101208007E5
:10FA0000029000BF0C4A69460C4805F03BFE0446D4
:10FA1000002C04D000BF2046FCF7CAFF00BF00BF87
:10FA200001200249087000BF1FBD00008120002096
:10FA300028D70200252100206DBD0200ECD602006F
:10FA4000F8B504460D4628882070FF2109020140C0
:10FA50000912617002210E46AA783146761C625462
:10FA6000EA783146761C625400BF042E01D1012091
:10FA700000E000200746002F03D100BFFCF798FFED
:10FA800000BF00BF3046F8BDF8B505460E4600245D
:10FA900006270620009039460948FBF77EFB00BF89
:10FAA0000AE020460099FBF747FB705C295D48405F
:10FAB00003490855601CC4B2BC42F2DB0048F8BDE3
:10FAC00027210020FEB504460D461646084A07CAFF
:10FAD0006B4607C3684644808580867100220548CE
:10FAE00001782046FDF7BAFF684600F079FEFEBDBA
:10FAF00030D80200E621002070B504465A210920C2
:10FB00000DF0B4FB06200AF0C1FAC5B26D076D0F07
:10FB1000132C06D108202843014606200DF0A6FB31
:10FB200003E0294606200DF0A1FB21464B200DF0F5
:10FB30009DFB002109200DF099FB70BD10B5044616
:10FB40005A2109200DF092FB214605200DF08EFB75
:10FB5000002109200DF08AFB10BD0000F0B58DB02A
:10FB600000200A9009900820089000200790069035
:10FB70000590002704900390002602900120019038
:10FB80000020FE490860FE490880FE490880FE48C2
:10FB9000007800286AD0FD480078012807D1FC4889
:10FBA0000078FC490870FA48407848702BE0F74824
:10FBB0000078002827D00027F54880780390012698
:10FBC00010E070003018801CF149095C03988142F4
:10FBD00006DB70003018801CED49085C0390374646
:10FBE000701CC6B2E94800788642EADB7800381813
:10FBF000E749085CE749087078003818401CE44978
:10FC0000085CE4494870E349487804F0F1F9E148B8
:10FC10000178002006F060F9054600BF002D02D0F3
:10FC200028460DB0F0BD00BF1F2464032078D949D9
:10FC30000978884207D12079D6494978884202D18B
:10FC4000207ABC286FD0204601F08EF9D148017887
:10FC5000204601F0A5F9CF484178201D01F0A0F918
:10FC6000BC212046083001F09BF95CE01F246403AE
:10FC7000207ABC2849D00F2005F0FAF8112005F0B1
:10FC8000F7F8122005F0F4F8132005F0F1F814202D
:10FC900005F0EEF8152005F0EBF8162005F0E8F871
:10FCA000172005F0E5F8BC4805F040FE0020BB49F0
:10FCB0000870FFF78DFEBA480078002805D01320A1
:10FCC000FFF71AFF0020B6490870FFF7B7FDB548E7
:10FCD0000078002808D005F0B5FA0020B149087076
:10FCE00001F084FEB0490860B0480078002804D0D4
:10FCF0000020AE49087004F0D3FF05E006F0F0FCE8
:10FD0000002801D10CF0EEF9F8E7207904F070F941
:10FD10002178002006F0E0F8054600BF002D01D054
:10FD200028467EE700BF0020A14948710846407977
:10FD3000022108439E49487100219D488171C1718B
:10FD4000017241728172C1729A4841789848017378
:10FD50009848817896484173092095490870012098
:10FD6000954908709249C87000209449487089E20A
:10FD70009348007800287DD08A480078002820D158
:10FD800001F034FE8849096888421AD08D49002064
:10FD900005F0E4F9054600BF0095009D002D04D054
:10FDA00000BF0098FCF704FE00BF00BF002006F073
:10FDB0005FFE05F0BFF901207A49087000206F4905
:10FDC00008606E480068804988427DD300210F207A
:10FDD00005F07EF80021112005F07AF800211220AC
:10FDE00005F076F80021132005F072F800211420A8
:10FDF00005F06EF80021152005F06AF800211620A4
:10FE000005F066F80021172005F062F8624805F059
:10FE10008DFD0020614908705849086061480078EC
:10FE2000002808D005F00EFA00205E49087001F0A5
:10FE3000DDFD5D4908605D480078002804D00020A1
:10FE40005A49087004F02CFF00210F2005F040F8FB
:10FE50000021112005F03CF80021122005F038F8AF
:10FE60000021132005F034F80021142005F030F8AB
:10FE7000002100E06BE1152005F02AF80021162092
:10FE800005F026F80021172005F022F84F480078E9
:10FE9000002805D001208107486000204B490870E8
:10FEA0004B480078002808D14A4805F029FB49480A
:10FEB00005F010FB012046490870002046490880E3
:10FEC000BC20FFF73BFE97E098E006F009FC002815
:10FED00001D1FBF7F7FB01F089FD3349096888423E
:10FEE00004D003211120FEF78FFF86E03B4A012159
:10FEF000002006F007FA39480068C10B012088434A
:10FF0000002808D025480078002803D103211120BB
:10FF1000FEF77AFF71E031480068410C0120884308
:10FF2000002808D01D480078002803D103211120A3
:10FF3000FEF76AFF61E01948007800280AD02448DB
:10FF40000078002805D0234805F0CAFA002020498F
:10FF5000087052E0204800884B21890188424BD12B
:10FF6000FFF736FD0E480078002805D01320FFF774
:10FF7000C3FD00200A49087032E000002420002060
:10FF8000942000206C200020162000202820002033
:10FF90003820002032200020B8D60200882000201F
:10FFA00085200020842000201820002082200020AE
:10FFB000EE1F0020A920002013200020783400200C
:10FFC0002A200020299C0200EE0200008720002049
:10FFD00086200020C8D60200782000201C200020A7
:10FFE000FFF72CFCA8480078002805D0A74805F0AA
:10FFF00077FA0020A449087067E751E0A448006838
:020000040002F8
:10000000FF217831884209D3A2480088FF21F531C9
:10001000884245D1A0489E49086041E0FFF7D8FCDE
:100020009E48007800280FD11B20FFF765FD0CF0DB
:10003000A5FB9B480078002803D0994800780CF075
:1000400089FF01209549087096480078002827D03C
:100050000020944908709448007802280AD19048FA
:100060000078401CC0B28E49087005280CDB0120C6
:10007000087009E08A480078401CC0B288490870BE
:10008000042801DB01200870854800784006000E36
:1000900086490870FFF79CFC814800780CF05AFFF5
:1000A0000020834908707D48007800284FD0032243
:1000B0000BA90CA801F05AFC002848D07D48007814
:1000C000002804D06846008E404201B20C917A4864
:1000D0000078002804D06846808D404201B20B9120
:1000E00076480078002816D06846808DC1B27448E2
:1000F00001726846808D0004010E714841726846A5
:10010000008EC1B26E4881726846008E0004010EF6
:100110006B48C17215E06846008EC1B26848017232
:100120006846008E0004010E654841726846808D65
:10013000C1B2634881726846808D0004010E604838
:10014000C17260480078022108435E4908705D482A
:10015000007800287ED000204D490860594800787A
:10016000C007C00F002805D056480078400840005E
:10017000544908705348007802210840002804D0F0
:100180005048007888434F4908704E480078042151
:10019000084000280FD04B48007888434949087030
:1001A0004748C079484909684018C1B24448C171FC
:1001B00000204549086057E0002044490870444940
:1001C00008703F49C870434948703D4805F0A0FE9B
:1001D000002848D100BF3D480078002803D13C48A2
:1001E00000780028F7D02B480088FF21F53188429D
:1001F00004DA28480088401C2649088033480078E3
:1002000000280FD005203349C881002001900790B5
:100210002049088000212A48C1710172417281720F
:10022000C17222E00198002804D101200190FFF75B
:1002300027FB19E000202749C8810798401C079038
:10024000079820280CD300211D488171C1710172CB
:10025000417200E010E08172C1720020079004E05A
:10026000FFF70EFB00E000E0A6E700BF06F038FA5B
:10027000002801D1FBF726FA06F032FA002801D156
:10028000FBF720FA74E5000086200020C8D60200A3
:10029000242000206C200020EE0200008520002099
:1002A000B72000201720002024210020B8200020A3
:1002B0002A200020EA1F0020EB1F0020E91F002059
:1002C000EE1F0020292000206020002013200020A5
:1002D0001420002078340020F0B589B000240020DC
:1002E0000890082007900020069005900025002621
:1002F00000270490039002900190012000903AE1C1
:10030000642D1EDB0A2E05DB01209D490870FEF7D7
:100310000FF831E10598401E80B2059000280CD0FE
:100320000025002097490870002606219648FAF714
:1003300034FF0120FDF7DEFF03E00120FDF7F8FFA9
:100340001AE1681C85B29148007800287DD0002011
:100350008E49087001208E49C87000208D49487070
:100360008B4805F0D5FD00286FD100BF8748007885
:100370000028FBD0781CC7B20120864948700020B5
:100380008549087005F034FD002409E082480078B2
:10039000002800D008E0012004F09CFB601C84B21F
:1003A0004B20C0008442F1DB00BF05F06BFD7A48B2
:1003B0000078002877D00020009000277748407907
:1003C00034287ED17548807A75494978884278D139
:1003D0007248C17A72488078814272D16F48407AFF
:1003E00000280CD06D488079674908706B48C07947
:1003F000487001206349087061490870BCE000241E
:1004000026E0600020186049095C644880798142D8
:100410001CD160002018401C5B49095C5F48C07912
:10042000814213D160002018801C5749085CFA28CB
:100430000ADA60002018801C085C401CC1B2600011
:100440002018801C504A115404E036E0601C84B22D
:10045000022CD6DB00BF022C21DB4A4800780228A0
:100460001DDA4E488079474909784A008918464A7A
:1004700050544A48C1794348007842008018401CD3
:10048000414A115401213F48007842008018801CE5
:100490003D4A11543B480078401C3A490870701C92
:1004A000C6B20EE0FFE70098002807D1042F08DB52
:1004B000012000900027FFF7E3F902E00027FFF793
:1004C000DFF90321012005F012FE0321112005F0C0
:1004D0000EFE344A0121002005F014FF3148006867
:1004E000C10B0120884300280FD00198642804DA4A
:1004F0000198401C80B2019012E02B48007800283F
:100500000ED10120284908700AE0002001902648F9
:100510000078002804D00AF00DFF0020224908705E
:1005200020480068410C01208843002817D01F484C
:100530000088401C1D490880084600881C498842E4
:1005400005D10020FDF7FEFE0120FDF7FBFE15485A
:100550000068410C012088431249086009E01348F3
:1005600000881349884201DB0AF0E4FE00200F49AD
:10057000088006F0B5F8C3E600BF09B0F0BD000082
:1005800016200020282000203820002013200020E2
:10059000EE1F002078340020152000207C2300204E
:1005A000A92000201C2000208A2000206820002094
:1005B0002308000010B50446A08928DF10BD000004
:1005C00010B588B028A0006807901822274901A814
:1005D000FAF7CAFD012168460171FF21F531018258
:1005E0000021017322480290684641710121017681
:1005F0000521C175022141730521418201A805F041
:10060000DBFA044600BF002C02D0204608B010BD23
:1006100000BF032005F07AFB044600BF002C01D088
:100620002046F3E700BF07A805F094FB044600BF8F
:10063000002C01D02046E9E700BFA321002005F0EF
:100640004BFC044600BF002C01D02046DEE700BF73
:10065000042005F0B5FB044600BF002C01D0204665
:10066000D4E700BF2046D1E73E145B6D08D70200F7
:10067000ED5A020000B502781300FBF75FFB073468
:10068000050811212A31340000220A702CE00122D1
:100690000A7003898B818388CB81C2688A6023E0DA
:1006A00002220A7003898B818388CB81C2688A60A9
:1006B000027C062A01D1012300E000230B7413E021
:1006C00003220A70C3888B810389CB81C2688A6048
:1006D0000AE004220A70C3888B810023CB8103E0E7
:1006E00005220A7000E000BF00BF00BD70B50546DE
:1006F00000240AE0A00006490858002804D0A00001
:100700000A46115828468847641C082CF2D370BD4D
:10071000DC2E00203EB505460C46002C1BD0112CCB
:1007200019D0002000900190029068464580019405
:100730000D2C03D10B206946087008E0862C03D1EC
:100740000A206946087002E0092069460870684678
:1007500000F056F800BF3EBD70B50546002405E028
:10076000A000044A115828468847641C002CF7D082
:1007700070BD00009C21002070B50546002405E0F6
:10078000A000044A115828468847641C002CF7D062
:1007900070BD0000A821002070B50546002405E0CA
:1007A000A000044A115828468847641C022CF7D33D
:1007B00070BD0000D8D7020070B50546002405E0E2
:1007C000A000054A115828468847641C0348007851
:1007D0008442F5DB70BD0000682D0020E22100207E
:1007E00070B50546002405E0A000044A11582846CB
:1007F0008847641C022CF7D370BD0000F8D70200B4
:1008000070B50546002405E0A000044A11582846AA
:100810008847641C002CF7D070BD00003CD8020053
:10082000F0B50346002420E0134E306806689E426F
:1008300003D90668F61A06601BE006689B1B06686B
:100840003419002606600C4E35680B4FC6693E60B1
:10085000C668002E08D00E193602360A4660C668F1
:1008600086601668C661156000BF034800680028EE
:10087000DAD100BFF0BD0000882200201FB5044679
:100880006068002801D1012000E00020039020785A
:100890000300FBF753FA068A04053456838A00BF27
:1008A000A08900F09FFA002804D1E08909F0B6FD84
:1008B000002823D0A08900F08FFA69464880E0899B
:1008C00009F0A6FD694608712078012807D1606803
:1008D000002800D100E003206946087007E0606846
:1008E000002801D1012000E00420694608706068FA
:1008F0000390A0680290684607F090FE56E0A08939
:1009000000F070FA002804D1E08909F087FD002882
:1009100016D0A08900F060FA69464880E08909F0A5
:1009200077FD694608716068002801D1022000E067
:10093000052069460870A0680290684607F06EFEC0
:1009400034E0A08900F04EFA002826D0E089002883
:1009500023D1A08900F040FA69464880E08909F077
:1009600057FD014668460171FF210171606800284A
:1009700006D1062069460870488808F073F802E03E
:1009800007206946087000200E4908700E4908705B
:1009900007F0B6FF684607F041FE07E00820694609
:1009A0000870684607F03AFE00E000BF00BF054847
:1009B0000078002804D000200249087007F0A0FF4A
:1009C0001FBD0000BD210020BE21002010B588B051
:1009D0000446022000F03EFA002802D1022008B0AE
:1009E00010BD0C48844201D10420F8E70521684677
:1009F00001710121017201A8C4800022114607F093
:100A0000CFF8002803D009F09EFA0020E7E708207D
:100A1000E5E70000FFFF000000B587B0022000F00E
:100A200019FA002802D1022007B000BD062069464D
:100A3000087000221146684607F0B2F800280AD074
:100A400006480078002802D001200449087309F004
:100A50007AFA0020E8E70820E6E70000DC2F002013
:100A600010B58CB0142107A8FAF797FB022000F00C
:100A7000F1F9002805D007A8FFF738FE00200CB0D8
:100A800010BD012000F0E6F9002801D00020F6E7B3
:100A9000012000F0EBF900F0B7FB01206946087077
:100AA00007F0CCF904462300FBF748F90C071508BA
:100AB0001628230A24281A1F1B2800BF0B20DEE754
:100AC000022000F0D3F9012000F0AAF907A8FFF7EF
