:020000040001F9
:10B0000000400020D5B00100EFB00100F1B0010018
:10B010000000000000000000000000000000000030
:10B02000000000000000000000000000F3B001007C
:10B030000000000000000000F5B00100F7B00100C2
:10B0400059B9010095BA010025BD0100CDBB010031
:10B05000F9B001000000000089B40100F5B2010060
:10B06000F5BC01000DBD0100F9B00100F9B001000F
:10B07000F9B0010015BB0100F9B00100F9B0010001
:10B08000F9B00100A5BB0100ADB90100F9B00100A4
:10B09000E5BB0100F9B00100EDBB010021BC0100DE
:10B0A000F9B00100F9B0010000000000000000004C
:10B0B0000000000000000000000000000000000090
:10B0C0000348854600F0B8F8004800476939020097
:10B0D000004000200321094802680A430260084832
:10B0E00002680A4302600748804707480047FEE7B6
:10B0F000FEE7FEE7FEE7FEE7FEE70000240500406E
:10B100005405004091BC0100C1B0010030B50B46B0
:10B11000014600202022012409E00D46D5409D4231
:10B1200005D31D469540491B2546954040191546B7
:10B13000521E002DF1DC30BD70B5002425460028DC
:10B1400001DA01244042002901DA01254942FFF7D2
:10B15000DDFFAC4200D04042002C00D0494270BD1F
:10B160000048704798DA020003460B439B0703D060
:10B1700009E008C9121F08C0042AFAD203E00B78BC
:10B180000370401C491C521EF9D27047D2B201E034
:10B190000270401C491EFBD270470022F6E710B532
:10B1A00013460A4604461946FFF7F0FF204610BD35
:10B1B000421C0178401C0029FBD1801A704730B531
:10B1C00004460020034600E05B1C934203D2E05C8F
:10B1D000CD5C401BF8D030BDF0B51FB40646002052
:10B1E00082B005464024019100901BE0019922465F
:10B1F0000F46304600F042F8049A059B801A9941A8
:10B2000010D310461946224600F028F8361A8F410E
:10B210000197224601200021009F00F01FF83818F6
:10B220004D4100902046641E0028DFDC019B009801
:10B230002946324607B0F0BD064C0125064E05E012
:10B24000E36807CC2B430C3C98471034B442F7D347
:10B25000FFF73AFFECDA02000CDB020010B5202AFF
:10B2600004DB0146203A9140002010BD914020238C
:10B270009C1A0346E3401943904010BD10B5202AA4
:10B2800004DB0846203AD040002110BD0B46D340D5
:10B29000D0402024A21A91400843194610BD70B531
:10B2A0008C180578401C6B075B0F01D10378401C9C
:10B2B0002A1106D10278401C03E006780E70401C6B
:10B2C000491C5B1EF9D12B0705D40023521E0DD457
:10B2D0000B70491CFAE70378401CCB1A921C03E060
:10B2E0001D780D70491C5B1C521EF9D5A142D8D3A4
:10B2F000002070BD0EB51D48C06800281CD1FF207D
:10B30000013009F069FD012009F06EFD00BF002049
:10B310001749086000BF01216846017000BF14484A
:10B32000806801B26846818001201049887408460F
:10B3300001686846884718E000F0D6FF002814D05E
:10B34000012009F051FD0020694608700748C068D7
:10B3500001900648017C68460181012003498874F8
:10B36000084601686846884700BF0EBDF82E0020D9
:10B37000007500407FB5002500F05AF82649087096
:10B3800040E026480078002802D025480AF0A0FABC
:10B3900024480078030000F0E5FC06040A05060BCB
:10B3A000070E00BF00BF00BF11F0A6FD04E000BF04
:10B3B00000F04BF800E000BF00BF184800780028FC
:10B3C0001CD0194B0FCB6C460FC41A216846C170B4
:10B3D0001E218170192141701821017000BF134A8C
:10B3E00069460F480AF0A8F90446002C04D000BFB3
:10B3F000204601F0F1FA00BF00BF00BF00F018F8CE
:10B400000549087004480078002804D12846691CC2
:10B410004DB20328B5DB7FBD7D21002080200020B8
:10B4200078D602007F210020E8D70200E9BD0200A3
:10B4300010B500200EF0D2FE0446302C01D0312C85
:10B4400001D1012010BD0020FCE710B518200AF042
:10B45000D9FE012118200AF05FFF642009F024FDC5
:10B46000002118200AF058FF642009F01DFD012179
:10B4700018200AF051FF012009F0EDFCFF202D30CB
:10B4800009F012FD10BD0000F0B58FB000200E9045
:10B490000D90FF2001300C900126002416E00C983E
:10B4A0000AF0B8FF00280BD000BF92484068304037
:10B4B000002805D00C980AF0A5FF0E9830430E9096
:10B4C00076000C98001D80B20C90641C042CE6D30E
:10B4D000FF207D300AF09EFF00280DD0FF207D3038
:10B4E0000AF090FF0121C9070E9808430E900DAA9B
:10B4F000012100200AF068FF0E980007000F0028C5
:10B500002CD00126002427E00E983040002821D0BE
:10B5100000BF7948512109014018A10040581F215E
:10B5200009020840000A074600BF7348512109017B
:10B530004018A1004058032109040840000C0B905A
:10B54000204603F00FFF0546002D02D038460B9928
:10B55000A84700BF7600641C042CD5D30E98C00FFA
:10B56000C007002876D000200B900A90002505E047
:10B570000020C043A90009AA50506D1C002DF7D02F
:10B5800000BF00200B9000247AE05C48005D08902A
:10B59000C02108988843074658480057401C002897
:10B5A0006DD009A9384609F02BFC002867D0C021CE
:10B5B0000898084080110790384603F017FF05905F
:10B5C00003F0D0FE06900698002802D107980328C1
:10B5D00054D10798032815D10AA803970290039F16
:10B5E000F9080191039F7907490F03910199029886
:10B5F000415C0123039A93401943CAB20199425412
:10B6000000BF00BF00BF00BF052109070846B90001
:10B610000722120282185158032212041140090C09
:10B6200005910DA9384609F0EBFB04900498002819
:10B6300002D00598022805D0049800281DD105984D
:10B6400003281AD10798032810D10598022802D19F
:10B65000032001E04BE002200390384603990AF0F2
:10B66000E9FD0B98401CC0B20B9000BF0698002863
:10B6700003D03846069A0799904700BF00BF641C64
:10B68000082C82D30B9800282CD0012708AA01216E
:10B6900000200AF099FE00250AE0A80008A9085831
:10B6A000A9000DAA5158884201D0002702E06D1C64
:10B6B000002DF2D000BF002F02D000200B9010E030
:10B6C00000250CE0A80008A90858A9000DAA5050B0
:10B6D000A8000AA90858A90009AA50506D1C002DFD
:10B6E000F0D000BF0B98002800D04AE700BF0FB091
:10B6F000F0BD00000063004000600040682E0020A4
:10B7000020BF40BF20BF7047C206D20E012191402A
:10B71000014A11607047000080E200E0C206D20ECC
:10B7200001219140014A11607047000080E200E071
:10B73000C206D20E01219140014A116070470000FB
:10B7400080E100E0C206D20E01219140014A116061
:10B750007047000080E100E0C206D20E0121914056
:10B76000014A11607047000000E100E0C206D20EFD
:10B7700001219140014A11607047000000E100E0A2
:10B78000C206D20E01219140014A116070470000AB
:10B7900000E100E0C206D20E01219140014A116091
:10B7A0007047000000E200E0C206D20E0121914085
:10B7B000014A11607047000000E200E010B5002867
:10B7C00019DA1A4A03071B0F083B9B089B00D25843
:10B7D0008307DC0EFF23A3409A438B071B0E8407CD
:10B7E000E40EA3401A43114B0407240F083CA4089D
:10B7F000A4001A5118E00E4A03231B02D218830832
:10B800009B00D2588307DC0EFF23A3409A438B078B
:10B810001B0E8407E40EA3401A43054B03242402A5
:10B820001B198408A4001A5110BD00001CED00E093
:10B8300000E100E010B5002819DA1A4A03071B0FCF
:10B84000083B9B089B00D2588307DC0EFF23A340D4
:10B850009A438B071B0E8407E40EA3401A43114B37
:10B860000407240F083CA408A4001A5118E00E4A4B
:10B8700003231B02D21883089B00D2588307DC0ED7
:10B88000FF23A3409A438B071B0E8407E40EA340BB
:10B890001A43054B032424021B198408A4001A51DF
:10B8A00010BD00001CED00E000E100E010B5002834
:10B8B00019DA1A4A03071B0F083B9B089B00D25852
:10B8C0008307DC0EFF23A3409A438B071B0E8407DC
:10B8D000E40EA3401A43114B0407240F083CA408AC
:10B8E000A4001A5118E00E4A03231B02D218830841
:10B8F0009B00D2588307DC0EFF23A3409A438B079B
:10B900001B0E8407E40EA3401A43054B03242402B4
:10B910001B198408A4001A5110BD00001CED00E0A2
:10B9200000E100E000BF00BF00BFBFF34F8F00BFCA
:10B9300000BF00BF06480749C86000BF00BF00BF86
:10B94000BFF34F8F00BF00BF00BF00BF00BFFDE7C8
:10B950000400FA0500ED00E010B5FF20013009F009
:10B960005AFA00280CD0FF20013009F05FFA0120BC
:10B9700009F062FA01200C494870002003F068FECB
:10B98000FF20053009F047FA00280BD0FF200530D2
:10B9900009F04CFA022009F04FFA012002498870A0
:10B9A00003F056FE10BD0000042E00201CB500BFA1
:10B9B000FF20013034494018006800281AD00120C7
:10B9C0000BF098F8002815D000BF0021FF200130AF
:10B9D0002D4A8018016000BF91156846018000BFA4
:10B9E0002A48C06841B268468170294A0199009886
:10B9F0001268904700BFFF200530234940180068B7
:10BA0000002822D002200BF075F800281DD000BFBE
:10BA10000021FF2005301C4A8018016000BFFF2173
:10BA200005316846018000BF1848806901B2684648
:10BA3000418000BF15484030806881B268468180EF
:10BA4000134A019900981268904700BFFF200930FF
:10BA50000D4940180068002815D004200BF04AF862
:10BA6000002810D000BF0020FF210931064A8918A4
:10BA7000086000BFFF20093069460880044A019928
:10BA80000098126890471CBD00200140002501402D
:10BA9000A422002010B51B480068002808D01A48CE
:10BAA0004068C007C00F002802D000201549086078
:10BAB0001448C06800280FD0134840680821084087
:10BAC000002809D000200F49C860104800680028ED
:10BAD00002D00E48006880470A48006900280FD04D
:10BAE0000948406810210840002809D00020054975
:10BAF000086107480068002802D0054800688047B0
:10BB000010BD000000110040001300407023002011
:10BB10006C2300201CB50020019001A801F004F95D
:10BB200010F04EF9002830D100BFFF200130194934
:10BB300040180068002801D0012000E00020002803
:10BB400023D00120144989680140002901D0012136
:10BB500000E00021002918D000BF0020FF210131A2
:10BB60000C4A8918086000BF00BF0C488068C0B24A
:10BB7000009069460A480AF0E5FF09480AF0CBFF41
:10BB8000002801D009F0A4FD00BF6846007901F04B
:10BB9000F5F81CBD00D0004000D3004000D50040A7
:10BBA00048D9020010B50020074908600021064866
:10BBB00041608160C16000200349403908604860ED
:10BBC00010F0F2FC10BD00004011014010B5034C14
:10BBD0002146034807F006FA10BD0000902E002011
:10BBE0000030004010B510F0EFFB10BD70B50B48F1
:10BBF000006800280ED0094800688047044600BF4E
:10BC00002546002D04D000BF284600F0E5FE00BF09
:10BC100000BF01E007F0F8F870BD00002423002009
:10BC20003EB519480068019002A809F0EDFF0446EE
:10BC3000002C27D115480068002823D00298C0079F
:10BC4000C00F002806D000206946087068460F49DA
:10BC500009688847022102980840002806D0012080
:10BC600069460870684609490968884704210298AE
:10BC70000840002806D0022069460870684603493B
:10BC8000096888473EBD000064230020442300204B
:10BC900010B507F0E7F9002805D0104810494860B2
:10BCA000C8131049886107F0C1F9002802D00120AB
:10BCB0000D49886007F00CFA00280ED00B48006888
:10BCC000012807D00A480949086000BF07480068F2
:10BCD0000128FBD1C0200549486110BDDFFF07C026
:10BCE00000050040006C00400006004000EC0640EB
:10BCF0007593000010B504220249034807F03EF98D
:10BD000010BD0000B02E00200080004010B50422BD
:10BD10000249034807F032F910BD0000BC2E002094
:10BD20000090004010B50249024810F094FE10BD8A
:10BD3000742E0020002000400FB41CB50A46521E8D
:10BD40000192009007A9064B6A46069800F040F859
:10BD5000009A002111701CBC08BC04B018470000F8
:10BD600045C2010030B47446641E2578641CAB42A1
:10BD700004D3635D5B00E31830BC18471D46F8E749
:10BD800002E008C8121F08C1002AFAD170477047A4
:10BD9000002001E001C1121F002AFBD17047000002
:10BDA0000146202909DA01208840054A1040002870
:10BDB00001D0012070470020FCE70120FAE70000D5
:10BDC000FC06FFBC00BFEFF31081084672B6704757
:10BDD000FFB591B00F460546002606E025280AD09B
:10BDE000149A139990476D1C761C28780028F5D179
:10BDF000304615B0F0BD002400940121F34A0294AE
:10BE000000E004436D1C2B780846203B984010420C
:10BE1000F7D128782A280ED0022128780246303A15
:10BE2000092A15D8009A0A235A43303A80180C433D
:10BE30006D1C0090F1E701CF0090002805DA012089
:10BE400040030443009840420090022004436D1CCC
:10BE500028782E2815D10420044368786D1C2A28E0
:10BE60000AD101CF6D1C02900BE002990A225143C6
:10BE7000303940186D1C0290287801463039092964
:10BE8000F3D928786C2810D006DC4C281AD0682802
:10BE90000ED06A2817D104E0742813D07A2812D162
:10BEA00010E00120400504430CE00121090501E0F8
:10BEB000032109050C436978814203D10120000563
:10BEC00024186D1C6D1C287803906E281ED00CDC85
:10BED000632831D004DC00288AD0582811D1B2E080
:10BEE00064287BD069280CD178E073282DD004DC3D
:10BEF0006F2870D0702804D1A7E075286CD07828FE
:10BF00006BD0149A13999047761C62E06002400F40
:10BF1000022807D003280AD0042838680AD006600F
:10BF20003F1D56E03868F11706604160F8E7386851
:10BF30000680F5E70670F3E7387869460874002054
:10BF4000487404A80390012003E03868039000209F
:10BF5000C0433F1D61070FD5002101E00199491C35
:10BF6000029A0191914213DA8142F7DB019A039917
:10BF7000895C0029F2D10BE0002101E00199491C04
:10BF800001918142FADB019A0399895C0029F5D17C
:10BF900001990098139A401A00902146149B00F0D2
:10BFA0003BF901998019461807E003980399007836
:10BFB000491C0391149A139990470198401E0190CF
:10BFC000401CF2D12146149B139A009800F014F9FA
:10BFD00086196D1C09E741E033E034E00A200021B6
:10BFE000049005916002410F022905D001CFC217CC
:10BFF0009446032905D007E0FF1DFF08FF0003CF8B
:10C0000006E000B2C2179446042902D140B2C1171B
:10C010008C4600226146944506DA0A4600214042D9
:10C0200091418C462D2102E0210504D52B216A4641
:10C030001176012103E0E10701D02021F7E701910A
:10C0400054E00A200BE0102009E0102004900021A9
:10C050000420044308200591029003E008200021F9
:10C06000059104906002410F022905D001CF002202
:10C070009446032906D006E0FF1DFF08FF0003CF0A
:10C080008C4603E080B2042900D1C0B200210191A6
:10C0900021072BD50399702906D0049A1021059BFE
:10C0A0004A401A4305D00EE040216A46117601212C
:10C0B00008E06146014306D030216A4611760399B3
:10C0C000517602210191049A0821059B4A401A43A6
:10C0D0000CD16146014301D1610707D530216A4681
:10C0E0001176012101910299491E02910399582963
:10C0F00004D037A103910FA90F910DE039A1F9E701
:10C100006146059B049AFFF767F8039B8C469B5C8E
:10C110000F9A521E0F92137061460143F0D10F988F
:10C1200007A9081A20300390600704D501200004F5
:10C130008443029801E0012002900399884201DDC6
:10C14000401A00E000204118029001980918009858
:10C15000401A0090E00306D42146149B139A0098DD
:10C1600000F05AF886190020049008E006A9085C3F
:10C17000149A139990470498401C761C04900199D6
:10C180008842F3DBE0030CD52146149B139A0098F8
:10C1900000F042F8861904E0149A30201399904771
:10C1A000761C0299481E02900029F5DC08E00F98E1
:10C1B0000F990078491C0F91149A13999047761C97
:10C1C0000399481E03900029F1DCFBE609280100D1
:10C1D00030313233343536373839616263646566FD
:10C1E00000000000303132333435363738394142BF
:10C1F0004344454600000000F8B5044600251E46AD
:10C200001746880404D405E039462020B0476D1C49
:10C21000641EF9D52846F8BDFFB50446002581B057
:10C220001E46C80301D5302700E02027880404D526
:10C2300005E038460399B0476D1C641EF9D52846C1
:10C2400005B0F0BD4A68002A06D00A68531C0B608E
:10C2500010704868401E48607047000038B50B48B1
:10C26000006800900A49684608F0B8FE044600BF1E
:10C270002546002D04D000BF284600F0ADFB00BFCE
:10C2800000BF044808F094FE38BD000050D70200FB
:10C2900099C20100B820002070B50446207800281B
:10C2A0001CD10F490860002508E069006068405E05
:10C2B0000B49096840180A4908606D1C2089A8428A
:10C2C000F3D8218906480068FEF720FF044908607A
:10C2D00000200449087008F0ADFE00BF70BD0000EA
:10C2E000B02000207720002010B5FF20013008F09A
:10C2F00073FD00BF00201E49086000BF00BF084654
:10C30000806800B21B49C9681A4A527C52008852A0
:10C310001848407C401C174948740846407C097CFA
:10C32000884223DA0024134880684068002804D13A
:10C33000104840680F49886005E00E4880684068F2
:10C340000C49886001240B498968086808F032FDAF
:10C3500000BF01200649086000BF002C04D000BFC8
:10C36000054A106000BF00BF002010BD0120FCE79F
:10C3700000750040F82E00200070004070B50546A2
:10C380000C46002D01D0002C01D1002070BD287872
:10C390002178884201D00020F8E70622611C681C41
:10C3A000FEF70DFF002801D10120EFE70020EDE7A7
:10C3B00010B50446204602F08FFF00BA10BD0246B9
:10C3C000002105E0505C002801D001207047491C85
:10C3D0000629F7D30020F9E710B50446002C0ED04B
:10C3E00008480068A0420AD806484068A04206D320
:10C3F000204606F0A4FE002801D0012010BD002038
:10C40000FCE70000BC23002000B501460B00FFF74D
:10C41000A9FC0504070A0D1014000948006800BDB6
:10C4200008480068FBE708480068F8E70748006824
:10C43000F5E7044800681830F1E701480068EEE7C6
:10C440007C2300208C2300209C230020AC23002090
:10C45000F7B582B0044616460025378800203080A4
:10C460002D20005D00280CD03A463146039801F09B
:10C470002FFB054600BF002D02D0284605B0F0BDB9
:10C4800000BFA07800280BD03A463146039800F050
:10C4900095FC054600BF002D01D02846EEE700BF01
:10C4A000E07800280DD0E17848B23B463246039947
:10C4B00004F088FE054600BF002D01D02846DDE7C8
:10C4C00000BF606800280ED00020616808563B4617
:10C4D0003246039910F0A4FA054600BF002D01D0A2
:10C4E0002846CBE700BF208900280FDD0197009682
:10C4F0000622022120460830039B10F0CBFD0546A2
:10C5000000BF002D01D02846B8E700BF208A0028D0
:10C510000FDD019700960722032120461030039B70
:10C5200010F0B8FD054600BF002D01D02846A5E754
:10C5300000BF208B00280FDD0197009615221421E3
:10C5400020461830039B10F0A5FD054600BF002DC6
:10C5500001D0284692E700BF206A00280CD03B4655
:10C560003246206A039903F00FF9054600BF002DFB
:10C5700001D0284682E700BF606A00280CD03B4605
:10C580003246606A039907F077FE054600BF002D2A
:10C5900001D0284672E700BF2C20005D00280CDD8A
:10C5A0003B463246204603990EF0C0FE054600BFCA
:10C5B000002D01D0284661E700BF207800280CD06C
:10C5C0003B4632462046039908F032FB054600BF41
:10C5D000002D01D0284651E700BF28464EE7000055
:10C5E00070B504461748FFF7EAFE0546012C06D051
:10C5F000022C0DD0032C14D0042C20D118E01248AA
:10C600004078002803D0002D01D0012070BD00BF6C
:10C610000D488078002803D0002D01D00220F5E7D6
:10C6200000BF0948C078002801D00320EEE700BF12
:10C6300005480079002801D00420E7E700BF00206A
:10C64000E4E70000B1210020BC27002010B504461B
:10C650000521601CFEF770FDC8B210BD0146C87808
:10C6600004221040002801D1072070470020FCE779
:10C6700010B504220221012002F034FB044600BF61
:10C68000002C03D0072C01D0204610BD00BF07228C
:10C690000021012002F026FB044600BF002C03D03D
:10C6A000072C01D02046F0E700BF0A22022100201B
:10C6B00002F018FB044600BF002C03D0072C01D069
:10C6C0002046E2E700BF0020DFE7000070B598B029
:10C6D0003C2109A8FEF761FD0526022108A8017189
:10C6E00001218171C6716846818618490E91202109
:10C6F00001A8FEF752FD0121684601714171817167
:10C7000020200390B42004906846C1712820059031
:10C71000B4200690684601721920C00107900120DC
:10C7200008900B480B4B01AA0021009009A800F0CB
:10C73000A7FD044600BF2546002D04D000BF2846B3
:10C7400000F04AF900BF00BF18B070BD8E20002075
:10C7500071D20100496D020070B5254A10212548AB
:10C76000FEF714FD08202449086022480CF084FAE2
:10C77000214801681F480DF017FA044600BF2546FE
:10C78000002D04D000BF284600F026F900BF00BFEE
:10C790001948016817480CF049FC0446062C09D0DA
:10C7A00000BF2546002D04D000BF284600F014F934
:10C7B00000BF00BF0020114908700F480068002822
:10C7C00003D000200E49087002E001200C490870D7
:10C7D000012000F0B7FE044600BF2546002D04D01E
:10C7E00000BF284600F0F8F800BF00BF70BD000091
:10C7F000FFFF0000C4250020942000209820002086
:10C80000C821002070B58CB004460D4616460020A5
:10C8100005E00F21091A615C6A461154401C10287A
:10C82000F7D30D2104A8FEF7B8FC002005E02A5C30
:10C830000F210B1A04A9CA54401C0328F7D36846D9
:10C840004DDF002005E00F210A1A08A9895C315448
:10C85000401C0328F7D30CB070BD000010B504468F
:10C86000002001F06DFD08480078401E0649087060
:10C8700008460078002806D10448006800F038FA1D
:10C88000002001F07BFD10BDAC20002008D8020084
:10C8900010B5002407E0E100064A1268505C01214F
:10C8A00008F0A6FC641C044800788442F3D30020FE
:10C8B00010BD0000AC220020B0220020FEB50646CC
:10C8C0000C461746052F01D20720FEBD08F0A4FD37
:10C8D000002808D108F072FD054600BF002D01D0E8
:10C8E0002846F2E700BF174806601748047017484B
:10C8F00007600020164908601649086017E0E0004C
:10C900008019019014480068009001988078694669
:10C91000487001990878114A694608F0C7FC054635
:10C9200000BF002D01D02846CFE700BF00BF204642
:10C93000611ECCB20028E2D1094A0021094800F06A
:10C9400021F9C2E7AC220020B0220020B42200204E
:10C95000B8220020BC220020D8D90200F11D02001C
:10C96000A9FA0100D4D9020013A101200AF018F895
:10C9700000BF09F0F9FE00BF00BF09F0FBFE002870
:10C98000FBD100BF00BF00BF00BF00BF00BF00BFA2
:10C99000BFF34F8F00BF00BF00BF0D480D49C860F7
:10C9A00000BF00BF00BFBFF34F8F00BF00BF00BF7D
:10C9B00000BF00BFFDE700004150505F4552524F9D
:10C9C000523A4552524F523A466174616C0D0A0018
:10C9D0000400FA0500ED00E03EB50446002000909A
:10C9E0000190029002946A4600210248FFF7BCFFC2
:10C9F0003EBD000001400000F7B582B007460C467E
:10CA000027480088844246DC264D0020019001A87A
:10CA100000F08AF900BF244800780090234800788D
:10CA200008F0BCF90099884201D1012000E0002003
:10CA3000002806D11D480578007808F0AFF91B4999
:10CA400008706846007900F099F91648854220D0B0
:10CA5000E900174A049812685050002F11D0002C9A
:10CA60000FDD0F4909886943124A12688818224667
:10CA70003946FEF779FBE8000D49096840188480C3
:10CA800005E00021E8000A4A12688018818000262B
:10CA900000E0042600E00926304605B0F0BD0000A5
:10CAA000CA220020FFFF0000C8220020C922002067
:10CAB000C0220020C4220020F8B51AE015480478EE
:10CAC000154800886043154909684518E000144975
:10CAD000096840188688E000114909680F583146F6
:10CAE0002846B8470B48007808F058F909490870FB
:10CAF00000BF00BF002000280BD100BF0549087807
:10CB000008490978814201D1012100E00021002972
:10CB1000D4D0F8BDC8220020CA220020C4220020A0
:10CB2000C0220020C922002030B50346481CC004A2
:10CB3000040C10468507AD0F002D01D1012500E042
:10CB40000025002D01D1072030BD084802601019D2
:10CB5000074D28600020074D2870074D28700748B2
:10CB60000380074801800020EEE70000C02200207B
:10CB7000C4220020C9220020C8220020CA2200208E
:10CB8000CC22002010B503460C4600BF0D4840687B
:10CB9000002801D1082010BD00BF002A01D10720C4
:10CBA000F9E7002B01D10720F5E71868007C002881
:10CBB00001D00820EFE71968002008744C744A611E
:10CBC00000BFE8E7D0220020F8B504460D4626460F
:10CBD00000BF082D01D1012000E000200746002FF2
:10CBE00003D100BFFFF7F8FE00BF00BF31687068D7
:10CBF0008847F8BD7CB504460D4600940195034A6C
:10CC000008216846FFF7F8FE7CBD0000C9CB010093
:10CC1000F8B507460D4614461E4620468107890F83
:10CC2000002901D1012100E00021002901D10720C4
:10CC3000F8BD002C01D10720FAE70DF047FF11489D
:10CC400006600020104908704870084685704460EE
:10CC500000200E4908600E4908700E490870142023
:10CC6000FEF752FD03211420FEF7E4FD1420FEF729
:10CC700073FD38460DF000FF0DF0F8FE0649086020
:10CC80000020D5E7EC220020D0220020D82200206E
:10CC9000E8220020E9220020DC220020F8B504462A
:10CCA0000E461746254600BF10484068002801D1AF
:10CCB0000820F8BD00BF002C01D10820F9E7052E9F
:10CCC00001D20720F5E76869002801D10820F0E7C4
:10CCD000687C012801D1304600E0002000903B46EE
:10CCE00031462846009A0FF00FFCE2E7D0220020E0
:10CCF00070B50446254600BF0A484068002801D1A7
:10CD0000082070BD00BF002C02D06869002801D146
:10CD10000820F6E700202874022128460FF022FCA4
:10CD2000EFE70000D022002070B5044600BFFFF7F7
:10CD300049F805460E48406800280ED101200C49EC
:10CD400048600C4800680C490840094908600A48D6
:10CD5000084908600020207001E001202070002DAB
:10CD600003D100BF62B600BF00BF00BF70BD0000AE
:10CD7000F422002080E100E0FC06FFBC70B5044610
:10CD800025460C484068002812D0002D10D1FFF72E
:10CD900019F8064607480068074908600020054959
:10CDA0004860002E03D100BF62B600BF00BF00BFC5
:10CDB00000BF70BDF422002000E100E0F8B5054698
:10CDC0000C4617462088001DB84201D90C20F8BD3A
:10CDD000684679DF064600BF002E01D03046F6E7F0
:10CDE00000BF0320218868542088401C208019201F
:10CDF000218868542088401C20802088411968467A
:10CE000000880FF0DAFE2188401820800020DEE73D
:10CE100030B58BB01448007800F024FE0546284653
:10CE20000DF088FF00281CD001A800F077FD142227
:10CE300001A906A8FEF798F900240EE0620007A9F0
:10CE4000885A0949097800F01BFE002804D06200C6
:10CE500007A9885A06F03AFC641C0698A042EDD84F
:10CE600000BF0BB030BD0000FA21002010B5044611
:10CE700063799A07920F2179208806F0F5FA10BDA0
:10CE800010B504462079002803D1204600F008F8A8
:10CE900003E02046FFF7EAFF00BF00BF10BD00001F
:10CEA000F0B589B004460025208800F0A9FD0746AA
:10CEB000208805F0FBFD0646A0680890607A079080
:10CEC000208800222249097800F0EEFD002F01D1D0
:10CED00009B0F0BD60794007C00F002811D00721CC
:10CEE00030460BF03FFB0546002D16D00821684662
:10CEF00001712188C1800681039501A803F014FE09
:10CF00000BE020881349097800F0BAFD002804D00E
:10CF1000304605F0B3FD039000BF0321684601745D
:10CF20002188418260794007C10F68460175A07968
:10CF30004007C10F04A84171811D08A8007808703E
:10CF400004A86946097FC17103F0EEFD00BFBFE789
:10CF50003E2200204022002030B585B014216846D2
:10CF6000FEF71BF9002000900121684601710020A6
:10CF7000029064216846017300BF407B01090901EA
:10CF8000491C68464173407BF02188432030694644
:10CF9000487300BF00BF6846807B00090001401C49
:10CFA00088736846807BF021884320306946887307
:10CFB00000BF00BF6846C07B00090001C873684617
:10CFC000C07BF02188436946C87300BF00BF684634
:10CFD000007C01090901491C68460174007CF021AC
:10CFE000884320306946087400BF084800F0B4FB4D
:10CFF000044600BF2546002D04D000BF2846FFF799
:10D00000EBFC00BF00BF05B030BD00006C25002068
:10D01000F0B591B004460D46207D002819D00020BF
:10D02000099000BF08A8007901090901491C08A856
:10D0300001710079F0218843103008A9087100BF00
:10D04000697B08A84171807906218843801C08A962
:10D0500088711C210AA8FEF7A0F808A8007A02210E
:10D060008843811C08A80172007A10218843217D21
:10D07000002901D0012100E0002109011022114006
:10D08000084308A9087200200B900D900E90207D97
:10D09000002801D009A800E000200F900020109087
:10D0A00000BF0121684681734949818100BF00208A
:10D0B0000290A97B68460172E97B4172807A062161
:10D0C0008843811C68468172807A08218843014622
:10D0D00068468172807A10218843014668468172D1
:10D0E000807A4108490068468172297B01911421A8
:10D0F00004A8FEF752F803A8049002A805900121A5
:10D1000068460183002141830121818301A80890A1
:10D11000A088A31D04AA0AA9A2DF0646002E02D0F9
:10D12000304611B0F0BDA86800284DD000BF0121E5
:10D13000684681732749818100BF00200290287CC6
:10D140006946087200BF6846407A010909016846CD
:10D150004172407AF02188436946487200BF6846B0
:10D16000807A06218843811C68468172807A082172
:10D170008843014668468172807A102188430146BF
:10D1800068468172807A4108490068468172A968C0
:10D1900000F05AFF0746142104A8FDF7FEFF03A87C
:10D1A000049002A805906846078300214183018B03
:10D1B00081830890E08822460E3204A9A3DF064648
:10D1C000002E03D03046ACE70020E0810020A8E725
:10D1D000192A000008290000F3B593B00D461F215D
:10D1E000129111911398002818D01398FFF736FA6E
:10D1F000044600BF002C02D0204615B0F0BD00BF91
:10D2000012AA09A91398FFF723F9044600BF002CBE
:10D2100001D02046F1E700BF09AE02E00026002061
:10D220001290002D17D028460EF035FE044600BFA0
:10D23000002C01D02046E0E700BF11AA01A9284632
:10D24000FFF706F9044600BF002C01D02046D4E7C2
:10D2500000BF01AF02E000270020119010A88088D5
:10D26000C3B210A80089C1B23A46304672DFC4E7A3
:10D2700010B5044600BF2046FFF7AEFB00BF10BD4F
:10D28000F8B504460F4615461E46002C01D0002D69
:10D2900001D10E20F8BD01205749087000205749E0
:10D2A0000870202229465648FDF75EFF5548066063
:10D2B0005549069808600020C0435449088007215A
:10D2C0005348FDF76AFF3C215248FDF766FF20787E
:10D2D00050490870A0788870E078C870607848700D
:10D2E000084662692169426101610146E268A068FD
:10D2F000CA6088600846E269A169C2618161606AAA
:10D3000000281BD044484349486244498160606A10
:10D3100000884049496A0880606A80883D49496AB6
:10D320008880002005E0616A8968095C3B4A1154E5
:10D33000401C3849496A89888142F4D8A06A00288B
:10D3400024D03749374881603249886234493148AE
:10D35000806A8160A06A80882E49896A8880A06A74
:10D3600000882C49896A0880002005E0A16A896844
:10D37000095C2B4A1154401C2649896A89888142DC
:10D38000F4D82C20015D234820300173206A002846
:10D390000BD025481F490862206A4088096A4880E6
:10D3A000206A00881B49096A08806068002802D04A
:10D3B000184960684860002008E0C100091A1B4A4B
:10D3C00089181B4A12688300D150401C0828F4DBDE
:10D3D000002007E00101174A8A181549896883006F
:10D3E000CA50401C0828F5DB39460A48FFF7F4FE0E
:10D3F000009000984EE70000AC210020AF210020F3
:10D40000BC270020C0210020C4210020BC21002016
:10D41000B0210020DC27002018280020242800202C
:10D420005028002044280020B8210020B0280020E7
:10D43000CC210020E828002010B5044620881028C0
:10D4400004D0112806D01B280CD107E0204609F093
:10D4500063FF08E0204609F0B7FF04E020460AF029
:10D4600013FB00E000BF00BF10BD000070B5054613
:10D47000022D02D0032D18D100E000BF0C48007827
:10D48000002811D000200A4908700A48007800F0EE
:10D4900059F80446002C07D007480068002803D03C
:10D4A000204605490968884700E000BF00BF70BDFD
:10D4B000AD210020AF210020C421002010B504467A
:10D4C00007480078002801D1082010BD0020044939
:10D4D0000870072221460348FDF746FE0020F4E7C6
:10D4E000B7210020B021002010B574DF01201149C0
:10D4F000087006201049C87000210F48FFF76CFE25
:10D500000446002C01D0204610BD03200B490870B2
:10D510000846007800F016F80446002C07D00848AA
:10D520000068002803D02046054909688847002084
:10D53000EAE70000C8210020DC270020AF210020FE
:10D54000C421002070B586B005465C4800780028EC
:10D5500002D1082006B070BD5948057003F09CFE4A
:10D56000002804D00120574908700020F2E7072165
:10D570005548FDF712FE55484078002803D0504822
:10D58000007801280FD051488078002803D04C48FB
:10D590000078012807D04D488078002812D04848EC
:10D5A000007802280ED14A480068002807D00120E0
:10D5B00048490870082046490968884702E0002069
:10D5C000444908702846FFF70BF83D490870404869
:10D5D0000068002817D008460078032803D00846C2
:10D5E000007804280FD13948007800280BD03A4839
:10D5F0000078002807D101203849087007203449F5
:10D600000968884702E000203449087018216846FC
:10D61000FDF7C3FD002168460170017228480078BB
:10D620000300FEF79FFB051804090E131C00684653
:10D630000DF042FF044613E068460DF04DFF04462E
:10D640000EE068460DF05EFF044609E068460DF006
:10D6500091FF044604E000202149087000E000BF6B
:10D6600000BF17480078002806D0684673DF0446DC
:10D67000002C17D020466DE71A480078002811D0FA
:10D68000002018490870FEF7BFFE0646164906F04E
:10D69000E2F8002803D01449491E002070DF002062
:10D6A00000F076FE0A480068002804D00C48007894
:10D6B00007490968884700204CE70000AC2100209A
:10D6C000AF210020AD210020B0210020BC27002088
:10D6D000C0210020B7210020C8210020C92100203E
:10D6E000AE210020742000209E200020FFB581B0D4
:10D6F00007460D461E4616480078002802D108202D
:10D7000005B0F0BD00201249087012490D710E736A
:10D7100000240AE00F4A1268A300D058E200121B4E
:10D72000D1190722FDF720FD641CAC42F2D300247E
:10D730000AE0084A9268A300D0582301039A991876
:10D740001022FDF711FD641CB442F2D30020D7E78C
:10D75000C9210020CC210020F8B504460D46002C3C
:10D7600001D0002D01D10E20F8BD286820600020D6
:10D77000C043608228792075FF20207400BF0121FA
:10D78000684681700849018000BF221D694601205A
:10D79000A0DF0646002E01D03046E5E729462046A8
:10D7A000FFF736FCE0E700000F18000070B50546F3
:10D7B0000C46002D01D0002C00D170BD208810280F
:10D7C00004D0112807D050280FD109E0214628465F
:10D7D00009F07AFD0AE02146284609F0EBFD05E054
:10D7E000214628460AF0A6F900E000BF00BF00BFAE
:10D7F000E3E7000038B50446082221461348FDF748
:10D80000B3FC12487ADF0546002D1CD1104805F004
:10D81000FBFB00280BD101200E4908700B490E4874
:10D82000008875DF054601200C4908700BE00C48A4
:10D830004069002806D001200090094841696846E7
:10D84000884700BF0025284638BD0000DC210020A5
:10D85000E8210020F0210020E6210020E421002022
:10D860006829002070B505461C2229461448FDF79A
:10D870007BFC002013490870286800280BD0082280
:10D8800011482968FDF770FC0F487ADF0446002C28
:10D8900008D0204670BD0C487BDF0446002C01D028
:10D8A0002046F7E70020C0430849088000200849C7
:10D8B0000870084A00210848FFF764F9EAE7000009
:10D8C00068290020F0210020DC210020E621002032
:10D8D000E4210020E9CD020050D8020010B5044632
:10D8E0002088102806D0112808D012280ED05028E1
:10D8F00010D107E0204609F0B7FC0CE0204609F003
:10D9000037FD08E020460AF0EBF804E0204609F075
:10D910009FFC00E000BF00BF10BD000010B5044632
:10D920000348027D011D20460DF078FA10BD00006D
:10D93000A429002010B504460348C17D2246001DDD
:10D940000DF056FA10BD0000A429002010B50446C1
:10D950000348017E2246001D0DF04AFA10BD00006A
:10D96000A429002070B504462088102804D011286E
:10D970001ED01A283FD11FE00CF006FEA0880CF044
:10D980006BFC002804D100BF0420FFF725F80EE04F
:10D99000A07D022801D1012000E000200546A288D8
:10D9A0002B461649084612380DF05BFA00BF22E0FC
:10D9B000A0880CF00BFE1EE0207A0009012801DD92
:10D9C000012000E000200346A2880C49491C0846BB
:10D9D00013380DF046FA207A0009022801DD0120F3
:10D9E00000E000200346A2880449891C0846143838
:10D9F0000DF037FA00BF00BF70BD0000BA2900204B
:10DA000070B5044600250C48017D2246001D0DF02E
:10DA1000EFF900280DD00848817D2246001D0DF049
:10DA2000E7F90646002E01D0022000E0012005465D
:10DA300000BF284670BD0000A429002010B50024B6
:10DA40000BE020460FF028FA002804D120460FF002
:10DA500019FA204610BD601CC4B2182CF1DB182046
:10DA6000F8E7000010B5044620460FF015FA00282C
:10DA700002D00248005D10BD0020FCE7BD29002057
:10DA800070B505460C4620460FF006FA002806D071
:10DA90000448015D2A4615380DF0AAF970BD002032
:10DAA000FCE70000BD29002070B505460C4616466F
:10DAB00020460FF0F1F9002806D00448011933463A
:10DAC0002A4615380DF0CDF970BD0000BD290020A3
:10DAD000FEB505460C46174620880930B84201D9E4
:10DAE0000C20FEBD684671DF0646C02168464170C5
:10DAF000022181700321C17004210171C021817153
:10DB0000012101706946002070DF00BF002E01D0A6
:10DB10003046E6E700BF0820218868542088401C72
:10DB200020801B20218868542088401C2080218868
:10DB30004819062200A90131FDF716FB2088801D37
:10DB4000208068460078002802D12188685402E0CD
:10DB50000120218868542088401C20800020C0E7D4
:10DB60007FB5044600BF0121684681735D4981810C
:10DB700000BF5D4A03A90120A0DF0546002D02D0A9
:10DB8000284604B070BD208800280DDD574800905D
:10DB9000228823463C335648616801F02DFC054637
:10DBA000002D01D02846ECE7208900280EDD5148E1
:10DBB0000090228923463C334D48401FE16801F024
:10DBC0001BFC0546002D01D02846DAE7208A0028F4
:10DBD0000EDD49480090228A23463C334448001F0A
:10DBE000616901F009FC0546002D01D02846C8E70F
:10DBF000208B00280EDD41480090228B23463C33C9
:10DC00003B48801EE16901F0F7FB0546002D01D07D
:10DC10002846B6E7208C00280EDD39480090228C7B
:10DC200023463C333248C01E616A01F0E5FB0546DD
:10DC3000002D01D02846A4E7208D00280EDD3148B4
:10DC40000090228D23463C332948401EE16A01F0B2
:10DC5000D3FB0546002D01D0284692E7206B002813
:10DC600013D001A8216B0EF01EFA274823463C333F
:10DC7000082201A900901E48801F01F0BDFB054647
:10DC8000002D01D028467CE700BF606B00280FD034
:10DC90001E480090606B027923463C3301681448AB
:10DCA000401C01F0A9FB0546002D01D0284668E77D
:10DCB000A06B002813D001A8A16B0BF087FF1448BC
:10DCC00023463C33072201A900900948273001F080
:10DCD00093FB0546002D01D0284652E700BF0020E7
:10DCE0004FE700000A180000582200205A220020A6
:10DCF000292A0000622200206A22002072220020CD
:10DD00007A220020822200208A22002092220020F3
:10DD10009A22002010B504462046FFF723FE204635
:10DD20000BF090FC204600F0ADFB204609F0CCF94A
:10DD30002046FFF781FB2046FFF7D0FD214604482F
:10DD400000F04CF921460348FFF730FD10BD0000FC
:10DD5000F42300206C250020FFB587B005460F4650
:10DD6000109EFF207730405B224988423DD0F01C56
:10DD700081B206916846008B082834DC00BF012080
:10DD800000BF684607740998C1B2684641740A9892
:10DD9000C1B268468174002E04DD324613301199F9
:10DDA000FDF7E2F900200090019002900390FF201F
:10DDB0005F30415B684601800121817000218180D4
:10DDC00006A8029004A80390FF217731485B6946BA
:10DDD000A6DF0446002C05D1F01C6946098B884259
:10DDE00000D00C2400E00C2400E0082420460BB0F6
:10DDF000F0BD0000FFFF00007CB506460C46A07A8F
:10DE00000A2805DC207C0A2802DC207E0A2801DDA5
:10DE100007207CBD2068306060687060A07AB074B4
:10DE2000217C78208155217EDE2081550021C94347
:10DE3000FF207730815300BF012168468171474937
:10DE4000818000BF3246083201A90120A0DF0546CB
:10DE5000002D01D02846DCE72146304604F09EFE26
:10DE60000546002D01D02846D3E7207A002802D1AC
:10DE7000607A002809D021463C3130460BF02CFF57
:10DE80000546002D01D02846C3E72146304604F060
:10DE90006DFF0546002D01D02846BAE721463046E1
:10DEA00009F036FF0546002D01D02846B1E721468E
:10DEB000304603F0DDF80546002D01D02846A8E7DE
:10DEC000214630460CF088FC0546002D01D028463E
:10DED0009FE7207A002818D03046FF304F30234685
:10DEE000433308221E490090304600F027F90546CA
:10DEF000002D01D028468CE72146304600F0A2F9DB
:10DF00000546002D01D0284683E7607A002810D00E
:10DF10003046FF305F30234640330822104911312C
:10DF20000090304600F00AF90546002D01D0284641
:10DF30006FE72146304604F027F90546002D01D051
:10DF4000284666E721463E31304604F0C5F80546CE
:10DF5000002D01D028465CE700205AE71218000087
:10DF6000222A0000FFB587B004460E461746A07C63
:10DF7000B0422DDD0A20704321461431401806902E
:10DF8000FF207730005B144988421FD001970020A2
:10DF900002900390049005900698018868460181DC
:10DFA000012181720021818101A804900A980590C5
:10DFB000FF217731085B02A9A6DF0546002D04D1B9
:10DFC00068468088B84200D00C2500E0082500E0B3
:10DFD000072528460BB0F0BDFFFF000070B50546D1
:10DFE0000C462088102806D0112809D050280CD0C3
:10DFF000512814D10EE02146284609F068F90FE0B7
:10E000002146284609F0DAF90AE02146284609F0B7
:10E01000B5FD05E02146284609F01FFD00E000BFE0
:10E0200000BF70BD70B504460D462846FDF7C0F828
:10E030002080656070BD70B5044620460EF0B7FDC7
:10E040000546E807C00F70BDF8B505460E4600242A
:10E0500032782146641C6A5472782146641C6A54E2
:10E0600000BF022C01D1012000E000200746002F54
:10E0700003D100BFFEF7B0FC00BF00BF2046F8BDD3
:10E0800070B586B028480068059000BF274B48222D
:10E09000274905A80DF040FE054600BF2E46002E7C
:10E0A00004D000BF3046FEF797FC00BF00BF00BFA2
:10E0B0006A46012100200DF0EFFD044600BF254611
:10E0C000002D04D000BF2846FEF786FC00BF00BF2D
:10E0D00068460DF089FD044600BF2546002D04D09A
:10E0E00000BF2846FEF778FC00BF00BF11480DF0C6
:10E0F0006DFD044600BF2546002D04D000BF284614
:10E10000FEF76AFC00BF00BF0B480DF05FFE04463F
:10E1100000BF2546002D04D000BF2846FEF75CFC5A
:10E1200000BF00BF06B070BDDCD60200F1BC02002B
:10E130004C26002015DD010095C00200F0B58FB01F
:10E1400005460E4617461C460020079000BF68464D
:10E15000007F01090901491C68460177007FF02111
:10E16000884310306946087700BF217868464177B8
:10E17000807F06218843811C684681771C2108A87E
:10E18000FDF70BF808A8007802218843811C08A835
:10E190000170007808218843A1780907090F002938
:10E1A00001D0012100E00021C900082211400843EC
:10E1B00008A9087008A8007810218843103008A921
:10E1C0000870002009900B900C9007A80D9000207B
:10E1D0000E9000BF012168468171868000BF00203B
:10E1E0000090617868460170A178417080780621BE
:10E1F0008843811C684681708078082188430146E5
:10E200006846817080781021884301466846817095
:10E2100080784108490068468170142102A8FCF703
:10E22000BCFF01A802906846039000210182418250
:10E23000878200200690288902AA08A9149BA2DFE1
:10E240000FB0F0BD30B58FB004460D461C2108A8B4
:10E25000FCF7A3FF08A8007802218843811C08A8C6
:10E260000170007808218843411808A801700078DF
:10E2700004218843001D08A90870002009900B9014
:10E280000C900D900E9000BF0121684681721E49CE
:10E29000018100BF002001904620415D6846017168
:10E2A0004720415D68464171807906218843811C81
:10E2B00068468171807908218843014668468171EA
:10E2C0008079102188430146684681718079410830
:10E2D000490068468171142103A8FCF75EFF02A87B
:10E2E000039001A80490002168468182C182012127
:10E2F00001830020079020892346FF33573303AA68
:10E3000008A9A2DF0FB030BD322A000010B50146C7
:10E310000A4B585C00BF05242407234600BF241580
:10E320001C192469C440E407E40F002C01D001202B
:10E3300000E0002002460120504010BDFAD7020044
:10E3400030B502460C49885C00BF052424072146ED
:10E3500024150C196368012484409C4305252D0273
:10E360004D19AC60012484401C4005252D024D1937
:10E37000EC6000BF30BD0000F8D7020010B50446C5
:10E380000249085D012107F0E7FF10BDF8D7020040
:10E3900010B504460249085D002107F0DDFF10BDFD
:10E3A000F8D7020010B501460A4B585C00BF05249F
:10E3B0002407234600BF24151C196468C440E407E1
:10E3C000E40F002C01D0012000E0002002460120D3
:10E3D000504010BDF8D702007CB500240CE009487D
:10E3E000055D002000900346012211460190284659
:10E3F00007F088FE00BF641C022CF0D300F004F884
:10E400007CBD0000F8D7020010B5002403E02046D0
:10E41000FFF7B4FF641C022CF9D310BD10B5002423
:10E4200003E02046FFF7B4FF641C022CF9D310BDB3
:10E4300002460020C043002106E0054B5B5C93428E
:10E4400001D1084602E0491C0829F6D300BF7047F5
:10E45000FAD7020070B505460C460026074805604D
:10E46000002C02D020460DF0E7FD0548006800288A
:10E4700002D1FEF7FDF80646304670BDA42100200B
:10E48000A821002070B505462888102802D0112840
:10E4900032D118E01A48006800280ED101F054FA71
:10E4A000044600BF002C07D016480068002803D09F
:10E4B000204614490968884700BF11480068401C7D
:10E4C0000F49086019E00E480068401E0C490860BA
:10E4D0000846006800280ED1FEF7CAF8044600BFBF
:10E4E000002C07D007480068002803D020460549C3
:10E4F0000968884700BF00E000BF00BF70BD000092
:10E50000A8210020A4210020F3B581B007460025F2
:10E5100000243846FFF78CFF0446082C42D20298AC
:10E52000002825D0012802D002283AD133E060002B
:10E53000201822490D5C60002018401840780028FF
:10E540000ED01F4800683222504301461D4A1E4823
:10E550000068FEF7A3FB0646002E01D1194807709C
:10E56000600020181549401880781849085518E0AF
:10E5700015480068FEF7BCFB1448005D6100611897
:10E580000E4A89188978884204D160002018114603
:10E590004018857805E06000201808494018457843
:10E5A00000BF00BF002D07D009480068002803D035
:10E5B0002846074909688847FEBD000084270020D7
:10E5C0008C210020982100200CD8020099210020E5
:10E5D0009421002010B504462046FFF797FE10BD99
:10E5E000F0B585B005460026FE480088FE49884201
:10E5F0007ED0FE480078002803D1FD48007800282E
:10E6000077D0FC480078002815D1FB4906F036FF8A
:10E61000044600BF2746002F04D000BF3846FEF74F
:10E62000DBF900BF00BF002008F06CFA06F012FF13
:10E630000120F0490870F1480088FF21AD3188427F
:10E6400050DBEF480078002826D1EE4800780028FB
:10E650001FD0ED4801460EC9C0686F460EC7039033
:10E660001A216846C1701E2181701921417018213C
:10E67000017000BFE54A6946E54807F05DF80746C6
:10E68000002F04D000BF3846FEF7A6F900BF00BF38
:10E6900000BF0120DA490870DE480078002805D163
:10E6A0001B2001F0ADFB0120DA490870DA48007840
:10E6B000002814D10022FF210731D8480068FEF756
:10E6C000EDFA044600BF2746002F04D000BF3846AD
:10E6D000FEF782F900BF00BF0120CF49087000207B
:10E6E000C6490880142D7DD00BDC042D7BD001E0C1
:10E6F00039E176E2072D77D00A2D0DD0132D74D194
:10E70000EFE0152D06D01C2D70D01D2D6FD01E2DC5
:10E71000F5D100E026E125E10020C1490880B2489A
:10E720000AF080FF06460CE0BD4801880088401CC6
:10E73000BB4A10804800BB490E52304609F016FD16
:10E740000646A9488642EFD10CF04CFF0120B6499D
:10E7500008701321A348008876DF0446A848007893
:10E76000002829D1A7480078002822D0A64B1033D2
:10E770001A6859689868DB680393009201910290C7
:10E780001A216846C1701E2181701921417018211B
:10E79000017000BF9D4A69469D4806F0CDFF0746BF
:10E7A000002F04D000BF3846FEF716F900BF00BFA7
:10E7B00000BF01209249087096480078002805D1D2
:10E7C0001B2001F01DFB012092490870924800783F
:10E7D00000281BD10022FF21073190480068FEF776
:10E7E0005DFA05E09DE015E015E0BAE089E0A8E0FB
:10E7F000044600BF2746002F04D000BF3846FEF76E
:10E80000EBF800BF00BF01208349087000207B495E
:10E810000880A7E0A6E085480078002803D0022001
:10E8200005F02CF85CE08248007802280AD1814883
:10E830000078401CC0B27F49087005280CDB01201D
:10E84000087009E07B480078401CC0B27949087024
:10E85000042801DB01200870764800784000401E43
:10E860007549087066480078002827D16548007807
:10E87000002820D0644B20331A681B1D0BCB01AF3E
:10E880000BC700921A216846C1701E2181701921A0
:10E8900041701821017000BF5C4A69465C4806F06F
:10E8A0004BFF0746002F04D000BF3846FEF794F810
:10E8B00000BF00BF00BF0120514908705D480078CB
:10E8C0000EF036FB172000F045FA044600BF27463D
:10E8D000002F04D000BF3846FEF77EF800BF00BF0F
:10E8E00040E0404800884049884209D053480078B9
:10E8F00008210843514908700846007806F0E6F8F8
:10E9000030E0384800883849884209D04B480078C0
:10E9100008218843494908700846007806F0D6F86F
:10E9200020E0304800883049884209D043480078C8
:10E9300010210843414908700846007806F0C6F8DF
:10E9400010E0284800882849884209D03B480078D0
:10E9500010218843394908700846007806F0B6F857
:10E9600000E000BF3DE1152D79D124480088FF214A
:10E97000AD31884272DB22480078002829D1214835
:10E980000078002822D0204B30335A6819689868E4
:10E99000DB6803930192009102901A216846C170CE
:10E9A0001E218170192141701821017000BF174A82
:10E9B0006946174806F0C0FE0746002F04D000BF86
:10E9C0003846FEF709F800BF00BF00BF01200C4920
:10E9D00008700022FF21073110480068FEF75EF939
:10E9E00004462EE08A200020FFFF00007120002056
:10E9F0007320002079200020919D020066200020D5
:10EA00007620002080200020E0D60200E9BD020030
:10EA100078D602007A2000206F20002080D60200E5
:10EA20008620002082200020742000207C200020EE
:10EA30007E210020AB200020AC2000209920002067
:10EA40000DE000BF2746002F04D000BF3846FDF779
:10EA5000C3FF00BF00BF0020914908807DE0132D57
:10EA60007BD00A2D79D100208E4908808E480AF08B
:10EA7000D9FD06460CE08B4801880088401C894A75
:10EA80001080480089490E52304609F06FFB064657
:10EA900085488642EFD10CF0A5FD85480078032813
:10EAA00008D083480078042804D0012081490870E8
:10EAB000FEF71AFD80480078002828D17F480078AA
:10EAC000002821D07E4B1A6859689868DB68039348
:10EAD0000092019102901A216846C1701E21817036
:10EAE000192141701821017000BF764A69467648A5
:10EAF00006F022FE0746002F04D000BF3846FDF77F
:10EB00006BFF00BF00BF00BF01206B4908706F485A
:10EB10000078002805D11B2001F072F901206B4913
:10EB200008706B480078002814D10022FF210731BB
:10EB300068480068FEF7B2F8044600BF2746002F79
:10EB400004D000BF3846FDF747FF00BF00BF0120DB
:10EB50005F49087000205249088028461038030099
:10EB6000FDF700F90C0715233131313131310E1C1D
:10EB70002A3159480078012108435749087023E099
:10EB80005548007840084000534908701CE052483E
:10EB90000078022108435049087015E04E4800787B
:10EBA000022188434C4908700EE04B48007804214C
:10EBB00008434949087007E0474800780421884322
:10EBC0004549087000E000BF00BF394800780028C0
:10EBD00007D10A2D05D037480078002801D1FDF76C
:10EBE000BBFD3E480078002855D03B4800780728F8
:10EBF00051D12B480088FF21AD31884247DB2E4898
:10EC00000078002824D12D48007800281DD02C4BF6
:10EC100010330FCB6F460FC71A216846C1701E21F3
:10EC20008170192141701821017000BF254A694681
:10EC3000254806F081FD0746002F04D000BF384666
:10EC4000FDF7CAFE00BF00BF00BF01201A490870CF
:10EC50001E480078002805D11B2001F0D1F80120C2
:10EC60001A4908700022FF2107311A480068FEF790
:10EC700015F8044600BF2746002F04D000BF3846D1
:10EC8000FDF7AAFE00BF00BF002005490880012053
:10EC90001349087002E000201149087005B0F0BD6A
:10ECA0006620002086200020FFFF00008220002038
:10ECB000AE2100207420002076200020802000203B
:10ECC00020D70200E9BD020078D602007A20002099
:10ECD0006F20002080D602009920002071200020A3
:10ECE0007520002070B503460020082B2DD2012A84
:10ECF00007D1012903D11C460E34E4B200E0002400
:10ED00002246002918D0012902D002291AD10DE08B
:10ED10005C001C190E4D2A55012B06D914460934E6
:10ED20005D005D190A4EAD19AC700DE05C001C1958
:10ED3000074D6419627007E05C001C19044D6419EA
:10ED4000A27001E0072000BF00E0072070BD0000B6
:10ED50008427002070B50446002506480078C007C7
:10ED6000C00F002803D0204600F064F8054628466E
:10ED700070BD000090210020F7B505460E46002426
:10ED80002248066022480560224902980860022055
:10ED90002840002822D0022706E0012211463846EA
:10EDA000FFF7A0FF04467F1C082F01D2002CF4D0EF
:10EDB000002C05D1720808211748FDF77FFD044695
:10EDC000002C02D1FDF764FD0446002C05D1134A46
:10EDD00000211348FDF7D6FE044600BFE807C00F28
:10EDE000002801D0FFF7F8FA002C05D10D4A0021C8
:10EDF0000D48FDF7C7FE0446002C05D10B4A012142
:10EE00000B48FDF7BFFE04462046FEBD8C210020C6
:10EE1000902100209421002010D8020039F2010036
:10EE20000CD802006131020004D802005DC8010064
:10EE300008D80200F8B5044600250026A848007846
:10EE4000002804D00020A6490870FFF7DDFA23004F
:10EE5000FCF788FF190EF01347487677858B99A940
:10EE6000B7C7F1F2F3F4F5EAE9E8E7E6CCE5F0003C
:10EE7000FFF7CAFA9B4804702EE10020FFF792FAD0
:10EE800000280ED098480078002801D1FFF776FAC4
:10EE9000022C02D1FF20F53001E07D204001064622
:10EEA0000DE091480078002801D1FFF771FA022C9B
:10EEB00002D1FF20F53001E0FF209130064689485D
:10EEC000047064213046FCF721F9884909684843F9
:10EED00007460022394686480068FDF7DFFE0546F2
:10EEE000FAE0F9E00020FFF75DFA00280BD00020DF
:10EEF000FFF744FA042C02D17D20400101E07D207F
:10EF0000400106460AE00020FFF742FA042C02D135
:10EF1000FF20913001E0FF209130064671480470D7
:10EF200064213046FCF7F2F8704909684843074607
:10EF3000002239466E480068FDF7B0FE0546CBE07A
:10EF4000CAE00020FFF7FCF9664804706748002219
:10EF5000016867480068FDF7A1FE0546BCE0002097
:10EF6000FFF70CFA5F480470B6E001205C490870B6
:10EF7000FFF7E6F95D48002201685D480068FDF78B
:10EF80008DFE0546A8E0012055490870FFF7D8F925
:10EF90005648006882008118002255480068FDF735
:10EFA0007DFE054698E001204D490870FFF7C8F93D
:10EFB0004E48002201684E480068FDF76FFE054686
:10EFC0008AE0012046490870FFF7BAF9474800680F
:10EFD00082008118002246480068FDF75FFE054662
:10EFE0007AE0FFF71BFA3F48047075E0414800687B
:10EFF000FDF77EFE0546002D0DD13C4800688200DD
:10F00000811800223B480068FDF748FE05460020B5
:10F01000FFF7BEF902E00020FFF7B0F95CE055E031
:10F0200053E047E03EE035E02FE008E006E004E092
:10F0300002E000E04FE000BF00BF00BF00BF2D486E
:10F040000068FDF755FE05461120061B002E18D05E
:10F05000002D16D1012E10D9C82171430846642114
:10F06000FCF754F82149096848430746002239460D
:10F0700020480068FDF712FE05460220FFF788F9D8
:10F0800002E00220FFF77AF926E0FFF7BDF9154804
:10F09000047021E0FFF7B8F90020FFF779F9114873
:10F0A000047019E0FFF7B0F90120FFF771F90D487E
:10F0B000047011E0FFF7A8F90020FFF769F90120BB
:10F0C000FFF766F90748047006E000BFFFF7A6F9EE
:10F0D0000448047000E000BF00BF2846F8BD0000EF
:10F0E0008921002088210020782000208C21002008
:10F0F00004D8020008D802000246002901DA0020E4
:10F1000003E013685B18136001207047F0B585B009
:10F1100004460D46641C0127012003900020029044
:10F1200002A8FDF701FE1F48006828601D4800681E
:10F130001C494968411A1B488068401C461AE0195E
:10F1400001900198B04221D9002E1CD016480068C9
:10F15000009000988005800D144909688902890A89
:10F160008902084300900F48009A00680D49096819
:10F17000491C0C4B196019468968084081001846E3
:10F180000C30425000BF0020039004E005480068A6
:10F190000019044908606846007AFDF7EFFD0398FE
:10F1A00005B0F0BDB0300020F0D9020020230020CF
:10F1B0000448406803490968884201D1012070472A
:10F1C0000020FCE7B030002070B504460D4616481C
:10F1D000007801281CD014480078042818D00F208B
:10F1E00005F0D6FF112005F0D3FF122005F0D0FF67
:10F1F000132005F0CDFF142005F0CAFF152005F0FF
:10F20000C7FF162005F0C4FF172005F0C1FF01E07D
:10F2100000F038FA002005490860054908800548D3
:10F2200006F0EEFB70BD00007F21002020200020B2
:10F230006820002054D6020010B504462078022130
:10F24000FFF762F910BD0000F8B50546134A1449EE
:10F250000320FFF791FD044600BF2646002E04D090
:10F2600000BF3046FDF7B8FB00BF00BF6946002075
:10F27000FFF7F0F8044600BF2646002E04D000BF7A
:10F280003046FDF7A9FB00BF00BF684600780228A2
:10F2900001D1012000E000202870F8BDE1E5010067
:10F2A0008F02000030B502460B4602210EE08D00B1
:10F2B00014462C412007000F092802DD044637348C
:10F2C00001E00446303401256D1A5C550C46491E98
:10F2D000002CECD130BD0000014608680D4A024008
:10F2E00012090C4BDB4303401B011A4310460A4A28
:10F2F00002409208084BDB4303409B001A43104630
:10F30000064A02405208054BDB4303405B001A43A8
:10F3100010467047F0F0F0F0CCCCCCCCAAAAAAAA48
:10F3200001468879012808D10879012805D1488843
:10F33000034A904201D1012070470020FCE7000001
:10F34000022900000021C9438200054B995004287E
:10F3500004DB0B46011F024A503253547047000031
:10F36000182E002001468800014A105870470000FE
:10F37000182E0020F7B585B00B460020C04304903E
:10F38000002A01D0002000E004200390002A01D0D0
:10F39000042000E00C20029003991EE08800124C2B
:10F3A0002058401C002817D10846059C0093019264
:10F3B00046B20D4D30352E5585000B4E009B7351D6
:10F3C000019A002A04D166B2051F074F50377E55B7
:10F3D00000BF48B2049003E0491C02988142DDD38B
:10F3E00000BF049808B0F0BD182E00200146014867
:10F3F00040567047482E0020F0B58FB007460D46A6
:10F4000014461E4600BF002D01D0012000E0002060
:10F4100000900098002803D100BFFDF7DDFA00BF7F
:10F4200000BF00BF002C01DD012000E000200090A3
:10F430000098002803D100BFFDF7CEFA00BF00BF3F
:10F440001C2107A8FBF7A9FE6946087F0221884313
:10F45000801C69460877002008900A900B900C9059
:10F460000D9000BF012108A881766846078700BF7C
:10F47000002001903178684601717178417180797E
:10F4800006218843811C6846817180790821884360
:10F49000014668468171807910218843014668469B
:10F4A000817180794108490068468171142102A860
:10F4B000FBF773FE0EA8029001A803906846048231
:10F4C000002141828482069502AA07A90248008889
:10F4D000149BA2DF0FB0F0BD582200200146002986
:10F4E00007D00548884204D80448884201D9012041
:10F4F00070470020FCE700007C230020CC23002084
:10F5000070B505460E46002407E0E100685803F098
:10F5100016FE002800D170BD641CB442F5D3012052
:10F52000F9E700000A49496C00290FD00849096C25
:10F53000C900074A891801601146096C491C49072E
:10F54000490F11641146496C491E5164704700000F
:10F55000C42F0020064902688A4203D0016808319E
:10F560000160704702493839016000BFF9E70000C7
:10F57000FC2F00200178022902D0017803290BD149
:10F5800006490A6C817D5118044A116411464A6C7F
:10F59000817D511A014A516470470000C42F002038
:10F5A000F8B504460D46104E304684420BD1FF217B
:10F5B0000131284609F0EAFF0646FF200130864265
:10F5C0000FD126460DE0FF2C0BDC2146284609F022
:10F5D000CCFF0746002F01D0204600E00248064637
:10F5E00000BF3046F8BD0000FFFF000010B5FF204F
:10F5F0001430104908601049C87C104909688847D0
:10F600000F481049486000200F49086101200F4948
:10F61000086100BF0C4800690028FBD000200A499F
:10F620000861FF201830034908600120074948603D
:10F6300010BD000000120040C834002074230020D8
:10F64000AA370020001500400011004000100040C3
:10F6500070B50546002D01D1094C01E0084C083475
:10F660000AE0204603F074FD0646002E00D104E0B7
:10F6700028467168884700BFF3E700BF70BD0000EF
:10F680000C2E002000200549086001208107086039
:10F6900000BF024800680028FBD07047000100400E
:10F6A000FEB51F480068002836D01D480068056870
:10F6B0000BF0DCF901901B480468214601980CF01E
:10F6C0005BFDC61C18480078002801D10BF0E0F95A
:10F6D000AE4201D2284600E0304604192402240A32
:10F6E00020460BF0BDF90BF0C1F90090019900988C
:10F6F0000CF042FDC71C204601990CF03DFD8742ED
:10F7000009D90BF0B3F907460BF0AAF92F2005F041
:10F71000EBFB0CF093FF01E00BF0D8F9FEBD00000D
:10F72000D8220020DC220020F02200200146088898
:10F73000062808DB08881922D201904205DD0888D6
:10F74000104A904201D0072070474888062808DBFD
:10F7500048881922D201904205DD4888094A904222
:10F7600001D00720F0E70888064A904208D0488870
:10F77000904205D008884A88904201DD0720E3E7DF
:10F780000020E1E7FFFF0000FFB581B006460D460F
:10F7900014462088801D0499884202D90C2005B0A7
:10F7A000F0BD3046FFF7C2FF074600BF002F01D073
:10F7B0003846F4E700BF0520218868542088401CA3
:10F7C00020801220218868542088401C20802288B4
:10F7D000511930880DF0F1F92188401820802288D5
:10F7E000511970880DF0E9F9218840182080002017
:10F7F000D5E710B5044600BF2046FDF7EDF800BF81
:10F8000010BD000030B587B01C216846FBF7C5FC71
:10F81000002000900520C00301900F2000040290FA
:10F820000321684601730021C18101740020059005
:10F83000084806906846FEF715F8044600BF2546BE
:10F84000002D04D000BF2846FDF7C6F800BF00BF5A
:10F8500007B030BDF3F7010038B51F4803F0D4FB03
:10F86000002829D11D48007800280AD01C4840698A
:10F87000002820D000200090194841696846884738
:10F8800019E018480078002802D11548456801E0C1
:10F89000134885680022294613480068FDF7FEF9E1
:10F8A0000446002C07D00E488069002803D00C487D
:10F8B0008169204688470AE009484069002806D047
:10F8C00001200090064841696846884700BF002033
:10F8D0000249087038BD0000E8210020F021002016
:10F8E00068290020E421002050D802003EB50446DB
:10F8F0002088FEF71FF800281AD020880F490978C1
:10F90000FEF7BEF8002805D1208800220C490978AE
:10F91000FEF7CAF8218868464180052101702088D9
:10F92000FEF714F869460871684601F0FDF804E036
:10F9300020880122034900F049FA3EBD3F22002001
:10F940003E2200200610000010B50A2202210020ED
:10F95000FFF7C8F9044600BF002C03D0072C01D0E4
:10F96000204610BD00BF072200210120FFF7BAF991
:10F97000044600BF002C03D0072C01D02046F0E73E
:10F9800000BF042202210120FFF7ACF9044600BFAA
:10F99000002C03D0072C01D02046E2E700BF002056
:10F9A000DFE7000070B506460D46002E01D00120AD
:10F9B00070BD2879002804D0012809D0022811D16F
:10F9C0000EE028460AF0B6FC0446022028710BE03F
:10F9D000284601F08BFB04460A2C00D1044C03E0BE
:10F9E000034C01E00F2400BF00BF2046E0E7000009
:10F9F0001D1D000010B503211C2006F0C2FB0321D1
:10FA00001D2006F0BEFB244A0121002006F0C4FCA4
:10FA10001C2006F0EBFB00211C2006F05DFC1D20E5
:10FA200006F0E4FB00211D2006F056FC1A48006891
:10FA3000010F032088430446002C06D0012C0DD072
:10FA4000022C15D0032C24D11AE001201349087090
:10FA5000002013490870134908701BE000200F496B
:10FA6000087001200E49087000200E49087011E04E
:10FA700001200A4908700A4908700A49087009E01B
:10FA800000200649087006490870012005490870E1
:10FA900000E000BF00BF10BD18200020E91F0020BB
:10FAA000EA1F0020EB1F0020F8B5002535E0E80034
:10FAB0001C490968441821780120884006461A48E4
:10FAC00000683040002826D017480068B043164927
:10FAD0000860207805F066FC074621780120884000
:10FAE000124909680840227839469140884211D16C
:10FAF0006078012800D100E00020784001214840D2
:10FB000000906068002804D0009BD9B22078626819
:10FB1000904700BF00BF681CC5B205480078854209
:10FB2000C5DBF8BDAC220020BC220020B82200209A
:10FB3000B022002030B593B00221684601711E4901
:10FB4000C1801E49018101214181402103A8FBF7A9
:10FB500024FB1BA103A8FEF765FA01A8119000BFC2
:10FB600010A8007A01090901491C10A80172007A45
:10FB7000F0218843203010A9087200BF00BF12A8EE
:10FB800040780009000112A9487012A84078F021BD
:10FB9000884312A9487000BF03A8FDF7E1FF04469F
:10FBA00000BF2546002D04D000BF2846FCF714FFF7
:10FBB00000BF00BF13B030BD15190000EEEE00000D
:10FBC0004E6F7264696353656D69636F6E647563CC
:10FBD000746F720070B5044620793D2801D1054844
:10FBE00001E011200002054620880022294603F08A
:10FBF0003BFC70BD3D10000070B50E480078401C05
:10FC00000C490870084600780007000F08700A4980
:10FC1000084A1278885C06F005F9044600BF2546BC
:10FC2000002D04D000BF2846FCF7D6FE00BF00BF61
:10FC300070BD0000ED1F002044D6020070B5002406
:10FC4000182006F0DFFA0021192006F0A7FA00219B
:10FC50001E2006F0A3FA002512E00021182006F06D
:10FC60005BFB0121182006F057FB600044B21E2008
:10FC700006F00CFB002801D001200443681C45B2AB
:10FC8000082DEADB204670BD70B50446182006F04A
:10FC9000B9FA1E2006F0B6FA0021192006F07EFA05
:10FCA000002518E00021182006F036FB80202040B7
:10FCB000002804D001211E2006F02EFB03E00021C5
:10FCC0001E2006F029FB6006040E0121182006F014
:10FCD00023FB681CC5B2082DE4DB00211E2006F0C2
:10FCE0001BFB70BD014614480078144A12789042FC
:10FCF0001DD011480078401C0F4A10701046007843
:10FD0000022801D1002010700B48007880000C4AB6
:10FD1000105808600B4A086812688018094A106079
:10FD2000104600680002000A1060012070470020A1
:10FD3000086000BFFAE70000E8220020E922002066
:10FD4000E0220020DC220020F8B504460D46288879
:10FD50002070FF21090201400912617002210E4644
:10FD6000AA783146761C6254EA783146761C625491
:10FD700000BF042E01D1012000E000200746002F23
:10FD800003D100BFFCF728FE00BF00BF3046F8BD1E
:10FD9000F8B505460E460024062706200090394691
:10FDA0000948FBF7FAF900BF0AE020460099FBF783
:10FDB000C3F9705C295D484003490855601CC4B212
:10FDC000BC42F2DB0048F8BD81210020FEB50446AC
:10FDD0000D461646084A07CA6B4607C36846448064
:10FDE000858086710022054801782046FDF75CFE7B
:10FDF000684600F099FEFEBDC4D802003E220020F5
:10FE000070B504465A2109200DF0FCF906200AF0CD
:10FE1000E5F9C5B26D076D0F132C06D108202843F4
:10FE2000014606200DF0EEF903E0294606200DF00C
:10FE3000E9F921464B200DF0E5F9002109200DF0EC
:10FE4000E1F970BDF0B591B000200E900D90082042
:10FE50000C9000200B900A900990002708900790C2
:10FE600000260690012005900020FE490860FE490A
:10FE70000880FE490880FE48007800286AD0FD48C6
:10FE80000078012807D1FC480078FC490870FA483E
:10FE9000407848702BE0F7480078002827D00027EA
:10FEA000F54880780790012610E070003018801C1B
:10FEB000F149095C0798814206DB70003018801C0C
:10FEC000ED49085C07903746701CC6B2E9480078D7
:10FED0008642EADB78003818E749085CE749087091
:10FEE00078003818401CE449085CE4494870E3494C
:10FEF000487804F0FDF9E1480178002006F036F872
:10FF0000054600BF002D02D0284611B0F0BD00BF4D
:10FF10001F2464032078D9490978884207D12079C1
:10FF2000D6494978884202D1207ABC2811D020468F
:10FF300001F0BEF9D1480178204601F0D5F9CF484B
:10FF40004178201D01F0D0F9BC212046083001F095
:10FF5000CBF994E01F246403207ABC2879D00F20C9
:10FF600005F016F9112005F013F9122005F010F92B
:10FF7000132005F00DF9142005F00AF9152005F0FD
:10FF800007F9162005F004F9172005F001F9BC481F
:10FF900005F026FDBB480078002827D1BA48007834
:10FFA000002820D0B94801460EC9C06801AD0EC571
:10FFB00004901A216846C1711E2181711921417175
:10FFC0001821017100BFB24A01A9B24805F0B4FB83
:10FFD00000900098002804D000BF0098FCF7FCFCBB
:10FFE00000BF00BF00BF0120A6490870AA480078E2
:10FFF000002805D01320FFF703FF0020A649087052
:020000040002F8
:10000000A0480078002809D09F480078002802D036
:10001000A04805F05DFC00209A4908709F480078D0
:1000200000280CD005F09EFA00209C49087003219E
:10003000012006F0A6F80321022006F0A2F8984855
:100040000078002804D000209549087004F0F2FFE1
:1000500006E006E006F08EFB002801D10CF080F8E7
:10006000F8E7207904F044F92178002005F07EFFBC
:10007000054600BF002D01D0284646E700BF0020FE
:1000800088494871084640790221084385494871EA
:10009000002184488171C171017241728172C17203
:1000A000814841787F4801737F4881787D4841735A
:1000B00009207C49087001207C4908707949C87082
:1000C00000207B494870D5E27A48007800287DD02E
:1000D000644800687849884279D300210F2005F0F0
:1000E00087F80021112005F083F80021122005F087
:1000F0007FF80021132005F07BF80021142005F083
:1001000077F80021152005F073F80021162005F07E
:100110006FF80021172005F06BF8594805F060FCD6
:1001200000205049086057480078002828D15648D8
:100130000078002821D05548103001460EC9C0680B
:1001400001AC0EC404901A216846C1711E21817150
:10015000192141711821017100BF4D4A01A94D4873
:1001600005F0EAFA00900098002804D000BF00983B
:10017000FCF732FC00BF00BF00BF012041490870FE
:1001800045480078002805D01320FFF739FE0020ED
:10019000414908703B480078002809D03A48007867
:1001A000002802D03B4805F093FB00203549087039
:1001B0003A48007800280FD005F0D4F900203749DC
:1001C00008700321012005F0DCFF01E0B7E186E0C3
:1001D0000321022005F0D5FF31480078002804D023
:1001E00000202F49087004F025FF344800780128CA
:1001F00025D032480078042821D000210F2004F0B7
:10020000F7FF0021112004F0F3FF0021122004F079
:10021000EFFF0021132004F0EBFF0021142004F075
:10022000E7FF0021152004F0E3FF0021162004F071
:10023000DFFF0021172004F0DBFF0BF091FF00210E
:100240000F2004F0D5FF0021112004F0D1FF002180
:10025000122004F0CDFF0021132004F0C9FF00217B
:1002600014202DE02020002086200020682000207F
:100270001620002024200020342000202E200020E2
:1002800054D6020076200020802000207CD7020077
:10029000E9BD020078D602007A20002079200020F3
:1002A00077200020EE1F00209D200020132000203A
:1002B000C834002026200020F82401007F210020DF
:1002C00004F096FF0021152004F092FF0021162073
:1002D00004F08EFF0021172004F08AFFD8E0E648E2
:1002E0000068E649884211D3E54800780028F5D037
:1002F00005F038F90020E24908700321012005F0DB
:1003000040FF0321022005F03CFFC1E0DA4800680D
:10031000FF217831884209D3DA480088FF21F5317E
:100320008842DBD1D848D4490860B1E0D74800788A
:10033000002827D1D6480078002820D0D54801468B
:100340000EC9C06801AC0EC404901A216846C17180
:100350001E218171192141711821017100BFCE4AFE
:1003600001A9CE4805F0E8F900900098002804D0D3
:1003700000BF0098FCF730FB00BF00BF00BF0120AA
:10038000C2490870C648007800280FD11B20FFF72B
:1003900037FD0120C2490870C2480078012803D007
:1003A000C0480078042801D10BF0DAFEB448007888
:1003B000002816D1BC4905F061F8054600BF049538
:1003C000049D002D04D000BF0498FCF705FB00BF7E
:1003D00000BF002006F096FB05F03CF80120A8497C
:1003E0000870B2480078002852D00020AF49087049
:1003F000AF48007802280AD1AE480078401CC0B24D
:10040000AC49087005280CDB0120087009E0A948F8
:100410000078401CC0B2A7490870042801DB012005
:100420000870A44800784006000EA3490870974859
:100430000078002828D196480078002821D09548D7
:10044000103001460EC9C06801AC0EC404901A21D8
:100450006846C1711E2181711921417118210171F4
:1004600000BF8D4A01A98D4805F066F900900098FB
:10047000002804D000BF0098FCF7AEFA00BF00BF10
:1004800000BF0120814908708A4800780CF050FDB7
:1004900000208A4908708248007800284FD0032243
:1004A0000FA910A801F02CFC002848D0844800783F
:1004B000002804D010A80088404201B21091814861
:1004C0000078002804D06846808F404201B20F9126
:1004D0007D480078002816D06846808FC1B27B48DE
:1004E00001726846808F0004010E7848417210A89E
:1004F0000088C1B27548817210A800880004010EFE
:100500007248C17215E010A80088C1B26F4801722C
:1005100010A800880004010E6C4841726846808F64
:10052000C1B26A4881726846808F0004010E674834
:10053000C172674800780221084365490870644821
:10054000007800287ED000204B4908606048007881
:10055000C007C00F002805D05D4800784008400063
:100560005B4908705A48007802210840002804D0EE
:100570005748007888435649087055480078042148
:10058000084000280FD0524800788843504908702E
:100590004E48C0794F4909684018C1B24B48C171F3
:1005A00000204C49086057E000204B4908704B4937
:1005B00008704649C8704A494870444805F0F2FC42
:1005C000002848D100BF44480078002803D14348A0
:1005D00000780028F7D02B480088FF21F5318842A9
:1005E00004DA28480088401C264908803A480078E8
:1005F00000280FD005203A49C881002005900B90B3
:100600002049088000213148C17101724172817214
:10061000C17222E00598002804D101200590FFF75F
:10062000EBFA19E000202E49C8810B98401C0B9072
:100630000B9820280CD3002124488171C1710172CC
:10064000417200E010E08172C17200200B9004E062
:10065000FFF7D2FA00E000E0A6E700BF06F08AF854
:10066000002801D1FBF74CF806F084F8002801D1EE
:10067000FBF746F828E50000202000204C1D000074
:100680007920002068200020F82401007620002036
:10069000802000209CD70200E9BD020078D602002D
:1006A0007A2000207F210020919D02001720002049
:1006B0007E210020AB200020AC200020262000203E
:1006C000EA1F0020EB1F0020E91F0020EE1F002082
:1006D000252000205C200020132000201420002072
:1006E000C8340020F0B589B000240020089008200C
:1006F0000790002006900590002500260027049012
:100700000390029001200190E2E0642D1EDB0A2E8E
:1007100005DB012070490870FDF730FED9E005982F
:10072000401E80B2059000280CD0002500206B49A7
:100730000870002606216A48FAF72FFD0120FDF710
:10074000FFFD03E00120FDF719FEC2E0681C85B241
:100750006448007800287DD000206249087001209C
:100760006149C8700020614948705F4805F01AFC73
:1007700000286FD100BF5B4800780028FBD0781CB0
:10078000C7B201205949487000205949087005F046
:1007900079FB002409E056480078002800D008E0E2
:1007A000012004F061FB601C84B24B20C000844235
:1007B000F1DB00BF05F0B0FB4D480078002877D092
:1007C0000020019000274B48407934287ED14948C9
:1007D000807A49494978884278D14648C17A464862
:1007E0008078814272D14348407A00280CD0414839
:1007F00080793B4908703F48C079487001203749EB
:1008000008703549087064E0002426E06000201874
:100810003349095C3748807981421CD16000201837
:10082000401C2F49095C3348C079814213D16000D4
:100830002018801C2A49085CFA280ADA600020186F
:10084000801C085C401CC1B260002018801C244A37
:10085000115404E036E0601C84B2022CD6DB00BFE9
:10086000022C21DB1D48007802281DDA21488079FE
:100870001A4909784A008918194A50541D48C17903
:100880001648007842008018401C154A1154012176
:100890001248007842008018801C114A11540F48F9
:1008A0000078401C0D490870701CC6B20EE0FFE7CE
:1008B0000198002807D1042F08DB012001900027B0
:1008C000FFF79AF902E00027FFF796F905F052FFCB
:1008D0001BE700BF09B0F0BD162000202420002037
:1008E0003420002013200020EE1F0020C8340020F8
:1008F00015200020CC2300209D20002010B50446A8
:10090000A08928DF10BD000010B588B028A00068BD
:1009100007901822274901A8FAF726FC012168460A
:100920000171FF21F53101820021017322480290FB
:1009300068464171012101760521C175022141738B
:100940000521418201A805F081F9044600BF002C71
:1009500002D0204608B010BD00BF032005F020FAE9
:10096000044600BF002C01D02046F3E700BF07A8D3
:1009700005F03AFA044600BF002C01D02046E9E712
:1009800000BFA321002005F0F1FA044600BF002CAF
:1009900001D02046DEE700BF042005F05BFA0446E4
:1009A00000BF002C01D02046D4E700BF2046D1E78D
:1009B0003E145B6D64D70200815B020000B50278D3
:1009C0001300FBF7CFF90734050811212A31340051
:1009D00000220A702CE001220A7003898B8183882F
:1009E000CB81C2688A6023E002220A7003898B816E
:1009F0008388CB81C2688A60027C062A01D10123E8
:100A000000E000230B7413E003220A70C3888B817B
:100A10000389CB81C2688A600AE004220A70C38815
:100A20008B810023CB8103E005220A7000E000BF28
:100A300000BF00BD70B5054600240AE0A0000649CD
:100A40000858002804D0A0000A46115828468847B4
:100A5000641C082CF2D370BD2C2F00203EB5054637
:100A60000C46002C1BD0112C19D0002000900190B6
:100A700002906846458001940D2C03D10B206946F5
:100A8000087008E0862C03D10A206946087002E04D
:100A9000092069460870684600F056F800BF3EBD60
:100AA00070B50546002405E0A000044A1158284608
:100AB0008847641C002CF7D070BD0000F421002092
:100AC00070B50546002405E0A000044A11582846E8
