:020000040001F9
:10B00000A83D0020D5B00100EFB00100F1B0010073
:10B010000000000000000000000000000000000030
:10B02000000000000000000000000000F3B001007C
:10B030000000000000000000F5B00100F7B00100C2
:10B040008DB80100C9B9010081BC010015BB010028
:10B050002DBB01000000000065B40100F5B2010045
:10B0600051BC010069BC0100F9B00100D9BA01006E
:10B07000F9B0010049BA0100F9B00100F9B00100CE
:10B08000F9B00100EDBA0100E1B80100F9B001002A
:10B0900041BB0100F9B0010049BB01007DBB0100CB
:10B0A000F9B00100F9B0010000000000000000004C
:10B0B0000000000000000000000000000000000090
:10B0C0000348854600F0B8F800480047F52C020018
:10B0D000A83D00200321094802680A43026008488D
:10B0E00002680A4302600748804707480047FEE7B6
:10B0F000FEE7FEE7FEE7FEE7FEE70000240500406E
:10B1000054050040EDBB0100C1B0010030B50B4655
:10B11000014600202022012409E00D46D5409D4231
:10B1200005D31D469540491B2546954040191546B7
:10B13000521E002DF1DC30BD70B5002425460028DC
:10B1400001DA01244042002901DA01254942FFF7D2
:10B15000DDFFAC4200D04042002C00D0494270BD1F
:10B1600000487047B8C9020003460B439B0703D051
:10B1700009E008C9121F08C0042AFAD203E00B78BC
:10B180000370401C491C521EF9D27047D2B201E034
:10B190000270401C491EFBD270470022F6E710B532
:10B1A00013460A4604461946FFF7F0FF204610BD35
:10B1B000421C0178401C0029FBD1801A704730B531
:10B1C00004460020034600E05B1C934203D2E05C8F
:10B1D000CD5C401BF8D030BDF0B51FB40646002052
:10B1E00082B005464024019100901BE0019922465F
:10B1F0000F46304600F042F8049A059B801A9941A8
:10B2000010D310461946224600F028F8361A8F410E
:10B210000197224601200021009F00F01FF83818F6
:10B220004D4100902046641E0028DFDC019B009801
:10B230002946324607B0F0BD064C0125064E05E012
:10B24000E36807CC2B430C3C98471034B442F7D347
:10B25000FFF73AFF54CA020074CA020010B5202A50
:10B2600004DB0146203A9140002010BD914020238C
:10B270009C1A0346E3401943904010BD10B5202AA4
:10B2800004DB0846203AD040002110BD0B46D340D5
:10B29000D0402024A21A91400843194610BD70B531
:10B2A0008C180578401C6B075B0F01D10378401C9C
:10B2B0002A1106D10278401C03E006780E70401C6B
:10B2C000491C5B1EF9D12B0705D40023521E0DD457
:10B2D0000B70491CFAE70378401CCB1A921C03E060
:10B2E0001D780D70491C5B1C521EF9D5A142D8D3A4
:10B2F000002070BD0EB51D48C06800281CD1FF207D
:10B30000013008F023FD012008F028FD00BF0020D7
:10B310001749086000BF01216846017000BF14484A
:10B32000806801B26846818001201049887408460F
:10B3300001686846884718E000F0B2FF002814D082
:10B34000012008F00BFD0020694608700748C0681E
:10B3500001900648017C68460181012003498874F8
:10B36000084601686846884700BF0EBDB02E002021
:10B370000075004010B5002400F046F81A49087026
:10B3800028E0224619A103200AF05AFA1B48007847
:10B39000002802D01A4809F0A5FA1A4800780300DC
:10B3A00000F092FC07050B06070C080D100000BF0B
:10B3B00000BF00BF10F07CFD05E000BF00BF00F043
:10B3C00032F800E000BF00BF04F0CCFB00F01CF836
:10B3D0000549087004480078002804D12046611C03
:10B3E0004CB20328CDDB10BD242100203A494E4643
:10B3F0004F3A693D25640D0A000000008D200020B1
:10B400007CC602002621002010B500200DF064FE4D
:10B410000446302C03D0312C01D0582C01D101200E
:10B4200010BD0020FCE710B5182009F02BFD01210C
:10B43000182009F0E1FD642008F0F0FC002118203C
:10B4400009F0DAFD642008F0E9FC0121182009F078
:10B45000D3FD012008F0B9FCFF202D3008F0DEFC00
:10B4600010BD0000F0B58FB000200E900D90FF20B1
:10B4700001300C900126002416E00C9809F03AFEE9
:10B4800000280BD000BF924840683040002805D00B
:10B490000C9809F027FE0E9830430E9076000C9819
:10B4A000001D80B20C90641C042CE6D3FF207D307C
:10B4B00009F020FE00280DD0FF207D3009F012FE9B
:10B4C0000121C9070E9808430E900DAA0121002002
:10B4D00009F0EAFD0E980007000F00282CD0012685
:10B4E000002427E00E983040002821D000BF794882
:10B4F000512109014018A10040581F2109020840AC
:10B50000000A074600BF7348512109014018A100F5
:10B510004058032109040840000C0B90204603F01A
:10B520004FFE0546002D02D038460B99A84700BFB4
:10B530007600641C042CD5D30E98C00FC0070028D9
:10B5400076D000200B900A90002505E00020C04333
:10B55000A90009AA50506D1C002DF7D000BF002093
:10B560000B9000247AE05C48005D0890C0210898A8
:10B570008843074658480057401C00286DD009A949
:10B58000384608F0F7FB002867D0C021089808402B
:10B5900080110790384603F057FE059003F010FE27
:10B5A00006900698002802D10798032854D10798DE
:10B5B000032815D10AA803970290039FF908019167
:10B5C000039F7907490F039101990298415C012378
:10B5D000039A93401943CAB20199425400BF00BF75
:10B5E00000BF00BF052109070846B9000722120263
:10B5F00082185158032212041140090C05910DA91B
:10B60000384608F0B7FB04900498002802D005984B
:10B61000022805D0049800281DD1059803281AD1C6
:10B620000798032810D10598022802D1032001E0D1
:10B630004BE0022003903846039909F047FC0B9831
:10B64000401CC0B20B9000BF0698002803D03846BB
:10B65000069A0799904700BF00BF641C082C82D34C
:10B660000B9800282CD0012708AA0121002009F0FE
:10B670001BFD00250AE0A80008A90858A9000DAA8A
:10B680005158884201D0002702E06D1C002DF2D0F5
:10B6900000BF002F02D000200B9010E000250CE02E
:10B6A000A80008A90858A9000DAA5050A8000AA986
:10B6B0000858A90009AA50506D1C002DF0D000BFF9
:10B6C0000B98002800D04AE700BF0FB0F0BD000083
:10B6D0000063004000600040202E0020C206D20E11
:10B6E00001219140014A11607047000080E200E0B2
:10B6F000C206D20E01219140014A1160704700003C
:10B7000080E100E0C206D20E01219140014A1160A1
:10B710007047000080E100E0C206D20E0121914096
:10B72000014A11607047000000E100E0C206D20E3D
:10B7300001219140014A11607047000000E100E0E2
:10B74000C206D20E01219140014A116070470000EB
:10B7500000E100E0C206D20E01219140014A1160D1
:10B760007047000000E200E010B5002819DA1A4A1C
:10B7700003071B0F083B9B089B00D2588307DC0E76
:10B78000FF23A3409A438B071B0E8407E40EA340BC
:10B790001A43114B0407240F083CA408A4001A51B3
:10B7A00018E00E4A03231B02D21883089B00D258CC
:10B7B0008307DC0EFF23A3409A438B071B0E8407ED
:10B7C000E40EA3401A43054B032424021B198408EA
:10B7D000A4001A5110BD00001CED00E000E100E0E3
:10B7E00010B5002819DA1A4A03071B0F083B9B08FB
:10B7F0009B00D2588307DC0EFF23A3409A438B079C
:10B800001B0E8407E40EA3401A43114B0407240FB8
:10B81000083CA408A4001A5118E00E4A03231B0296
:10B82000D21883089B00D2588307DC0EFF23A34065
:10B830009A438B071B0E8407E40EA3401A43054B63
:10B84000032424021B198408A4001A5110BD00000F
:10B850001CED00E000E100E000BF00BF00BFBFF34F
:10B860004F8F00BF00BF00BF06480749C86000BF38
:10B8700000BF00BFBFF34F8F00BF00BF00BF00BFBE
:10B8800000BFFDE70400FA0500ED00E010B5FF2061
:10B89000013008F07AFA00280CD0FF20013008F0BF
:10B8A0007FFA012008F082FA01200C49487000203C
:10B8B00003F0CAFDFF20053008F067FA00280BD01E
:10B8C000FF20053008F06CFA022008F06FFA012022
:10B8D0000249887003F0B8FD10BD0000BC2D0020A7
:10B8E0001CB500BFFF200130344940180068002813
:10B8F0001AD001200AF0C2F8002815D000BF00219C
:10B90000FF2001302D4A8018016000BF9115684664
:10B91000018000BF2A48C06841B268468170294A48
:10B92000019900981268904700BFFF200530234915
:10B9300040180068002822D002200AF09FF8002852
:10B940001DD000BF0021FF2005301C4A8018016077
:10B9500000BFFF2105316846018000BF184880699B
:10B9600001B26846418000BF15484030806881B20E
:10B9700068468180134A019900981268904700BF79
:10B98000FF2009300D4940180068002815D0042018
:10B990000AF074F8002810D000BF0020FF21093100
:10B9A000064A8918086000BFFF20093069460880F0
:10B9B000044A01990098126890471CBD002001407C
:10B9C000002501404C22002010B51B4800680028CB
:10B9D00008D01A484068C007C00F002802D00020D5
:10B9E000154908601448C06800280FD01348406803
:10B9F00008210840002809D000200F49C8601048DD
:10BA00000068002802D00E48006880470A48006994
:10BA100000280FD00948406810210840002809D0AC
:10BA200000200549086107480068002802D0054841
:10BA30000068804710BD0000001100400013004066
:10BA400028230020242300201CB50020019001A8F9
:10BA500001F058F90FF00AF9002830D100BFFF209B
:10BA60000130194940180068002801D0012000E089
:10BA70000020002823D001201449896801400029B2
:10BA800001D0012100E00021002918D000BF0020D2
:10BA9000FF2101310C4A8918086000BF00BF0C4823
:10BAA0008068C0B2009069460A480AF00FF8094859
:10BAB00009F0F5FF002801D008F0B8FD00BF684686
:10BAC000007901F049F91CBD00D0004000D30040CE
:10BAD00000D5004040C8020010B5032200210248F2
:10BAE00008F0D8FD10BD000000B0004010B50020E7
:10BAF000074908600021064841608160C16000205C
:10BB000003494039086048600FF0BAFA10BD0000E0
:10BB10004011014010B5034C2146034806F08CFB50
:10BB200010BD0000482E00200030004010B5024932
:10BB3000024806F093FB10BDC42E002000400040D8
:10BB400010B50FF0ADF910BD70B50B4800680028B6
:10BB50000ED0094800688047044600BF2546002DE6
:10BB600004D000BF284600F025FF00BF00BF01E061
:10BB700006F074FA70BD0000DC2200203EB51948C2
:10BB80000068019002A809F083F80446002C27D130
:10BB900015480068002823D00298C007C00F00286D
:10BBA00006D000206946087068460F490968884732
:10BBB000022102980840002806D00120694608703A
:10BBC0006846094909688847042102980840002806
:10BBD00006D002206946087068460349096888470C
:10BBE0003EBD00001C230020FC22002010B506F002
:10BBF000D5FB002805D0104810494860C8131049EB
:10BC0000886106F0AFFB002802D001200D49886052
:10BC100006F0FAFB00280ED00B480068012807D078
:10BC20000A480949086000BF074800680128FBD19D
:10BC3000C0200549486110BDDFFF07C00005004076
:10BC4000006C00400006004000EC064075930000C8
:10BC500010B504220249034806F0BAFA10BD0000EC
:10BC6000682E00200080004010B5042202490348DD
:10BC700006F0AEFA10BD0000742E002000900040C7
:10BC800010B5024902480FF099FF10BD2C2E00207C
:10BC9000002000400FB41CB50246002007AC00296C
:10BCA0000BD0491E01910092064B6A462146069828
:10BCB00000F040F8009A002111701CBC08BC04B0D0
:10BCC00018470000A9C1010030B47446641E2578ED
:10BCD000641CAB4204D3635D5B00E31830BC1847BF
:10BCE0001D46F8E702E008C8121F08C1002AFAD171
:10BCF00070477047002001E001C1121F002AFBD1EC
:10BD0000704700000146202909DA01208840054AD1
:10BD10001040002801D0012070470020FCE70120DE
:10BD2000FAE70000FC06FFBC00BFEFF310810846F5
:10BD300072B67047FFB591B00F460546002606E083
:10BD400025280AD0149A139990476D1C761C2878E0
:10BD50000028F5D1304615B0F0BD00240094012133
:10BD6000F34A029400E004436D1C2B780846203B04
:10BD700098401042F7D128782A280ED0022128783E
:10BD80000246303A092A15D8009A0A235A43303A13
:10BD900080180C436D1C0090F1E701CF0090002843
:10BDA00005DA01204003044300984042009002203D
:10BDB00004436D1C28782E2815D10420044368788C
:10BDC0006D1C2A280AD101CF6D1C02900BE002994C
:10BDD0000A225143303940186D1C029028780146E0
:10BDE00030390929F3D928786C2810D006DC4C2882
:10BDF0001AD068280ED06A2817D104E0742813D00E
:10BE00007A2812D110E00120400504430CE0012102
:10BE1000090501E0032109050C436978814203D13A
:10BE20000120000524186D1C6D1C287803906E28D5
:10BE30001ED00CDC632831D004DC00288AD05828BE
:10BE400011D1B2E064287BD069280CD178E0732846
:10BE50002DD004DC6F2870D0702804D1A7E075289D
:10BE60006CD078286BD0149A13999047761C62E0B6
:10BE70006002400F022807D003280AD0042838683F
:10BE80000AD006603F1D56E03868F1170660416031
:10BE9000F8E738680680F5E70670F3E73878694612
:10BEA00008740020487404A80390012003E0386857
:10BEB00003900020C0433F1D61070FD5002101E022
:10BEC0000199491C029A0191914213DA8142F7DBF0
:10BED000019A0399895C0029F2D10BE0002101E06D
:10BEE0000199491C01918142FADB019A0399895C0D
:10BEF0000029F5D101990098139A401A0090214623
:10BF0000149B00F03BF901998019461807E003984B
:10BF100003990078491C0391149A1399904701984A
:10BF2000401E0190401CF2D12146149B139A0098A8
:10BF300000F014F986196D1C09E741E033E034E0A4
:10BF40000A200021049005916002410F022905D0CA
:10BF500001CFC2179446032905D007E0FF1DFF0853
:10BF6000FF0003CF06E000B2C2179446042902D1B5
:10BF700040B2C1178C4600226146944506DA0A4653
:10BF80000021404291418C462D2102E0210504D53B
:10BF90002B216A461176012103E0E10701D020211F
:10BFA000F7E7019154E00A200BE0102009E010208F
:10BFB000049000210420044308200591029003E02E
:10BFC00008200021059104906002410F022905D04C
:10BFD00001CF00229446032906D006E0FF1DFF088A
:10BFE000FF0003CF8C4603E080B2042900D1C0B229
:10BFF0000021019121072BD50399702906D0049ABD
:10C000001021059B4A401A4305D00EE040216A46A4
:10C010001176012108E06146014306D030216A46CD
:10C0200011760399517602210191049A0821059B0A
:10C030004A401A430CD16146014301D1610707D53B
:10C0400030216A461176012101910299491E02911F
:10C050000399582904D037A103910FA90F910DE03E
:10C0600039A1F9E76146059B049AFFF7B5F8039BF0
:10C070008C469B5C0F9A521E0F92137061460143CF
:10C08000F0D10F9807A9081A20300390600704D553
:10C09000012000048443029801E0012002900399EA
:10C0A000884201DD401A00E000204118029001980A
:10C0B00009180098401A0090E00306D42146149B0A
:10C0C000139A009800F05AF886190020049008E0AE
:10C0D00006A9085C149A139990470498401C761C92
:10C0E000049001998842F3DBE0030CD52146149BB0
:10C0F000139A009800F042F8861904E0149A302050
:10C1000013999047761C0299481E02900029F5DC8D
:10C1100008E00F980F990078491C0F91149A139911
:10C120009047761C0399481E03900029F1DCFBE63A
:10C1300009280100303132333435363738396162FD
:10C1400063646566000000003031323334353637C1
:10C15000383941424344454600000000F8B50446E2
:10C1600000251E461746880404D405E039462020E1
:10C17000B0476D1C641EF9D52846F8BDFFB50446CE
:10C18000002581B01E46C80301D5302700E02027D6
:10C19000880404D505E038460399B0476D1C641E39
:10C1A000F9D5284605B0F0BD4A68002A06D00A68CD
:10C1B000531C0B6010704868401E486070470000B8
:10C1C00038B50B48006800900A49684607F0E0FE61
:10C1D000044600BF2546002D04D000BF284600F0CD
:10C1E000E9FB00BF00BF044807F0BCFE38BD0000FB
:10C1F00094C60200FDC10100C420002070B50446B1
:10C200002078002827D114490860002508E069003B
:10C210006068405E1049096840180F4908606D1C4D
:10C220002089A842F3D821890B480068FEF76EFFE9
:10C2300009490860228909A1032009F001FB064889
:10C240000EA10268032009F0FBFA002013490870D0
:10C2500007F0CAFE00BF70BDBC2000204150503A1C
:10C26000494E464F3A41444320646F6E65207369DE
:10C270007A653A2025640D0A000000004150503ACA
:10C28000494E464F3A417665726167652076616C2A
:10C2900075653A2025640D0A000000008220002008
:10C2A00010B5FF20013007F051FD00BF00201E49EE
:10C2B000086000BF00BF0846806800B21B49C9681B
:10C2C0001A4A527C520088521848407C401C174938
:10C2D00048740846407C097C884223DA00241348CD
:10C2E00080684068002804D1104840680F49886081
:10C2F00005E00E48806840680C49886001240B49BD
:10C300008968086807F010FD00BF01200649086031
:10C3100000BF002C04D000BF054A106000BF00BF62
:10C32000002010BD0120FCE700750040B02E002069
:10C330000070004070B505460C46002D01D0002C61
:10C3400001D1002070BD28782178884201D00020DA
:10C35000F8E70622611C681CFEF731FF002801D1B6
:10C360000120EFE70020EDE70246002105E0505CE8
:10C37000002801D001207047491C0629F7D300206E
:10C38000F9E7000010B50446002C0ED008480068FC
:10C39000A0420AD806484068A04206D3204606F0CC
:10C3A0006AF8002801D0012010BD0020FCE7000041
:10C3B0007423002000B501460B00FFF785FC05043F
:10C3C000070A0D1014000948006800BD08480068FD
:10C3D000FBE708480068F8E707480068F5E7044805
:10C3E00000681830F1E701480068EEE734230020C8
:10C3F000442300205423002064230020F7B582B09A
:10C400000446164600253788002030802D20005D28
:10C4100000280CD03A463146039801F025FC054629
:10C4200000BF002D02D0284605B0F0BD00BFA078A7
:10C4300000280BD03A463146039800F0ADFC054683
:10C4400000BF002D01D02846EEE700BFE0780028AD
:10C450000DD0E17848B23B463246039904F042F8E9
:10C46000054600BF002D01D02846DDE700BF60680B
:10C4700000280ED00020616808563B4632460399DA
:10C480000FF078FB054600BF002D01D02846CBE712
:10C4900000BF208900280FDD0197009606220221A7
:10C4A00020460830039B0FF0F9FD054600BF002D24
:10C4B00001D02846B8E700BF208A00280FDD019789
:10C4C00000960722032120461030039B0FF0E6FD63
:10C4D000054600BF002D01D02846A5E700BF208BF0
:10C4E00000280FDD019700961522142120461830F0
:10C4F000039B0FF0D3FD054600BF002D01D0284659
:10C5000092E700BF206A00280CD03B463246206AE2
:10C51000039903F027F8054600BF002D01D02846F7
:10C5200082E700BF606A00280CD03B463246606A52
:10C53000039906F08DFE054600BF002D01D0284668
:10C5400072E700BF2C20005D00280CDD3B46324620
:10C55000204603990DF01AFE054600BF002D01D0BC
:10C56000284661E700BF207800280CD03B463246C1
:10C570002046039907F016FB054600BF002D01D0A9
:10C58000284651E700BF28464EE7000070B5044634
:10C590001748FFF7E9FE0546012C06D0022C0DD006
:10C5A000032C14D0042C20D118E012484078002825
:10C5B00003D0002D01D0012070BD00BF0D48807850
:10C5C000002803D0002D01D00220F5E700BF094864
:10C5D000C078002801D00320EEE700BF05480079AD
:10C5E000002801D00420E7E700BF0020E4E70000B6
:10C5F000592100207427002010B504460521601C35
:10C60000FEF79AFDC8B210BD0146C878042210405A
:10C61000002801D1072070470020FCE710B5042254
:10C620000221012002F0E8FA044600BF002C03D0EA
:10C63000072C01D0204610BD00BF07220021012099
:10C6400002F0DAFA044600BF002C03D0072C01D018
:10C650002046F0E700BF0A220021084602F0CCFA8B
:10C66000044600BF002C03D0072C01D02046E2E78F
:10C6700000BF0020DFE7000070B598B03C2109A89A
:10C68000FEF78BFD0526022108A8017101218171A9
:10C69000C6716846818618490E91202101A8FEF7CF
:10C6A0007CFD012168460171417181712020039058
:10C6B000B42004906846C17128200590B4200690EB
:10C6C000684601721920C0010790012008900B48AC
:10C6D0000B4B01AA0021009009A800F005FE0446BA
:10C6E00000BF2546002D04D000BF284600F062F9A7
:10C6F00000BF00BF18B070BD9C200020D9D201003F
:10C70000315D020070B5284A10212848FEF73EFD31
:10C7100008202749086025480BF0CCF92448016817
:10C7200022480CF01DFA044600BF2546002D04D017
:10C7300000BF284600F03EF900BF00BF1C4801685A
:10C740001A480BF0D5FB0446062C09D000BF25463D
:10C75000002D04D000BF284600F02CF900BF00BF18
:10C76000002014490870124813A10268032009F040
:10C7700067F80F480068002803D0002017490870A8
:10C7800002E0012015490870012000F00FFF044667
:10C7900000BF2546002D04D000BF284600F00AF94E
:10C7A00000BF00BF70BD0000FFFF00007C2500201F
:10C7B000A0200020A42000204150503A494E464F6E
:10C7C0003A6D5F77686974656C6973745F706565ED
:10C7D000725F636E743D25640D0A000070210020B5
:10C7E00070B58CB004460D461646002005E00F21BA
:10C7F000091A615C6A461154401C1028F7D30D21B8
:10C8000004A8FEF7CAFC002005E02A5C0F210B1AE1
:10C8100004A9CA54401C0328F7D368464DDF002002
:10C8200005E00F210A1A08A9895C3154401C03282D
:10C83000F7D30CB070BD000010B50446002001F025
:10C8400065FE08480078401E0649087008460078D2
:10C85000002806D10448006800F038FA002001F0F2
:10C8600073FE10BDB820002000C7020010B50024E0
:10C8700007E0E100064A1268505C012107F066FCFF
:10C88000641C044800788442F3D3002010BD0000EB
:10C890005C22002060220020FEB506460C461746AA
:10C8A000052F01D20720FEBD07F064FD002808D146
:10C8B00007F032FD054600BF002D01D02846F2E703
:10C8C00000BF17480660174804701748076000202B
:10C8D000164908601649086017E0E00080190190C9
:10C8E0001448006800900198807869464870019962
:10C8F0000878114A694607F087FC054600BF002DFD
:10C9000001D02846CFE700BF00BF2046611ECCB251
:10C910000028E2D1094A0021094800F021F9C2E7C4
:10C920005C22002060220020642200206822002077
:10C930006C220020D0C80200F510020095F801001A
:10C94000CCC8020013A1012008F038FF00BF08F096
:10C95000ABFD00BF00BF08F0ADFD0028FBD100BF5C
:10C9600000BF00BF00BF00BF00BF00BFBFF34F8FBD
:10C9700000BF00BF00BF0D480D49C86000BF00BF29
:10C9800000BFBFF34F8F00BF00BF00BF00BF00BF9D
:10C99000FDE700004150505F4552524F523A455218
:10C9A000524F523A466174616C0D0A000400FA0558
:10C9B00000ED00E03EB5044600200090019002909A
:10C9C00002946A4600210248FFF7BCFF3EBD00000A
:10C9D00001400000F7B582B007460C4627480088A2
:10C9E000844246DC264D0020019001A800F08AF91F
:10C9F00000BF2448007800902348007807F088F9A9
:10CA00000099884201D1012000E00020002806D1D1
:10CA10001D480578007807F07BF91B4908706846C7
:10CA2000007900F099F91648854220D0E900174AAC
:10CA3000049812685050002F11D0002C0FDD0F49C0
:10CA400009886943124A1268881822463946FEF757
:10CA50008BFBE8000D4909684018848005E000213F
:10CA6000E8000A4A126880188180002600E0042647
:10CA700000E00926304605B0F0BD00007A22002013
:10CA8000FFFF000078220020792200207022002081
:10CA900074220020F8B51AE015480478154800887B
:10CAA0006043154909684518E000144909684018B1
:10CAB0008688E000114909680F5831462846B84772
:10CAC0000B48007807F024F90949087000BF00BF3F
:10CAD000002000280BD100BF0549087808490978D3
:10CAE000814201D1012100E000210029D4D0F8BD0C
:10CAF000782200207A220020742200207022002058
:10CB00007922002030B50346481CC004040C1046AE
:10CB10008507AD0F002D01D1012500E00025002D76
:10CB200001D1072030BD084802601019074D286068
:10CB30000020074D2870074D2870074803800748DC
:10CB400001800020EEE70000702200207422002007
:10CB500079220020782200207A2200207C220020E6
:10CB600010B503460C4600BF0D484068002801D1AF
:10CB7000082010BD00BF002A01D10720F9E7002BD3
:10CB800001D10720F5E71868007C002801D00820B3
:10CB9000EFE71968002008744C744A6100BFE8E7A9
:10CBA00080220020F8B504460D46264600BF082D19
:10CBB00001D1012000E000200746002F03D100BF73
:10CBC000FFF7F8FE00BF00BF316870688847F8BD06
:10CBD0007CB504460D4600940195034A0821684639
:10CBE000FFF7F8FE7CBD0000A5CB0100F8B50746B5
:10CBF0000D4614461E4620468107890F002901D1A3
:10CC0000012100E00021002901D10720F8BD002CFE
:10CC100001D10720FAE70CF0D7FE1148066000208A
:10CC200010490870487008468570446000200E491D
:10CC300008600E4908700E4908701420FEF74EFD7A
:10CC400003211420FEF7CCFD1420FEF765FD3846C5
:10CC50000CF090FE0CF088FE064908600020D5E735
:10CC60009C22002080220020882200209822002080
:10CC7000992200208C220020F8B504460E46174663
:10CC8000254600BF10484068002801D10820F8BDA3
:10CC900000BF002C01D10820F9E7052E01D20720A2
:10CCA000F5E76869002801D10820F0E7687C0128D1
:10CCB00001D1304600E0002000903B463146284636
:10CCC000009A0EF08DF9E2E78022002070B504464C
:10CCD000254600BF0A484068002801D1082070BDE1
:10CCE00000BF002C02D06869002801D10820F6E7B7
:10CCF00000202874022128460EF0A0F9EFE700007A
:10CD00008022002070B5044600BFFFF70DF80546ED
:10CD10000E48406800280ED101200C4948600C489C
:10CD200000680C490840094908600A480849086039
:10CD30000020207001E001202070002D03D100BFF1
:10CD400062B600BF00BF00BF70BD0000A42200207B
:10CD500080E100E0FC06FFBC70B5044625460C48A7
:10CD60004068002812D0002D10D1FEF7DDFF0646E6
:10CD70000748006807490860002005494860002E00
:10CD800003D100BF62B600BF00BF00BF00BF70BDCF
:10CD9000A422002000E100E0F8B505460C46174645
:10CDA0002088001DB84201D90C20F8BD684679DF03
:10CDB000064600BF002E01D03046F6E700BF032034
:10CDC000218868542088401C2080192021886854BC
:10CDD0002088401C208020884119684600880EF079
:10CDE0009FFF2188401820800020DEE770B50546AF
:10CDF0000C462068401C002805D0206808F0B8F8D0
:10CE0000206808F04BF86068401C002803D000211F
:10CE1000606808F003F82868A169052212028218E8
:10CE2000516200BF617D227D28680B4613430526B1
:10CE300036028619F36600BF62682168286808F028
:10CE40006EFF207D012816D1A068401C002803D069
:10CE50000021A06807F0E2FFE068401C002805D030
:10CE6000E06808F085F8E06808F018F8A268E16862
:10CE7000286808F032FF70BD30B58BB014480078D8
:10CE800000F0BCFE054628460CF068FE00281CD0C9
:10CE900001A800F00FFE142201A906A8FEF764F90C
:10CEA00000240EE0620007A9885A0949097800F0B9
:10CEB000B3FE002804D0620007A9885A05F0A2FD3D
:10CEC000641C0698A042EDD800BF0BB030BD000036
:10CED000A221002010B5044663799A07920F2179A8
:10CEE000208805F05DFC10BD10B5044620790028AF
:10CEF00003D1204600F008F803E02046FFF7EAFFE0
:10CF000000BF00BF10BD0000F0B589B00446002589
:10CF1000208800F041FE0746208804F015FF0646F1
:10CF2000A0680890607A079020880022224909783A
:10CF300000F086FE002F01D109B0F0BD60794007F6
:10CF4000C00F002811D0072130460AF029FA054603
:10CF5000002D16D00821684601712188C180068104
:10CF6000039501A802F070FF0BE0208813490978AF
:10CF700000F052FE002804D0304604F0CDFE0390AD
:10CF800000BF03216846017421884182607940070F
:10CF9000C10F68460175A0794007C10F04A841710F
:10CFA000811D08A80078087004A86946097FC1712E
:10CFB00002F04AFF00BFBFE7E6210020E821002081
:10CFC00030B585B014216846FEF7E7F800200090E0
:10CFD00001216846017100200290642168460173B6
:10CFE00000BF407B01090901491C68464173407B31
:10CFF000F021884320306946487300BF00BF68466F
:10D00000807B00090001401C88736846807BF0210A
:10D01000884320306946887300BF00BF6846C07BE4
:10D0200000090001C8736846C07BF0218843694647
:10D03000C87300BF00BF6846007C01090901491C94
:10D0400068460174007CF0218843203069460874EA
:10D0500000BF084800F0B8FB044600BF2546002D7D
:10D0600004D000BF2846FFF7A5FC00BF00BF05B0F5
:10D0700030BD000024250020F0B591B004460D46D7
:10D08000207D002819D00020099000BF08A8007951
:10D0900001090901491C08A801710079F0218843A0
:10D0A000103008A9087100BF697B08A84171807918
:10D0B00006218843801C08A988711C210AA8FEF754
:10D0C0006CF808A8007A02218843811C08A8017224
:10D0D000007A10218843217D002901D0012100E040
:10D0E0000021090110221140084308A908720020FC
:10D0F0000B900D900E90207D002801D009A800E033
:10D1000000200F900020109000BF0121684681731D
:10D110004949818100BF00200290A97B68460172C5
:10D12000E97B4172807A06218843811C68468172BE
:10D13000807A08218843014668468172807A1021EE
:10D140008843014668468172807A410849006846F2
:10D150008172297B0191142104A8FEF71EF803A80F
:10D16000049002A8059001216846018300214183B3
:10D170000121818301A80890A088A31D04AA0AA9FF
:10D18000A2DF0646002E02D0304611B0F0BDA868DE
:10D1900000284DD000BF0121684681732749818155
:10D1A00000BF00200290287C6946087200BF6846D4
:10D1B000407A0109090168464172407AF0218843AA
:10D1C0006946487200BF6846807A06218843811C00
:10D1D00068468172807A08218843014668468172D8
:10D1E000807A10218843014668468172807A41081E
:10D1F000490068468172A96801F00CF807461421BD
:10D2000004A8FDF7CAFF03A8049002A80590684689
:10D21000078300214183018B81830890E0882246A7
:10D220000E3204A9A3DF0646002E03D03046ACE739
:10D230000020E0810020A8E7192A0000082900004A
:10D24000F3B593B00D461F21129111911398002848
:10D2500018D01398FFF7D8F9044600BF002C02D06D
:10D26000204615B0F0BD00BF12AA09A91398FFF718
:10D27000C5F8044600BF002C01D02046F1E700BFEE
:10D2800009AE02E0002600201290002D17D028469B
:10D290000DF057FD044600BF002C01D02046E0E70A
:10D2A00000BF11AA01A92846FFF7A8F8044600BF4D
:10D2B000002C01D02046D4E700BF01AF02E00027D8
:10D2C0000020119010A88088C3B210A80089C1B2B4
:10D2D0003A46304672DFC4E710B5044600BF204628
:10D2E000FFF768FB00BF10BDF8B504460F461546B2
:10D2F0001E46002C01D0002D01D10E20F8BD0120CA
:10D30000574908700020574908702022294656487E
:10D31000FDF72AFF55480660554906980860002029
:10D32000C0435449088007215348FDF736FF3C218C
:10D330005248FDF732FF207850490870A078887075
:10D34000E078C87060784870084662692169426177
:10D3500001610146E268A068CA6088600846E26927
:10D36000A169C2618161606A00281BD044484349B9
:10D37000486244498160606A00884049496A08807F
:10D38000606A80883D49496A8880002005E0616ABA
:10D390008968095C3B4A1154401C3849496A8988AC
:10D3A0008142F4D8A06A002824D0374937488160E8
:10D3B0003249886234493148806A8160A06A808835
:10D3C0002E49896A8880A06A00882C49896A088069
:10D3D000002005E0A16A8968095C2B4A1154401CB1
:10D3E0002649896A89888142F4D82C20015D234826
:10D3F00020300173206A00280BD025481F4908629D
:10D40000206A4088096A4880206A00881B49096AA6
:10D4100008806068002802D01849606848600020D1
:10D4200008E0C100091A1B4A89181B4A12688300C8
:10D43000D150401C0828F4DB002007E00101174A06
:10D440008A18154989688300CA50401C0828F5DBF2
:10D4500039460A48FFF7F4FE009000984EE70000B6
:10D46000542100205721002074270020682100202B
:10D470006C210020642100205821002094270020E6
:10D48000D0270020DC27002008280020FC270020CF
:10D49000602100206828002074210020A02800209E
:10D4A00010B504462088102804D0112806D01B2867
:10D4B0000CD107E0204609F033F808E0204609F0D7
:10D4C00087F804E0204609F0E5F900E000BF00BF5E
:10D4D00010BD000070B50546022D02D0032D18D1F5
:10D4E00000E000BF0C480078002811D000200A4955
:10D4F00008700A48007800F059F80446002C07D05C
:10D5000007480068002803D0204605490968884775
:10D5100000E000BF00BF70BD552100205721002052
:10D520006C21002010B5044607480078002801D17E
:10D53000082010BD00200449087007222146034836
:10D54000FDF712FE0020F4E75F21002058210020A3
:10D5500010B574DF01201149087006201049C87009
:10D5600000210F48FFF76CFE0446002C01D0204636
:10D5700010BD03200B4908700846007800F016F82B
:10D580000446002C07D008480068002803D0204635
:10D590000549096888470020EAE70000702100205B
:10D5A00094270020572100206C21002070B586B000
:10D5B00005465D480078002802D1082006B070BDFD
:10D5C0005A48057002F0F8FF002804D0012058499D
:10D5D00008700020F2E707215648FDF7DEFD5648A7
:10D5E0004078002803D05148007801280FD05248D5
:10D5F0008078002803D04D480078012807D04E4895
:10D600008078002812D04948007802280ED14B4873
:10D610000068002807D001204949087008204749C0
:10D620000968884702E00020454908702846FEF74F
:10D63000ADFF3E49087041480068002817D00846F1
:10D640000078032803D00846007804280FD13A4810
:10D65000007800280BD03B480078002807D1012033
:10D6600039490870072035490968884702E00020D9
:10D670003549087018216846FDF78FFD002168467E
:10D6800001700172294800780300FEF71DFB0518A0
:10D6900004090E131C0068460CF0D4FD044613E088
:10D6A00068460CF015FE04460EE068460CF026FEB7
:10D6B000044609E068460CF059FE044604E00020E8
:10D6C0002249087000E000BF00BF18480078002819
:10D6D00006D0684673DF0446002C19D020466DE75B
:10D6E0001B480078002813D000201A4908701849F8
:10D6F0000870FEF75FFE0646174905F049FA002854
:10D7000003D01549491E002070DF002000F026FFDD
:10D710000A480068002804D00C48007807490968C6
:10D72000884700204AE700005421002057210020AC
:10D730005521002058210020742700206821002056
:10D740005F2100207021002071210020562100203F
:10D750007F2000208F200020AA200020FFB581B06C
:10D7600007460D461E4616480078002802D10820BC
:10D7700005B0F0BD00201249087012490D710E73FA
:10D7800000240AE00F4A1268A300D058E200121BDE
:10D79000D1190722FDF7E8FC641CAC42F2D3002447
:10D7A0000AE0084A9268A300D0582301039A991806
:10D7B0001022FDF7D9FC641CB442F2D30020D7E755
:10D7C0007121002074210020F8B504460D46002C7C
:10D7D00001D0002D01D10E20F8BD28682060002066
:10D7E000C043608228792075FF20207400BF01218A
:10D7F000684681700849018000BF221D69460120EA
:10D80000A0DF0646002E01D03046E5E72946204637
:10D81000FFF732FCE0E700000F18000070B5054686
:10D820000C46002D01D0002C00D170BD208810289E
:10D8300004D0112807D050280FD109E021462846EE
:10D8400008F046FE0AE02146284608F0B7FE05E04B
:10D850002146284609F08AF800E000BF00BF00BF5B
:10D86000E3E7000038B50446082221462148FDF7C9
:10D870007BFC20487ADF05461E4802881EA1032053
:10D8800007F0DEFF1B48428825A1032007F0D8FFE0
:10D89000002D2DD12C4804F053FD002810D12BA1D0
:10D8A000032007F08BFF284802882FA1032007F0F0
:10D8B000C7FF2548428836A1032007F0C1FF17E0C3
:10D8C0002148028828A1032007F0BAFF1E48428899
:10D8D0002FA1032007F0B4FF37484069002806D085
:10D8E00001200090344841696846884700BF002500
:10D8F000284638BD842100203A494E464F3A6D5F94
:10D900007072656665727265645F636F6E6E5F707C
:10D910006172616D732E6D696E3A25640D0A0000A7
:10D920003A494E464F3A6D5F707265666572726530
:10D93000645F636F6E6E5F706172616D732E6D6197
:10D94000783A25640D0A0000902100203A494E469D
:10D950004F3A2169735F636F6E6E5F706172616DC4
:10D96000735F6F6B0D0A00003A494E464F3A6D5F88
:10D9700063757272656E745F636F6E6E5F706172F5
:10D98000616D732E6D696E3A25640D0A000000000A
:10D990003A494E464F3A6D5F63757272656E745FB9
:10D9A000636F6E6E5F706172616D732E6D61783A38
:10D9B00025640D0A000000002029002070B50546EE
:10D9C0001C2229461448FDF7CFFB0020134908709C
:10D9D000286800280BD0082211482968FDF7C4FBED
:10D9E0000F487ADF0446002C08D0204670BD0C4852
:10D9F0007BDF0446002C01D02046F7E70020C0431F
:10DA000008490880002008490870084A0021084891
:10DA1000FFF7A6F8EAE7000020290020982100205F
:10DA2000842100208E2100208C210020A1BD020035
:10DA300048C7020010B504462088102806D01128D7
:10DA400008D012280ED050281AD107E0204608F03E
:10DA5000CFFC16E0204608F08FFD12E0204608F0CB
:10DA60005BFF0EE0228908A1032007F0E9FE62892E
:10DA700005A1032007F0E4FE204608F0ADFC00E01D
:10DA800000BF00BF10BD00003A494E464F3A424C1D
:10DA9000455F4741505F4556545F434F4E4E5F5080
:10DAA0004152414D5F5550444154453A25640D0A59
:10DAB0000000000010B504460348027D011D204609
:10DAC0000CF0C0F810BD00005C29002010B5044621
:10DAD0000348C17D2246001D0CF09EF810BD0000D9
:10DAE0005C29002010B504460348017E2246001D33
:10DAF0000CF092F810BD00005C29002070B50446BF
:10DB00002088102804D011281ED01A283FD11FE0E9
:10DB10000BF0B8FCA0880BF01DFB002804D100BF5F
:10DB20000420FEF747FF0EE0A07D022801D101206E
:10DB300000E000200546A2882B4616490846123808
:10DB40000CF0A3F800BF22E0A0880BF0BDFC1EE0A3
:10DB5000207A0009012801DD012000E000200346B1
:10DB6000A2880C49491C084613380CF08EF8207A1C
:10DB70000009022801DD012000E000200346A28800
:10DB80000449891C084614380CF07FF800BF00BF18
:10DB900070BD00007229002070B5044600250C48B5
:10DBA000017D2246001D0CF037F800280DD00848F2
:10DBB000817D2246001D0CF02FF80646002E01D074
:10DBC000022000E00120054600BF284670BD00008D
:10DBD0005C29002010B500240BE020460EF038F937
:10DBE000002804D120460EF029F9204610BD601C03
:10DBF000C4B2182CF1DB1820F8E7000010B5044679
:10DC000020460EF025F9002802D00248005D10BD24
:10DC10000020FCE77529002070B505460C4620461B
:10DC20000EF016F9002806D00448015D2A46153882
:10DC30000BF0F2FF70BD0020FCE70000752900200A
:10DC400070B505460C46164620460EF001F9002830
:10DC500006D00448011933462A4615380CF015F849
:10DC600070BD000075290020FEB505460C4617461C
:10DC700020880930B84201D90C20FEBD684671DF0A
:10DC80000646C02168464170022181700321C1709F
:10DC900004210171C02181710121017069460020B8
:10DCA00070DF00BF002E01D03046E6E700BF08203D
:10DCB000218868542088401C20801B2021886854BB
:10DCC0002088401C208021884819062200A90131A3
:10DCD000FDF74AFA2088801D2080684600780028D9
:10DCE00002D12188685402E00120218868542088EC
:10DCF000401C20800020C0E77FB5044600BF012102
:10DD0000684681735D49818100BF5D4A03A9012096
:10DD1000A0DF0546002D02D0284604B070BD208843
:10DD200000280DDD57480090228823463C33564892
:10DD3000616801F08FFA0546002D01D02846ECE716
:10DD4000208900280EDD51480090228923463C336B
:10DD50004D48401FE16801F07DFA0546002D01D0D5
:10DD60002846DAE7208A00280EDD49480090228AFA
:10DD700023463C334448001F616901F06BFA0546B5
:10DD8000002D01D02846C8E7208B00280EDD414831
:10DD90000090228B23463C333B48801EE16901F012
:10DDA00059FA0546002D01D02846B6E7208C0028F8
:10DDB0000EDD39480090228C23463C333248C01E89
:10DDC000616A01F047FA0546002D01D02846A4E714
:10DDD000208D00280EDD31480090228D23463C33F3
:10DDE0002948401EE16A01F035FA0546002D01D0B0
:10DDF000284692E7206B002813D001A8216B0CF075
:10DE0000DFFF274823463C33082201A900901E4823
:10DE1000801F01F01FFA0546002D01D028467CE73F
:10DE200000BF606B00280FD01E480090606B027925
:10DE300023463C3301681448401C01F00BFA0546A8
:10DE4000002D01D0284668E7A06B002813D001A858
:10DE5000A16B0AF097FE144823463C33072201A920
:10DE600000900948273001F0F5F90546002D01D052
:10DE7000284652E700BF00204FE700000A180000C4
:10DE80000022002002220020292A00000A2200206D
:10DE9000122200201A220020222200202A22002002
:10DEA000322200203A2200204222002010B50446EF
:10DEB0002046FFF723FE20460AF0A0FB204600F094
:10DEC000C7FB204608F06EF92046FFF7E9FA204626
:10DED000FFF7B0FD2146044800F066F921460348EB
:10DEE000FFF79CFC10BD0000AC230020242500207F
:10DEF000FFB587B005460F46109EFF207730405B88
:10DF0000224988423DD0F01C81B206916846008BC0
:10DF1000082834DC00BF012000BF68460774099858
:10DF2000C1B2684641740A98C1B268468174002E35
:10DF300004DD324613301199FDF716F900200090E8
:10DF4000019002900390FF205F30415B68460180A2
:10DF5000012181700021818006A8029004A803900D
:10DF6000FF217731485B6946A6DF0446002C05D1C6
:10DF7000F01C6946098B884200D00C2400E00C2478
:10DF800000E0082420460BB0F0BD0000FFFF0000B9
:10DF90007CB506460C46A07A0A2805DC207C0A28B7
:10DFA00002DC207E0A2801DD07207CBD206830606D
:10DFB00060687060A07AB074217C78208155217EE1
:10DFC000DE2081550021C943FF207730815300BFF7
:10DFD0000121684681714C49818000BF3246083278
:10DFE00001A90120A0DF0546002D01D02846DCE76D
:10DFF0002146304603F020FF0546002D01D028467B
:10E00000D3E7207A002802D1607A002809D021467F
:10E010003C3130460AF00AFE0546002D01D0284664
:10E02000C3E72146304603F0CBFF0546002D01D063
:10E030002846BAE72146304608F086FD0546002D01
:10E0400001D02846B1E72146304602F0A1F9054645
:10E05000002D01D02846A8E7214630460BF03AFBB8
:10E0600005462A4629A1132007F0EAFB002D01D01E
:10E0700028469AE7207A002818D03046FF304F30E3
:10E0800023464333082225490090304600F03CF9EE
:10E090000546002D01D0284687E72146304600F08E
:10E0A000B7F90546002D01D028467EE7607A0028A2
:10E0B00015D03046FF305F302346403308221749E1
:10E0C00011310090304600F01FF905462A4614A190
:10E0D000132007F0B5FB002D01D0284665E7214647
:10E0E000304603F0D3F90546002D01D028465CE701
:10E0F00021463E31304603F071F90546002D01D02E
:10E10000284652E7002050E7121800006572725F3F
:10E11000636F6465373D25640D0A0000222A000004
:10E120006572725F636F6465383D25640D0A000097
:10E13000FFB587B004460E461746A07CB0422DDDE1
:10E140000A2070432146143140180690FF20773092
:10E15000005B144988421FD0019700200290039071
:10E16000049005900698018868460181012181721A
:10E170000021818101A804900A980590FF21773140
:10E18000085B02A9A6DF0546002D04D168468088F9
:10E19000B84200D00C2500E0082500E007252846FD
:10E1A0000BB0F0BDFFFF000070B505460C4620889F
:10E1B000102806D0112809D050280CD0512814D18D
:10E1C0000EE02146284608F086F90FE02146284651
:10E1D00008F0F8F90AE02146284608F0EBFB05E0D4
:10E1E0002146284608F03FFB00E000BF00BF70BD9D
:10E1F00070B504460D462846FCF7DAFF20806560BE
:10E2000070BD70B5044620460DF084FD0546E80754
:10E21000C00F70BDF8B505460E4600243278214681
:10E22000641C6A5472782146641C6A5400BF022C34
:10E2300001D1012000E000200746002F03D100BFDC
:10E24000FEF7B8FB00BF00BF2046F8BD70B586B032
:10E2500028480068059000BF274B4822274905A899
:10E260000CF0B0FC054600BF2E46002E04D000BFC7
:10E270003046FEF79FFB00BF00BF00BF6A4601218A
:10E2800000200CF05FFC044600BF2546002D04D0A2
:10E2900000BF2846FEF78EFB00BF00BF68460CF0AB
:10E2A000F9FB044600BF2546002D04D000BF2846D8
:10E2B000FEF780FB00BF00BF11480CF0DDFB0446F9
:10E2C00000BF2546002D04D000BF2846FEF772FB94
:10E2D00000BF00BF0B480CF0CFFC044600BF254632
:10E2E000002D04D000BF2846FEF764FB00BF00BF2E
:10E2F00006B070BD90C602009DAB0200042600204F
:10E30000ADDE0100AFAD0200F0B58FB005460E46A0
:10E3100017461C460020079000BF6846007F010991
:10E320000901491C68460177007FF02188431030BD
:10E330006946087700BF217868464177807F0621CB
:10E340008843811C684681771C2108A8FCF725FFBB
:10E3500008A8007802218843811C08A80170007871
:10E3600008218843A1780907090F002901D001215C
:10E3700000E00021C90008221140084308A90870E4
:10E3800008A8007810218843103008A908700020E0
:10E3900009900B900C9007A80D9000200E9000BFE4
:10E3A000012168468171868000BF0020009061785D
:10E3B00068460170A1784170807806218843811CED
:10E3C00068468170807808218843014668468170DC
:10E3D0008078102188430146684681708078410822
:10E3E000490068468170142102A8FCF7D6FE01A8F6
:10E3F00002906846039000210182418287820020BA
:10E400000690288902AA08A9149BA2DF0FB0F0BDCC
:10E4100030B58FB004460D461C2108A8FCF7BDFEA0
:10E4200008A8007802218843811C08A801700078A0
:10E4300008218843411808A8017000780421884306
:10E44000001D08A90870002009900B900C900D90F9
:10E450000E9000BF0121684681721E49018100BFF4
:10E46000002001904620415D684601714720415DD2
:10E4700068464171807906218843811C6846817114
:10E48000807908218843014668468171807910218E
:10E490008843014668468171807941084900684691
:10E4A0008171142103A8FCF778FE02A8039001A84B
:10E4B0000490002168468182C182012101830020ED
:10E4C000079020892346FF33573303AA08A9A2DF08
:10E4D0000FB030BD322A000010B501460A4B585C1F
:10E4E00000BF05242407234600BF24151C192469F6
:10E4F000C440E407E40F002C01D0012000E000201C
:10E5000002460120504010BDF2C6020030B502465E
:10E510000C49885C00BF05242407214624150C19EA
:10E520006368012484409C4305252D024D19AC608D
:10E53000012484401C4005252D024D19EC6000BFCC
:10E5400030BD0000F0C6020010B504460249085D67
:10E55000012106F071FD10BDF0C6020010B50446A1
:10E560000249085D002106F067FD10BDF0C60200FB
:10E5700010B501460A4B585C00BF0524240723460A
:10E5800000BF24151C196468C440E407E40F002C84
:10E5900001D0012000E0002002460120504010BDC3
:10E5A000F0C602007CB500240CE00948055D00209F
:10E5B00000900346012211460190284606F0B4FB64
:10E5C00000BF641C022CF0D300F004F87CBD0000F6
:10E5D000F0C6020010B5002403E02046FFF7B4FFA8
:10E5E000641C022CF9D310BD10B5002403E02046B2
:10E5F000FFF7B4FF641C022CF9D310BD02460020C3
:10E60000C043002106E0054B5B5C934201D1084604
:10E6100002E0491C0829F6D300BF7047F2C6020089
:10E6200070B505460C46002607480560002C02D050
:10E6300020460CF08EFB05480068002802D1FDF74B
:10E64000EDFF0646304670BD4C21002050210020D1
:10E6500070B505462888102802D0112832D118E05C
:10E660001A48006800280ED101F05CF8044600BF8B
:10E67000002C07D016480068002803D02046144913
:10E680000968884700BF11480068401C0F490860AE
:10E6900019E00E480068401E0C49086008460068F2
:10E6A00000280ED1FDF7BAFF044600BF002C07D0AA
:10E6B00007480068002803D02046054909688847B4
:10E6C00000BF00E000BF00BF70BD0000502100206F
:10E6D0004C210020F3B581B00746002500243846C0
:10E6E000FFF78CFF0446082C42D20298002825D060
:10E6F000012802D002283AD133E0600020182249D4
:10E700000D5C600020184018407800280ED01F488B
:10E7100000687D22504301461D4A1E480068FEF7EE
:10E72000ABFA0646002E01D1194807706000201888
:10E730001549401880781849085518E015480068B0
:10E74000FEF7C4FA1448005D610061180E4A89188A
:10E750008978884204D160002018114640188578D5
:10E7600005E06000201808494018457800BF00BF48
:10E77000002D07D009480068002803D02846074923
:10E7800009688847FEBD00003C2700203421002096
:10E790004021002004C70200412100203C2100202C
:10E7A00010B504462046FFF797FE10BDF8B50546A4
:10E7B0000026F1480088F149884273D0F04800787B
:10E7C000002803D1EF48007800286CD0EE4800887C
:10E7D000EE49884235DB01F0C5F9ED4800780028A4
:10E7E0000FD11B2001F052FA0CF034FDE9480078FB
:10E7F000002803D0E74800780DF076FB0120E449BB
:10E800000870E5480078002814D10022FF21073164
:10E81000E2480068FEF730FA044600BF2746002FA2
:10E8200004D000BF3846FEF7C5F800BF00BF012086
:10E83000D9490870DAA1032006F0C0FF0020D249B0
:10E840000880142D7CD008DC042D19D0072D21D090
:10E850000A2D0DD0132D71D14FE0152D06D01C2D92
:10E860005BD01D2D7CD01E2DF5D100E089E088E025
:10E87000022004F0B5F9CFA1032006F09FFF80E04D
:10E880000120D34908700020FFF768FE0120FFF740
:10E8900065FE76E0CE480078002805D0022004F01E
:10E8A0009FF929E06EE0F1E0CA480078022803D021
:10E8B000C848007857280AD1B6480078401CC0B232
:10E8C000B449087005280CDB0120087009E0B14844
:10E8D0000078401CC0B2AF490870042801DB012059
:10E8E0000870AC4800784000401EBB49087001F039
:10E8F00039F90120B949087043E09F4800889F49D1
:10E90000884209D0B648007808210843B449087005
:10E910000846007805F094F833E097480088974956
:10E92000884209D0AE48007808218843AC49087075
:10E930000846007805F084F823E001E020E00FE0CD
:10E940008D4800888D49884209D0A548007810215B
:10E950000843A34908700846007805F071F810E0F4
:10E96000854800888549884209D09D480078102153
:10E9700088439B4908700846007805F061F800E07C
:10E9800000BF83E0152D20D17F4800887F49884251
:10E9900038DB01F0E7F80022FF2107317F480068EB
:10E9A000FEF76AF9044600BF2746002F04D000BFD7
:10E9B0003846FDF7FFFF00BF00BF79A1032006F036
:10E9C000FDFE0020704908801CE0132D1AD00A2D8E
:10E9D00003D1022004F004F914E0042D09D1012030
:10E9E0007B4908700020FFF7B9FD0120FFF7B6FD55
:10E9F00008E0072D06D176480078002802D00220D2
:10EA000004F0EEF8284610380300FDF75DF90C0716
:10EA100015233131313131310E1C2A3170480078E3
:10EA2000012108436E49087023E06D4800784008D2
:10EA300040006B4908701CE06948007802210843D7
:10EA40006749087015E066480078022188436449E8
:10EA500008700EE06248007804210843604908709D
:10EA600007E05F480078042188435D49087000E0B2
:10EA700000BF00BF5B480078002807D10A2D05D0F1
:10EA800059480078002801D1FDF73CFE3C48007849
:10EA9000002870D052480078072803D050480078EA
:10EAA000002868D038480088384988422EDB01F0B9
:10EAB00059F83748007800280FD11B2001F0E6F8FC
:10EAC0000CF0C8FB33480078002803D031480078A8
:10EAD0000DF00AFA01202E4908700022FF210731AB
:10EAE0002E480068FEF7C8F8044600BF2746002FEE
:10EAF00004D000BF3846FDF75DFF00BF00BF28A16E
:10EB0000032006F05BFE00201F490880344800788F
:10EB1000072803D10120354908702CE00020334933
:10EB2000087033480078002825D02F480078002846
:10EB300021D074DF00202E4908702B49087000F0A6
:10EB400093F8044600BF2746002F04D000BF384684
:10EB5000FDF730FF00BF00BF0020FDF72BFC07468C
:10EB6000244904F015F8002803D02249491E00204A
:10EB700070DFFDF7C7FDF8BD98200020FFFF000003
:10EB80007C2000207E2000206A20002071020000EE
:10EB900085200020B72000207A20002084C60200B3
:10EBA0004150503A494E464F3A4D4F54494F4E0D01
:10EBB0000A0000004150503A494E464F3A6368619E
:10EBC0006E676520776F726B206D6F64650D0A004C
:10EBD0008920002025210020B82000208E20002040
:10EBE000A5200020562100207F200020802000202A
:10EBF0008F200020AA20002070B503460020082B9B
:10EC00002DD2012A07D1012903D11C460E34E4B2CA
:10EC100000E000242246002918D0012902D0022950
:10EC20001AD10DE05C001C190E4D2A55012B06D996
:10EC3000144609345D005D190A4EAD19AC700DE043
:10EC40005C001C19074D6419627007E05C001C1918
:10EC5000044D6419A27001E0072000BF00E0072006
:10EC600070BD00003C27002070B504460025064812
:10EC70000078C007C00F002803D0204600F064F8D9
:10EC80000546284670BD000038210020F7B505462E
:10EC90000E46002422480660224805602249029858
:10ECA000086002202840002822D0022706E0012226
:10ECB00011463846FFF7A0FF04467F1C082F01D2FB
:10ECC000002CF4D0002C05D1720808211748FDF75C
:10ECD000E3FD0446002C02D1FDF7C8FD0446002CDC
:10ECE00005D1134A00211348FDF73AFF044600BF3F
:10ECF000E807C00F002801D0FFF754FC002C05D115
:10ED00000D4A00210D48FDF72BFF0446002C05D1CC
:10ED10000B4A01210B48FDF723FF04462046FEBDA8
:10ED200034210020382100203C21002008C70200A7
:10ED3000DDF0010004C7020099240200FCC60200B5
:10ED400039C8010000C70200F8B5044600250026B6
:10ED5000A8480078002804D00020A6490870FFF7D2
:10ED600039FC2300FCF7B0FF190EF0134748767703
:10ED7000858B99A9B7C7F1F2F3F4F5EAE9E8E7E67C
:10ED8000CCE5F000FFF726FC9B4804702EE1002044
:10ED9000FFF7EEFB00280ED098480078002801D13C
:10EDA000FFF7D2FB022C02D1FF20F53001E07D20DD
:10EDB000400106460DE091480078002801D1FFF798
:10EDC000CDFB022C02D1FF20F53001E0FF20913075
:10EDD00006468948047064213046FCF797F9884953
:10EDE0000968484307460022394686480068FDF70F
:10EDF00043FF0546FAE0F9E00020FFF7B9FB0028E1
:10EE00000BD00020FFF7A0FB042C02D17D20400195
:10EE100001E07D20400106460AE00020FFF79EFB4E
:10EE2000042C02D1FF20913001E0FF2091300646F2
:10EE30007148047064213046FCF768F9704909682C
:10EE400048430746002239466E480068FDF714FF24
:10EE50000546CBE0CAE00020FFF758FB6648047087
:10EE600067480022016867480068FDF705FF05460E
:10EE7000BCE00020FFF768FB5F480470B6E00120AB
:10EE80005C490870FFF742FB5D48002201685D485D
:10EE90000068FDF7F1FE0546A8E00120554908701D
:10EEA000FFF734FB5648006882008118002255485D
:10EEB0000068FDF7E1FE054698E001204D49087025
:10EEC000FFF724FB4E48002201684E480068FDF71A
:10EED000D3FE05468AE0012046490870FFF716FB7D
:10EEE0004748006882008118002246480068FDF704
:10EEF000C3FE05467AE0FFF777FB3F48047075E0F4
:10EF000041480068FDF7E2FE0546002D0DD13C4862
:10EF100000688200811800223B480068FDF7ACFEC3
:10EF200005460020FFF71AFB02E00020FFF70CFB6C
:10EF30005CE055E053E047E03EE035E02FE008E0DC
:10EF400006E004E002E000E04FE000BF00BF00BFC9
:10EF500000BF2D480068FDF7B9FE05461120061BCD
:10EF6000002E18D0002D16D1012E10D9C8217143C2
:10EF700008466421FCF7CAF8214909684843074656
:10EF80000022394620480068FDF776FE054602203B
:10EF9000FFF7E4FA02E00220FFF7D6FA26E0FFF7D7
:10EFA00019FB1548047021E0FFF714FB0020FFF760
:10EFB000D5FA1148047019E0FFF70CFB0120FFF7A8
:10EFC000CDFA0D48047011E0FFF704FB0020FFF7B5
:10EFD000C5FA0120FFF7C2FA0748047006E000BF37
:10EFE000FFF702FB0448047000E000BF00BF2846A2
:10EFF000F8BD0000312100203021002083200020B6
:10F0000034210020FCC6020000C70200024600298D
:10F0100001DA002003E013685B18136001207047D9
:10F02000F0B585B004460D46641C0127012003900D
:10F030000020029002A8FDF765FE1F4800682860C6
:10F040001D4800681C494968411A1B488068401CDB
:10F05000461AE01901900198B04221D9002E1CD027
:10F0600016480068009000988005800D14490968D2
:10F070008902890A8902084300900F48009A0068B3
:10F080000D490968491C0C4B1960194689680840EC
:10F09000810018460C30425000BF0020039004E06D
:10F0A000054800680019044908606846007AFDF7C1
:10F0B00053FE039805B0F0BD9031002010C9020046
:10F0C000D82200200448406803490968884201D1D9
:10F0D000012070470020FCE79031002010B5044665
:10F0E00020780221FFF7F6FA10BD0000F8B50546BA
:10F0F000134A14490320FFF7C9FD044600BF264602
:10F10000002E04D000BF3046FDF754FC00BF00BF06
:10F1100069460020FFF784FA044600BF2646002E09
:10F1200004D000BF3046FDF745FC00BF00BF684675
:10F130000078022801D1012000E000202870F8BDED
:10F14000ADE701008F02000030B502460B460221F8
:10F150000EE08D0014462C412007000F092802DD27
:10F160000446373401E00446303401256D1A5C55FD
:10F170000C46491E002CECD130BD000001468879B8
:10F18000012808D10879012805D14888034A90420E
:10F1900001D1012070470020FCE700000229000097
:10F1A0000021C9438200054B9950042804DB0B461B
:10F1B000011F024A5032535470470000D02D0020E6
:10F1C00001468800014A105870470000D02D0020E9
:10F1D000F7B585B00B460020C0430490002A01D04B
:10F1E000002000E004200390002A01D0042000E069
:10F1F0000C20029003991EE08800124C2058401CFD
:10F20000002817D10846059C0093019246B20D4D87
:10F2100030352E5585000B4E009B7351019A002A04
:10F2200004D166B2051F074F50377E5500BF48B264
:10F23000049003E0491C02988142DDD300BF04988A
:10F2400008B0F0BDD02D002001460148405670475F
:10F25000002E0020F0B58FB007460D4614461E461E
:10F2600000BF002D01D0012000E000200090009898
:10F27000002803D100BFFDF79DFB00BF00BF00BF0A
:10F28000002C01DD012000E0002000900098002803
:10F2900003D100BFFDF78EFB00BF00BF1C2107A8F4
:10F2A000FBF77BFF6946087F02218843801C694683
:10F2B0000877002008900A900B900C900D9000BFEA
:10F2C000012108A881766846078700BF00200190C9
:10F2D00031786846017171784171807906218843DF
:10F2E000811C6846817180790821884301466846FF
:10F2F0008171807910218843014668468171807947
:10F300004108490068468171142102A8FBF745FFB6
:10F310000EA8029001A80390684604820021418251
:10F320008482069502AA07A902480088149BA2DFDE
:10F330000FB0F0BD002200200146002907D005488B
:10F34000884204D80448884201D90120704700202F
:10F35000FCE70000342300208423002070B505461C
:10F360000E46002407E0E100685803F084F8002806
:10F3700000D170BD641CB442F5D30120F9E7000050
:10F380000A49496C00290FD00849096CC900074A8D
:10F39000891801601146096C491C4907490F11641D
:10F3A0001146496C491E516470470000A42F00208B
:10F3B000064902688A4203D001680831016070473B
:10F3C00002493839016000BFF9E70000DC2F002056
:10F3D0000178022902D0017803290BD106490A6C71
:10F3E000817D5118044A116411464A6C817D511A7D
:10F3F000014A516470470000A42F0020F8B504466C
:10F400000D46104E304684420BD1FF210131284673
:10F4100009F098F80646FF20013086420FD12646B3
:10F420000DE0FF2C0BDC2146284609F07AF8074650
:10F43000002F01D0204600E00248064600BF3046BB
:10F44000F8BD0000FFFF000070B50546002D01D19A
:10F45000094C01E0084C08340AE0204603F014F897
:10F460000646002E00D104E028467168884700BF98
:10F47000F3E700BF70BD0000C42D0020FEB51F489B
:10F480000068002836D01D48006805680AF06CFA4C
:10F4900001901B480468214601980BF0DDFCC61C56
:10F4A00018480078002801D10AF070FAAE4201D263
:10F4B000284600E0304604192402240A20460AF0B7
:10F4C0004DFA0AF051FA0090019900980BF0C4FC33
:10F4D000C71C204601990BF0BFFC874209D90AF0EE
:10F4E00043FA07460AF03AFA2F2004F0D7FC0BF053
:10F4F00011FE01E00AF068FAFEBD0000882200203B
:10F500008C220020A022002001460888062808DB63
:10F5100008881922D201904205DD0888104A9042DD
:10F5200001D0072070474888062808DB4888192240
:10F53000D201904205DD4888094A904201D0072057
:10F54000F0E70888064A904208D04888904205D0E3
:10F5500008884A88904201DD0720E3E70020E1E7C0
:10F56000FFFF0000FFB581B006460D461446208817
:10F57000801D0499884202D90C2005B0F0BD3046A8
:10F58000FFF7C2FF074600BF002F01D03846F4E75F
:10F5900000BF0520218868542088401C208012204C
:10F5A000218868542088401C208022885119308886
:10F5B0000CF0B6FB218840182080228851197088F1
:10F5C0000CF0AEFB2188401820800020D5E710B554
:10F5D000044600BF2046FDF7EDF900BF10BD000056
:10F5E00030B587B01C216846FBF7D7FD002000909E
:10F5F0000520C00301900F200004029003216846FB
:10F6000001730021C1810174002005900848069013
:10F610006846FEF7D3F9044600BF2546002D04D006
:10F6200000BF2846FDF7C6F900BF00BF07B030BDD8
:10F63000CFF5010038B51F4802F082FE002829D11D
:10F640001D48007800280AD01C484069002820D0B6
:10F6500000200090194841696846884719E0184819
:10F660000078002802D11548456801E013488568F4
:10F670000022294613480068FDF7FEFA0446002CD4
:10F6800007D00E488069002803D00C4881692046C5
:10F6900088470AE009484069002806D00120009008
:10F6A000064841696846884700BF00200249087043
:10F6B00038BD000090210020982100202029002042
:10F6C0008C21002048C702003EB504462088FEF782
:10F6D000FDF900281AD020880F490978FEF79CFA16
:10F6E000002805D1208800220C490978FEF7A8FAE5
:10F6F000218868464180052101702088FEF7F2F9D3
:10F7000069460871684600F09FFB04E020880122EA
:10F71000034900F0A1FA3EBDE7210020E6210020C8
:10F720000610000010B50A2200210846FFF764FA0F
:10F73000044600BF002C03D0072C01D0204610BD8A
:10F7400000BF072200210120FFF756FA044600BF40
:10F75000002C03D0072C01D02046F0E700BF042284
:10F7600002210120FFF748FA044600BF002C03D015
:10F77000072C01D02046E2E700BF0020DFE70000B1
:10F7800070B506460D46002E01D0012070BD2879C7
:10F79000002804D0012809D0022811D10EE0284603
:10F7A00009F046FD0446022028710BE0284600F0CF
:10F7B0002DFE04460A2C00D1044C03E0034C01E06A
:10F7C0000F2400BF00BF2046E0E700001D1D000021
:10F7D00010B503211C2005F007FB03211D2005F0B7
:10F7E00003FB284A0121002005F046FC1C2005F0FF
:10F7F0003DFB00211C2005F0DFFB1D2005F036FB42
:10F8000000211D2005F0D8FB1E480068010F0320D1
:10F8100088430446002C06D0012C0DD0022C15D0B4
:10F82000032C24D11AE00120174908700020174941
:10F830000870174908701BE0002013490870012068
:10F840001249087000201249087011E001200E4989
:10F8500008700E4908700E49087009E000200A4936
:10F8600008700A49087001200949087000E000BFCB
:10F8700000BF0120044908700020044908700449B1
:10F88000087010BD1C200020E91F0020EA1F002086
:10F89000EB1F0020F8B5002535E0E8001C49096899
:10F8A000441821780120884006461A4800683040F4
:10F8B000002826D017480068B04316490860207811
:10F8C00004F01EFD0746217801208840124909688E
:10F8D0000840227839469140884211D16078012849
:10F8E00000D100E00020784001214840009060688D
:10F8F000002804D0009BD9B220786268904700BFEE
:10F9000000BF681CC5B2054800788542C5DBF8BD5C
:10F910005C2200206C22002068220020602200204F
:10F9200030B593B00221684601711E49C1801E495D
:10F93000018101214181402103A8FBF72EFC1BA17D
:10F9400003A8FEF755FC01A8119000BF10A8007A8B
:10F9500001090901491C10A80172007AF0218843AD
:10F96000203010A9087200BF00BF12A8407800091B
:10F97000000112A9487012A84078F021884312A90A
:10F98000487000BF03A8FEF7B7F9044600BF25463C
:10F99000002D04D000BF2846FDF70CF800BF00BFC3
:10F9A00013B030BDAC0500004F0200004E6F726412
:10F9B000696353656D69636F6E647563746F72001C
:10F9C00010B50948007800280CD004F079FD00201B
:10F9D000054908700321012005F006FA03210220E1
:10F9E00005F002FA10BD00008420002010B5074881
:10F9F0000078002808D004F063FD00200349087057
:10FA000001F022FB0249086010BD000084200020A4
:10FA10001820002010B505480078002805D00448BB
:10FA200004F060FF00200149087010BD8120002013
:10FA30007CC6020070B5044620793D2801D10548F6
:10FA400001E011200002054620880022294602F02C
:10FA5000A7FE70BD3D10000070B50024182005F011
:10FA600011FA0021192005F0CCF900211E2005F023
:10FA7000C8F9002512E00021182005F0BDFA012187
:10FA8000182005F0B9FA600044B21E2005F056FABD
:10FA9000002801D001200443681C45B2082DEADB90
:10FAA000204670BD70B50446182005F0EBF91E2005
:10FAB00005F0E8F90021192005F0A3F9002518E068
:10FAC0000021182005F098FA80202040002804D05A
:10FAD00001211E2005F090FA03E000211E2005F010
:10FAE0008BFA6006040E0121182005F085FA681CC7
:10FAF000C5B2082DE4DB00211E2005F07DFA70BDA3
:10FB0000014614480078144A127890421DD01148DA
:10FB10000078401C0F4A107010460078022801D16E
:10FB2000002010700B48007880000C4A10580860C4
:10FB30000B4A086812688018094A1060104600686D
:10FB40000002000A1060012070470020086000BF1A
:10FB5000FAE700009822002099220020902200203D
:10FB60008C2200201FB516480078002826D1154B9E
:10FB70000FCB6C460FC41A216846C1701E218170DC
:10FB800019214170182101700F480078062802D110
:10FB900001208007029000BF0C4A69460C4804F01F
:10FBA000D5FD0446002C04D000BF2046FCF702FF20
:10FBB00000BF00BF01200249087000BF1FBD000048
:10FBC00081200020B8C602002621002095AC02004A
:10FBD0007CC60200F8B504460D4628882070FF2137
:10FBE000090201400912617002210E46AA783146CD
:10FBF000761C6254EA783146761C625400BF042EAB
:10FC000001D1012000E000200746002F03D100BFF2
:10FC1000FCF7D0FE00BF00BF3046F8BDF8B5054682
:10FC20000E46002406270620009039460948FBF7B7
:10FC3000B4FA00BF0AE020460099FBF77DFA705C39
:10FC4000295D484003490855601CC4B2BC42F2DB40
:10FC50000048F8BD28210020FEB504460D46164692
:10FC6000084A07CA6B4607C3684644808580867188
:10FC70000022054801782046FDF7E2FF684600F0C3
:10FC8000E3F8FEBDBCC70200E621002070B50446C3
:10FC90005A2109200CF0DCFA062009F01DFAC5B241
:10FCA0006D076D0F132C06D108202843014606204E
:10FCB0000CF0CEFA03E0294606200CF0C9FA2146E2
:10FCC0004B200CF0C5FA002109200CF0C1FA70BDE0
:10FCD00010B50446A08928DF10BD00B502781300D6
:10FCE000FBF7F2FF0734050811212A313400002206
:10FCF0000A702CE001220A7003898B818388CB81F2
:10FD0000C2688A6023E002220A7003898B8183889B
:10FD1000CB81C2688A60027C062A01D1012300E0FF
:10FD200000230B7413E003220A70C3888B810389BC
:10FD3000CB81C2688A600AE004220A70C3888B8182
:10FD40000023CB8103E005220A7000E000BF00BF62
:10FD500000BD000070B5054600240AE0A000064979
:10FD60000858002804D0A0000A46115828468847A1
:10FD7000641C082CF2D370BD0C2F00203EB5054644
:10FD80000C46002C1BD0112C19D0002000900190A3
:10FD900002906846458001940D2C03D10B206946E2
:10FDA000087008E0862C03D10A206946087002E03A
:10FDB000092069460870684600F056F800BF3EBD4D
:10FDC00070B50546002405E0A000044A11582846F5
:10FDD0008847641C002CF7D070BD00009C210020D7
:10FDE00070B50546002405E0A000044A11582846D5
:10FDF0008847641C002CF7D070BD0000A8210020AB
:10FE000070B50546002405E0A000044A11582846B4
:10FE10008847641C022CF7D370BD000064C7020041
:10FE200070B50546002405E0A000054A1158284693
:10FE30008847641C034800788442F5DB70BD0000ED
:10FE4000702D0020E221002070B50546002405E059
:10FE5000A000044A115828468847641C022CF7D396
:10FE600070BD000084C7020070B50546002405E09F
:10FE7000A000044A115828468847641C002CF7D07B
:10FE800070BD0000C8C70200F0B50346002420E0A2
:10FE9000134E306806689E4203D90668F61A06605B
:10FEA0001BE006689B1B06683419002606600C4E92
:10FEB00035680B4FC6693E60C668002E08D00E1923
:10FEC0003602360A4660C66886601668C6611560E6
:10FED00000BF034800680028DAD100BFF0BD000071
:10FEE000882200201FB504466068002801D1012047
:10FEF00000E00020039020780300FBF7E5FE068A6F
:10FF000004053456838A00BFA08900F09FFA0028B8
:10FF100004D1E08909F0A8FA002823D0A08900F0D4
:10FF20008FFA69464880E08909F098FA69460871B5
:10FF30002078012807D16068002800D100E0032064
:10FF40006946087007E06068002801D1012000E0E0
:10FF500004206946087060680390A06802906846B3
:10FF600007F0E6FA56E0A08900F070FA002804D104
:10FF7000E08909F079FA002816D0A08900F060FA2B
:10FF800069464880E08909F069FA69460871606845
:10FF9000002801D1022000E0052069460870A06811
:10FFA0000290684607F0C4FA34E0A08900F04EFAE7
:10FFB000002826D0E089002823D1A08900F040FA4B
:10FFC00069464880E08909F049FA014668460171AE
:10FFD000FF2101716068002806D10620694608707B
:10FFE000488807F0C9FC02E0072069460870002035
:10FFF0000E4908700E49087007F00CFC684607F0BF
:020000040002F8
:1000000097FA07E0082069460870684607F090FAFA
:1000100000E000BF00BF05480078002804D00020A1
:100020000249087007F0F6FB1FBD0000BD2100204B
:10003000BE21002010B588B00446022000F03EFA30
:10004000002802D1022008B010BD0C48844201D122
:100050000420F8E70521684601710121017201A819
:10006000C4800022114606F023FD002803D008F0CA
:10007000C8FF0020E7E70820E5E70000FFFF0000D9
:1000800000B587B0022000F019FA002802D1022042
:1000900007B000BD06206946087000221146684678
:1000A00006F006FD00280AD006480078002802D095
:1000B00001200449087308F0A4FF0020E8E70820A5
:1000C000E6E700000C30002010B58CB0142107A822
:1000D000FBF763F8022000F0F1F9002805D007A82B
:1000E000FFF738FE00200CB010BD012000F0E6F94B
:1000F000002801D00020F6E7012000F0EBF900F025
:10010000B1FB01206946087006F020FE044623007A
:10011000FBF7DAFD0C0715081628230A24281A1FF6
:100120001B2800BF0B20DEE7022000F0D3F90120DE
:1001300000F0AAF907A8FFF70DFE0020D3E700BFE3
:100140000020694608710EE000BF0320694608716F
:1001500009E002206946087105E000BF01206946F8
:10016000087100E000BF00BF00221146684606F09B
:100170009FFC08F046FF0020B5E7000038B50446B4
:10018000002C01D1052038BD6946204609F06EF8E3
:1001900000281DD06846008800010F49401880895A
:1001A000002813DDA07A002810D0684600880001DE
:1001B00040188089401E81B2684600880001064AC6
:1001C000801881810020A072002502E0062500E051
:1001D0000A252846D7E70000EC2F00207FB51446FB
:1001E0001D462B46224601A9684608F0D9FF04B0F7
:1001F00070BD37B50C4615462B4622466946002091
:1002000008F0CEFF3EBD37B50C4615462B462246BC
:100210000021684608F0C4FF3EBD0246002A01D016
:10022000002901D105207047106808600020FAE716
:1002300038B504460D46002C01D0002D01D1052013
:1002400038BD6946204609F011F8002816D06168CB
:100250006846008800010A4A80188089401C82B2E2
:10026000684600880001064BC018828129606068DA
:100270000C3068600120A0720020E1E70A20DFE76F
:10028000EC2F002070B504460D46002C01D105204E
:1002900070BD03230022294620460CF0A1F8F7E7A1
:1002A00070B504460D4602230022294620460CF074
:1002B00097F870BD70B505460E461446002C01D166
:1002C000052070BD02232246314628460CF088F8EE
:1002D000F7E700000146094A1278082A01D10C20EC
:1002E0000AE0064A12789200054B9950034A1278A8
:1002F000521C024B1A70002070470000B1220020EF
:100300000C2F0020F8B504460D46022000F0D6F868
:10031000002801D10220F8BD002C01D10520FAE708
:10032000694628460CF054F90646002E03D168466B
:100330000088208065803046EDE7000070B50446F7
:10034000022000F0BBF8002801D1022070BD002C73
:1003500001D10520FAE72088022801DD0420F5E715
:10036000208800010949461871896088C01C081A54
:1003700008D4218860880CF01DF90020208060805E
:10038000002500E004252846E0E70000EC2F0020CF
:10039000F0B585B007460C46207E002834D0E069D1
:1003A000002831D000252BE0E900E0694618002044
:1003B00003906846007B02218843811C03916846B4
:1003C000007B08218843083003900A20684339469F
:1003D000E0314018F179C907C90F321D009201912F
:1003E00002903288B31C03A9384609F0ADF8049096
:1003F0000498002802D0049805B0F0BD681CC5B26E
:10040000207EA842D0DC00BF0020F5E73EB50446C0
:100410000A4B6A460021A01D08F0C2FE0546002DC9
:1004200006D1064A9188019808F092FF054603E03C
:10043000024800210160416028463EBDC0220020E4
:10044000014603208003081A80B27047014603204A
:100450008003814204DB0348814201DC01207047B4
:100460000020FCE7FEFF000010B50446A07EFF2838
:1004700002D0A07E04F088FD002060762071201D4F
:100480002168884710BD0000024909788143014A6C
:1004900011707047B022002010B50446207818284B
:1004A00002D1FDF797FB207010BD10B504462078EF
:1004B000182802D1FDF78EFB207010BD01460448BC
:1004C00000780840002801D0012070470020FCE798
:1004D000B0220020024909780143014A1170704797
:1004E000B022002030B504461088C01C984201D9C3
:1004F0000C2030BD0220158848551088401C108003
:100500000120158848551088401C108015884C55CE
:100510001088401C10800020EBE70000F8B506466C
:100520000C461546002700200090862C03D0112C85
:1005300001D0002C37D1862C03D100200090012758
:100540000AE0112C03D101200090002704E0002CC8
:1005500002D1002000900027002D18D03A46124802
:1005600001783046FDF76CFB104801783046009A60
:10057000FDF766FB00220E4801783046FDF760FB70
:1005800000220C4801783046FDF75AFB0BE03A4652
:10059000074801783046FDF753FB0648017830469E
:1005A000009AFDF74DFBF8BDFD210020FC21002045
:1005B000F9210020F821002008B5684600F0B4F9C0
:1005C0000098002801D0012008BD0020FCE70000B1
:1005D000F8B505460C4616461F461F480078C0076A
:1005E000C00F002801D10120F8BD2846FEF7A4FE67
:1005F000002801D10220F7E7002C01D10320F3E706
:10060000A005800D002801D00620EDE72868A04253
:1006100004D8B00200196968884201D90520E3E7CF
:10062000002E01D10420DFE7684608F0DDFB00283A
:1006300001D10720D8E700984760009805600220A4
:1006400000990872A001000C009988810098068228
:1006500008F0E4FC0020C7E7CA22002070B5054678
:100660000C46204608F0F2FB70BD0000F8B50646C7
:100670000D460024307800283AD1002D38D1544856
:100680000078022804D0032806D0042827D11EE0D1
:10069000032002F0A5FA23E0FFF764FA4D48007842
:1006A00000280FD11B20FFF7F1FA0AF0D3FD4A48CA
:1006B0000078002803D0484800780BF015FC012092
:1006C00044490870052003F077FBFBF7C5F80220CA
:1006D00002F086FA41A1132005F070F800E000BF97
:1006E00000BF3B48027846A1132005F0A9F86EE050
:1006F0003078012864D1002D62D135480078002877
:1007000006D0012824D0022836D0042856D13EE055
:100710004248007800281AD041480078002816D1B5
:1007200040480078002812D1002406E03E48005DD1
:10073000A1003E4A5050601CC4B2062CF6DB0020DB
:1007400000903B480623394A016800F0F9F836E08A
:10075000002406E03748005DA100344A5050601C78
:10076000C4B2062CF6DB00200090334806232F4A43
:10077000016800F0E5F822E000202C4908600090B4
:100780002E480123294A016800F0DAF817E000201A
:1007900006E02B4A411C515C8200244B9950401CBE
:1007A0000628F6DB00200090234800680146183137
:1007B00006231E4A204800F0C3F800E000BF06E010
:1007C000002D04D02A461FA1132005F039F8F8BDEA
:1007D0005820002085200020B7200020676F696E18
:1007E0006720746F20777269746520666C61736826
:1007F00020706167653A203220200D0A0000000059
:10080000777269746520666C6173682070616765D2
:100810003A20256420200D0A000000007C200020E2
:100820003F2000203E200020AA2000204020002061
:1008300034230020322000204423002054230020B1
:100840002B2000206673746F726167652065727279
:100850006F7220616E6420636F64653A20256420A6
:10086000200D0A00FEB52D482D49401A04092B48D9
:10087000401A05090120800402902A480078C00728
:10088000C00F002801D00020FEBD00200AE00201B8
:10089000234BD1180A68002A03D04A68002A00D0E6
:1008A0006D1E401CA042F2D300202CE002011C4B24
:1008B000D11800220192C2B20092002213E0160168
:1008C000174FF3191E68002E03D05E68002E00D06B
:1008D00008E05F7B019EB74203DD5E7B0196D6B2E6
:1008E000009600BF521CA242E9D3009A12010C4BA1
:1008F000D118029A4A600A7B9302029AD21A0A60BD
:100900000A680292401CA842D0D306480078012110
:100910000843044908700020B6E700008423002043
:1009200034230020CA2200200146002901D10320DF
:1009300070470248406E08600020F9E72830002028
:10094000F8B505460C4616461F4623480078C007F2
:10095000C00F002801D10120F8BD2846FEF7ECFCAD
:10096000002801D10220F7E7002E01D0002C01D190
:100970000320F1E7B007800F002803D1A007800F04
:10098000002801D00620E7E72868A04204D8B90073
:1009900009196868884201D20520DDE7002F01D1DE
:1009A0000420D9E7684608F01FFA002801D1072083
:1009B000D2E70099069848600098056001200099E8
:1009C00008720098C660009804610098878208F059
:1009D00025FB0020C0E70000CA22002070B50446B5
:1009E0001848006E182148431649451816480078E3
:1009F0000221084000280DD0022C02D0032C08D17F
:100A000003E0284605F078FE03E0284605F05EFE88
:100A100000BF14E00C4800780421084000280ED0E4
:100A2000094800788843084908700648406E002845
:100A300005D008460078022108430349087008F0F1
:100A400059FA70BD28300020CA2200203EB500BFF0
:100A50006846007801090901491C00916846007840
:100A6000F02188431030009000BF0D221AA1684683
:100A70007CDF044600BF2546002D04D000BF284679
:100A8000FBF798FF00BF00BF174878DF044600BFA0
:100A90002546002D04D000BF2846FBF78BFF00BF82
:100AA00000BF002001900290062168468180C1802D
:100AB00082210181FF212D31418101A87ADF044685
:100AC00000BF2546002D04D000BF2846FBF772FF6B
