:020000040001F9
:10B00000583A0020D5B00100EFB00100F1B00100C6
:10B010000000000000000000000000000000000030
:10B02000000000000000000000000000F3B001007C
:10B030000000000000000000F5B00100F7B00100C2
:10B0400055B8010091B9010049BC0100DDBA010009
:10B05000F5BA01000000000025B40100B5B20100FE
:10B0600019BC010031BC0100F9B00100A1BA010016
:10B07000F9B0010011BA0100F9B00100F9B0010006
:10B08000F9B00100B5BA0100A9B80100F9B001009A
:10B0900009BB0100F9B0010011BB010045BB010073
:10B0A000F9B00100F9B0010000000000000000004C
:10B0B0000000000000000000000000000000000090
:10B0C0000348854600F098F800480047B1EC0100BD
:10B0D000583A00200321094802680A4302600848E0
:10B0E00002680A4302600748804707480047FEE7B6
:10B0F000FEE7FEE7FEE7FEE7FEE70000240500406E
:10B1000054050040B5BB0100C1B0010030B50B468D
:10B11000014600202022012409E00D46D5409D4231
:10B1200005D31D469540491B2546954040191546B7
:10B13000521E002DF1DC30BD00487047E03F020098
:10B1400003460B439B0703D009E008C9121F08C040
:10B15000042AFAD203E00B780370401C491C521EEB
:10B16000F9D27047D2B201E00270401C491EFBD2F6
:10B1700070470022F6E710B513460A460446194602
:10B18000FFF7F0FF204610BD421C0178401C00294B
:10B19000FBD1801A7047F0B51FB40646002082B07C
:10B1A00005464024019100901BE0019922460F467C
:10B1B000304600F043F8049A059B801A994110D359
:10B1C00010461946224600F029F8361A8F41019799
:10B1D000224601200021009F00F020F838184D4140
:10B1E00000902046641E0028DFDC019B0098294661
:10B1F000324607B0F0BD0000064C0125064E05E0C2
:10B20000E36807CC2B430C3C98471034B442F7D387
:10B21000FFF75AFFF03F02001040020010B5202A4D
:10B2200004DB0146203A9140002010BD91402023CC
:10B230009C1A0346E3401943904010BD10B5202AE4
:10B2400004DB0846203AD040002110BD0B46D34015
:10B25000D0402024A21A91400843194610BD70B571
:10B260008C180578401C6B075B0F01D10378401CDC
:10B270002A1106D10278401C03E006780E70401CAB
:10B28000491C5B1EF9D12B0705D40023521E0DD497
:10B290000B70491CFAE70378401CCB1A921C03E0A0
:10B2A0001D780D70491C5B1C521EF9D5A142D8D3E4
:10B2B000002070BD0EB51D48C06800281CD1FF20BD
:10B2C000013003F083FF012003F088FF00BF00205E
:10B2D0001749086000BF01216846017000BF14488B
:10B2E000806801B268468180012010498874084650
:10B2F00001686846884718E000F0A4FF002814D0D1
:10B30000012003F06BFF0020694608700748C06801
:10B3100001900648017C6846018101200349887438
:10B32000084601686846884700BF0EBD4C280020CB
:10B330000075004010B5002400F046F81A49087066
:10B3400028E0224619A1032005F0C6FF1B4800781B
:10B35000002802D01A4804F029FD1A48007803009A
:10B3600000F096FC07050B06070C080D100000BF47
:10B3700000BF00BF08F024FB05E000BF00BF00F0E5
:10B3800032F800E000BF00BF01F014FD00F01CF82F
:10B390000549087004480078002804D12046611C43
:10B3A0004CB20328CDDB10BDB52200203A494E46F1
:10B3B0004F3A693D25640D0A00000000A1200020DD
:10B3C000883D0200B722002010B5002006F0AEFD37
:10B3D0000446302C03D0312C01D0582C01D101204F
:10B3E00010BD0020FCE710B5182005F0AFFA0121D0
:10B3F000182005F04DFB642003F05CFF00211820AD
:10B4000005F046FB642003F055FF0121182005F0EC
:10B410003FFB012003F024FFFF202D3003F04AFF03
:10B4200010BD0000F0B58FB000200E900D90FF20F1
:10B4300001300C900126002416E00C9805F0A6FBC4
:10B4400000280BD000BF924840683040002805D04B
:10B450000C9805F093FB0E9830430E9076000C98F4
:10B46000001D80B20C90641C042CE6D3FF207D30BC
:10B4700005F08CFB00280DD0FF207D3005F07EFB11
:10B480000121C9070E9808430E900DAA0121002042
:10B4900005F056FB0E980007000F00282CD001265F
:10B4A000002427E00E983040002821D000BF7948C2
:10B4B000512109014018A10040581F2109020840EC
:10B4C000000A074600BF7348512109014018A10036
:10B4D0004058032109040840000C0B90204601F05D
:10B4E000E9F90546002D02D038460B99A84700BF60
:10B4F0007600641C042CD5D30E98C00FC00700281A
:10B5000076D000200B900A90002505E00020C04373
:10B51000A90009AA50506D1C002DF7D000BF0020D3
:10B520000B9000247AE05C48005D0890C0210898E8
:10B530008843074658480057401C00286DD009A989
:10B54000384603F057FE002867D0C021089808400D
:10B5500080110790384601F0F1F9059001F0AAF941
:10B5600006900698002802D10798032854D107981E
:10B57000032815D10AA803970290039FF9080191A7
:10B58000039F7907490F039101990298415C0123B8
:10B59000039A93401943CAB20199425400BF00BFB5
:10B5A00000BF00BF052109070846B90007221202A3
:10B5B00082185158032212041140090C05910DA95B
:10B5C000384603F017FE04900498002802D005982E
:10B5D000022805D0049800281DD1059803281AD107
:10B5E0000798032810D10598022802D1032001E012
:10B5F0004BE0022003903846039905F0CBF90B98F5
:10B60000401CC0B20B9000BF0698002803D03846FB
:10B61000069A0799904700BF00BF641C082C82D38C
:10B620000B9800282CD0012708AA0121002005F042
:10B6300087FA00250AE0A80008A90858A9000DAA61
:10B640005158884201D0002702E06D1C002DF2D035
:10B6500000BF002F02D000200B9010E000250CE06E
:10B66000A80008A90858A9000DAA5050A8000AA9C6
:10B670000858A90009AA50506D1C002DF0D000BF39
:10B680000B98002800D04AE700BF0FB0F0BD0000C3
:10B690000063004000600040BC27002020BF40BF86
:10B6A00020BF7047C206D20E01219140014A1160AD
:10B6B0007047000080E200E0C206D20E01219140F6
:10B6C000014A11607047000080E200E0C206D20E1D
:10B6D00001219140014A11607047000080E100E0C3
:10B6E000C206D20E01219140014A1160704700004C
:10B6F00000E100E0C206D20E01219140014A116032
:10B700007047000000E100E0C206D20E0121914026
:10B71000014A11607047000000E200E0C206D20E4C
:10B7200001219140014A11607047000000E200E0F1
:10B7300010B5002819DA1A4A03071B0F083B9B08AB
:10B740009B00D2588307DC0EFF23A3409A438B074C
:10B750001B0E8407E40EA3401A43114B0407240F69
:10B76000083CA408A4001A5118E00E4A03231B0247
:10B77000D21883089B00D2588307DC0EFF23A34016
:10B780009A438B071B0E8407E40EA3401A43054B14
:10B79000032424021B198408A4001A5110BD0000C0
:10B7A0001CED00E000E100E010B5002819DA1A4AAB
:10B7B00003071B0F083B9B089B00D2588307DC0E36
:10B7C000FF23A3409A438B071B0E8407E40EA3407C
:10B7D0001A43114B0407240F083CA408A4001A5173
:10B7E00018E00E4A03231B02D21883089B00D2588C
:10B7F0008307DC0EFF23A3409A438B071B0E8407AD
:10B80000E40EA3401A43054B032424021B198408A9
:10B81000A4001A5110BD00001CED00E000E100E0A2
:10B8200000BF00BF00BFBFF34F8F00BF00BF00BF0E
:10B8300006480749C86000BF00BF00BFBFF34F8F75
:10B8400000BF00BF00BF00BF00BFFDE70400FA0556
:10B8500000ED00E010B5FF20013003F0D6FC002819
:10B860000CD0FF20013003F0DBFC012003F0DEFCF4
:10B8700001200C494870002001F0D8F8FF20053065
:10B8800003F0C3FC00280BD0FF20053003F0C8FCF8
:10B89000022003F0CBFC01200249887001F0C6F8B9
:10B8A00010BD0000582700201CB500BFFF2001304C
:10B8B00034494018006800281AD0012005F074FDB2
:10B8C000002815D000BF0021FF2001302D4A80182C
:10B8D000016000BF91156846018000BF2A48C0681A
:10B8E00041B268468170294A0199009812689047D0
:10B8F00000BFFF200530234940180068002822D0EF
:10B90000022005F051FD00281DD000BF0021FF20BE
:10B9100005301C4A8018016000BFFF2105316846D0
:10B92000018000BF1848806901B26846418000BFAD
:10B9300015484030806881B268468180134A019979
:10B9400000981268904700BFFF2009300D49401849
:10B950000068002815D0042005F026FD002810D02E
:10B9600000BF0020FF210931064A8918086000BF86
:10B97000FF20093069460880044A0199009812683E
:10B9800090471CBD0020014000250140BC22002042
:10B9900010B51B480068002808D01A484068C00746
:10B9A000C00F002802D00020154908601448C06864
:10B9B00000280FD01348406808210840002809D00B
:10B9C00000200F49C86010480068002802D00E48C7
:10B9D000006880470A48006900280FD0094840687D
:10B9E00010210840002809D00020054908610748B7
:10B9F0000068002802D005480068804710BD00009C
:10BA00000011004000130040842300208023002008
:10BA10001CB50020019001A800F022FD06F02CFECC
:10BA2000002830D100BFFF200130194940180068BC
:10BA3000002801D0012000E00020002823D00120B0
:10BA4000144989680140002901D0012100E000214A
:10BA5000002918D000BF0020FF2101310C4A8918AD
:10BA6000086000BF00BF0C488068C0B20090694603
:10BA70000A4805F0C1FC094805F0A7FC002801D0E0
:10BA800003F084FF00BF6846007900F013FD1CBD81
:10BA900000D0004000D3004000D50040703E0200BE
:10BAA00010B503220021024804F042F810BD000046
:10BAB00000B0004010B5002007490860002106488A
:10BAC00041608160C16000200349403908604860DE
:10BAD00007F04CF910BD00004011014010B5034CB7
:10BAE0002146034802F060FE10BD0000E42700205C
:10BAF0000030004010B50249024802F067FE10BD58
:10BB0000602800200040004010B507F08FF810BDFD
:10BB100070B50B48006800280ED0094800688047BF
:10BB2000044600BF2546002D04D000BF284600F083
:10BB30004FFC00BF00BF01E002F09CFD70BD0000A3
:10BB4000382300203EB519480068019002A804F08F
:10BB5000D1FB0446002C27D115480068002823D0CB
:10BB60000298C007C00F002806D000206946087060
:10BB700068460F4909688847022102980840002852
:10BB800006D0012069460870684609490968884757
:10BB9000042102980840002806D002206946087057
:10BBA00068460349096888473EBD000078230020A5
:10BBB0005823002010B502F097FE002805D0104849
:10BBC00010494860C8131049886102F071FE0028CE
:10BBD00002D001200D49886002F0BCFE00280ED082
:10BBE0000B480068012807D00A480949086000BFCF
:10BBF000074800680128FBD1C0200549486110BDF5
:10BC0000DFFF07C000050040006C00400006004058
:10BC100000EC06407593000010B504220249034869
:10BC200002F08EFD10BD00000428002000800040BE
:10BC300010B504220249034802F082FD10BD000045
:10BC4000102800200090004010B50249024807F07B
:10BC500035FD10BDC8270020002000400FB41CB5E2
:10BC60000246002007AC00290BD0491E019100922A
:10BC7000064B6A462146069800F02EF8009A0021ED
:10BC800011701CBC08BC04B0184700004DC1010075
:10BC900030B47446641E2578641CAB4204D3635DE3
:10BCA0005B00E31830BC18471D46F8E702E008C8FF
:10BCB000121F08C1002AFAD170477047002001E026
:10BCC00001C1121F002AFBD1704700BFEFF31081A2
:10BCD000084672B670470000FFB591B00F460546A2
:10BCE000002606E025280AD0149A139990476D1C67
:10BCF000761C28780028F5D1304615B0F0BD002418
:10BD000000940121F34A029400E004436D1C2B7857
:10BD10000846203B98401042F7D128782A280ED0B8
:10BD2000022128780246303A092A15D8009A0A23B7
:10BD30005A43303A80180C436D1C0090F1E701CF54
:10BD40000090002805DA0120400304430098404297
:10BD50000090022004436D1C28782E2815D1042061
:10BD6000044368786D1C2A280AD101CF6D1C02900B
:10BD70000BE002990A225143303940186D1C0290A1
:10BD80002878014630390929F3D928786C2810D051
:10BD900006DC4C281AD068280ED06A2817D104E097
:10BDA000742813D07A2812D110E0012040050443F2
:10BDB0000CE00121090501E0032109050C43697824
:10BDC000814203D10120000524186D1C6D1C2878C8
:10BDD00003906E281ED00CDC632831D004DC0028D0
:10BDE0008AD0582811D1B2E064287BD069280CD1C0
:10BDF00078E073282DD004DC6F2870D0702804D12F
:10BE0000A7E075286CD078286BD0149A13999047C6
:10BE1000761C62E06002400F022807D003280AD097
:10BE2000042838680AD006603F1D56E03868F117CC
:10BE300006604160F8E738680680F5E70670F3E7CA
:10BE40003878694608740020487404A803900120DB
:10BE500003E0386803900020C0433F1D61070FD501
:10BE6000002101E00199491C029A0191914213DAE3
:10BE70008142F7DB019A0399895C0029F2D10BE03A
:10BE8000002101E00199491C01918142FADB019AEC
:10BE90000399895C0029F5D101990098139A401AF9
:10BEA00000902146149B00F03BF901998019461837
:10BEB00007E0039803990078491C0391149A139999
:10BEC00090470198401E0190401CF2D12146149BDE
:10BED000139A009800F014F986196D1C09E741E0E7
:10BEE00033E034E00A200021049005916002410F04
:10BEF000022905D001CFC2179446032905D007E0D7
:10BF0000FF1DFF08FF0003CF06E000B2C2179446F2
:10BF1000042902D140B2C1178C46002261469445E3
:10BF200006DA0A460021404291418C462D2102E06A
:10BF3000210504D52B216A461176012103E0E10792
:10BF400001D02021F7E7019154E00A200BE01020F6
:10BF500009E01020049000210420044308200591EA
:10BF6000029003E008200021059104906002410F37
:10BF7000022905D001CF00229446032906D006E00D
:10BF8000FF1DFF08FF0003CF8C4603E080B20429A9
:10BF900000D1C0B20021019121072BD5039970294E
:10BFA00006D0049A1021059B4A401A4305D00EE0A2
:10BFB00040216A461176012108E06146014306D01E
:10BFC00030216A4611760399517602210191049A33
:10BFD0000821059B4A401A430CD16146014301D117
:10BFE000610707D530216A46117601210191029936
:10BFF000491E02910399582904D037A103910FA932
:10C000000F910DE039A1F9E76146059B049AFFF70E
:10C01000C2F8039B8C469B5C0F9A521E0F921370C2
:10C0200061460143F0D10F9807A9081A2030039008
:10C03000600704D5012000048443029801E0012038
:10C0400002900399884201DD401A00E00020411867
:10C050000290019809180098401A0090E00306D455
:10C060002146149B139A009800F05AF88619002074
:10C07000049008E006A9085C149A13999047049864
:10C08000401C761C049001998842F3DBE0030CD538
:10C090002146149B139A009800F042F8861904E098
:10C0A000149A302013999047761C0299481E0290EA
:10C0B0000029F5DC08E00F980F990078491C0F91D2
:10C0C000149A13999047761C0399481E03900029EF
:10C0D000F1DCFBE6092801003031323334353637E4
:10C0E00038396162636465660000000030313233C4
:10C0F0003435363738394142434445460000000064
:10C10000F8B5044600251E461746880404D405E009
:10C1100039462020B0476D1C641EF9D52846F8BD6D
:10C12000FFB50446002581B01E46C80301D530275F
:10C1300000E02027880404D505E038460399B0477D
:10C140006D1C641EF9D5284605B0F0BD4A68002A6A
:10C1500006D00A68531C0B6010704868401E486087
:10C160007047000038B50B48006800900A496846DF
:10C1700003F03AF9044600BF2546002D04D000BF65
:10C18000284600F025F900BF00BF044803F016F967
:10C1900038BD0000A03D0200A1C10100D820002050
:10C1A00070B504462078002827D11449086000257E
:10C1B00008E069006068405E1049096840180F494E
:10C1C00008606D1C2089A842F3D821890B480068BB
:10C1D000FEF79CFF09490860228909A1032005F0A8
:10C1E0007BF806480EA10268032005F075F80020D0
:10C1F0001349087003F024F900BF70BDD02000205F
:10C200004150503A494E464F3A41444320646F6E84
:10C21000652073697A653A2025640D0A00000000E4
:10C220004150503A494E464F3A41766572616765D2
:10C230002076616C75653A2025640D0A00000000C7
:10C240009620002010B5FF20013002F0BFFF00BF94
:10C2500000201E49086000BF00BF0846806800B289
:10C260001B49C9681A4A527C520088521848407CBF
:10C27000401C174948740846407C097C884223DAF0
:10C280000024134880684068002804D110484068A2
:10C290000F49886005E00E48806840680C49886056
:10C2A00001240B498968086802F07EFF00BF012065
:10C2B0000649086000BF002C04D000BF054A10608A
:10C2C00000BF00BF002010BD0120FCE7007500404A
:10C2D0004C2800200070004010B50446204600F0B5
:10C2E000B5FA00BA10BD000010B50446002C0ED0FF
:10C2F00008480068A0420AD806484068A04206D311
:10C30000204602F051FB002801D0012010BD002082
:10C31000FCE70000D023002000B501460B00FFF72A
:10C32000B7FC0504070A0D1014000948006800BD99
:10C3300008480068FBE708480068F8E70748006815
:10C34000F5E7044800681830F1E701480068EEE7B7
:10C3500090230020A0230020B0230020C023002031
:10C3600013A1012004F076FF00BF04F0E9FD00BF37
:10C3700000BF04F0EBFD0028FBD100BF00BF00BFF1
:10C3800000BF00BF00BF00BFBFF34F8F00BF00BFA3
:10C3900000BF0D480D49C86000BF00BF00BFBFF31C
:10C3A0004F8F00BF00BF00BF00BF00BFFDE7000010
:10C3B0004150505F4552524F523A4552524F523AB5
:10C3C000466174616C0D0A000400FA0500ED00E09E
:10C3D0003EB50446002000900190029002946A4607
:10C3E00000210248FFF7BCFF3EBD000001400000F5
:10C3F000F8B51AE0154804781548008860431549D7
:10C4000009684518E0001449096840188688E0006A
:10C41000114909680F5831462846B8470B4800783B
:10C4200002F0B6FE0949087000BF00BF00200028D6
:10C430000BD100BF0549087808490978814201D12C
:10C44000012100E000210029D4D0F8BDD422002031
:10C45000D6220020D0220020CC220020D52200208D
:10C4600070B5044600BFFFF730FC05460E48406833
:10C4700000280ED101200C4948600C4800680C4986
:10C480000840094908600A480849086000202070EF
:10C4900001E001202070002D03D100BF62B600BF73
:10C4A00000BF00BF70BD00000023002080E100E05D
:10C4B000FC06FFBC70B5044625460C4840680028C1
:10C4C00012D0002D10D1FFF700FC06460748006887
:10C4D00007490860002005494860002E03D100BFCD
:10C4E00062B600BF00BF00BF00BF70BD00230020C8
:10C4F00000E100E070B505460C462068401C0028AD
:10C5000005D0206804F08CFA206804F02BFA6068EB
:10C51000401C002803D00021606804F0E3F928687B
:10C52000A169052212028218516200BF617D227D3D
:10C5300028680B461343052636028619F36600BFAA
:10C5400062682168286805F071F8207D012816D1FD
:10C55000A068401C002803D00021A06804F0C2F9A4
:10C56000E068401C002805D0E06804F059FAE06853
:10C5700004F0F8F9A268E168286805F035F870BDA4
:10C58000FFB587B004460E461746A07CB0422DDDAD
:10C590000A2070432146143140180690FF2077305E
:10C5A000005B144988421FD001970020029003903D
:10C5B00004900590069801886846018101218172E6
:10C5C0000021818101A804900A980590FF2177310C
:10C5D000085B02A9A6DF0546002D04D168468088C5
:10C5E000B84200D00C2500E0082500E007252846C9
:10C5F0000BB0F0BDFFFF000030B502460C49885C6F
:10C6000000BF05242407214624150C196368012462
:10C6100084409C4305252D024D19AC6001248440C3
:10C620001C4005252D024D19EC6000BF30BD0000F7
:10C63000F03D020010B504460249085D012104F0F6
:10C6400047FA10BDF03D020010B504460249085DEE
:10C65000002104F03DFA10BDF03D02007CB500243D
:10C660000CE00948055D00200090034601221146B8
:10C670000190284604F0BCF800BF641C022CF0D3E3
:10C6800000F004F87CBD0000F03D020010B500246D
:10C6900003E02046FFF7CEFF641C022CF9D310BD47
:10C6A0000246002901DA002003E013685B181360DA
:10C6B00001207047F0B585B004460D46641C012783
:10C6C000012003900020029002A8FFF7C9FE1F4836
:10C6D000006828601D4800681C494968411A1B48C9
:10C6E0008068401C461AE01901900198B04221D997
:10C6F000002E1CD016480068009000988005800D20
:10C70000144909688902890A8902084300900F4880
:10C71000009A00680D490968491C0C4B19601946BC
:10C7200089680840810018460C30425000BF002044
:10C73000039004E005480068001904490860684651
:10C74000007AFFF7B7FE039805B0F0BD0C2B002070
:10C75000383F020034230020044840680349096838
:10C76000884201D1012070470020FCE70C2B0020FB
:10C7700070B504460D460F2002F020FF112002F094
:10C780001DFF122002F01AFF132002F017FF1420E1
:10C7900002F014FF152002F011FF162002F00EFF28
:10C7A000172002F00BFF13480078002804D100F096
:10C7B00057F901200F49087000200F4908600F4900
:10C7C00008800F480078002805D10E4803F086FB4A
:10C7D00001200B4908700C480078002805D00B4850
:10C7E00003F046F900200849087009A1132004F05D
:10C7F00031FD70BD9B2000203820002080200020CB
:10C800009C200020543D02009A200020643D02003C
:10C8100077616B650D0A000030B502460B460221B8
:10C820000EE08D0014462C412007000F092802DD80
:10C830000446373401E00446303401256D1A5C5556
:10C840000C46491E002CECD130BD000001460868A2
:10C850000D4A024012090C4BDB4303401B011A43F3
:10C8600010460A4A02409208084BDB4303409B00F3
:10C870001A431046064A02405208054BDB43034068
:10C880005B001A4310467047F0F0F0F0CCCCCCCCF3
:10C89000AAAAAAAA0021C9438200054B99500428DC
:10C8A00004DB0B46011F024A50325354704700000C
:10C8B0006C27002001468800014A1058704700008C
:10C8C0006C270020F7B585B00B460020C0430490CC
:10C8D000002A01D0002000E004200390002A01D0AB
:10C8E000042000E00C20029003991EE08800124C06
:10C8F0002058401C002817D10846059C009301923F
:10C9000046B20D4D30352E5585000B4E009B7351B0
:10C91000019A002A04D166B2051F074F50377E5591
:10C9200000BF48B2049003E0491C02988142DDD365
:10C9300000BF049808B0F0BD6C27002001460148F4
:10C94000405670479C2700200146002907D0054823
:10C95000884204D80448884201D901207047002049
:10C96000FCE7000090230020E02300200A49496CE6
:10C9700000290FD00849096CC900074A89180160CD
:10C980001146096C491C4907490F11641146496C4D
:10C99000491E5164704700002029002001780229B7
:10C9A00002D0017803290BD106490A6C817D511808
:10C9B000044A116411464A6C817D511A014A51643E
:10C9C000704700002029002010B5FF2014301049C6
:10C9D00008601049C87C1049096888470F48104909
:10C9E000486000200F49086101200F49086100BF1D
:10C9F0000C4800690028FBD000200A490861FF208C
:10CA000018300349086001200749486010BD000044
:10CA100000120040242F002088230020063200202E
:10CA200000150040001100400010004070B50546A0
:10CA3000002D01D1094C01E0084C08340AE02046E1
:10CA400001F0BBFF0646002E00D104E028467168C5
:10CA5000884700BFF3E700BF70BD000060270020DB
:10CA600000200549086001208107086000BF0248D6
:10CA700000680028FBD0704700010040FEB51F4849
:10CA80000068002836D01D480068056805F010FCD5
:10CA900001901B4804682146019805F049FFC61C17
:10CAA00018480078002801D105F008FCAE4201D2F8
:10CAB000284600E0304604192402240A204605F0E6
:10CAC000F1FB05F0F5FB00900199009805F030FFAF
:10CAD000C71C2046019905F02BFF874209D905F0B4
:10CAE000E7FB074605F0DEFB2F2002F003FC06F013
:10CAF00087F901E005F000FCFEBD0000E422002003
:10CB0000E8220020FC22002070B506460D46002ECB
:10CB100001D0012070BD2879002804D0012809D057
:10CB2000022811D10EE0284605F086FA04460220BC
:10CB300028710BE0284601F0F9F804460A2C00D1D0
:10CB4000044C03E0034C01E00F2400BF00BF20466B
:10CB5000E0E700001D1D000010B503211C2003F0BC
:10CB6000A7FE03211D2003F0A3FE284A0121002077
:10CB700003F0CEFF1C2003F0DDFE00211C2003F09B
:10CB800067FF1D2003F0D6FE00211D2003F060FF8B
:10CB90001E480068010F032088430446002C06D07D
:10CBA000012C0DD0022C15D0032C24D11AE0012029
:10CBB00017490870002017490870174908701BE0D2
:10CBC0000020134908700120124908700020124902
:10CBD000087011E001200E4908700E4908700E49D6
:10CBE000087009E000200A4908700A49087001200D
:10CBF0000949087000E000BF00BF01200449087027
:10CC00000020044908700449087010BD302000203D
:10CC1000FC1F0020FD1F0020FE1F002010B507484C
:10CC20000078002808D002F09DFE0020034908701B
:10CC300001F04AFC0249086010BD00009820002065
:10CC40002C20002010B505480078002805D00448A5
:10CC500003F0ACF800200149087010BD95200020B9
:10CC6000883D020070B50E480078401C0C490870E1
:10CC7000084600780007000F08700A49084A127831
:10CC8000885C03F045FC044600BF2546002D04D017
:10CC900000BF2846FFF79CFB00BF00BF70BD00002F
:10CCA00000200020443D020070B50024182003F04D
:10CCB0004DFE0021192003F008FE00211E2003F084
:10CCC00004FE002512E00021182003F0E1FE0121FE
:10CCD000182003F0DDFE600044B21E2003F086FE43
:10CCE000002801D001200443681C45B2082DEADB6E
:10CCF000204670BD70B50446182003F027FE1E20A4
:10CD000003F024FE0021192003F0DFFD002518E0C8
:10CD10000021182003F0BCFE80202040002804D011
:10CD200001211E2003F0B4FE03E000211E2003F0C9
:10CD3000AFFE6006040E0121182003F0A9FE681C56
:10CD4000C5B2082DE4DB00211E2003F0A1FE70BD5A
:10CD5000014614480078144A127890421DD01148B8
:10CD60000078401C0F4A107010460078022801D14C
:10CD7000002010700B48007880000C4A10580860A2
:10CD80000B4A086812688018094A1060104600684B
:10CD90000002000A1060012070470020086000BFF8
:10CDA000FAE70000F4220020F5220020EC22002007
:10CDB000E82200201FB516480078002826D1154B20
:10CDC0000FCB6C460FC41A216846C1701E218170BA
:10CDD00019214170182101700F480078062802D1EE
:10CDE00001208007029000BF0C4A69460C4802F0FF
:10CDF00011FF0446002C04D000BF2046FFF7E8FADC
:10CE000000BF00BF01200249087000BF1FBD000025
:10CE100095200020C43D0200B72200208526020094
:10CE2000883D020070B504465A21092006F0F4FE40
:10CE3000062005F07BF8C5B26D076D0F132C06D1E7
:10CE4000082028430146062006F0E6FE03E02946B6
:10CE5000062006F0E1FE21464B2006F0DDFE002113
:10CE6000092006F0D9FE70BD10B504465A210920EC
:10CE700006F0D2FE2146052006F0CEFE0021092054
:10CE800006F0CAFE10BD0000F0B58FB000200B9078
:10CE90000A9008200990002008900790069000272B
:10CEA0000590049000260390012002900020FE4986
:10CEB0000860FE490880FE490880FE480078002886
:10CEC0007DD0FD480078012807D1FC480078FC4956
:10CED0000870FA48407848702BE0F748007800283E
:10CEE00027D00027F54880780490012610E07000D4
:10CEF0003018801CF149095C0498814206DB7000FF
:10CF00003018801CED49085C04903746701CC6B28E
:10CF1000E94800788642EADB78003818E749085C7F
:10CF2000E749087078003818401CE449085CE44977
:10CF30004870E349487802F0EDF8E14801780020B4
:10CF400003F08AFB054600BF002D02D028460FB033
:10CF5000F0BD00BF1F2464032078D94909788842B6
:10CF600007D12079D6494978884202D1207ABC2855
:10CF70002DD0204600F020FFD1480178204600F057
:10CF800037FFCF484178201D00F032FFBC212046FA
:10CF9000083000F02DFF002003900AE00398800085
:10CFA000225CC8A1132004F097F90398401CC0B27A
:10CFB000039003980328F1DBC4A1132000E011E0E3
:10CFC00004F048F9C2A1132004F044F903E0C5A11C
:10CFD000132004F03FF90223B94AC9A1032004F049
:10CFE000B9F865E01F246403207ABC284AD00F20DA
:10CFF00002F0E4FA112002F0E1FA122002F0DEFA67
:10D00000132002F0DBFA142002F0D8FA152002F007
:10D01000D5FA162002F0D2FA172002F0CFFABB4858
:10D020000078002805D0BA4802F048FF0020B74930
:10D030000870FFF7BFFEB7480078002809D013201A
:10D04000FFF7F0FE0020B3490870B3A1032004F0FD
:10D0500001F9FFF7F7FDFFF7E1FDB7480078002879
:10D0600004D00020B449087002F0EAF9B3A103200B
:10D0700004F0F0F805E003F069FF002801D105F0A5
:10D080004BFCF8E7B5A1032004F0E4F8BAA10320B3
:10D0900004F0E0F8207902F03DF82178002003F058
:10D0A000DBFA054600BF002D01D028464FE700BF40
:10D0B0000020BB4948710846407902210843B8491D
:10D0C00048710021B6488171C1710172417281724B
:10D0D000C172B4484178B2480173B2488178B0480F
:10D0E00041730920AE490870AF480E901322AC4836
:10D0F0000E300E99FEF724F81C20A9490870012073
:10D10000AA490870A649C8700020A949487011E3CF
:10D11000A848007800287DD0A7480078002820D1B2
:10D1200001F0D2F9A549096888421AD0A449002023
:10D1300002F0A4FB054600BF0195019D002D04D01F
:10D1400000BF0198FFF744F900BF00BF002004F0C2
:10D1500033F902F07FFB0120974908700020524903
:10D160000860514800689749884276D300210F2013
:10D1700002F054FA0021112002F050FA002112208E
:10D1800002F04CFA0021132002F048FA002114208A
:10D1900002F044FA0021152002F040FA0021162086
:10D1A00002F03CFA0021172002F038FA584802F049
:10D1B00085FE0020554908703B490860FFF72EFDA9
:10D1C0005D480078002804D000205B49087002F018
:10D1D00037F900210F2002F021FA0021112002F07E
:10D1E0001DFA0021122002F019FA0021132002F08A
:10D1F00015FA0021142002F011FA0021152002F086
:10D200000DFA0021162002F009FA0021172002F081
:10D2100005FA00E0DDE16C480078002805D0012027
:10D220008107486000206849087068480078002835
:10D2300008D1674802F02CFC654802F013FC01207D
:10D2400062490870002063490880BC20FFF70CFE8B
:10D2500061A1132003F0FEFF08E109E103F076FE6F
:10D26000002801D1FEF71AFA01F02EF95349096896
:10D27000884204D003211120FFF77AFAF7E0584AD8
:10D280000121002003F044FC55480068C10B012037
:10D290008843002806D01D480078002803D10321C8
:10D2A00011209FE0A1E09FE038200020A82000206E
:10D2B00080200020292000203C2000204C2000203D
:10D2C0004620002025303278200000000D0A0000A2
:10D2D00073746F72652072656D6F74652049440DBB
:10D2E0000A00000072656D6F746520494420616C0E
:10D2F00072656164792073746F7265640D0A000051
:10D300004150503A494E464F3A0D0A009C200020A9
:10D31000543D0200992000204150503A494E464F5A
:10D320003A73656E736F7220656E74657220736CEC
:10D330006565700D0A000000962000204150503AAB
:10D34000494E464F3A6E6F2070616972696E672070
:10D350006265666F72650D0A000000004150503A28
:10D36000494E464F3A70616972696E672062656620
:10D370006F72650D0A0000004150503A494E464F09
:10D380003A736574206265666F72652070616972B8
:10D39000696E672072656D6F74652069640D0A009F
:10D3A00001200020BD200020E81F002026200020B2
:10D3B000242F00203E200020982000202C20002038
:10D3C000891C0200EE0200009B2000209A20002011
:10D3D000643D02008C200020736C6565700D0A00AE
:10D3E00030200020FFF7C4F941E0D3480068410C29
:10D3F00001208843002808D0D0480078002803D1B5
:10D4000003211120FFF7B4F931E0CC48007800285F
:10D410000AD0CB480078002805D0CA4802F028FB83
:10D420000020C749087022E0C74800884B218901C5
:10D4300088421BD1FFF7BEFCC4480078002809D001
:10D440001320FFF7EFFC0020C0490870C0490320FB
:10D4500003F000FFFFF7F6FBB9480078002805D07D
:10D46000B84802F005FB0020B5490870F6E659E01F
:10D47000B8480068FF217831884209D3B64800884F
:10D48000FF21F53188424DD1B448B249086049E0E6
:10D49000FFF790FCAD480078002813D11B20FFF760
:10D4A000C1FC05F00BFDAE480078002803D0AC4865
:10D4B000007806F0A1FA0120A4490870A9A1032070
:10D4C00003F0C8FEAE48007800282BD00020AC49FD
:10D4D0000870AC480078022803D0AA480078572882
:10D4E0000AD19F480078401CC0B29D4908700528A9
:10D4F0000CDB0120087009E099480078401CC0B29C
:10D5000097490870042801DB0120087094480078CE
:10D510004006000E9C490870FFF74CFC90480078CC
:10D5200006F06AFA002099490870884800780028B7
:10D530004FD003220CA90DA800F086FF002848D088
:10D5400093480078002804D06846808E404201B29B
:10D550000D9190480078002804D06846008E404223
:10D5600001B20C918C480078002816D06846008ED5
:10D57000C1B28A4801726846008E0004010E8748D5
:10D5800041726846808EC1B2844881726846808E3E
:10D590000004010E8148C17215E06846808EC1B258
:10D5A0007E4801726846808E0004010E7B484172FD
:10D5B0006846008EC1B2794881726846008E0004C8
:10D5C000010E7648C17276480078022108437449FA
:10D5D000087073480078002871D000205D49086009
:10D5E0006F480078C007C00F002805D06C4800784D
:10D5F000400840006A4908706948007802210840E4
:10D60000002804D06648007888436549087064485B
:10D6100000780421084000280FD061480078884332
:10D620005F4908705D48C0795E4909684018C1B219
:10D630005A48C17100205B490860594800780821A8
:10D640000840002804D056480078884354490870A0
:10D6500062E0002054490870544908704F49C8706E
:10D66000534948704D4803F013F800284FD100BFCC
:10D670004D480078002803D14C4800780028F7D0A6
:10D6800035480088FF21F531884204DA32480088A5
:10D69000401C3149088044480078002810D00520FB
:10D6A0004349C8810020029008902B49088000213E
:10D6B0003A48C171017241728172C1722DE033E04A
:10D6C0000298002808D101200290FFF7CBFA39A177
:10D6D000132003F0BFFD1FE000203549C8810898E2
:10D6E000401C0890089820280ED300212B488171F7
:10D6F000C171017241728172C172002008902EA125
:10D70000132003F0A7FD08E0FFF7ACFA04E02EA118
:10D71000132003F09FFD00E09BE700BF03F016FC21
:10D72000002801D1FDF7BAFF03F010FC002801D159
:10D73000FDF7B4FFECE40000302000209C20002026
:10D740009A200020643D02008C20002099200020B7
:10D7500018D301003820002080200020EE020000B5
:10D76000CB2000204150503A494E464F3A656E61F9
:10D77000626C652073656E736F720D0A00000000A5
:10D780002A200020B6220020CC2000203E200020AD
:10D79000FD1F0020FE1F0020FC1F00200120002094
:10D7A0003D2000207420002026200020272000207B
:10D7B000242F002040000000686F702074696D65A0
:10D7C0006F75740D0A000000650D0A00F0B58BB08E
:10D7D000002400200A9008200990002008900026CC
:10D7E00000270025069005900490039002900120E8
:10D7F0000190FA2663E1642F2ADB2A46B2A11320A6
:10D8000003F06AFD0A2D0ADB0120B1490870B1A1BD
:10D81000132003F01FFD0120FEF70CFF50E1701EE6
:10D8200086B2002E0CD000270020AF4908700025DA
:10D830000621AE48FDF79DFC0120FEF7DDFE07E066
:10D840000120FEF7F7FEAAA1132003F003FD37E144
:10D85000781C87B2AA48007800287DD00020A8490B
:10D8600008700120A749C8700020A7494870A54842
:10D8700002F00EFF002870D100BFA14800780028F8
:10D88000FBD00698401CC0B2069001209E4948700B
:10D8900000209E49087002F06BFE002409E09B48BE
:10D8A0000078002800D008E0012001F0E3FC601CB3
:10D8B00084B24B20C0008442F1DB00BF02F0A2FE24
:10D8C0009248007800287DD0002001900690904872
:10D8D0004079342840D18E48807A8E4949788842F0
:10D8E000F8D18B48C17A8B4880788142F2D1884840
:10D8F000407A002810D0864880797C490870844896
:10D90000C07948700120784908707149087082A177
:10D91000132003F09FFCD3E0002428E060002018CF
:10D920007249095C7A48807981421ED160002018D2
:10D93000401C6E49095C7648C079814215D160006F
:10D940002018801C6949085CFA280DDA600020184C
:10D95000801C085C401C01E044E049E0C1B260006A
:10D960002018801C614A115403E0601C84B2022C10
:10D97000D4DB00BF022C21DB5B48007802281DDAD3
:10D9800063488079584909784A008918574A5054A1
:10D990005F48C1795448007842008018401C534ABF
:10D9A000115401215048007842008018801C4F4AD1
:10D9B00011544D480078401C4B490870681CC5B292
:10D9C0001BE0FFE7019800280DD10698042814DB1E
:10D9D0000120019000200690FFF744F951A1132087
:10D9E00003F038FC09E000200690FFF73BF904E063
:10D9F0004DA10320079A03F06FFC0321012002F0E0
:10DA000057FF0321112002F053FF4D4A012100204E
:10DA100003F07EF84A480068C10B012088430028C3
:10DA200013D00298642804DA0298401C80B2029055
:10DA30001AE044480078002816D1012041490870B6
:10DA400041A1132003F006FC0EE0002002903D48A7
:10DA50000078002808D004F0B7FD3FA1132003F0A0
:10DA6000F9FB00203749087035480068410C012057
:10DA70008843002817D03C480088401C3A49088059
:10DA8000084600883949884205D10020FEF7DCFDB0
:10DA90000120FEF7D9FD2A480068410C0120884387
:10DAA0002749086009E0304800883049884201DB96
:10DAB00004F08AFD00202C49088003F047FA9AE61A
:10DAC00000BF0BB0F0BD000025640D0A000000008F
:10DAD0002920002070616972696E67207375636325
:10DAE0006573730D0A0000003C2000204C200020CC
:10DAF00070616972696E67206661696C0D0A000069
:10DB00002620002001200020242F00202820002093
:10DB1000E0230020BD2000207265636F6E6E656398
:10DB2000740D0A00400000004150503A494E464FE3
:10DB30003A6572725F636F64653D25640D0A00008B
:10DB4000302000209E200020736574206274206DB8
:10DB50006F64650D0A000000736574206274206DA7
:10DB60006F6465310D0A00007C200020230800004E
:10DB700010B50446A08928DF10BD000010B588B09C
:10DB800028A0006807901822274901A8FDF7D8FAB5
:10DB9000012168460171FF21F531018200210173E5
:10DBA0002248029068464171012101760521C17524
:10DBB000022141730521418201A802F0BDFB044608
:10DBC00000BF002C02D0204608B010BD00BF0320CB
:10DBD00002F05CFC044600BF002C01D02046F3E7B5
:10DBE00000BF07A802F076FC044600BF002C01D05D
:10DBF0002046E9E700BFA321002002F02DFD0446E6
:10DC000000BF002C01D02046DEE700BF042002F058
:10DC100097FC044600BF002C01D02046D4E700BF8B
:10DC20002046D1E73E145B6DA43D02006D02020068
:10DC300000B502781300FEF72BF807340508112110
:10DC40002A31340000220A702CE001220A70038974
:10DC50008B818388CB81C2688A6023E002220A70AC
:10DC600003898B818388CB81C2688A60027C062A03
:10DC700001D1012300E000230B7413E003220A709A
:10DC8000C3888B810389CB81C2688A600AE0042241
:10DC90000A70C3888B810023CB8103E005220A70C0
:10DCA00000E000BF00BF00BD70B5054600240AE0DB
:10DCB000A00006490858002804D0A0000A461158C0
:10DCC00028468847641C082CF2D370BD88280020A1
:10DCD000F0B50346002420E0134E306806689E42EB
:10DCE00003D90668F61A06601BE006689B1B0668E7
:10DCF0003419002606600C4E35680B4FC6693E602D
:10DD0000C668002E08D00E193602360A4660C6686C
:10DD100086601668C661156000BF03480068002869
:10DD2000DAD100BFF0BD0000E42200203EB5044679
:10DD30000A4B6A460021A01D04F036F90546002D65
:10DD400006D1064A9188019804F006FA054603E0D8
:10DD5000024800210160416028463EBD1C2300208E
:10DD600010B50446A07EFF2802D0A07E02F064FE1B
:10DD7000002060762071201D2168884710BD0000BA
:10DD8000024909788143014A117070470C23002031
:10DD90000146044800780840002801D0012070475F
:10DDA0000020FCE70C230020024909780143014AC6
:10DDB000117070470C23002002210B4A516000BFF4
:10DDC0000A4909680029FBD00749886000BF074954
:10DDD00009680029FBD00021034A516000BF0349B4
:10DDE00009680029FBD0704700E5014000E40140CC
:10DDF00001220B4B5A6000BF0A4A1268002AFBD06E
:10DE0000016000BF074A1268002AFBD00022044BC1
:10DE10005A6000BF034A1268002AFBD07047000016
:10DE200000E5014000E40140F8B505460C46164601
:10DE30001F461F480078C007C00F002801D10120ED
:10DE4000F8BD2846FEF780FD002801D10220F7E743
:10DE5000002C01D10320F3E7A005800D002801D09C
:10DE60000620EDE72868A04204D8B00200196968CE
:10DE7000884201D90520E3E7002E01D10420DFE725
:10DE8000684603F067FF002801D10720D8E7009813
:10DE9000476000980560022000990872A001000CFC
:10DEA000009988810098068204F012F80020C7E7E4
:10DEB0002623002070B505460C46204603F07CFF63
:10DEC00070BD0000F8B506460D46002430780028E5
:10DED0003AD1002D38D154480078022804D00328C4
:10DEE00006D0042827D11EE0032000F057FE23E0CF
:10DEF000FEF760FF4D48007800280FD11B20FEF789
:10DF000091FF04F0DBFF4A480078002803D048481E
:10DF1000007805F071FD012044490870052001F0EA
:10DF200096F9FDF77DFC022000F038FE41A1132098
:10DF300003F090F900E000BF00BF3B48027846A123
:10DF4000132003F0C9F96EE03078012864D1002D68
:10DF500062D135480078002806D0012824D0022854
:10DF600036D0042856D13EE04248007800281AD026
:10DF700041480078002816D140480078002812D186
:10DF8000002406E03E48005DA1003E4A5050601C5F
:10DF9000C4B2062CF6DB002000903B480623394A29
:10DFA000016800F08BF836E0002406E03748005D99
:10DFB000A100344A5050601CC4B2062CF6DB00208D
:10DFC0000090334806232F4A016800F077F822E0DA
:10DFD00000202C49086000902E480123294A01683E
:10DFE00000F06CF817E0002006E02B4A411C515C61
:10DFF0008200244B9950401C0628F6DB002000903C
:10E00000234800680146183106231E4A204800F0C4
:10E0100055F800E000BF06E0002D04D02A461FA1FD
:10E02000132003F059F9F8BD6C200020992000203E
:10E03000CB200020676F696E6720746F207772694C
:10E04000746520666C61736820706167653A203280
:10E0500020200D0A00000000777269746520666C4C
:10E0600061736820706167653A20256420200D0A7D
:10E0700000000000902000205320002052200020AB
:10E08000BE200020542000209023002046200020A5
:10E09000A0230020B02300203F2000206673746F6F
:10E0A00072616765206572726F7220616E642063B1
:10E0B0006F64653A20256420200D0A00F8B50546F6
:10E0C0000C4616461F4623480078C007C00F00289C
:10E0D00001D10120F8BD2846FEF736FC002801D109
:10E0E0000220F7E7002E01D0002C01D10320F1E738
:10E0F000B007800F002803D1A007800F002801D0AF
:10E100000620E7E72868A04204D8B9000919686822
:10E11000884201D20520DDE7002F01D10420D9E794
:10E12000684603F017FE002801D10720D2E70099C6
:10E1300006984860009805600120009908720098D0
:10E14000C660009804610098878203F0C1FE002039
:10E15000C0E700002623002070B50546002D01D041
:10E16000012070BD1848007B002803D0002016490C
:10E17000087301E000F0D8F8134800780300FDF7B9
:10E1800087FD081D05090D111D15191D00F03CF82E
:10E19000044615E000F0B4F8044611E000F090F8F1
:10E1A00004460DE000F044F8044609E000F020F9D0
:10E1B000044605E000F02CF9044601E00F2400BFFE
:10E1C00000BF2046CDE70000882900200C480089C8
:10E1D000401C0B49088100204880087300BF0CE0F8
:10E1E0000101084A515C002901D1012200E000220E
:10E1F00003490A310A54411C88B20228F0DB7047F7
:10E20000882900206829002010B5074800F032F85E
:10E21000002806D10449891E0870488048600348D8
:10E2200010BD00F06DF8FBE78A2900201D1D0000DD
:10E2300070B50D48458828010C4940188089002890
:10E240000DD128010A4680180023012241680848A0
:10E25000FFF7EAFD044604200349087002E000F0DD
:10E260008FF80446204670BD8829002068290020C8
:10E27000D023002010B501460022002016E00E4BEE
:10E280001B5C002B10D000240B4B1C5403010B4CC7
:10E290001B199B89002B07D103011B199B7B012BA9
:10E2A00002D10880012203E0431C98B20228E6DB79
:10E2B00000BF104610BD00009229002068290020F0
:10E2C000F8B50C4844680C4800680B4989888900F7
:10E2D00045186088C01C86B20320064908700020DB
:10E2E000009008463346294642680448FFF7E6FE98
:10E2F000F8BD00008829002014230020D02300202E
:10E3000010B508494888091D03F0F4FE002803D021
:10E31000FFF7D6FF044602E0FFF78AFF04462046D7
:10E3200010BD00008829002010B5144800780300B3
:10E33000FDF7AEFC080520200B1117181C20FFF775
:10E3400045FF01200D49087015E000F06DF802202E
:10E350000A4908700FE000F029F806200749087004
:10E3600009E000BF07200549087004E001200349C7
:10E37000087000E000BF00BF10BD00008829002029
:10E3800010B5052006490870022006498880084615
:10E390000023012201680448FFF746FD10BD00007C
:10E3A0008829002014230020D02300200D4908686C
:10E3B0000D49498809010D4A89184968094A1160BF
:10E3C000094949880901094A891848600549898825
:10E3D000054A52881201054BD21811810221014AC7
:10E3E000918070471423002088290020682900208C
:10E3F00010B506200449087049880901034A8918A4
:10E40000486803F075FB10BD8829002068290020AA
:10E4100010B50720034908700020486003F078FB1E
:10E4200010BD000088290020054A50684288D21C8F
:10E4300091B2044A92885218024B9A8070470000A9
:10E440008829002014230020F8B504460D461746FD
:10E450000026002020802880FCF76CFF19480078F7
:10E4600000282DD0172002F0C1FA00281ED100BFCD
:10E4700019E0022003F05AFD032003F057FD218824
:10E48000401800B22080042003F050FD2988401875
:10E4900000B228802088002802D12888002800D0D7
:10E4A00003E0701CC6B2042EE3DB00BF2088002806
:10E4B00002D12888002801D00120F8BD0020FCE707
:10E4C00000BFFAE7B522002008B500200090012126
:10E4D000084602F0EDF90121022002F0E9F96A464E
:10E4E0000121002002F014FB00984007800F0090EB
:10E4F0000321012002F0DCF90321022002F0D8F907
:10E50000009808BD01468888044A904204D00888D3
:10E51000002801D0012070470020FCE7FFFF000029
:10E52000F8B506460C460F200090002E04D00120BE
:10E53000FFF726FC0120F8BD2079002806D001282D
:10E540000AD002282DD003285AD138E003F0E0FA8F
:10E5500000900120207154E00027002513E02801DD
:10E560002D49085C02280CD129012B4A89184868DA
:10E5700003F0BEFA009000202901274A50540127D9
:10E5800003E0681C85B2022DE9DB00BF002F07D134
:10E590000220FFF709FC0120FFF7F2FB1F48CAE742
:10E5A0002FE01F480023012201681E48FFF73CFCB2
:10E5B000009002201A4988800020207121E018492B
:10E5C000086803F095FA00901748458814480768D2
:10E5D00028011149401840681149086028010E4976
:10E5E000401847600E48808829010B4A8918088125
:10E5F00002200B498880002029015054207100E03E
:10E6000000BF00BF0098002804D00120FFF7B8FB2E
:10E610000E2090E700208EE7682900201D1D0000D5
:10E6200014230020D02300208829002010B503F0F7
:10E630002BFE002007E0252141430A4A8918820069
:10E64000094B9950401C0828F5DB002007E02521E4
:10E650004143064A89188200054B9950401C0828FE
:10E66000F5DB10BD3C2F00206430002090300020EE
:10E67000B8310020F8B52C480078002800D1F8BD4A
:10E6800000252A480068002801D1012000E0002070
:10E69000064600BF002D1ED125480078002800D076
:10E6A000EDE7684652DF0446052C01D1012511E053
:10E6B000002C04D000BF2046FDF78AFE0AE0009837
:10E6C00000F04EFF1B480068002803D0194900984D
:10E6D0000968884700BF002E1DD115480078002822
:10E6E00000D0CCE7144800880090694613480068C1
:10E6F00061DF0446052C01D101260BE0002C04D07B
:10E7000000BF2046FDF764FE04E00C48006807499E
:10E710000968884700BF002D02D0002E00D000E01D
:10E72000B8E700BF00BFAAE73C2300204823002031
:10E730003D2300204C2300204423002040230020C0
:10E74000F7B582B004460E46002728E0384602F0AE
:10E75000F2FE0546384602F0F4FE019020462946B6
:10E760004258002A01D0012200E00022002A14D0E1
:10E77000019803210902611849680140002901D06C
:10E78000012100E00021002907D02946204602F09F
:10E79000DDFE2846326871689047781CC7B204983D
:10E7A0008742D3DB05B0F0BD70B505460C46FF21AE
:10E7B0000931284602F0ADFE2146284604F046FB0A
:10E7C000002802D12046FFF7CBFA70BD7FB5054681
:10E7D0000C462120005D2021095D00910190224618
:10E7E0002632D11E2846E36904F024FE002800D01A
:10E7F0007FBD2320005D00282AD1207B022802D083
:10E80000207B032824D1E1692069814220D16069FD
:10E81000E061E17B202001552021A06908404109E9
:10E8200021200155207B03280AD12120005D009082
:10E830002020035D29462046E26904F095FE34E07D
:10E840002020035D29462046E26904F073FD2CE098
:10E8500062692169E06801AB07C32320005D0028DD
:10E8600013D0284602F08AFE0646022030400028D7
:10E8700003D001206946087006E0042030400028DB
:10E8800002D002206946087002E000206946087044
:10E890000021242001550421A0690840002803D14B
:10E8A000684622686168904700BF00BFA0E700008B
:10E8B0000C48008CC0B2012812D10A48808C000795
:10E8C000000F00280CD10748806AF021084040283A
:10E8D00006D10448C06A0840002801D101207047D1
:10E8E0000020FCE7C00F00F01948008CC0B20128DE
:10E8F0002CD11748808C0007000F002826D114481F
:10E90000806AF0210840002806D11148C06A0840FA
:10E91000002801D1012070470D48806AF02108408D
:10E92000102806D10A48C06A0840002801D10120F9
:10E93000F1E70748806AF0210840302806D10448F2
:10E94000C06A0840002801D10120E4E70020E2E786
:10E95000C00F00F01348008CC0B201281FD111482D
:10E96000808C0007000F002819D10E48806AF02122
:10E970000840A02806D10B48C06A0840002801D1F1
:10E98000012070470748806AF0210840D02806D14E
:10E990000448C06A0840002801D10120F1E70020A6
:10E9A000EFE70000C00F00F001468807800F002845
:10E9B00001D1012070470020FCE7014608680028CB
:10E9C00001D002680A607047026803E08A4200D101
:10E9D00070471268002AF9D10368002B01D0036840
:10E9E00000E000230B60016000BFF1E770B500F0AC
:10E9F00045FD044600BF2546002D04D000BF284633
:10EA0000FDF7E6FC00BF00BF002000F06FFD70BD09
:10EA100010B5FF20053000F003FC022000F00CFCD4
:10EA2000082000F00FFC10BD70B51C4804781C488D
:10EA3000066826E019484168182060430D18601CDC
:10EA4000C4B216488078A04200D100242878022859
:10EA500002D0032812D103E0686804F04FF90EE0F9
:10EA600007E00F490868002101740D4AC16911606F
:10EA700000BF0B4800680028F3D100E000BF00BFD2
:10EA800000BF06484078A042D4D105480068B04293
:10EA900001D0012070BD0020FCE70000DC22002036
:10EAA000E4220020F8B50546374806685BE0002DF3
:10EAB00002D02C46E56929E034494A6809781823D0
:10EAC0005943501831490978491C304A1170114690
:10EAD00009789278914202D100212C4A1170446841
:10EAE0000178012902D1217C002900D03BE0816816
:10EAF0006160C168A1600169E1604169A161244967
:10EB00000978002901D00021616000BF21496068B7
:10EB10000968401A0002000A1F49884208D21D49AC
:10EB20006068096803F004FFA168401820600FE0E6
:10EB300018486168006803F0FBFE0746A068B84209
:10EB400003D9A068C01B206001E00020206000BF46
:10EB500000206060A060012020740020E061204659
:10EB600004F096F800BF002DA1D1084800780749AD
:10EB7000497888429BD104480068B04201D0012006
:10EB8000F8BD0020FCE70000E4220020DC22002089
:10EB9000FD220020E8220020FFFF7F00F8B5054697
:10EBA0003448057000780300FDF772F80504111E63
:10EBB0002B4F5B002F480078FDF7AEFB0646002385
:10EBC000012231462C48FFF72FF904464AE0294834
:10EBD0000078FDF7A1FB06460023012231462748B5
:10EBE000FFF722F904463DE022480078FDF794FB48
:10EBF00006460023012231462148FFF715F9044655
:10EC000030E02048007800280FD000201D4908700F
:10EC100018480078FDF780FB0646002301223146A4
:10EC20001948FFF701F904460EE001201749086072
:10EC30000020009014480123144A0168FFF73EFAAF
:10EC400004460120124908700CE00120FDF764FB26
:10EC500006460023012231460848FFF7E5F804463E
:10EC600000E000BF00BF002C03D00AA1032002F087
:10EC7000F1FAF8BD6C20002090230020A023002092
:10EC8000B0230020A0200020C0230020542000201A
:10EC90009F2000204150503A494E464F3A66735FDC
:10ECA0006572617365206572726F720D0A000000F3
:10ECB000F0B599B0002018901790082016907D208C
:10ECC000C000149000201290119010900F900E90A0
:10ECD0000D9000260C900B9001200A90000700690F
:10ECE0000990012000074069401E0890002002F0B2
:10ECF00045FB044600BF2746002F04D000BF38461E
:10ED0000FDF766FB00BF00BF0120BC490870FDF79E
:10ED100023FFFDF7A5FE0120B9490870FEF72EFF7D
:10ED2000044600BF2746002F04D000BF3846FDF739
:10ED30004FFB00BF00BFFFF759FE03F009FBB148CE
:10ED400000F096FE0020B0490870FDF787FC04F043
:10ED500037FEF92080020078FF281CD1AB480268FA
:10ED6000ABA1132002F0B8FAA848006801210904F9
:10ED70000840002807D00020AA490870AAA1132043
:10ED800002F068FA16E00120A6490870A7A1132036
:10ED900002F060FA0EE00120A2490870A7A113203A
:10EDA00002F058FAA1A1132002F054FAF9208002CF
:10EDB000FFF702F80120A7498863FB25AD02002672
:10EDC00006E0B000285CFF2800D003E0701CC6B24B
:10EDD000062EF6DB00BF01209F49087028789F4966
:10EDE0004870297D9D4881709DA1132002F032FA60
:10EDF0009A4842789CA1132002F06EFA97488278D4
:10EE000099A1132002F068FA99A1132002F022FAC6
:10EE1000984903C907910690032069468876964A67
:10EE200006A9964801F08AF8044600BF2746002F3D
:10EE300004D000BF3846FDF7CBFA00BF00BF8F48B3
:10EE4000169901F0E7F81590012003460090002183
:10EE50008A48159A01F052F8894A06A9894801F0B2
:10EE60006DF8044600BF2746002F04D000BF384687
:10EE7000FDF7AEFA00BF00BF8248149901F0CAF84E
:10EE8000139001200346009000217E48139A01F060
:10EE900035F87DA1032002F0DDF98248027882A1D5
:10EEA000032002F019FA7F48427887A1032002F07C
:10EEB00013FAA5207B49487100217A48817167487F
:10EEC00041787848C171654881787648017204219B
:10EED00041720520734908704D2001F019FB00F0C4
:10EEE00077FC64480830006805900320694648753F
:10EEF0007D4A05A90F2000F0EFFB7B4A05A91120F0
:10EF000000F0EAFB784A05A9122000F0E5FB764AFA
:10EF100005A9132000F0E0FB734A05A9142000F0B6
:10EF2000DBFB714A05A9152000F0D6FB6E4A05A946
:10EF3000162000F0D1FB6C4A05A9172000F0CCFB8D
:10EF4000FFF7C2FA69490860FDF734FF01206849FC
:10EF50000870002002F0EAFF58282BD1654800F025
:10EF600025FF65480078002821D0424B0C330FCB99
:10EF7000049301AB07C31A216846C1711E21817138
:10EF8000192141711821017101208007039000BFF0
:10EF90005A4A01A9574800F03DFE0746002F04D009
:10EFA00000BF3846FDF714FA00BF00BF00BF0120C4
:10EFB0004F49087003F082FF012051490870514900
:10EFC00008702E4800F08AFF01203649C8700020E2
:10EFD0004D49487010904D4908700F9006214C48DB
:10EFE000FCF7C7F80F480078002801D0FEF7EEFBC9
:10EFF000FDF74AFF002019B0F0BD0000FF1F002000
:10F000009B200020643D02009A2000200004004064
:10F010005245534554524541533D25303878200DD3
:10F020000A000000972000206E6F7420636F6C64EC
:10F0300020626F6F74200D0A00000000776F726B02
:10F04000206D6F6465206368616E676564200D0ADA
:10F05000000000004005004090200020BD2000205E
:10F0600052462049443A20002530327820000000E2
:10F070000D0A0000D43D02008D290200543D02001B
:10F08000792902005C3D02004150503A494E464FFA
:10F090003A484944204D6F7573652053746172740A
:10F0A000210D0A00012000204150503A494E464FA0
:10F0B0003A74785F7061796C6F61642E6C656E670D
:10F0C00074683D25640D0A004150503A494E464F40
:10F0D0003A74785F7061796C6F61642E70697065E5
:10F0E0003D25640D0A00000071C701002C2000209E
:10F0F00095200020883D0200A120002085260200E6
:10F100009920002026200020242F00203C200020D1
:10F110004C20002038B5044607A0006800906846DF
:10F12000047001F0D7F9054600BF002D01D0284634
:10F1300038BD00BF00BFFBE73EBCBCBC70B5054698
:10F1400000BF012000BF0E48457003460322002186
:10F150000C48FDF715FA0446002009494870002CB8
:10F160000CD0082C0AD00848844207D007488442B3
:10F1700004D000BF2046FDF72BF900BF70BD000092
:10F18000BA200020082400200430000001340000D0
:10F19000014604480088814201DA481C00E0002052
:10F1A000C0B27047D8220020014948607047000073
:10F1B000007500400146044808180068002801D086
:10F1C000012070470020FCE7007000400021024A47
:10F1D000821811607047000000700040014988608B
:10F1E000704700000073004001494860704700000C
:10F1F0000073004030B502460B46D4085207520F48
:10F20000012090401D5D284030BD0146012080074F
:10F2100008180068002801D0012070470020FCE792
:10F22000002101229207821811607047014988600D
:10F23000704700000003004001494860704700002B
:10F240000003004001218A0782181160704710B541
:10F2500004467D21C9006143084600F00BF810BD4B
:10F2600010B504467D21C9006143084600F022F82C
:10F2700010BD0000002800D1704700BF00BF00BFD4
:10F2800000BF00BF00BF00BF00BF00BF0749096843
:10F29000074A914200D101E000BF00BF0146013999
:10F2A000084600D0EAE700BFE6E700008C23002014
:10F2B0000024F400002800D1704700BF00BF00BF49
:10F2C00000BF00BF00BF00BF00BF00BF0749096803
:10F2D000074A914200D101E000BF00BF0146013959
:10F2E000084600D0EAE700BFE6E700008C230020D4
:10F2F0000024F400002800D1704700BF00BF00BF09
:10F3000000BF00BF00BF00BF00BF00BF07490968C2
:10F31000074A914200D101E000BF00BF0146013918
:10F32000084600D0EAE700BFE6E700008C23002093
:10F330000024F40070B505460E461E48807C022865
:10F3400002D11124204670BD02201A498874084653
:10F35000406888600E74002048740846C56089685B
:10F360000868FFF721FFFF200130FFF72FFF00BFE4
:10F3700001201149086000BF0E480068002803D032
:10F380000120FFF731FF11E00EE000BFFF20013048
:10F39000FFF710FF0028F9D0FCF754FF002803D036
:10F3A00001200449887400E0EFE700BF00242046F4
:10F3B000C9E700004C280020007500400021416092
:10F3C00008494968002902D10649486008E0054A11
:10F3D000516800E049684A68002AFBD1486000BFD4
:10F3E000704700004C28002070B504460D460E48BA
:10F3F000807C002802D00826304670BDFF200130F6
:10F40000FFF7E4FE002D06D0002C00D1074C217838
:10F41000072000F0ADF80448056001200249887417
:10F4200000263046E9E700004C280020B33E0200E9
:10F4300000BF01200149086000BF70470070004014
:10F4400010B500200A494860072000BF0121814013
:10F45000084A116000BF00BF0120FFF7BFFE00BFD8
:10F4600001200549086000BF00200149887410BDD3
:10F470004C28002080E100E00470004010B500241A
:10F4800017480078002801D0852427E0002014497F
:10F49000886048600861C86000BF00BF41098900FA
:10F4A000104A89180968012282401140002901D0C0
:10F4B000012100E00021002903D10321002000F0F8
:10F4C00057F800BF03F0D8F8002804D101200649FE
:10F4D000886100BF00BF012001490870204610BDAF
:10F4E0005827002000E100E00005004038B5044640
:10F4F0001A488078002813D0002C02D001206168BF
:10F500008847002100916846FCF7AAFF1348C068AD
:10F51000401C1249C86068460078FCF7CBFF1BE02E
:10F52000002000906846FCF79BFF002C04D0214689
:10F530000A481030FFF748FA0848C068002801D18F
:10F54000FFF766FA0548C068401C0449C860684671
:10F550000078FCF7AFFF00BF38BD0000582700203F
:10F5600010B50446002C01D1FDF760FA10BD000073
:10F5700070B504460D4629462046FCF7D9F800BF71
:10F58000E106C90E012088400549086000BF00BFA0
:10F59000E106C90E012088400249086000BF70BD25
:10F5A00080E200E000E100E001460803020E50B2F4
:10F5B000704701460803020E50B2704770B5054609
:10F5C000284602F0C5FA002804D00021284601F0A0
:10F5D000E1F91EE0284602F0C7FA002819D02846B3
:10F5E000FDF7ACF9044620460A4951221201891858
:10F5F0008200895849084900064A51231B01D21844
:10F600008300D15000BF0120A0400349886000BFA3
:10F6100000BF70BD0060004000630040F3B581B0E2
:10F620000D46019802F094FA00281DD00198FDF7CC
:10F6300085F9001F26490E5CB411032C09D10198ED
:10F6400001F0E1F9002801D0032000E00220074684
:10F6500005E0012C01D1022000E0032007463946D5
:10F66000019801F097F931E0019802F07DFA002845
:10F670002CD00198FDF762F90446A000FF3001305C
:10F6800086B22046134951221201891882008958F6
:10F69000012211430F4A51231B01D2188300D1507C
:10F6A00000BF304601F06AFA002D0ED00198FDF738
:10F6B00045F90090FDF7FEF80746002F04D0012120
:10F6C000A140084601F06EFA00BF00BFFEBD000079
:10F6D000BC27002000600040F7B584B004460E4609
:10F6E00000200390204602F025FA002802D00820CE
:10F6F000039063E0F27820460699FDF7E3F80546AB
:10F70000681C002857D0B078002813D000BF00BF75
:10F71000052212071046A20007231B02C3189A589D
:10F7200002239A431146A20007231B02C3189950D3
:10F7300000BF0BE07778002000903B460246014670
:10F740000190204601F069F800BF00BFF078002862
:10F7500026D037781B48512109014018A90040588C
:10F76000194908401749512212018918AA008850E6
:10F770001448512109014018A900415820021F22B4
:10F78000120210403A0403231B041A4010430143A1
:10F790000C48512212018018AA00815000BF0CE0D1
:10F7A000281F0A49085C31788901084342B2281FA2
:10F7B00006490A5401E00420039000BF039807B0F3
:10F7C000F0BD000000600040FFE0FCFFBC2700200F
:10F7D00070B51548007E002802D00825284670BD67
:10F7E000002404E0204602F0CFF9601CC4B2202CB3
:10F7F000F8DB002404E02046FDF74CF8601CC4B29E
:10F800000C2CF8DB03210620FFF7B2FEFF207D3031
:10F8100001F0B4F90120C00701F0C4F90121024848
:10F82000017600252846DAE7AC27002000BF01203A
:10F830000549086000BF00BF00200449086000BF00
:10F840000120034908707047042001400025014051
:10F85000C022002000BF01200549086000BF00BF92
:10F86000044A106000BF022003490870704700007E
:10F870000025014000200140C0220020F8B50446C8
:10F880000F4632480078002802D008263046F8BDDE
:10F89000002C00D12E4C002F02D02E48076002E031
:10F8A00007263046F3E760782B49886000BF0021C7
:10F8B000E06801F024F80121606801F020F80121DE
:10F8C000A06801F01CF8201D07C8234B186259627C
:10F8D000DA6100BF206920494031086000BF207D07
:10F8E0001946486000BF01201C49096801431B4AB2
:10F8F000116000BF607D002805D000BF01201946BF
:10F90000886200BF05E000BF00201349886200BF85
:10F9100000BF04252078082805D020780E4908610A
:10F9200000BF02200543A07D002801D0012005432F
:10F9300000BF0B48456000BFE17D1220FFF718FEB5
:10F9400001200249087000263046A0E7C0220020AE
:10F95000443E0200BC22002000250140002201405C
:10F960000023014000B5FFF761FF122000BF012115
:10F970008140044A116000BF00BF002002490870A6
:10F9800000BD000080E100E0C02200200120044909
:10F99000886000BF00BF0349086000BF70470000D7
:10F9A00000D3004004D00040FFB585B004460E46A9
:10F9B000154601200004B0400490B000FF304130F3
:10F9C00080B203902068049901F082FD20680499B8
:10F9D00001F08BFD2D022D0A6079410040181F496E
:10F9E00040184078002822D02A463146206801F08D
:10F9F00065FD2068052109024118496802910298B5
:10FA0000401B01900298A84203D215490198401862
:10FA100001906079410040181049401881780198A0
:10FA2000814203DD0D27384609B0F0BD04E02A46C7
:10FA30003146206801F042FD0898002807D0206870
:10FA4000039901F042FD2068049901F053FD2068FC
:10FA5000049901F042FD00273846E5E7C82200205E
:10FA6000FFFFFF00082102680123535000BF7047C9
:10FA700010B504460421206801F048FD0120617999
:10FA80004A008918014A505410BD0000C8220020C5
:10FA900010B504460021206801F038FD022061798C
:10FAA0004A008918014A505410BD0000C8220020A5
:10FAB000F8B504460D461746002F04D06079800043
:10FAC00019490F5002E007263046F8BD6079410021
:10FAD00040181649085C002802D008263046F4E792
:10FAE000A97804202056FFF743FD298820680522C5
:10FAF00012028218916000BF287961794A00891842
:10FB00000A4A89184870E87861794A008918074AD2
:10FB100089188870012061794A008918034A505475
:10FB200000263046D1E70000C4220020C822002071
:10FB3000F7B582B00C46164601273F04FF2041303E
:10FB4000019000251AE03946029801F0D8FC0028FF
:10FB50000ED00199029801F0C5FC002808D0019947
:10FB6000029801F0B2FCE8B2A2001E4B99588847F7
:10FB70007F000198001D80B201906D1CB542E2D358
:10FB8000FF20013001900121029801F0B8FC00280B
:10FB90000ED00199029801F0A5FC002808D0019927
:10FBA000029801F092FCA0000E4A115804208847E8
:10FBB000FF20053001900221029801F0A0FC0028EE
:10FBC0000ED00199029801F08DFC002808D001990F
:10FBD000029801F07AFCA000024A115805208847DB
:10FBE00005B0F0BDC4220020F8B504460D46FF263E
:10FBF000013601273146206801F067FC394620684C
:10FC000001F06BFC002D03D03946206801F072FC36
:10FC1000F8BD0000F7B586B007460C46787940017C
:10FC20005849401805900598007E002804D0082007
:10FC30000490049809B0F0BD059908980860207BED
:10FC4000012803DC207800F0C5FE02E0207800F0F7
:10FC5000F3FE0121052000070722120280182278F6
:10FC6000920081506078FF2808D060780390039854
:10FC700000F0B0FE039800F081FE02E00020C043D7
:10FC80000390A078FF280CD0A578002600200090D3
:10FC90003346024601460190284600F0E8FD00BFC9
:10FCA00001E00025ED43E078FF2805D0E07800F082
:10FCB000C3FEE07800F062FEE07879794901314ACC
:10FCC000891888763E682378039805221202B218B4
:10FCD0009360052109027118C86005210902711895
:10FCE0000D6100BFA068052109027118486200BFBC
:10FCF000217B637B002B01D0012200E00022104613
:10FD0000002906D0012906D0022907D0032908D0EE
:10FD100000BF00BF08E00222104305E004221043A8
:10FD200002E00622104300BF00BF05221202B218F3
:10FD3000506500BF607979794901124A8918C876FF
:10FD400005980068002803D00421304601F0E9FB43
:10FD500000BF0120052109027118086000BF059845
:10FD60000068002804D0217904203856FFF700FCF1
:10FD70000021059841760121059801760020049024
:10FD8000049857E7E4270020FFB585B00C461546D8
:10FD90001E460E9F01940396684605720774002262
:10FDA00001A9059800F02EF809B0F0BD70B5044621
:10FDB0006079400111494518286800280BD00420BB
:10FDC000205600BFC206D20E012191400C4A11609C
:10FDD00000BF00BF00BF26682868002804D00021AB
:10FDE000C943304601F098FB00BF002005210902FD
:10FDF0007118086000BF287670BD0000E42700205D
:10FE000080E100E0F7B582B005460E466879400112
:10FE10001B49441800200190607E002804D0112066
:10FE20000190019805B0F0BD2068002806D014218B
:10FE300004980840002801D10120607631468EC91F
:10FE4000204608308EC0607F400840006077607FA9
:10FE5000022188436077A07EFF2802D0A07E00F0B8
:10FE6000B9FD0498002804D0002060760620019097
:10FE700004E032462146286802F00AFC0198D1E7E6
:10FE8000E4270020F8B505460C4616461F462046D6
:10FE900001F057FB0090002F04D02868009901F072
:10FEA0005DFB03E02868009901F053FB2B68A1007B
:10FEB000152292019818465000BFF8BD10B50446AF
:10FEC0001021206801F057FB012120790C225043BA
:10FED000014A8018017210BD0428002010B50446A4
:10FEE0000021206801F047FB022120790C225043B9
:10FEF000014A8018017210BD04280020F8B505469B
:10FF00000E4617461C46FF220132B2400123B34081
:10FF10001A431146286801F026FB2868012149028E
:10FF20000958214301225202115000BF3A4631467E
:10FF30002846069BFFF7A6FFF8BD0000F7B582B084
:10FF400004460D4620790C21484331494618307A41
:10FF5000002803D00827384605B0F0BD04980028D3
:10FF600002D107273846F7E7049830606868706068
:10FF7000002001900BE0019801F0DDFA009020686C
:10FF8000009901F0E3FA0198401CC0B20190617938
:10FF900001988142EFDC2068FFF70BFB0090E978C5
:10FFA000FFF7E6FA69782068052212028218526883
:10FFB00052085200CB07DB0F1A4305231B02C3185C
:10FFC0005A6000BFA9782068052212028218926840
:10FFD000920892008B079B0F1A4305231B02C3183C
:10FFE0009A6000BF297820680522120282181269DF
:10FFF000120912010B071B0F1A4305231B02C3181A
:020000040002F8
:100000001A6100BF0120307200273846A4E70000C3
:100010000428002010B502461368052424021C1988
:10002000206900BF03467D24E4014C43DC402046A8
:1000300010BD0000FEB505460E46174628791C2166
:1000400048432049441800200290E07E002803D055
:10005000082002900298FEBD31462846FCF74AFA75
:100060006760306920606068002818D0307F019098
:10007000FF211D31286801F0B4FAFF2145312868BD
:1000800001F0AFFA1049286801F0BCFA2868FFF7C0
:100090008BFA00900199FFF76BFA00BF00BF00BF19
:1000A00028680421052212028218116000BF00BFD7
:1000B0000020E0752076A0750120E0760020A07673
:1000C0000298C8E7C827002080000200F8B505465E
:1000D0000E46174628791C214843094944182846EA
:1000E00000F05CF8002803D0112000900098F8BDC3
:1000F000A775A6600020A082284600F003F8F6E766
:10010000C827002070B5044620791C2148432249A5
:1001100045180026FF211D31206801F062FA0821F0
:10012000206801F080FA2946206803F07DFA6868AB
:1001300000282FD115E000BFFF211D31206801F0FC
:1001400048FA002804D1A88AFF2101318842F3D15E
:10015000A88AFF210131884203D02946206803F094
:1001600063FAA88AA97D8842E5DBA88AFF210131CC
:10017000884201D10F260BE000BFFF211D3120680E
:1001800001F027FA0028F8D00C21206801F04BFA82
:100190000020A875304670BDC827002001460879A8
:1001A0001C225043044A8018807D002801D0012081
:1001B00070470020FCE70000C827002070B5044607
:1001C00020791C2148431449461800BF20680021AB
:1001D000052212028218116000BF00BF706800285B
:1001E00013D000BF0D49206801F007FA2068FFF71F
:1001F000DBF905462846C206D20E01219140084A85
:10020000116000BF00BF00BF00BF204601F0C4FC6A
:100210000020F076706070BDC827002084020200C4
:1002200080E100E010B50F2080020B4988600020BB
:100230000A49087002F028F824210948FAF799FFC2
:1002400009210848FAF795FF1720FBF73FFA03202A
:1002500005490860002010BD00F501405123002031
:1002600032320020283200200012004010B504462F
:100270002078002804D0012806D0022815D109E0F2
:1002800001200B49087010E001200A49087000F0B5
:1002900017F80AE001200849087000E000BF07488D
:1002A00000F0A0F80028F9D000BF00BF10BD00008A
:1002B000262000202720002028200020E0230020E6
:1002C00010B500BF09480078002801D1082010BDF2
:1002D00000BF0120FBF7FAF9002005498862086297
:1002E00048620120FBF706FA0020F0E750230020C7
:1002F0006430002010B5044600BF0D480078002887
:1003000001D1082010BD00BF00BF002C01D10E207C
:10031000F8E700BF0120FBF7D9F906480068206024
:100320000020044908600120FBF7E4F90020E9E718
:10033000502300207023002070B5044600BF002C1D
:1003400001D10E2070BD00BF1F480078002806D0E4
:10035000FFF768FF0546002D01D02846F2E71B494C
:1003600060680860182221461948FAF7E9FE002063
:100370001849086024211848FAF7FBFE092117489C
:10038000FAF7F7FE03F0B8FAFEF750F902F0B4FA04
:1003900001F048FC0E48407C8107890F0120FBF7E3
:1003A00003FA0B48807C8107890F1720FBF7FCF9C3
:1003B0001720FBF79FF90020094908700120024926
:1003C00008700020BEE700005023002058230020C2
:1003D000242F0020702300203232002028320020F9
:1003E0005123002010B5044600BF2648007800289D
:1003F00001D1082010BD00BF00BF002C01D10E208C
:10040000F8E700BF2048806A002801D10520F1E705
:100410000120FBF75BF91C48406A80001A49085824
:10042000007820700846406A800008584078607064
:100430000846406A800008588078A0700846406AE4
:10044000800008580079207122780846406A8000B0
:100450000B461858411D601DFAF772FE0A48406AA3
:10046000401C09494862082801D300204862064818
:10047000806A401E044988620120FBF73BF9002096
:10048000B8E7000050230020B831002010B5044622
:1004900000BF0C480078002801D0112010BD00BF1B
:1004A00000BF022C01DD062C01DB0720F6E700BFB0
:1004B000054844740549C87C0549096888470020F7
:1004C000ECE70000512300205C230020242F0020B3
:1004D0008823002010B5044600BF0B480078002890
:1004E00001D0112010BD00BF00BF002C01D10E2093
:1004F000F8E700BF042221460448FAF721FE012054
:1005000003F088F90020EDE7512300205C23002050
:10051000014600BF08480078002801D0112070472C
:1005200000BF00BF7D2901D90720F8E700BF034ABB
:10053000D1740020F3E70000512300205C23002049
:1005400010B5044600BF08480078002801D01120EB
:1005500010BD00BF0548807AA04203D003488472D2
:1005600003F0F8F90020F3E751230020242F0020A6
:1005700010B500BF19480078002801D0112010BD27
:1005800000BF0020C043164988600020154908615B
:10059000154816490860FF201830154908601020DA
:1005A0000F49486004200D4908701248807C1249A8
:1005B00008631048C07C8860104848600120FBF741
:1005C0007BF80120FBF796F8002006494860886018
:1005D000086101200A4948600020D0E7512300202B
:1005E000001300400011004041160200802300204B
:1005F000001200405C23002000150040063200205D
:10060000001000400E480078042816D100200D4943
:100610000860401E0C49886000200C4908600C49A5
:10062000086101200B49086100BF094800690028E2
:10063000FBD00020024908707047FF200230FBE722
:1006400051230020001200400013004080230020AE
:10065000001100400010004070B504460D4600BF78
:1006600009480078002801D0112070BD00BF00BFEC
:10067000082C01DB0720F8E700BF044805550420DB
:1006800003F0C8F80020F0E7512300206423002085
:1006900010B5044600BF3C480078002801D108206E
:1006A00010BD00BF00BF002C01D10E20F8E700BF35
:1006B00000BF207800280BD02078202808DC3348A1
:1006C0000078002806D120783049C97C884201DDB5
:1006D0000920E5E700BF00BF2D48806A082801D344
:1006E0000420DDE700BF29484078002808D1E078E1
:1006F000002805D02548007D002801D10620CFE73D
:100700000120FAF7E3FF2249096A8900204A50587C
:1007100025222146FAF714FD61781E4A515C481CD7
:10072000C117890F091889108900411A6278194B7D
:10073000995460781946085C1549096A8900144A79
:10074000515808711046006A401C1146086208287A
:1007500001D3002008620E48806A401C0C49886260
:100760000120FAF7C7FF09484078002809D1074857
:10077000007C002805D108480078002801D101F04C
:10078000D9FF00208CE7000050230020242F0020F8
:10079000643000202832002051230020F0B500BF33
:1007A00005252D072C4655000D439E003543059E1B
:1007B00036023543069E36043543860007273F023E
:1007C000E719BD51F0BDF0B500BF05252D072C463A
:1007D00055000D439E003543059E36023543069E67
:1007E00036043543860007273F02E719BD51F0BDA7
:1007F000F0B500BF05252D072C4655000D439E0082
:100800003543059E36023543069E36043543860041
:1008100007273F02E719BD51F0BDF0B500BF052520
:100820002D072C4655000D439E003543059E36028C
:100830003543069E36043543860007273F02E719F5
:10084000BD51F0BDF0B500BF05252D072C46550064
:100850000D439E003543059E36023543069E360401
:100860003543860007273F02E719BD51F0BDF0B5BB
:1008700000BF05252D072C4655000D439E0035432E
:10088000059E36023543069E36043543860007270B
:100890003F02E719BD51F0BD1CB504460020009091
:1008A00003460122014601902046FFF7CBFF1CBD05
:1008B0007CB505460C4600200090234602460146C2
:1008C00001902846FFF76AFF7CBD7CB505460C46C3
:1008D0000020009023460246014601902846FFF77B
:1008E00072FF7CBD7CB505460C4600200090234677
:1008F0000246014601902846FFF7A4FF7CBDFEB5E5
:10090000002217460192029200BF05231B070093A5
:10091000019B5B0013438C0023433C022343029C56
:1009200024042343850007263602009CA419635142
:1009300000BFFEBD1CB50446002000900346012206
:10094000114601902046FFF729FF1CBD1CB5044647
:100950000020009003460122114601902046FFF737
:1009600032FF1CBD1CB50446002000900346012246
:10097000114601902046FFF765FF1CBD1CB50446DB
:100980000020009003460122114601902046FFF707
:100990006EFF1CBD30B50A4600BF05231B07194674
:1009A0008300072424020C19E35803242404A343DE
:1009B000840007252D024D192B51830007242402A2
:1009C0000C19E35814042343840007252D024D1904
:1009D0002B5130BD00BF052109070A460121814086
:1009E00005231B02D318D96000BF7047014600BF22
:1009F00005200007024600BF001510180069C84016
:100A0000C007C00F7047014600BF0520000702461F
:100A100000BF001510180069C840C007C00F70471C
:100A200000BF052109070A460121814005231B0259
:100A3000D318996000BF704700BF052109070A4617
:100A40000121814005231B02D318996000BF704724
:100A500010B500290DD100BF00BF052212071346B3
:100A600001228240052424021C19E26000BF00BF5D
:100A70000DE000BF00BF052212071346012282408D
:100A8000052424021C19A26000BF00BF00BF10BDD6
:100A900010B500290DD100BF00BF05221207134673
:100AA00001228240052424021C19E26000BF00BF1D
:100AB0000DE000BF00BF052212071346012282404D
:100AC000052424021C19A26000BF00BF00BF10BD96
